:020000040000FA
:0400000007EF00F016
:100008007A828DED1EF05DEF1CF04EC0D9FF4FC017
:10001800DAFFDECFF6FFDDCFF7FF0800F550250A3F
:10002800D8A4DAD34EC0D9FF4FC0DAFFDE2A000EBB
:10003800DD22000E01014A6F000E496F49C1D5F05B
:100048004AC1D6F00001D369D469000E836F000E4F
:1000580014D0D5814EC0D9FF4FC0DAFFDE2A000E7A
:10006800DD222ED0D583F6D7D585F4D7D587F2D71C
:10007800D589F0D7000E836F010E826F21D04EC054
:10008800D9FF4FC0DAFFDECFF6FFDDCFF7FF08005C
:10009800F550526E536A5350000AD8A4EBD7525009
:1000A800200AD8B4E3D7030AD8B4E2D7080AD8B4E8
:1000B800DBD7060AD8B4CDD71D0AD8B4D3D7DAD738
:1000C80082518311D8B4DBD7D5B1D5934EC0D9FFAF
:1000D8004FC0DAFFDECFF6FFDDCFF7FF0800F5509F
:1000E8002A0AD8A426D04EC0D9FF4FC0DAFFDE2A8C
:1000F800000EDD2250C0D9FF51C0DAFFDFCF52F029
:10010800020EDE26DFCF53F0000EDD2252C0D9FFEB
:1001180053C0DAFFDECF49F1DDCF4AF101014AAF22
:1001280042D00001D5810101496D4A1FD8B04A2B40
:100138003AD04EC0D9FF4FC0DAFFDECF0DF0DDCF89
:100148000EF0DEEC17F00DC049F10EC04AF107D0F1
:100158004EC0D9FF4FC0DAFFDE2A000EDD22D00ED6
:10016800526EFF0E536E4EC0D9FF4FC0DAFFDECF7E
:10017800F6FFDDCFF7FF0800F550546E556A525070
:10018800542653505522555006E10A0E545CD8B0F7
:1001980002D0010E01D0000E0001846F856B8451DE
:1001A8008511D8A4D5D74EC0D9FF4FC0DAFFDECF0E
:1001B800F6FFDDCFF7FF0800F550630AD8A427D073
:1001C8004EC0D9FF4FC0DAFFDE2A000EDD2250C034
:1001D800D9FF51C0DAFFDFCF52F0020EDE26DFCFA3
:1001E80053F0000EDD2252C0D9FF53C0DAFFDF50B2
:1001F80000018E6F4CC025F04DC026F08EC027F050
:10020800F8EC1DF025C04CF026C04DF012004EC091
:10021800D9FF4FC0DAFFDECFF6FFDDCFF7FF0800CA
:10022800F550640AD8B40DD04EC0D9FF4FC0DAFFDC
:10023800DECFF6FFDDCFF7FF0800F550690AD8A436
:1002480040D04EC0D9FF4FC0DAFFDE2A000EDD22B3
:1002580050C0D9FF51C0DAFFDFCF52F0020EDE26C0
:10026800DFCF53F0000EDD2252C0D9FF53C0DAFFB2
:10027800DECF86F0DDCF87F00001000E87BFFF0ECE
:10028800886F896F8A6F8B6F8C6F8D6F4CC025F06C
:100298004DC026F086C027F087C028F088C029F016
:1002A80089C02AF08AC02BF08BC02CF08CC02DF0AE
:1002B8008DC02EF0E1EC11F025C04CF026C04DF0B9
:1002C80012004EC0D9FF4FC0DAFFDECF06F0DDCFF7
:1002D80007F0F30E086EFF0E096E000E0B6E020E8D
:1002E8000A6EEDEC1AF006500710D8B416D04EC0BE
:1002F800D9FF4FC0DAFFDECF06F0DDCF07F0F60EEC
:10030800086EFF0E096E000E0B6E020E0A6EEDEC03
:100318001AF006500710D8A45CD0020E4EC0D9FFC0
:100328004FC0DAFFDE26000EDD2250C0D9FF51C0D3
:10033800DAFFDFCF52F0040EDE26DFCF53F0000ED7
:10034800DD2252C0D9FF53C0DAFFDECF54F0DECF32
:1003580055F0DECF56F0DECF57F054C058F055C0F8
:1003680059F056C05AF057C05BF05C6A5BBE5C68D7
:100378005CC05DF05CC05EF05CC05FF058C086F0A9
:1003880059C087F05AC088F05BC089F05CC08AF019
:100398005DC08BF05EC08CF05FC08DF04CC025F066
:1003A8004DC026F086C027F087C028F088C029F005
:1003B80089C02AF08AC02BF08BC02CF08CC02DF09D
:1003C8008DC02EF0E1EC11F025C04CF026C04DF0A8
:1003D80012004EC0D9FF4FC0DAFFDECFF6FFDDCFE7
:1003E800F7FF0800F550730AD8A42AD04EC0D9FFE9
:1003F8004FC0DAFFDE2A000EDD2250C0D9FF51C0FF
:10040800DAFFDFCF52F0020EDE26DFCF53F0000E08
:10041800DD2252C0D9FF53C0DAFFDECF80F0DDCF36
:1004280081F04CC013F04DC014F080C015F081C0AD
:1004380016F09CEC16F013C04CF014C04DF01200EE
:100448004EC0D9FF4FC0DAFFDECFF6FFDDCFF7FF92
:100458000800F550750AD8A441D04EC0D9FF4FC046
:10046800DAFFDE2A000EDD2250C0D9FF51C0DAFFC4
:10047800DFCF52F0020EDE26DFCF53F0000EDD2272
:1004880052C0D9FF53C0DAFFDECF54F0DDCF55F0AC
:1004980054C08FF055C090F00001916B926B936B34
:1004A800946B956B966B4CC025F04DC026F08FC0B1
:1004B80027F090C028F091C029F092C02AF093C08C
:1004C8002BF094C02CF095C02DF096C02EF01FECA8
:1004D80015F025C04CF026C04DF012004EC0D9FFD3
:1004E8004FC0DAFFDECF06F0DDCF07F0ED0E086E65
:1004F800FF0E096E000E0B6E020E0A6EEDEC1AF07E
:1005080006500710D8A448D0020E4EC0D9FF4FC0DD
:10051800DAFFDE26000EDD2250C0D9FF51C0DAFF17
:10052800DFCF52F0040EDE26DFCF53F0000EDD22BF
:1005380052C0D9FF53C0DAFFDECF54F0DECF55F0FA
:10054800DECF56F0DECF57F0545000018F6F555074
:10055800906F5650916F5750926F936B946B956B49
:10056800966B4CC025F04DC026F08FC027F090C088
:1005780028F091C029F092C02AF093C02BF094C0C3
:100588002CF095C02DF096C02EF01FEC15F025C06C
:100598004CF026C04DF012004EC0D9FF4FC0DAFF14
:1005A800DECFF6FFDDCFF7FF0800F550780AD8B4A4
:1005B8000DD04EC0D9FF4FC0DAFFDECFF6FFDDCF3A
:1005C800F7FF0800F550580AD8A44ED04EC0D9FFFE
:1005D8004FC0DAFFDECFF6FFDDCFF7FF0800F5CF1B
:1005E8008EF04EC0D9FF4FC0DAFFDE2A000EDD22A2
:1005F80050C0D9FF51C0DAFFDFCF52F0020EDE261D
:10060800DFCF53F0000EDD2252C0D9FF53C0DAFF0E
:10061800DECF54F0DDCF55F054C08FF055C090F0C8
:100628000001916B926B936B946B956B966B4CC0BE
:1006380025F04DC026F08FC027F090C028F091C05B
:1006480029F092C02AF093C02BF094C02CF095C0EA
:100658002DF096C02EF08EC02FF005EC13F025C0BB
:100668004CF026C04DF012004EC0D9FF4FC0DAFF43
:10067800DECF06F0DDCF07F0F90E086EFF0E096E2B
:10068800000E0B6E020E0A6EEDEC1AF00650071003
:10069800D8B416D04EC0D9FF4FC0DAFFDECF06F06F
:1006A800DDCF07F0F00E086EFF0E096E000E0B6E20
:1006B800020E0A6EEDEC1AF006500710D8A45DD0B1
:1006C8004EC0D9FF4FC0DAFFDECF52F0DDCF53F076
:1006D800010E5226000E532252C0F6FF53C0F7FFF8
:1006E8000800F5CF8EF0020E4EC0D9FF4FC0DAFFDA
:1006F800DE26000EDD2250C0D9FF51C0DAFFDFCF61
:1007080052F0040EDE26DFCF53F0000EDD2252C079
:10071800D9FF53C0DAFFDECF54F0DECF55F0DECF7D
:1007280056F0DECF57F0545000018F6F5550906F40
:100738005650916F5750926F936B946B956B966B65
:100748004CC025F04DC026F08FC027F090C028F08F
:1007580091C029F092C02AF093C02BF094C02CF0DD
:1007680095C02DF096C02EF08EC02FF005EC13F03A
:1007780025C04CF026C04DF012004EC0D9FF4FC026
:10078800DAFFDECFF6FFDDCFF7FF0800F550250AC8
:10079800D8A416D04EC0D9FF4FC0DAFFDE2A000E0B
:1007A800DD22000E0B6E250E0A6E4CC00CF04DC0FB
:1007B8000DF0CFEC1CF0000E4D6E010E4C6E1200C9
:1007C8004EC0D9FF4FC0DAFFDE2A000EDD22000E30
:1007D8004D6E000E4C6E12004EC0D9FF4FC0DAFFAE
:1007E800DECFF6FFDDCFF7FF0800F5500A6E0B6A83
:1007F8004CC00CF04DC00DF0CFEC1CF04EC0D9FF32
:100808004FC0DAFFDE2A000EDD22D5D7E8EC20F053
:10081800000E086E100E076EDBEC20F0E4EC20F002
:1008280064EC20F097EC20F0300E756E750E766E45
:10083800000E776E000E786E000E0101286F140E00
:10084800276F000E406F000E336F000E326FF00EF0
:100858003C6F490E3D6F020E3E6F000E3F6FD9C0D0
:100868002AF1DAC02BF1D7C02CF1D8C02DF1000E37
:10087800006F000E016F000E026F000E036F17EC81
:1008880020F0000E01012F6F000E2E6F000E1A6F60
:10089800000E196F000E1C6F000E1B6F000E1E6FEE
:1008A800000E1D6F000E356F000E346F000E136FB3
:1008B800000E126F000E376F000E366F000E206F9D
:1008C800000E1F6F000E316F000E306F000E226F8A
:1008D800000E216F929092929294929692988988A3
:1008E80075C023F176C024F177C025F178C026F1D0
:1008F800640E010123250001BD6F000E01012421B2
:100908000001BE6F000E010125210001BF6F000E1E
:10091800010126210001C06FBD51755CBE5176589A
:10092800BF517758C0517858D8A0E2D781A802D0D3
:10093800010E01D0000E0101426F42C138F181AAB7
:1009480002D0010E01D0000E416F41C139F1010EF4
:10095800186F01012E4B2F2B42C138F181A802D00C
:10096800010E01D0000E426F41C139F181AA02D0B7
:10097800010E01D0000E416FBCD12EC106F02FC16F
:1009880007F0000E096E640E086E97EC1CF0065016
:100998000710D8A44FD0010ED5EC20F0110E00019D
:1009A800BD6F3A0EE82EFED7BD2FFCD700F0800EA3
:1009B800D5EC20F0070E0001BD6F7D0EE82EFED7A6
:1009C800BD2FFCD7EC0E00019D6FFF0E9E6F75C00A
:1009D8009FF076C0A0F077C0A1F078C0A2F02BEC11
:1009E80020F0900ED5EC20F0E30E00019D6FFF0E75
:1009F8009E6F42C19FF0A06B2BEC20F0C00ED5EC8F
:100A080020F0E60E00019D6FFF0E9E6FD7C09FF08D
:100A1800D8C0A0F02BEC20F0D00ED5EC20F0E00EE2
:100A280000019D6FFF0E9E6FD9C09FF0DAC0A0F045
:100A38002BEC20F027C188F028C189F0000E0001B6
:100A48008A6F000E8B6F800E8C6F3F0E8D6F2AC1E0
:100A58008EF02BC18FF02CC190F02DC191F0CD0EEE
:100A6800926FCC0E936FCC0E946F3D0E956FAFECDA
:100A780010F05DD1010130510001D95D0101216FF4
:100A880031510001DA590101226FD9C030F1DAC0C1
:100A980031F11D4B1E2B3CC1A7F03DC1A8F03EC152
:100AA800A9F03FC1AAF05EEC0CF0A7C036F1A8C0CF
:100AB80037F1010ED5EC20F0110E0001BD6F3A0E92
:100AC800E82EFED7BD2FFCD700F0800ED5EC20F025
:100AD800070E0001BD6F7D0EE82EFED7BD2FFCD797
:100AE800910E00019D6FFF0E9E6F2BEC20F0C00E43
:100AF800D5EC20F0660E00019D6FFF0E9E6F36C18B
:100B08009FF037C1A0F02BEC20F0000E6D6E000EA8
:100B18006C6E010E6E6E010E6F6E000E716E000E21
:100B2800706E8FEC1BF075EC20F0000E0101336F36
:100B3800010E326F020E24D0ECEC1FF00101296F78
:100B48002951D8B4F4D03207D8A03307344B352B09
:100B580032513311D8A40FD0060E406F000E376FF4
:100B6800000E366F34511F2735512023000E356F84
:100B7800000E346FDCD075EC20F0D9D0000E88D090
:100B8800406FD5D0010ED5EC20F0110E0001BD6FDD
:100B98003A0EE82EFED7BD2FFCD700F0800ED5EC1C
:100BA80020F0070E0001BD6F7D0EE82EFED7BD2F89
:100BB800FCD7410E00019D6FFF0E9E6F2BEC20F0BD
:100BC800D9C014F1DAC015F1D7C016F1D8C017F1A1
:100BD800000E0001A16F1E0EA06F000EA36F010E84
:100BE800A26FCD0EA46FCC0EA56FCC0EA66F3D0ED6
:100BF800A76F0B0EA96FB80EA86F3CC1AAF03DC134
:100C0800ABF03EC1ACF03FC1ADF03CEC1AF0000EC9
:100C18006D6E000E6C6E010E6E6E010E6F6E000E24
:100C2800716E000E706E8FEC1BF00F0E076EA00E2B
:100C3800066E3CC108F03DC109F03EC10AF03FC153
:100C48000BF06DEC1DF0000E01012B6F000E2A6FEA
:100C5800000E2D6F000E2C6F000E406F81A802D081
:100C6800010E01D0000E426F81A802D0010E01D002
:100C7800000E386F81AA02D0010E01D0000E416F1C
:100C880081AA02D0010E01D0000E396F50D0050E96
:100C9800010176D786EC20F0000E01013B6F000EB3
:100CA8003A6F3BBF06D03B5114E1300E3A5DD8B0E5
:100CB80010D0D8903A35D96E3B35DA6E780ED926F1
:100CC800010EDA22030EDE6E000EDD6E3A4B3B2B70
:100CD800E8D7000E6D6E000E6C6E010E6E6E010E82
:100CE8006F6E000E716E000E706E8FEC1BF089989F
:100CF800120040510001BD6FBE6BBE51000AD8A45E
:100D080016D0BD51000AD8B438D6010AD8B4B2D624
:100D1800030AD8B411D7010AD8B430D7070AD8B40F
:100D2800B6D7010AD8B4B6D7030AD8B42BD701016D
:100D38003C51755C3D5176583E5177583F51785833
:100D4800D8A01BD0050E406F18D0010142513819A8
:100D5800D8A404D041513919D8B4FBD54251381917
:100D6800D8B402D0194B1A2B41513919D8B402D032
:100D78001B4B1C2B010E406FECD540510001BD6F81
:100D8800BE6BBE51000AD8A4E4D5BD51000AD8B440
:100D9800DCD7010AD8B4DDD5030AD8B4DAD5010AFC
:100DA800D8B4D7D5070AD8B4D4D5010AD8B4D1D580
:100DB800030ACFD516EC1FF0000E0001D16F010E0B
:100DC800D06F000ECA6F000ECB6F000ECC6F000EF6
:100DD800CD6FCAC006F0CBC007F0CCC008F0CDC0BC
:100DE80009F00A0E0A6E000E0B6E000E0C6E000E55
:100DF8000D6E3AEC1DF00650071008100910D8A423
:100E080050D1E8EC20F0000E086ED00E076EDBEC37
:100E180020F0000E086E000E076EDBEC20F0E4EC0C
:100E280020F0E8EC20F0000E086ED10E076EDBEC27
:100E380020F0000E0001CF6FC30ECF25D96EDA6AFD
:100E4800000EDA22000E52EC20F0DF6E0001CF2BEC
:100E5800050ECF65F1D7010E52EC20F00001C96FE5
:100E6800E4EC20F01ED1800ED5EC20F0070E000136
:100E7800C16F7D0EE82EFED7C12FFCD7D70E00011B
:100E88009D6FFF0E9E6FAF0E9F6FFF0EA06F2BEC36
:100E980020F0B60E00019D6FFE0E9E6FC9C09FF038
:100EA800A06BC8C0A1F0A26BC7C0A3F0A46B2BECC9
:100EB80020F0C00ED5EC20F0C50E00019D6FFE0E8F
:100EC8009E6FC5C09FF0A06BC4C0A1F0A26BC3C049
:100ED800A3F0A46B2BEC20F0900ED5EC20F0D70EED
:100EE80000019D6FFF0E9E6F9B0E9F6FFF0EA06F00
:100EF8002BEC20F0D00ED5EC20F0D70E00019D6F22
:100F0800FF0E9E6FFE0E9F6FFE0EA06F2BEC20F063
:100F1800E0D0800ED5EC20F0070E0001C16F7D0EE9
:100F2800E82EFED7C12FFCD7D70E00019D6FFF0E0C
:100F38009E6F340E9F6FFF0EA06F2BEC20F0C00E3B
:100F4800D5EC20F0D70E00019D6FFF0E9E6FC10EED
:100F58009F6FFF0EA06F2BEC20F00AEC04F0010E3F
:100F6800D5EC20F0110E0001C16F3A0EE82EFED725
:100F7800C12FFCD700F0020E91D0800ED5EC20F0E6
:100F8800070E0001C16F7D0EE82EFED7C12FFCD7DA
:100F9800D70E00019D6FFF0E9E6F1A0E9F6FFF0EFA
:100FA800A06F2BEC20F0C00ED5EC20F0D70E00017E
:100FB8009D6FFF0E9E6F270E9F6FFF0EA06F2BEC8D
:100FC80020F0900ED5EC20F0D70E00019D6FFF0E9B
:100FD8009E6F970E9F6FFE0EA06F2BEC20F0D00E29
:100FE800D5EC20F0D70E00019D6FFF0E9E6FB80E56
:100FF8009F6FFF0EA06F2BEC20F0000E0001D06F4A
:1010080068D0800ED5EC20F0070E0001C16F7D0E70
:10101800E82EFED7C12FFCD7D70E00019D6FFF0E1B
:101028009E6F5B0E9F6FFF0EA06F2BEC20F0C00E23
:10103800D5EC20F0D70E00019D6FFF0E9E6FE20EDB
:101048009F6FFE0EA06F2BEC20F0900ED5EC20F0D9
:10105800D70E00019D6FFF0E9E6F770E9F6FFE0EDD
:10106800A06F2BEC20F035D0D051D8A405D01FECC0
:101078001EF0040E0001D06FD0C0A7F0A86BE7ECFB
:1010880008F0010ED5EC20F0110E0001C16F3A0EE8
:10109800E82EFED7C12FFCD700F0000E0001D16F5B
:1010A80018D00001D151C16FC26BC251000AD8A437
:1010B80010D0C151000AD8B4D6D6010AD8B429D75D
:1010C800030AD8B45AD7010AD8B49BD7070AD8B4A8
:1010D800CBD701014F51D8B465D0000E4F6F81387E
:1010E8000F0B0F0B0001CE6F330ECE25F66EF76A8D
:1010F800FE0EF7220800F5CFD2F0010ED5EC20F055
:10110800110E0001C16F3A0EE82EFED7C12FFCD791
:1011180000F032D0310ED219D8A402D0010E11D06D
:10112800320ED219D8A43ED0030E0BD0310ED219EC
:10113800D8A402D0040E05D0320ED219D8A432D0C9
:10114800000ED16F2FD0310ED219D8A402D0010EC3
:1011580011D0320ED219D8A402D0020E0BD0330E01
:10116800D219D8A402D0030E05D0340ED219D8A4AF
:1011780019D0340ED06FDED70001D151C16FC26BC8
:10118800C251000AD8A40ED0C151000AD8B4C2D79F
:10119800010AD8B407D0030AD8B4C8D7010AD8B40A
:1011A800D2D7070A010E0001CA27000ECB23CC2391
:1011B800CD23040E0001C16F3D0EE82EFED7C12FCE
:1011C800FCD700D006D6800ED5EC20F0070E666E50
:1011D8007D0EE82EFED7662EFCD700F0000E6E6E50
:1011E800010E6D6E000E6B6E32D1800ED5EC20F0C4
:1011F800070E666E7D0EE82EFED7662EFCD700F031
:10120800A7C006F0A8C007F0000E096E600E086EB1
:101218003FEC20F0780E0624D96E010E0720DA6E16
:10122800DECF6FF0DDCF70F0D30E00019D6FFF0EA3
:101238009E6F870E9F6FFF0EA06F6FC0A1F070C0EA
:10124800A2F0D80EA36FFF0EA46F2BEC20F0C00EF7
:10125800D5EC20F0A7C006F0A8C007F0000E096E74
:10126800600E086E3FEC20F07A0E0624D96E010E4F
:101278000720DA6EDECF6FF0DDCF70F0CE0E000102
:101288009D6FFF0E9E6FA70E9F6FFE0EA06F6FC023
:10129800A1F070C0A2F02BEC20F0900ED5EC20F05D
:1012A800D70E00019D6FFF0E9E6FF00E9F6FFE0E12
:1012B800A06F2BEC20F0D00ED5EC20F0D70E00015B
:1012C8009D6FFF0E9E6F870E9F6FFE0EA06F2BEC1B
:1012D80020F0CBD0800ED5EC20F0070E666E7D0E88
:1012E800E82EFED7662EFCD700F0A7C006F0A8C0EF
:1012F80007F0000E096E600E086E3FEC20F07C0EC1
:101308000624D96E010E0720DA6EDECF6FF0DDCF2E
:1013180070F0CA0E00019D6FFF0E9E6FDA0E9F6F70
:10132800FF0EA06F6DC0A1F06EC0A2F0FC0EA36FFF
:10133800FF0EA46F6FC0A5F070C0A6F02BEC20F0D4
:10134800C00ED5EC20F06DC066F06EC067F0D89086
:1013580066366736D89066366736A7C006F0A8C0E6
:1013680007F0000E096E600E086E3FEC20F0780E54
:10137800686E010E696E020E6826000E692206501C
:1013880068260750692266506824D96E675069201C
:10139800DA6EDECF6FF0DDCF70F0CE0E00019D6FFC
:1013A800FF0E9E6FD40E9F6FFE0EA06F6FC0A1F050
:1013B80070C0A2F02BEC20F0900ED5EC20F06DC0A0
:1013C80066F06EC067F0D89066366736D890663695
:1013D8006736A7C006F0A8C007F0000E096E600EB9
:1013E800086E3FEC20F0780E686E010E696E040EF0
:1013F8006826000E69220650682607506922665042
:101408006824D96E67506920DA6EDECF6FF0DDCFC1
:1014180070F0CE0E00019D6FFF0E9E6F670E9F6FDE
:10142800FE0EA06F6FC0A1F070C0A2F02BEC20F0F0
:10143800D00ED5EC20F0D70E00019D6FFF0E9E6FE9
:101448000C0E9F6FFF0EA06F2BEC20F00ED06B5090
:10145800666E676A6750000AD8A407D06650000A0B
:10146800D8B4C3D6010AD8B435D701014F51D8B47E
:1014780070D0000E4F6F81380F0B0F0B6A6E330E52
:101488006A24F66EF76AFE0EF7220800F5CF6CF0B4
:10149800010ED5EC20F0110E666E3A0EE82EFED73E
:1014A800662EFCD700D047D0310E6C18D8A403D0D4
:1014B800010E6B6E4ED0320E6C18D8B4120049D0A3
:1014C800330E6C18D8A407D0000E6B6E000E6E6E2B
:1014D800010E6D6E3ED0320E6C18D8A41DD0A7C078
:1014E80006F0A8C007F0000E096E600E086E3FEC0B
:1014F80020F07C0E0624D96E010E0720DA6EDE502D
:101508006D5C6E50800A686EDE50800A6858D8B0EC
:1015180020D06D4A6E2A1DD0310E6C18D8B46EBE1C
:1015280018D06E5004E1020E6D5CD8A012D06D0682
:10153800D8A06E060ED06B50666E676A6750000AB8
:10154800D8A407D06650000AD8B4AED7010AD8B4D8
:10155800B7D7040E666E3E0EE82EFED7662EFCD771
:1015680076D71750800B206E17501724266E16BE9C
:1015780026802650D8B40DD02628D8A408D0000E2E
:10158800146E000E156E000E166E000E176E168E77
:1015980008D0000E146E000E156E000E166E000EAA
:1015A800176E1B50800B201A1B501B24216E1ABE6D
:1015B80021802150D8B40DD02128D8A408D0000EFD
:1015C800186E000E196E000E1A6E000E1B6E1A8E23
:1015D80008D0000E186E000E196E000E1A6E000E5E
:1015E8001B6E2150D8B403D02650D8A409D0000EC1
:1015F800146E000E156E000E166E000E176E120099
:101608001A501402F3CF2BF0F4CF2CF02B50226E8B
:10161800236A246A256A2C50276E286A296A2A6A4E
:1016280019501502F3CF2BF0F4CF2CF02B502226B3
:10163800000E2322242225222C502726000E2822A1
:1016480029222A2218501602F3CF2BF0F4CF2CF0BF
:101658002B502226000E2322242225222C50272616
:10166800000E282229222A2224C025F023C024F093
:1016780022C023F0226A18501502F3CF2BF0F4CFC2
:101688002CF02B5022262C502322000E2422000E50
:10169800252219501402F3CF2BF0F4CF2CF02B5045
:1016A80022262C502322000E2422000E252224C09C
:1016B80025F023C024F022C023F0226A1850140217
:1016C800F3CF2BF0F4CF2CF02B5022262C502322D2
:1016D800000E2422000E25221A501502F3CF2BF0FB
:1016E800F4CF2CF02B5027262C502822000E29222C
:1016F800000E2A2219501602F3CF2BF0F4CF2CF04B
:101708002B5027262C502822000E2922000E2A2290
:101718001A501602F3CF2BF0F4CF2CF02B501C6E7E
:101728002C501D6E1E6A1F6A1EC01FF01DC01EF0C1
:101738001CC01DF01C6A1C5027261D5028221E5054
:1017480029221F502A2222C01CF023C01DF024C0C9
:101758001EF025C01FF0190E05D0D8901F321E327A
:101768001D321C32E82EF9D71C5027261D5028227E
:101778001E5029221F502A2224C025F023C024F0FD
:1017880022C023F0226A215026C01CF01D6A1C26A4
:10179800000E1D22820E1C242B6EFF0E1D202C6EA7
:1017A8000FD0D8902736283629362A3625BE2780E6
:1017B800D89022362336243625362B06D8A02C0678
:1017C80029AEEFD7000E216E25AE17D0FF0E2214DA
:1017D8001C6EFF0E23141D6EFF0E24141E6E7F0E4A
:1017E80025141F6E1C501D101E101F10D8B403D0D6
:1017F800010E216E02D027B0FBD72150D8B41FD0DC
:10180800010E2726000E282229222A222AA017D0D4
:1018180027C01CF028C01DF029C01EF02AC01FF0E8
:101828001F341F321E321D321C321CC027F01DC04F
:1018380028F01EC029F01FC02AF02B4A2C2A2CBEE3
:101848000DD02C5003E12B28D8A008D0000E276E0D
:10185800000E286E800E296E7F0E20D02CBE05D07B
:101868002C500EE12B04D8B00BD0000E276E000EC2
:10187800286E000E296E000E2A6E000E206E0FD004
:101888002BC026F0FF0E2716FF0E28167F0E2916EE
:10189800000E2A1626B0298ED89026302A6E20509F
:1018A8002A1227C014F028C015F029C016F02AC043
:1018B80017F01200010ED5EC20F0110E726E3A0EE0
:1018C800E82EFED7722EFCD700D0800ED5EC20F083
:1018D800070E726E7D0EE82EFED7722EFCD700F032
:1018E800560E00019D6FFE0E9E6F2BEC20F0000E31
:1018F8000001B26F010EB16F000EB46F010EB36F2D
:101908005ED081A803D0726A722A01D0726A7250BE
:101918000001B96FBA6B81AA03D0726A722A01D02A
:10192800726A72500001BB6FBC6BB951BA11D8A46E
:1019380008D0B105B211D8A404D0D9C0ABF0DAC030
:10194800ACF0BB51BC11D8A408D0B305B411D8A4CD
:1019580004D0D9C0ADF0DAC0AEF0B951BA11D8A4EC
:101968000CD0AB51D95D186EAC51DA59196E8BECAD
:101978001FF018C0B5F019C0B6F00001BB51BC117A
:10198800D8A40CD0AD51D95D186EAE51DA59196E84
:101998008BEC1FF018C0B7F019C0B8F00001B951AE
:1019A800BA11D8B404D0BB51BC11D8A412D0B9C054
:1019B800B1F0BAC0B2F0BBC0B3F0BCC0B4F0A7512C
:1019C800755CA8517658A9517758AA517858D8A06B
:1019D80098D7B6BF06D0B6514BE1AA0EB55DD8B0C0
:1019E80047D0000E6D6E000E6C6E010E6E6E010E0D
:1019F8006F6E000E716E000E706E8FEC1BF0000E95
:101A0800076E640E066EA7C008F0A8C009F0A9C04A
:101A18000AF0AAC00BF06DEC1DF00ED0000E6D6E32
:101A28001E0E6C6E000E6E6E000E6F6E000E716EE6
:101A38001E0E706E8FEC1BF00001A751755CA8514B
:101A48007658A9517758AA517858D8B002D081B899
:101A5800E5D7000E6D6E000E6C6E010E6E6E010EF7
:101A68006F6E000E716E000E706E8FEC1BF077D0EB
:101A7800000E6D6E000E6C6E010E6E6E010E6F6EB6
:101A8800000E716E000E706E8FEC1BF0000E076E6C
:101A9800640E066EA7C008F0A8C009F0A9C00AF035
:101AA800AAC00BF06DEC1DF00ED0000E6D6E1E0E70
:101AB8006C6E000E6E6E000E6F6E000E716E1E0E56
:101AC800706E8FEC1BF00001A751755CA851765819
:101AD800A9517758AA517858D8B002D081B8E5D71B
:101AE800D9C0AFF0DAC0B0F00ED0000E6D6E1E0E89
:101AF8006C6E000E6E6E000E6F6E000E716E1E0E16
:101B0800706E8FEC1BF00001A751755CA8517658D8
:101B1800A9517758AA517858D8B09BD7D951AF5DF9
:101B2800186EDA51B059196E8BEC1FF018C072F0AC
:101B380019C073F0B7C006F0B8C007F0000E096E00
:101B4800020E086EDAEC1BF00650725C7350800AC5
:101B5800746E0750800A7458D8B07BD7C6D7000176
:101B6800B6BF06D0B65111E1AA0EB55DD8B00DD0FA
:101B7800B8BF06D0B85109E1AA0EB75DD8B005D0F4
:101B8800000EA86F000EA76F1200B751B55D186E52
:101B9800B851B659196E8BEC1FF019BE0CD01950FC
:101BA80004E1B50E185CD8A006D0000E0001A86F9D
:101BB800010EA76F1200000E0001A86F020EA76F9A
:101BC80012003050800B396E305030243B6E2FBEDF
:101BD8003B803B50D8B40DD03B28D8A408D0000E89
:101BE8002D6E000E2E6E000E2F6E000E306E2F8E94
:101BF80006D0000E2D6E000E2E6E000E2F6E000EFB
:101C0800306E3450800B3A6E39503A18D8A4398C5B
:101C1800345034243A6E33BE3A803A50D8B40DD09A
:101C28003A28D8A408D0000E316E000E326E000E8D
:101C3800336E000E346E338E06D0000E316E000EF9
:101C4800326E000E336E000E346E3B503A5CD8B0E4
:101C580022D039AC02D0800E391A3BC03CF03AC0D1
:101C68003BF03CC03AF02DC03CF031C02DF03CC0F8
:101C780031F02EC03CF032C02EF03CC032F02FC004
:101C88003CF033C02FF03CC033F030C03CF034C0DF
:101C980030F03CC034F0000E3C6E3B503AC035F09A
:101CA800366A355E000E365A36BE2CD0365004E100
:101CB8001A0E355CD8A026D02D502E102F103010BB
:101CC800D8B402D0010E01D0000E3C6E000E2D6E6D
:101CD800000E2E6E000E2F6E000E306E3AC03BF0D6
:101CE80015D03CA005D0D8903C3001093C6E02D0FC
:101CF800D8903C322DB03C8E303430322F322E32D8
:101D08002D323B2A3A503B5CD8A0EBD739BC28D0BF
:101D18003B50D8A409D0000E2D6E000E2E6E000E7A
:101D28002F6E000E306E120031502D2632502E22AA
:101D380033502F223450302230A071D03CA005D02F
:101D4800D8903C3001093C6E02D0D8903C322DB07E
:101D58003C8E303430322F322E322D323B2A5FD037
:101D680031502D5C32502E5833502F583050800A45
:101D7800356E3450800A3558D8B025D02D50315C96
:101D8800356E2E503258366E2F503358376E3050CD
:101D98003458386EFF0E35242D6EFF0E36202E6E09
:101DA800FF0E37202F6EFF0E3820306E800E391A46
:101DB8003C6C3C50D8A40FD0010E2D26000E2E22CC
:101DC8002F22302208D031502D5E32502E5A3350F7
:101DD8002F5A3450305A2D502E102F103010D8A4AE
:101DE8001CD03C50D8A419D0000E2D6E000E2E6EBB
:101DF800000E2F6E000E306E1200D8902D362E3643
:101E08002F3630363CBE2D803CA002D0D88001D081
:101E1800D8903C363B50D8A43B062FAEEED7000EE8
:101E28003A6E3CAE0BD03CC035F07F0E3516D8B4B8
:101E380003D0010E3A6E02D02DB0FBD73A50D8B479
:101E480020D0010E2D26000E2E222F22302230A067
:101E580018D02DC035F02EC036F02FC037F030C066
:101E680038F03834383237323632353235C02DF022
:101E780036C02EF037C02FF038C030F03B28D8A439
:101E88003B2A3B28D8B403D03B50D8A40DD0000E31
:101E98002D6E000E2E6E000E2F6E000E306E3B5013
:101EA800D8A402D0000E396E3BA002D02F8E01D0EC
:101EB8002F9ED8903B30306E39BE308E2DC02DF01D
:101EC8002EC02EF02FC02FF030C030F0120030504E
:101ED800800B3D6E30503024446E2FBE44804450F9
:101EE800D8B40DD04428D8A408D0000E2D6E000E0A
:101EF8002E6E000E2F6E000E306E2F8E06D0000E46
:101F08002D6E000E2E6E000E2F6E000E306E3450A9
:101F1800800B3D1A34503424456E33BE45804550FD
:101F2800D8B40DD04528D8A408D0000E316E000EC4
:101F3800326E000E336E000E346E338E06D0000EF5
:101F4800316E000E326E000E336E000E346E31505C
:101F5800321033103410D8A417D0000E2D6E000E96
:101F68002E6E000E2F6E000E306E800E2F127F0E1A
:101F780030123D5030122DC02DF02EC02EF02FC043
:101F88002FF030C030F012004450D8A409D0000E11
:101F98002D6E000E2E6E000E2F6E000E306E12008B
:101FA800455044C035F0366A355E000E365A7F0E0D
:101FB80035243E6E000E36203F6E2DC039F02EC0FF
:101FC8003AF02FC03BF030C03CF0000E2D6E000EF2
:101FD8002E6E000E2F6E000E306E000E406E000E3C
:101FE800416E000E426E000E436E000E456E28D004
:101FF8004550D8B411D0D89039363A363B363C36AD
:10200800D8902D362E362F36303643BE2D80D890B8
:1020180040364136423643363150395C32503A58B0
:1020280033503B5834503C58D8A009D0438C3150D9
:10203800395E32503A5A33503B5A34503C5A452A4A
:10204800190E4564D5D739503A103B103C10D8B416
:1020580011D040800FD0D8902D362E362F363036FE
:1020680043BE2D80D89040364136423643363E0630
:10207800D8A03F062FAEEFD7000E456E43AE17D05F
:10208800FF0E4014356EFF0E4114366EFF0E4214DB
:10209800376E7F0E4314386E3550361037103810AF
:1020A800D8B403D0010E456E02D02DB0FBD74550F1
:1020B800D8B41FD0010E2D26000E2E222F2230223A
:1020C80030A017D02DC035F02EC036F02FC037F015
:1020D80030C038F03834383237323632353235C0DD
:1020E8002DF036C02EF037C02FF038C030F03E4A01
:1020F8003F2A3FBE10D03F5003E13E28D8A00BD066
:10210800000E3F6E3E68000E2D6E000E2E6E000E05
:102118002F6E000E306E3FBE05D03F5011E13E04D9
:10212800D8B00ED0000E3F6E000E3E6E000E2D6E23
:10213800000E2E6E000E2F6E000E306E000E3D6EDD
:102148003EC044F044A002D02F8E01D02F9ED890DC
:102158004430306E0ED78AC031F08BC032F08CC05C
:1021680033F08DC034F000019051D75D966F9151D6
:10217800D859976F96C006F097C007F0000E07BEB3
:10218800FF0E086E096E010E3EEC17F006C02DF02A
:1021980007C02EF008C02FF009C030F06BEC0FF02C
:1021A8002DC04AF02EC04BF02FC04CF030C04DF07F
:1021B80000018E51D95D986F8F51DA59996F98C087
:1021C80006F099C007F0000E07BEFF0E086E096EF4
:1021D800010E3EEC17F006C046F007C047F008C0F5
:1021E80048F009C049F06AEC1EF046C04EF047C0FE
:1021F8004FF048C050F049C051F0DFEC19F04EC024
:102208009AF04FC09BF092C018F093C019F094C098
:102218001AF095C01BF09AC006F09BC007F0000E9C
:1022280007BEFF0E086E096E010E3EEC17F006C0E1
:1022380014F007C015F008C016F009C017F0B5EC87
:102248000AF014C04AF015C04BF016C04CF017C085
:102258004DF088C006F089C007F0000E07BEFF0EDB
:10226800086E096E010E3EEC17F006C046F007C076
:1022780047F008C048F009C049F06AEC1EF046C0B3
:102288004EF047C04FF048C050F049C051F0DFEC65
:1022980019F04EC09CF04FC09DF092C018F093C04A
:1022A80019F094C01AF095C01BF09AC006F09BC0B4
:1022B80007F0000E07BEFF0E086E096E010E3EEC19
:1022C80017F006C014F007C015F008C016F009C0D2
:1022D80017F0B5EC0AF014C031F015C032F016C092
:1022E80033F017C034F08AC018F08BC019F08CC0D6
:1022F8001AF08DC01BF088C006F089C007F0000EE8
:1023080007BEFF0E086E096E010E3EEC17F006C000
:1023180014F007C015F008C016F009C017F0B5ECA6
:102328000AF014C02DF015C02EF016C02FF017C0FB
:1023380030F0E5EC0DF02DC04EF02EC04FF02FC060
:1023480050F030C051F0DFEC19F04EC09EF04FC095
:102358009FF000019DBF0AD09D5104E1650E9C5D70
:10236800D8A004D0000E9D6F640E9C6F9DAF04D062
:10237800000E9D6F000E9C6F9FBF0AD09F5104E115
:10238800650E9E5DD8A004D0000E9F6F640E9E6FF0
:102398009FAF04D0000E9F6F000E9E6F9CC06CF024
:1023A8009DC06DF0010E6E6E010E6F6E9EC070F0D6
:1023B8009FC071F08FEC1BF0120027C03FF028C0BF
:1023C80040F029C041F02AC042F02BC043F02CC095
:1023D80044F02DC045F02EC046F046AE02D0010EA6
:1023E80001D0000E3D6E3E6A3D503E10D8B410D06C
:1023F800461E451E441E431E421E411E401E3F6C83
:10240800000E4022412242224322442245224622F3
:102418000001D4AFD593D4BF05D0D45108E1D3057A
:10242800D8B005D0000E3A6E010E396E04D0D3C074
:1024380039F0D4C03AF049C13BF04AC13CF03D50B4
:102448003E10D8A402D0D5A503D03B06D8A03C06A0
:10245800000E486E1F0E476E000E01016F6F7CD094
:102468004706D8A04806500E4724D96E010E4820CA
:10247800DA6E3FC006F040C007F041C008F042C025
:1024880009F043C00AF044C00BF045C00CF046C048
:102498000DF00A0E0E6E000E0F6E000E106E000E7E
:1024A800116E000E126E000E136E000E146E000EEA
:1024B800156E7EEC18F006C02FF007C030F008C08B
:1024C80031F009C032F00AC033F00BC034F00CC050
:1024D80035F00DC036F02FC018F031C019F08BEC74
:1024E8001FF01850300FDF6E3906D8A03A063B06A9
:1024F800D8A03C063FC006F040C007F041C008F035
:1025080042C009F043C00AF044C00BF045C00CF0CB
:1025180046C00DF00A0E0E6E000E0F6E000E106E05
:10252800000E116E000E126E000E136E000E146E69
:10253800000E156EF8EC15F006C03FF007C040F02D
:1025480008C041F009C042F00AC043F00BC044F093
:102558000CC045F00DC046F048BE20D0485003E1FD
:102568004704D8A01BD03F504010411042104310E0
:10257800441045104610D8A473D73ABE05D03A5037
:1025880002E13904D8B06CD73CBE08D03C5003E116
:102598003B04D8A003D00001D5B362D73D503E100C
:1025A800D8A403D00001D5A517D04706D8A048065F
:1025B8003D503E10D8A404D0000E386E2B0E03D028
:1025C800000E386E2D0E376E500E4724D96E010E50
:1025D8004820DA6E37C0DFFF25C01AF026C01BF08E
:1025E800500E47241C6E010E48201D6E3BC01EF085
:1025F8003CC01FF042EC1BF01AC025F01BC026F0AF
:1026080012000001D4AFD593D4BF05D0D45108E14E
:10261800D305D8B005D0000E3D6E010E3C6E04D037
:10262800D3C03CF0D4C03DF049C13EF04AC13FF0B0
:10263800D5A904D0FE0E3E26FF0E3F2227C040F04B
:1026480028C041F029C042F02AC043F02BC044F012
:102658002CC045F02DC046F02EC047F0000E496E44
:102668001F0E486E000E01016F6F93D04806D8A068
:1026780049060F0E40144A6E4B6A4BBE08D04B50A9
:1026880004E10A0E4A5CD8A002D0570E01D0300EE1
:102698004A244A6E000E4B204B6EBF0E306EFF0E62
:1026A800316E2F50326E336A305032263150332219
:1026B800335006E11A0E325CD8B002D0010E01D0B8
:1026C800000E386E396A38503910D8B427D09F0EAA
:1026D800306EFF0E316E200E4A10326E000E4B1017
:1026E800336E3050322631503322335006E11A0E01
:1026F800325CD8B002D0010E01D0000E3A6E3B6AAF
:102708003A503B10D8B40AD04AC00CF04BC00DF078
:1027180045EC1EF00CC04AF00DC04BF0500E48249A
:10272800D96E010E4920DA6E4AC0DFFF3C06D8A0F8
:102738003D063E06D8A03F0640C030F041C031F00B
:1027480042C032F043C033F044C034F045C035F0E5
:1027580046C036F047C037F0050E09D0D89037325A
:102768003632353234323332323231323032E82E88
:10277800F5D730C040F031C041F032C042F033C02C
:1027880043F034C044F035C045F036C046F037C099
:1027980047F049BE21D0495004E1020E485CD8A058
:1027A8001BD04050411042104310441045104610B1
:1027B8004710D8A45BD73DBE05D03D5002E13C048C
:1027C800D8B054D73FBE08D03F5003E13E04D8A04C
:1027D80003D00001D5B34AD70001D5A916D04806C1
:1027E800D8A04906500E4824D96E010E4920DA6E49
:1027F8002FC0DFFF4806D8A04906500E4824D96EDE
:10280800010E4920DA6E300EDF6E25C01AF026C0A0
:102818001BF0500E48241C6E010E49201D6E3EC050
:102828001EF03FC01FF042EC1BF01AC025F01BC081
:1028380026F012005BBE1200000E066E000E076E38
:10284800C80E086E420E096E58C00AF059C00BF047
:102858005AC00CF05BC00DF010EC19F0D8A01200B3
:102868005FBE1200000E066E000E076EC80E086EE0
:10287800420E096E5CC00AF05DC00BF05EC00CF041
:102888005FC00DF010EC19F0D8A01200010ECB2497
:10289800626E636A000E6322000E316E000E326EA5
:1028A800C80E336E420E346E000E186E000E196E8E
:1028B800800E1A6E400E1B6E58C014F059C015F0E9
:1028C8005AC016F05BC017F0B5EC0AF014C02DF032
:1028D80015C02EF016C02FF017C030F06BEC0FF0BB
:1028E8002DC068F02EC069F02FC06AF030C06BF0C0
:1028F80062C006F063C007F0086A096A000E3EEC81
:1029080017F006C018F007C019F008C01AF009C07F
:102918001BF068C014F069C015F06AC016F06BC0EF
:1029280017F0B5EC0AF014C04EF015C04FF016C001
:1029380050F017C051F0DFEC19F04EC064F04FC0F2
:1029480065F0000E316E000E326EC80E336E420E08
:10295800346E000E186E000E196E800E1A6E400E40
:102968001B6E5CC014F05DC015F05EC016F05FC051
:1029780017F0B5EC0AF014C02DF015C02EF016C0F3
:102988002FF017C030F06BEC0FF02DC068F02EC0A0
:1029980069F02FC06AF030C06BF062C006F063C007
:1029A80007F0086A096A000E3EEC17F006C018F036
:1029B80007C019F008C01AF009C01BF068C014F06D
:1029C80069C015F06AC016F06BC017F0B5EC0AF0D4
:1029D80014C04EF015C04FF016C050F017C051F09B
:1029E800DFEC19F04EC066F04FC067F0BD9A64A0E6
:1029F80002D0BD8801D0BD9864C060F065C061F0A8
:102A0800D89061326032D890613260326050BE6EC8
:102A1800BA9A66A002D0BA8801D0BA9866C060F0A7
:102A280067C061F0D89061326032D890613260320C
:102A38006050BB6E12000001D4AFD593D4BF05D04F
:102A4800D45108E1D305D8B005D0000E386E010E78
:102A5800376E04D0D3C037F0D4C038F049C139F04C
:102A68004AC13AF027C03BF028C03CF029C03DF0ED
:102A78002AC03EF02BC03FF02CC040F02DC041F0E2
:102A88002EC042F0000E446E1F0E436E000E010170
:102A98006F6F76D04306D8A04406500E4324D96EF3
:102AA800010E4420DA6E3BC006F03CC007F03DC082
:102AB80008F03EC009F03FC00AF040C00BF041C02A
:102AC8000CF042C00DF00A0E0E6E000E0F6E000ED6
:102AD800106E000E116E000E126E000E136E000EB8
:102AE800146E000E156E96EC1AF006C02FF007C093
:102AF80030F008C031F009C032F00AC033F00BC022
:102B080034F00CC035F00DC036F02F50300FDF6EAA
:102B18003706D8A038063906D8A03A063BC006F0D2
:102B28003CC007F03DC008F03EC009F03FC00AF0C5
:102B380040C00BF041C00CF042C00DF00A0E0E6E02
:102B4800000E0F6E000E106E000E116E000E126E4B
:102B5800000E136E000E146E000E156E78EC19F050
:102B680006C03BF007C03CF008C03DF009C03EF08D
:102B78000AC03FF00BC040F00CC041F00DC042F05D
:102B880043504410D8B41BD03B503C103D103E106D
:102B98003F10401041104210D8A47CD738BE05D051
:102BA800385002E13704D8B075D73ABE08D03A5049
:102BB80003E13904D8A003D00001D5B36BD725C0F1
:102BC8001AF026C01BF0500E43241C6E010E442040
:102BD8001D6E39C01EF03AC01FF042EC1BF01AC03F
:102BE80025F01BC026F01200000E176E15AE12D08D
:102BF800151E141E131E121E111E101E0F1E0E6C03
:102C0800000E0F2210221122122213221422152242
:102C1800010E176E0DAE12D00D1E0C1E0B1E0A1ED5
:102C2800091E081E071E066C000E0722082209222C
:102C38000A220B220C220D22010E171A20EE18F080
:102C4800070EDE6AE806FDE20E500F101010111094
:102C58001210131014101510D8B446D0010E166EA9
:102C68000AD0D8900E360F36103611361236133673
:102C780014361536162A15AEF4D7D89018361936E4
:102C88001A361B361C361D361E361F360E50065C8D
:102C98000F500758105008581150095812500A5828
:102CA80013500B5814500C5815500D58D8A011D06B
:102CB8000E50065E0F50075A1050085A1150095A04
:102CC80012500A5A13500B5A14500C5A15500D5AD8
:102CD8001880D89015321432133212321132103251
:102CE8000F320E32162EC9D71750D8B410D01F1E67
:102CF8001E1E1D1E1C1E1B1E1A1E191E186C000EE1
:102D080019221A221B221C221D221E221F2218C031
:102D180006F019C007F01AC008F01BC009F01CC063
:102D28000AF01DC00BF01EC00CF01FC00DF0120001
:102D380021EE70F010EE18F0060EDBCFE3FFE80688
:102D4800FCE215C023F016C024F023502410D8A4A8
:102D580004D0180E236E000E246E23C006F024C083
:102D680007F0B0EC1EF006C027F007C028F0D3C06B
:102D780025F0D4C026F026BE0ED02750255C26505C
:102D8800800A176E2850800A1758D8B004D025C07A
:102D980027F026C028F027C025F028C026F049C112
:102DA80021F04AC122F00001D5A10DD016D0000EA5
:102DB8000B6E200E0A6E13C00CF014C00DF0CFEC91
:102DC8001CF0274A282A2150275C2850800A176EB1
:102DD8002250800A1758D8A0EAD7000E206E000E9D
:102DE8001F6E1FD023C0F6FF24C0F7FF000EF86E39
:102DF8000F0EF76403D00800F55005D0F6CFE1FFB9
:102E0800F7CFE2FFE750176E17500A6E0B6A13C030
:102E18000CF014C00DF0CFEC1CF0234A242A1F4AF2
:102E2800202A25501F5C2050800A176E2650800AE1
:102E38001758D8A0D7D70001D5B10DD016D0000E9D
:102E48000B6E200E0A6E13C00CF014C00DF0CFEC00
:102E58001CF0274A282A2150275C2850800A176E20
:102E68002250800A1758D8A0EAD727C013F028C0E4
:102E780014F012000E6E0E50D8A409AE1AD006C077
:102E88000AF007C00BF008C00CF009C00DF00A1ECC
:102E98000B1E0C1E0D1E0A2A000E0B220C220D22E0
:102EA8000AC010F00BC011F00CC012F00DC013F0E6
:102EB80008D006C010F007C011F008C012F009C011
:102EC80013F00650071008100910D8A409D0000EF6
:102ED800066E000E076E000E086E000E096E1200D8
:102EE800960E0F6E06D00F2AD89013321232113276
:102EF8001032000E10140A6E000E11140B6E000E24
:102F080012140C6EFE0E13140D6E0A500B100C10DA
:102F18000D10D8B40DD0E7D70F2A010E1026000ED9
:102F2800112212221322D890133212321132103287
:102F3800000E10140A6E000E11140B6E000E1214FF
:102F48000C6EFF0E13140D6E0A500B100C100D10A2
:102F5800D8B407D0E1D70F06D890103611361236FC
:102F6800133612BE03D0020E0F60F5D70FA0129EC3
:102F7800D8900F320FC00AF00B6A0C6A0D6A0AC0AB
:102F88000DF00C6A0B6A0A6A0A5010120B501112E3
:102F98000C5012120D5013120E50D8A409AE01D0C5
:102FA800138E10C006F011C007F012C008F013C04D
:102FB80009F01200000E1B6E000E1A6E000E146E41
:102FC800000E136E02D00D4A0E2A010E196E0DC0A6
:102FD800F6FF0EC0F7FF0800F550200AD8B418D045
:102FE800F70E0F6EFF0E106E0DC0F6FF0EC0F7FF46
:102FF8000800F550116E126A0F5011261050122257
:10300800125004E1050E115CD8A002D0000E196E12
:1030180019C015F0166A15501610D8B408D0D3D7B1
:10302800000E146E010E136E0D4A0E2A2ED00DC01E
:10303800F6FF0EC0F7FF0800F5500F6E106A10502B
:10304800000AD8A422D00F502B0AD8B4EDD7060A0C
:10305800D8B4E6D71AD01AC006F01BC007F0000E85
:10306800096E0A0E086E3FEC20F00DC0F6FF0EC088
:10307800F7FF0800F550065E000E075A300E0624CA
:103088001A6E000E07201B6ECFD7D00E0F6EFF0EE4
:10309800106E0DC0F6FF0EC0F7FF0800F550116E58
:1030A800126A0F50112610501222125006E10A0E11
:1030B800115CD8B002D0010E01D0000E176E186A4C
:1030C80017501810D8A4C7D713501410D8A40DD06F
:1030D8001AC00FF01BC010F00F1E101E0F4A102A46
:1030E8000FC00DF010C00EF012001AC00DF01BC07A
:1030F8000EF01200000E176E0DAE12D00D1E0C1E33
:103108000B1E0A1E091E081E071E066C000E07224B
:10311800082209220A220B220C220D22010E176E08
:1031280015AE10D0151E141E131E121E111E101ED1
:103138000F1E0E6C000E0F221022112212221322D3
:10314800142215220E500F10101011101210131007
:1031580014101510D8B43CD0010E166E0AD0D890B1
:103168000E360F361036113612361336143615361B
:10317800162A15AEF4D70E50065C0F50075810509B
:1031880008581150095812500A5813500B58145027
:103198000C5815500D58D8A010D00E50065E0F5080
:1031A800075A1050085A1150095A12500A5A135007
:1031B8000B5A14500C5A15500D5AD8901532143217
:1031C80013321232113210320F320E32162ED3D77A
:1031D8001750D8B410D00D1E0C1E0B1E0A1E091E47
:1031E800081E071E066C000E0722082209220A2262
:1031F8000B220C220D2206C006F007C007F008C0FB
:1032080008F009C009F00AC00AF00BC00BF00CC0A6
:103218000CF00DC00DF01200000E06140E6E000E1C
:1032280007140F6E800E0814106E7F0E0914116EAD
:103238000E500F1010101110D8A408D0000E066EF2
:10324800000E076E000E086E000E096E000E0A14BE
:103258000E6E000E0B140F6E800E0C14106E7F0E87
:103268000D14116E0E500F1010101110D8A408D0A4
:10327800000E0A6E000E0B6E000E0C6E000E0D6E28
:1032880009AE09D0066C071ED8B0072A081ED8B0A8
:10329800082A800E09560DAE09D00A6C0B1ED8B04C
:1032A8000B2A0C1ED8B00C2A800E0D56000E061ADA
:1032B800000E071A000E081A800E091A000E0A1AC4
:1032C800000E0B1A000E0C1A800E0D1A0A50065C1E
:1032D8000B5007580C5008580D500958D8B002D058
:1032E800D8901200D880120020EE16F0070EDE6A81
:1032F800E806FDE20E500F101010111012101310F6
:1033080014101510D8B446D0010E1E6E0AD0D890ED
:103318000E360F3610361136123613361436153669
:103328001E2A15AEF4D7D890163617361836193621
:103338001A361B361C361D360E50065C0F500758C1
:10334800105008581150095812500A5813500B5869
:1033580014500C5815500D58D8A011D00E50065EB8
:103368000F50075A1050085A1150095A12500A5A49
:1033780013500B5A14500C5A15500D5A1680D890E9
:103388001532143213321232113210320F320E3219
:103398001E2EC9D716C006F017C007F018C008F0CF
:1033A80019C009F01AC00AF01BC00BF01CC00CF0C1
:1033B8001DC00DF0120050345134576E5750D8A428
:1033C80009D0000E4E6E000E4F6E000E506E000EAD
:1033D800516E12004EC052F04FC053F050C054F01E
:1033E80051C055F0200E05D0D89055325432533282
:1033F8005232E82EF9D75250566E508EFF0E4E16A6
:10340800FF0E4F16FF0E5016000E5116960E575E01
:1034180057AE0DD05750800A970FD8A0D2D7D89062
:10342800513250324F324E32573EF9D70DD01F0E1F
:10343800576407D0C6D7D8904E364F3650365136D7
:1034480057065750D8A4F7D75650D8B408D0511EAD
:10345800501E4F1E4E6C000E4F22502251224EC05D
:103468004EF04FC04FF050C050F051C051F0120014
:10347800D9C0B4F0DAC0B5F0D7C0B2F0D8C0B3F054
:1034880032D0A2C006F0A3C007F0000E07BEFF0EA0
:10349800086E096E010E3EEC17F006C0AEF007C0CC
:1034A800AFF008C0B0F009C0B1F0A0C088F0A1C06A
:1034B80089F0AEC08AF0AFC08BF0B0C08CF0B1C05C
:1034C8008DF0B4C08EF0B5C08FF0B2C090F0B3C02C
:1034D80091F0A4C092F0A5C093F0A6C094F0A7C044
:1034E80095F0AFEC10F00001AA51755CAB5176581D
:1034F800AC517758AD517858D8B01200B451D95D55
:10350800186EB551DA59196E8BEC1FF00001A851ED
:10351800185C1950800A726EA951800A7258D8B086
:103528001200AFD70E500F101010111012101310F8
:1035380014101510D8B43CD0010E166E0AD0D890CD
:103548000E360F3610361136123613361436153637
:10355800162A15AEF4D70E50065C0F5007581050B7
:1035680008581150095812500A5813500B58145043
:103578000C5815500D58D8A010D00E50065E0F509C
:10358800075A1050085A1150095A12500A5A135023
:103598000B5A14500C5A15500D5AD8901532143233
:1035A80013321232113210320F320E32162ED3D796
:1035B80006C006F007C007F008C008F009C009F007
:1035C8000AC00AF00BC00BF00CC00CF00DC00DF0D7
:1035D800120006C00DF007C00EF008C00FF009C0B9
:1035E80010F00A06D8A00B060A280FE10B28D8A469
:1035F8000CD0000E076E000E066E12000D4A0E2A41
:103608000F4A102A0A06D8A00B060DC0F6FF0EC0F6
:10361800F7FF0800F5500009D8B41DD00FC0F6FF19
:1036280010C0F7FF0800F5500009D8B414D00A50AC
:103638000B10D8B410D00DC0F6FF0EC0F7FF08006D
:10364800F5CF0CF00FC0F6FF10C0F7FF0800F550DB
:103658000C18D8B4D3D70DC0F6FF0EC0F7FF08007A
:10366800F5CF0CF00FC0F6FF10C0F7FF0800F550BB
:103678000C5C066E076AD8A0070612000001D5A1E7
:103688000AD01CC013F01DC014F01AC015F01BC0DE
:1036980016F055EC1FF01FBE05D01EC023F01FC04A
:1036A80024F004D0000E246E000E236E000E226E4D
:1036B800000E216E0CD0000E0B6E200E0A6E1AC082
:1036C8000CF01BC00DF0CFEC1CF0214A222A23502D
:1036D800215C2250800A206E2450800A2058D8A0ED
:1036E800EAD70001D5B10AD01CC013F01DC014F0F0
:1036F8001AC015F01BC016F055EC1FF01CC006F0E0
:103708001DC007F0B0EC1EF0235006241A6E24509A
:1037180007201B6E12006E50D8B403D0898089929E
:1037280002D0899089826F50D8B403D08984899651
:1037380002D0899489866CC006F06DC007F0000E2F
:1037480007BEFF0E086E096E010E3EEC17F006C0AC
:1037580080F007C081F008C082F009C083F070C013
:1037680006F071C007F0000E07BEFF0E086E096E66
:10377800010E3EEC17F006C084F007C085F008C0C3
:1037880086F009C087F080C058F081C059F082C027
:103798005AF083C05BF084C05CF085C05DF086C0E1
:1037A8005EF087C05FF01EEC14F01200000E0B6E86
:1037B80009AE06D0086C091ED8B0092A010E0B6E96
:1037C80007AE06D0066C071ED8B0072A010E0B1AE2
:1037D800000E0D6E000E0C6E08500910D8B41CD0E7
:1037E800010E0A6E04D0D890083609360A2A09AEA6
:1037F800FAD7D8900C360D360850065C0950075891
:10380800D8A005D00850065E0950075A0C80D890F9
:10381800093208320A2EEDD70B50D8B404D00C6CFC
:103828000D1ED8B00D2A0CC006F00DC007F012000E
:10383800000E0E6E000E0F6E000E106E000E116E52
:103848000A500B100C100D10D8B42AD0010E126EAD
:1038580006D0D8900A360B360C360D36122A0DAE25
:10386800F8D7D8900E360F36103611360A50065C47
:103878000B5007580C5008580D500958D8A009D0BB
:103888000A50065E0B50075A0C50085A0D50095A38
:103898000E80D8900D320C320B320A32122EE1D73C
:1038A8000EC006F00FC007F010C008F011C009F0F4
:1038B8001200C00EF66E410EF76E000EF86E01EEA5
:1038C80070F010EE08F00900F5CFEEFFE550E1507A
:1038D800FAE1D80EF66E410EF76E000EF86E09008A
:1038E800F5CF79F001EE78F011EEE0F0EE6AE550F0
:1038F800E150FCE1E250FAE101EE43F02D0EEE6AF0
:10390800E806FDE100EED3F0080EEE6AE806FDE1F8
:10391800786A776A766A756A7A907A92000EF86E93
:103928000001DEEF06F0000E0B6E07AE06D0066C47
:10393800071ED8B0072A010E0B6E09AE04D0086C1A
:10394800091ED8B0092A08500910D8B418D0010E99
:103958000A6E04D0D890083609360A2A09AEFAD772
:103968000850065C09500758D8A004D00850065ED5
:103978000950075AD890093208320A2EF1D70B504D
:10398800D8B404D0066C071ED8B0072A06C006F0C3
:1039980007C007F012000C500D10D8B404D00C501A
:1039A8000D10D8A404D00A50CFEC20F0120020EE5D
:1039B80004F00C50D9260D50DA22DE50DE10D8B4AF
:1039C80016D020EE04F00C50D9260D50DA2210EE55
:1039D80002F00C50E1260D50E222DE50E65CE65083
:1039E800800A126EDE50800A1258D8B0120020EEFB
:1039F80002F00C50D9260D50DA22DE2A000EDD2204
:103A08001200310E0A6EB20EE82EFED70A2EFCD72F
:103A180000D08C94030EB2EC20F0110E0A6E3A0E10
:103A2800E82EFED70A2EFCD700D0030EB2EC20F009
:103A38007D0EE82EFED7320EC6EC20F0280EC6EC1E
:103A480020F0080EC6EC20F0010EC6EC20F0110E96
:103A58000A6E3A0EE82EFED70A2EFCD700D0060EC4
:103A6800C6EC20F00C0ED5EC20F012000A500B101A
:103A78000C100D10D8B424D0010E0E6E06D0D890BC
:103A88000A360B360C360D360E2A0DAEF8D70A500C
:103A9800065C0B5007580C5008580D500958D8A010
:103AA80008D00A50065E0B50075A0C50085A0D50A1
:103AB800095AD8900D320C320B320A320E2EE7D743
:103AC80006C006F007C007F008C008F009C009F0F2
:103AD800120075C014F076C015F077C016F078C0E3
:103AE80017F00850755C095076580A5077580B50F3
:103AF8007858D8B0120006C00CF007C00DF0000EC0
:103B08000DBEFF0E0E6E0F6E1450755C106E1550C4
:103B18007658116E16507758126E17507858136EE3
:103B28000C50105C0D5011580E5012580F5013586D
:103B3800D8B01200D6D7C69A94869488800E066E9E
:103B4800960E076E980E086E000E096E13C017F0D9
:103B580014C018F015C019F016C01AF0020ED8904B
:103B68001736183619361A36E82EF9D717C00AF05C
:103B780018C00BF019C00CF01AC00DF01CEC1CF0AA
:103B88000604C86E800EC76E280EC66E000EC56E7F
:103B9800120099C060F09AC061F0000E0101486FF0
:103BA800000E476F13D097C04CF098C04DF0600ED0
:103BB8004E6E000E4F6E9BC050F09CC051F009EC49
:103BC80000F04C50010147274D50482360C0F6FFD4
:103BD80061C0F7FF0800F5500009D8A4E4D747C131
:103BE80097F048C198F01200010149514A11D8A430
:103BF80005D049C128F04AC129F006D0FF0E492551
:103C0800286EFF0E4A21296E27C050F1000E516F11
:103C180025C01AF026C01BF0500E1C6E010E1D6E3A
:103C280028C01EF029C01FF042EC1BF01AC025F076
:103C38001BC026F01200000E076E000E066ED8900C
:103C48000634D96E0734DA6E780ED926010EDA22D8
:103C5800D8900634E16E0734E26EF80EE126020EC3
:103C6800E222DECFE6FFDDCFE5FF064A072A07BEE0
:103C7800E6D7075005E1300E065CD8B01200DFD752
:103C880012009F0E0E6EFF0E0F6E0CC010F00DC0CE
:103C980011F00E5010260F501122115006E11A0E85
:103CA800105CD8B002D0010E01D0000E126E136A5B
:103CB80012501310D8B405D05F0E0C140C6E0D6A98
:103CC80012000CC00CF00DC00DF01200000E4A1AC4
:103CD800000E4B1A000E4C1A800E4D1A46C02DF0DD
:103CE80047C02EF048C02FF049C030F04AC031F02C
:103CF8004BC032F04CC033F04DC034F0E5EC0DF061
:103D08002DC046F02EC047F02FC048F030C049F013
:103D180012000600F0A005D0010E01014F6FF090CF
:103D280019D0F2A40CD0F294FB0ED76E1E0ED66EEC
:103D3800010E7526000E7622772278220BD0F0A28B
:103D480004D0F092D2EC1EF005D0F2A203D0F29289
:103D5800F4EC1EF07A92110006C008F007C009F0D2
:103D680002D0064A072A06C0F6FF07C0F7FF000E72
:103D7800F86E0F0EF76403D00800F55005D0F6CFA3
:103D8800E1FFF7CFE2FFE7500009D8A4EAD70850CF
:103D9800065C066E09500758076E120081A403D00E
:103DA800016A012A01D0016A0150026E036A82A0E9
:103DB80003D0016A012A01D0016A0150046E056A24
:103DC8000250041808E103500518D8A404D00001D3
:103DD800D74BD82B12000001D707D8A0D80712005C
:103DE80081A003D0016A012A01D0016A0150026E44
:103DF800036A84A203D0016A012A01D0016A015032
:103E0800046E056A0250041809E103500518D8A485
:103E180005D00001D907D8A0DA0712000001D94B54
:103E2800DA2B1200A6EC20F0000E8C6E000E956EB8
:103E3800000E8A6E93829388938A938C938E9298BD
:103E48008998A00E136E860E146E010E156E000E64
:103E5800166E9FEC1DF00F0EC16EF08605EC1DF07E
:103E6800F28E1200010E0C6E200E06180710D8B440
:103E780014D0F70E086EFF0E096E06C00AF007C0D0
:103E88000BF008500A2609500B220B5004E1050ECE
:103E98000A5CD8A002D0000E0C6E0CC006F0076AAF
:103EA8001200000E196E000E186E0BD017C00AF023
:103EB8000B6A15C00CF016C00DF0CFEC1CF0184AB8
:103EC800192A18501324D96E19501420DA6EDF50AD
:103ED800176E1750D8B41200E9D79F0E086EFF0E60
:103EE800096E200E06100A6E000E07100B6E0850A1
:103EF8000A2609500B220B5006E11A0E0A5CD8B0AC
:103F080002D0010E01D0000E066E076A120019BE1B
:103F180005D0195010E11804D8B00DD018C01AF007
:103F280019C01BF01A1E1B1E1A4A1B2A1AC018F0A9
:103F38001BC019F0120018C018F019C019F01200AF
:103F48009F0E086EFF0E096E06C00AF007C00BF040
:103F580008500A2609500B220B5006E11A0E0A5C7B
:103F6800D8B002D0010E01D0000E066E076A12000A
:103F7800BF0E086EFF0E096E06C00AF007C00BF0F0
:103F880008500A2609500B220B5006E11A0E0A5C4B
:103F9800D8B002D0010E01D0000E066E076A1200DA
:103FA800D00E086EFF0E096E06C00AF007C00BF0AF
:103FB80008500A2609500B220B5006E10A0E0A5C2B
:103FC800D8B002D0010E01D0000E066E076A1200AA
:103FD800E8EC20F0000E086E110E076EDBEC20F006
:103FE800010E52EC20F0096EE4EC20F0310E0918B5
:103FF800D8A402D0010E1200000E1200000EF2BE6C
:10400800010E066EF29E8C86140EE82EFED700D0A6
:104018008C96530EE82EFED700F006B002D0F29E22
:1040280001D0F28E1200948494829B0ECB6EBD9EBA
:10403800BD9CBD86BD84BD92BD90BA86BA84BA9235
:10404800BA90CA80CA82CA849494949212009F0E2D
:10405800646E000E656E000E0001976F000E986F7B
:104068009DC099F09EC09AF0640E9B6F000E9C6FE5
:10407800CDEC1DF0120006500802F3CF0AF0F4CF81
:104088000BF006500902F3500B2607500802F350B4
:104098000B260AC006F00BC007F01200076EBDEC35
:1040A80020F0C586BDEC20F0C9CF08F0BDEC20F0AB
:1040B80007B002D0C59A01D0C58AC5880850120039
:1040C800E8EC20F0000E086E100E076EDBEC20F016
:1040D800000E086E320E076EDBEC20F0E4EC20F0E8
:1040E8001200E8EC20F0000E086E100E076EDBECF4
:1040F80020F0000E086E310E076EDBEC20F0E4ECC9
:1041080020F01200E8EC20F0000E086E100E076E8A
:10411800DBEC20F0000E086E330E076EDBEC20F0AF
:10412800E4EC20F01200D59ED59CD59AD596F80ED1
:10413800D516FB0ED76E1E0ED66ED58EF28AF28E6F
:10414800F28C1200010E796E010E0101776F9480D6
:10415800968293849380F088F2881200076E8C50C0
:104168000F0B8C6E0738F00B8C108C6E02EC20F065
:104178001200C7B4FED7C5CF06F01F0E0616D8B476
:104188001200F7D7086E08380F0BB2EC20F0085071
:10419800B2EC20F01200096E8C840950C6EC20F0B5
:1041A8001200096E8C940950C6EC20F01200BDEC88
:1041B80020F007C0C9FF1200286E756C6C29000139
:1041C800BDEC20F0C5841200BDEC20F0C5801200C3
:0141D80001E5
:10FE3200003132334134353642373839432A3023A0
:10FE4200440000370E0213021300041010E80300EE
:10FE5200005010405449524520504F534954494F85
:10FE62004E494E4700544952452E204F4E20504F86
:10FE72004C453A20002831292028322920283329CC
:10FE82002028342900283229205341564520262093
:10FE92004558495400283229205155495420444F8D
:10FEA200204E4F54005449522E20535550504C4925
:10FEB20045442000253032782F253032782F2530E6
:10FEC200327800253032783A253032783A2530328D
:10FED20078005449522E204445504C4F593A200044
:10FEE2002831204953204F4C44455354290028318E
:10FEF2002920504F4C4520494E464F002832292098
:10FF020056494557204C4F475300313C2D20322D46
:10FF12003E20334D454E55004F502E20434F4D50FD
:10FF22004C455445002831292056494557204C4F0D
:10FF320047004F5045524154494F4E20494E004CC4
:10FF4200656176696E6720506F6C65004545505259
:10FF52004F4D2D44656D6F6E0053454C4543542003
:10FF62004C4F47002564206F6E20706F6C650077E0
:10FF7200726F74653A2025636E00726561643A207F
:10FF820025636E6E004F502E2054494D452000547B
:10FF92004952452044524F500028312920535441A0
:10FFA200525400726561643A2025636E0057454CD5
:10FFB200434F4D45200053415645204C4F4700507A
:10FFC200524F4752455353002573256425732564C8
:10FFD2000025732564257300504F4C452000413A9B
:10FFE20020256400423A20256400256C75006C5877
:0DFFF200006C64006C69006C78002F00004A
:020000040020DA
:08000000FFFFFFFFFFFFFFFF00
:020000040030CA
:0E000000FF021E1EFF8381FF0F400FE00F4026
:00000001FF
