:020000040000FA
:0400000007EF00F016
:100008007A82FAED22F04FEF20F0899A8A9653EC23
:1000180025F0000E086E100E076E45EC25F04FEC2B
:1000280025F0B7EC24F0EAEC24F0000E746E000E14
:10003800756E000E766E000E776E000E0101516F20
:10004800000E1F6F000E1E6F000E536F000E526FD2
:10005800100E4C6F270E4D6F000E4E6F000E4F6F37
:10006800DBC031F1DCC032F1DDC033F1DEC034F188
:10007800D7C035F1D8C036F1D9C037F1DAC038F178
:1000880074C022F175C023F176C024F177C025F140
:10009800000E216F000E206F21EE00F0070EDE6AC1
:1000A800E806FDE259EC24F0000E01013B6F000E5A
:1000B8003A6F000E286F000E276F000E2A6F000E91
:1000C800296F000E5A6F000E596F000E566F000E02
:1000D800556F000E2C6F000E2B6F000E586F000E20
:1000E800576F000E476F000E466F000E3E6F000EF2
:1000F8003F6F000E406F000E416F000E426F000E02
:10010800436F000E446F000E456F000E496F000EDE
:10011800486F000E3D6F000E3C6F92909292929441
:1001280092969298898874C02DF175C02EF176C088
:100138002FF177C030F1640E01012D250001D36F36
:10014800000E01012E210001D46F000E01012F21A4
:100158000001D56F000E010130210001D66FD35187
:10016800745CD4517558D5517658D6517758D8A063
:10017800E2D781A802D0010E01D0000E0101546F10
:1001880054C14AF181AA02D0010E01D0000E506F6D
:1001980050C14BF1010E266F01013A4B3B2B54C164
:1001A8004AF181A802D0010E01D0000E546F50C14F
:1001B8004BF181AA02D0010E01D0000E506F91D3ED
:1001C8003AC106F03BC107F0000E096E640E086ED6
:1001D800D3EC20F006500710D8A457D0010E3FECFE
:1001E80025F0110E0001D36F3A0EE82EFED7D32F5B
:1001F800FCD700F0800E3FEC25F0070E0001D36F0E
:100208007D0EE82EFED7D32FFCD7EC0E00019D6F94
:10021800FF0E9E6F74C09FF075C0A0F076C0A1F06D
:1002280077C0A2F06DEC24F0900E3FEC25F0E30EC1
:1002380000019D6FFF0E9E6F54C19FF0A06B6DEC87
:1002480024F0C00E3FEC25F0E60E00019D6FFF0E76
:100258009E6FD7C09FF0D8C0A0F0D9C0A1F0DAC077
:10026800A2F06DEC24F0D00E3FEC25F0E00E00017A
:100278009D6FFF0E9E6FDBC09FF0DCC0A0F0DDC05D
:10028800A1F0DEC0A2F06DEC24F0000E0001996F21
:100298005A0E986F000E9A6F000E9B6F800E9C6F1F
:1002A8003F0E9D6F31C19EF032C19FF033C1A0F067
:1002B80034C1A1F035C1A2F036C1A3F037C1A4F012
:1002C80038C1A5F09A0EA66F990EA76F990EA86F60
:1002D8003F0EA96F1DEC13F00001DEBF23D3DE51E2
:1002E800DD1106E1A90EDB5D1B0EDC59D8A01AD37F
:1002F800060E47D20101594B5A2B4CC198F04DC1FB
:1003080099F04EC19AF04FC19BF0F8EC0CF098C0F0
:1003180057F199C058F101013E510001DB5D01011F
:10032800426F3F510001DC590101436F4051000108
:10033800DD590101446F41510001DE590101456F4A
:10034800DBC03EF1DCC03FF1DDC040F1DEC041F171
:10035800000E316E000E326EC80E336E420E346ED1
:10036800000E186E400E196EDD0E1A6E440E1B6ECE
:1003780042C106F043C107F044C108F045C109F085
:10038800010E04EC19F006C014F007C015F008C0FF
:1003980016F009C017F0D9EC11F014C02DF015C0F3
:1003A8002EF016C02FF017C030F0AAEC0EF02DC0BA
:1003B8005EF02EC05FF02FC060F030C061F0AFEC8F
:1003C8001EF05EC03CF15FC03DF1000E316E000EC4
:1003D800326EC80E336E420E346E000E186E400E2A
:1003E800196EDD0E1A6E440E1B6E3EC106F03FC13B
:1003F80007F040C108F041C109F0010E04EC19F002
:1004080006C014F007C015F008C016F009C017F0B0
:10041800D9EC11F014C02DF015C02EF016C02FF035
:1004280017C030F0AAEC0EF02DC05EF02EC05FF0C1
:100438002FC060F030C061F0AFEC1EF05EC048F134
:100448005FC049F1010E3FEC25F0110E0001D36F9A
:100458003A0EE82EFED7D32FFCD700F0800E3FECE3
:1004680025F0070E0001D36F7D0EE82EFED7D32F9F
:10047800FCD77B0E00019D6FFF0E9E6F6DEC24F084
:10048800C00E3FEC25F05C0E00019D6FFF0E9E6FC5
:1004980057C19FF058C1A0F06DEC24F0000E000188
:1004A8008B6F000E8A6F010E8C6F010E8D6F000E20
:1004B8008F6F000E8E6FB8EC1FF0020E01015719F6
:1004C8005811D8A404D0000E536F000E0FD0590550
:1004D8005A11D8A40DD057055811D8A404D0000E2D
:1004E800536F010E03D0000E536F020E526F2BD0C4
:1004F80042C106F043C107F044C108F045C109F004
:10050800010E04EC19F006C014F007C015F008C07D
:1005180016F009C017F0000E186EC00E196E040E02
:100528001A6E440E1B6E7AEC1DF0D8B006D001018D
:1005380057055811D8B4C7D7D2D701015705581154
:10054800D8B4CDD7D0D7900E3FEC25F0450E00019A
:100558009D6FFF0E9E6F52C19FF053C1A0F06DECCE
:1005680024F0D00E3FEC25F09C0E00019D6FFE0E8E
:100578009E6F3CC19FF03DC1A0F06DEC24F00101DD
:1005880053BF09D0535103E15205D8A004D0C8EC99
:1005980024F0020EF6D0030EF5D02EEC24F0010163
:1005A800396F3951D8B4BED15207D8A05307554B2B
:1005B800562B52515311D8A467D0070E516F55517D
:1005C80046275651472346C1A9F147C1AAF159C147
:1005D800ABF15AC1ACF159C106F05AC107F0000E8F
:1005E800096E030E086E81EC24F0D89006360736A3
:1005F800A70E0624D96E010E0720DA6E55C1DEFF5C
:1006080056C1DDFF0101575155250001D36F010186
:10061800585156210001D46F59C106F05AC107F04C
:10062800000E096E030E086E81EC24F0D890063691
:100638000736A90E0624D96E010E0720DA6ED3C03C
:10064800DEFFD4C0DDFF59C106F05AC107F0000E25
:10065800096E030E086E81EC24F0D8900636073632
:10066800AB0E0624D96E010E0720DA6E48C1DEFFF4
:1006780049C1DDFF000E0101586F000E576F000ED3
:10068800566F000E556F4ED1C8EC24F04BD10F0EAB
:10069800076EA00E066E4CC108F04DC109F04EC1A0
:1006A8000AF04FC10BF0A9EC21F0000E0101566FC2
:1006B800000E556F57C12BF158C12CF146C1A9F155
:1006C80047C1AAF159C1ABF15AC1ACF159C106F001
:1006D8005AC107F0000E096E030E086E81EC24F073
:1006E800D89006360736A70E0624D96E010E0720C5
:1006F800DA6E55C1DEFF56C1DDFF010157515525A0
:100708000001D36F0101585156210001D46F59C11E
:1007180006F05AC107F0000E096E030E086E81EC50
:1007280024F0D89006360736A90E0624D96E010E95
:100738000720DA6ED3C0DEFFD4C0DDFF59C106F052
:100748005AC107F0000E096E030E086E81EC24F002
:10075800D89006360736AB0E0624D96E010E072050
:10076800DA6E48C1DEFF49C1DDFF000E0101586F96
:10077800000E576F000E2C6F000E2B6F070E02D065
:10078800000E0101516FCED0010E3FEC25F0110E85
:100798000001D36F3A0EE82EFED7D32FFCD700F016
:1007A800800E3FEC25F0070E0001D36F7D0EE82E7A
:1007B800FED7D32FFCD7380E00019D6FFF0E9E6F1A
:1007C8006DEC24F0DBC008F1DCC009F1DDC00AF1F2
:1007D800DEC00BF1D7C00CF1D8C00DF1D9C00EF1B5
:1007E800DAC00FF1000E0001B36F5A0EB26F000E9F
:1007F800B56F010EB46FCD0EB66FCC0EB76FCC0EC1
:10080800B86F3D0EB96FB40EBA6F000EBB6F000E15
:10081800BC6F000EBD6F4CC1BEF04DC1BFF04EC1E4
:10082800C0F04FC1C1F08DEC1CF0000E0101316F1A
:10083800000E326F000E336F000E346F000E356FEE
:10084800000E366F000E376F000E386F74C022F13D
:1008580075C023F176C024F177C025F1000E516FE1
:1008680081A802D0010E01D0000E546F81A802D0D9
:10087800010E01D0000E4A6F81AA02D0010E01D0EC
:10088800000E506F81AA02D0010E01D0000E4B6FEE
:1008980049D0000E8B6F000E8A6F010E8C6F010E0F
:1008A8008D6F000E8F6F000E8E6FB8EC1FF0D9ECB5
:1008B80024F074C006F075C007F076C008F077C061
:1008C80009F0E80E0A6E030E0B6E000E0C6E000E99
:1008D8000D6E92EC20F006C0A7F107C0A8F1899828
:1008E800120051510001D36FD46BD451000AD8A41F
:1008F80019D0D351000AD8B463D4010AD8B4FAD4B1
:10090800030AD8B44AD6010AD8B4C1D6070AD8B45B
:1009180037D7010AD8B4ECD4030AD8B4BAD7010A35
:10092800D8B432D701014C51745C4D5175584E51B1
:1009380076584F517758D8A01BD0060E516F18D053
:10094800010154514A19D8A404D050514B19D8B4B4
:1009580023D454514A19D8B402D0274B282B5051CC
:100968004B19D8B402D0294B2A2B010E516F14D43D
:1009780051510001D36FD46BD451000AD8A40CD4C0
:10098800D351000AD8B4DCD7010AD8B405D4030A75
:10099800D8B402D4060AD8B4D0EF00F0010AD8B40B
:1009A800D0EF00F0030AD8B4D0EF00F0010AD0EF7E
:1009B80000F04EC0D9FF4FC0DAFFDECFF6FFDDCF23
:1009C800F7FF0800F550250AD8A4D4D34EC0D9FFA4
:1009D8004FC0DAFFDE2A000EDD22000E0001E26FB2
:1009E800000EE16FE1C078F0E2C079F0E369E469F4
:1009F800000E836F000E14D078804EC0D9FF4FC010
:100A0800DAFFDE2A000EDD222ED07882F6D778842F
:100A1800F4D77886F2D77888F0D7000E836F010E66
:100A2800826F21D04EC0D9FF4FC0DAFFDECFF6FF6C
:100A3800DDCFF7FF0800F550526E536A5350000A95
:100A4800D8A4EBD75250200AD8B4E3D7030AD8B4B5
:100A5800E2D7080AD8B4DBD7060AD8B4CDD71D0A1E
:100A6800D8B4D3D7DAD782518311D8B4DBD778B0CA
:100A780078924EC0D9FF4FC0DAFFDECFF6FFDDCF48
:100A8800F7FF0800F5502A0AD8A423D04EC0D9FF92
:100A98004FC0DAFFDE2A000EDD2250C0D9FF51C058
:100AA800DAFFDFCF52F0020EDE26DFCF53F0000E62
:100AB800DD2252C0D9FF53C0DAFFDECFE1F0DDCF2F
:100AC800E2F0E2AF40D07880E16DE21FD8B0E22BCF
:100AD8003AD04EC0D9FF4FC0DAFFDECF0DF0DDCFE0
:100AE8000EF044EC1AF00DC0E1F00EC0E2F007D0B1
:100AF8004EC0D9FF4FC0DAFFDE2A000EDD22D00E2D
:100B0800526EFF0E536E4EC0D9FF4FC0DAFFDECFD4
:100B1800F6FFDDCFF7FF0800F550546E556A5250C6
:100B2800542653505522555006E10A0E545CD8B04D
:100B380002D0010E01D0000E0001846F856B845134
:100B48008511D8A4D5D74EC0D9FF4FC0DAFFDECF64
:100B5800F6FFDDCFF7FF0800F550630AD8A426D0CA
:100B68004EC0D9FF4FC0DAFFDE2A000EDD2250C08A
:100B7800D9FF51C0DAFFDFCF52F0020EDE26DFCFF9
:100B880053F0000EDD2252C0D9FF53C0DAFFDF5008
:100B98008E6F4CC025F04DC026F08EC027F08AEC31
:100BA80022F025C04CF026C04DF012004EC0D9FFEF
:100BB8004FC0DAFFDECFF6FFDDCFF7FF0800F550B4
:100BC800640AD8B40DD04EC0D9FF4FC0DAFFDECFCB
:100BD800F6FFDDCFF7FF0800F550690AD8A43FD02B
:100BE8004EC0D9FF4FC0DAFFDE2A000EDD2250C00A
:100BF800D9FF51C0DAFFDFCF52F0020EDE26DFCF79
:100C080053F0000EDD2252C0D9FF53C0DAFFDECF09
:100C180086F0DDCF87F0000E87BFFF0E886F896FE3
:100C28008A6F8B6F8C6F8D6F4CC025F04DC026F08E
:100C380086C027F087C028F088C029F089C02AF02C
:100C48008AC02BF08BC02CF08CC02DF08DC02EF0FC
:100C58004BEC14F025C04CF026C04DF012004EC0ED
:100C6800D9FF4FC0DAFFDECF06F0DDCF07F0F30E75
:100C7800086EFF0E096E000E0B6E020E0A6E63EC14
:100C88001FF006500710D8B416D04EC0D9FF4FC079
:100C9800DAFFDECF06F0DDCF07F0F60E086EFF0EA6
:100CA800096E000E0B6E020E0A6E63EC1FF0065002
:100CB8000710D8A45CD0020E4EC0D9FF4FC0DAFF8F
:100CC800DE26000EDD2250C0D9FF51C0DAFFDFCF8B
:100CD80052F0040EDE26DFCF53F0000EDD2252C0A4
:100CE800D9FF53C0DAFFDECF54F0DECF55F0DECFA8
:100CF80056F0DECF57F054C058F055C059F056C0E2
:100D08005AF057C05BF05C6A5BBE5C685CC05DF023
:100D18005CC05EF05CC05FF058C086F059C087F0D8
:100D28005AC088F05BC089F05CC08AF05DC08BF067
:100D38005EC08CF05FC08DF04CC025F04DC026F031
:100D480086C027F087C028F088C029F089C02AF01B
:100D58008AC02BF08BC02CF08CC02DF08DC02EF0EB
:100D68004BEC14F025C04CF026C04DF012004EC0DC
:100D7800D9FF4FC0DAFFDECFF6FFDDCFF7FF08005F
:100D8800F550730AD8A42AD04EC0D9FF4FC0DAFF55
:100D9800DE2A000EDD2250C0D9FF51C0DAFFDFCFB6
:100DA80052F0020EDE26DFCF53F0000EDD2252C0D5
:100DB800D9FF53C0DAFFDECF80F0DDCF81F04CC021
:100DC80013F04DC014F080C015F081C016F0A4ECEB
:100DD80019F013C04CF014C04DF012004EC0D9FFEA
:100DE8004FC0DAFFDECFF6FFDDCFF7FF0800F55082
:100DF800750AD8A441D04EC0D9FF4FC0DAFFDE2A09
:100E0800000EDD2250C0D9FF51C0DAFFDFCF52F00B
:100E1800020EDE26DFCF53F0000EDD2252C0D9FFCE
:100E280053C0DAFFDECF54F0DDCF55F054C08FF059
:100E380055C090F00001916B926B936B946B956B1E
:100E4800966B4CC025F04DC026F08FC027F090C09F
:100E580028F091C029F092C02AF093C02BF094C0DA
:100E68002CF095C02DF096C02EF088EC17F025C018
:100E78004CF026C04DF012004EC0D9FF4FC0DAFF2B
:100E8800DECF06F0DDCF07F0ED0E086EFF0E096E1F
:100E9800000E0B6E020E0A6E63EC1FF00650071070
:100EA800D8A448D0020E4EC0D9FF4FC0DAFFDE26C4
:100EB800000EDD2250C0D9FF51C0DAFFDFCF52F05B
:100EC800040EDE26DFCF53F0000EDD2252C0D9FF1C
:100ED80053C0DAFFDECF54F0DECF55F0DECF56F048
:100EE800DECF57F0545000018F6F5550906F565019
:100EF800916F5750926F936B946B956B966B4CC038
:100F080025F04DC026F08FC027F090C028F091C082
:100F180029F092C02AF093C02BF094C02CF095C011
:100F28002DF096C02EF088EC17F025C04CF026C0A6
:100F38004DF012004EC0D9FF4FC0DAFFDECFF6FFEA
:100F4800DDCFF7FF0800F550780AD8B40DD04EC0B1
:100F5800D9FF4FC0DAFFDECFF6FFDDCFF7FF08007D
:100F6800F550580AD8A44ED04EC0D9FF4FC0DAFF6A
:100F7800DECFF6FFDDCFF7FF0800F5CF8EF04EC0CD
:100F8800D9FF4FC0DAFFDE2A000EDD2250C0D9FF9C
:100F980051C0DAFFDFCF52F0020EDE26DFCF53F06A
:100FA800000EDD2252C0D9FF53C0DAFFDECF54F065
:100FB800DDCF55F054C08FF055C090F00001916B13
:100FC800926B936B946B956B966B4CC025F04DC0F0
:100FD80026F08FC027F090C028F091C029F092C069
:100FE8002AF093C02BF094C02CF095C02DF096C039
:100FF8002EF08EC02FF06DEC15F025C04CF026C0F9
:101008004DF012004EC0D9FF4FC0DAFFDECF06F018
:10101800DDCF07F0F90E086EFF0E096E000E0B6E9D
:10102800020E0A6E63EC1FF006500710D8B416D0F3
:101038004EC0D9FF4FC0DAFFDECF06F0DDCF07F094
:10104800F00E086EFF0E096E000E0B6E020E0A6E91
:1010580063EC1FF006500710D8A45DD04EC0D9FF2E
:101068004FC0DAFFDECF52F0DDCF53F0010E52262B
:10107800000E532252C0F6FF53C0F7FF0800F5CF09
:101088008EF0020E4EC0D9FF4FC0DAFFDE26000EEA
:10109800DD2250C0D9FF51C0DAFFDFCF52F0040E75
:1010A800DE26DFCF53F0000EDD2252C0D9FF53C039
:1010B800DAFFDECF54F0DECF55F0DECF56F0DECFCC
:1010C80057F0545000018F6F5550906F5650916FE4
:1010D8005750926F936B946B956B966B4CC025F041
:1010E8004DC026F08FC027F090C028F091C029F09D
:1010F80092C02AF093C02BF094C02CF095C02DF02C
:1011080096C02EF08EC02FF06DEC15F025C04CF077
:1011180026C04DF012004EC0D9FF4FC0DAFFDECF17
:10112800F6FFDDCFF7FF0800F550250AD8A416D042
:101138004EC0D9FF4FC0DAFFDE2A000EDD22000EB6
:101148000B6E250E0A6E4CC00CF04DC00DF00BEC6A
:1011580021F0000E4D6E010E4C6E12004EC0D9FFEC
:101168004FC0DAFFDE2A000EDD22000E4D6E000EA3
:101178004C6E12004EC0D9FF4FC0DAFFDECFF6FF2B
:10118800DDCFF7FF0800F5500A6E0B6A4CC00CF073
:101198004DC00DF00BEC21F04EC0D9FF4FC0DAFF67
:1011A800DE2A000EDD22D5D71DEC23F0010E3FEC20
:1011B80025F0110E726E3A0EE82EFED7722EFCD76D
:1011C80000D0800E3FEC25F0070E726E7D0EE82EE3
:1011D800FED7722EFCD700F00BEC1CF01DEC23F0B0
:1011E800000E0101696F010E686F000E626F000E3C
:1011F800636F000E646F000E656F899A8A8662C1FC
:1012080006F063C107F064C108F065C109F00A0E71
:101218000A6E000E0B6E000E0C6E000E0D6E76EC54
:1012280021F00650071008100910D8A44FD153EC2C
:1012380025F0000E086ED00E076E45EC25F0000E66
:10124800086E000E076E45EC25F04FEC25F053ECC8
:1012580025F0000E086ED10E076E45EC25F0000E45
:101268000101676F5B0E6725D96EDA6A010EDA2213
:10127800000E94EC24F0DF6E0101672B050E676504
:10128800F1D7010E94EC24F00101616F4FEC25F0C9
:101298001DD1800E3FEC25F0070E726E7D0EE82EF4
:1012A800FED7722EFCD700F0D10E00019D6FFF0E05
:1012B8009E6F990E9F6FFF0EA06F6DEC24F0BB0E12
:1012C80000019D6FFE0E9E6F61C19FF0A06B60C113
:1012D800A1F0A26B5FC1A3F0A46B6DEC24F0C00E6B
:1012E8003FEC25F0CA0E00019D6FFE0E9E6F5DC19A
:1012F8009FF0A06B5CC1A1F0A26B5BC1A3F0A46BD3
:101308006DEC24F0900E3FEC25F0D10E00019D6F9E
:10131800FF0E9E6F850E9F6FFF0EA06F6DEC24F081
:10132800D00E3FEC25F0D10E00019D6FFF0E9E6F91
:10133800F50E9F6FFE0EA06F6DEC24F0DFD0800ECF
:101348003FEC25F0070E726E7D0EE82EFED7722E4A
:10135800FCD700F0D10E00019D6FFF0E9E6F2B0E83
:101368009F6FFF0EA06F6DEC24F0C00E3FEC25F0D0
:10137800D10E00019D6FFF0E9E6FAB0E9F6FFF0E8B
:10138800A06F6DEC24F009EC00F0010E3FEC25F0A5
:10139800110E726E3A0EE82EFED7722EFCD700D0D0
:1013A800020E91D0800E3FEC25F0070E726E7D0E76
:1013B800E82EFED7722EFCD700F0D10E00019D6FEB
:1013C800FF0E9E6F110E9F6FFF0EA06F6DEC24F045
:1013D800C00E3FEC25F0D10E00019D6FFF0E9E6FF1
:1013E8001E0E9F6FFF0EA06F6DEC24F0900E3FEC69
:1013F80025F0D10E00019D6FFF0E9E6F8C0E9F6F22
:10140800FE0EA06F6DEC24F0D00E3FEC25F0D10E4F
:1014180000019D6FFF0E9E6FA20E9F6FFF0EA06FC3
:101428006DEC24F0000E0101686F68D0800E3FEC6F
:1014380025F0070E726E7D0EE82EFED7722EFCD7B1
:1014480000F0D10E00019D6FFF0E9E6F510E9F6F31
:10145800FF0EA06F6DEC24F0C00E3FEC25F0D10E0E
:1014680000019D6FFF0E9E6FD90E9F6FFE0EA06F3D
:101478006DEC24F0900E3FEC25F0D10E00019D6F2D
:10148800FF0E9E6F6C0E9F6FFE0EA06F6DEC24F02A
:1014980035D06851D8A405D0E4EC1AF0040E010147
:1014A800686F68C1A7F00001A86B00EC0BF0010E93
:1014B8003FEC25F0110E726E3A0EE82EFED7722E12
:1014C800FCD700D0000E0101696F18D001016951E5
:1014D800726E736A7350000AD8A410D07250000A52
:1014E800D8B4D7D6010AD8B42AD7030AD8B45AD759
:1014F800010AD8B49BD7070AD8B4CBD70001E95161
:10150800D8B46BD0000EE96F81380F0B0F0B0101B7
:10151800666F470E6625F66EF76AFE0EF72208001C
:10152800F5CF6AF1010E3FEC25F0110E726E3A0EFE
:10153800E82EFED7722EFCD700D039D0310E6A19AA
:10154800D8A402D0010E18D0320E6A19D8A402D03D
:10155800030E12D0410E6A19D8A43FD0A6EC24F08D
:101568003CD0310E6A19D8A402D0040E05D0320E30
:101578006A19D8A432D0000E696F2FD0310E6A19BB
:10158800D8A402D0010E11D0320E6A19D8A402D004
:10159800020E0BD0330E6A19D8A402D0030E05D060
:1015A800340E6A19D8A419D0040E686FDED7010169
:1015B8006951726E736A7350000AD8A40ED07250C3
:1015C800000AD8B4BBD7010AD8B407D0030AD8B4E4
:1015D800C8D7010AD8B4D2D7070A010E0101622779
:1015E800000E632364236523040E726E3E0EE82EFC
:1015F800FED7722EFCD701D6800E3FEC25F0070EE1
:10160800666E7D0EE82EFED7662EFCD700F0000E23
:101618006F6E010E6E6E000E6A6E5CD1800E3FEC2E
:1016280025F0070E666E7D0EE82EFED7662EFCD7D7
:1016380000F0A7C006F0A8C007F0000E096E600E03
:10164800086E81EC24F0A70E0624D96E010E07203F
:10165800DA6EDECF6CF0DDCF6DF0CD0E00019D6F40
:10166800FF0E9E6F710E9F6FFF0EA06F6CC0A1F0F2
:101678006DC0A2F0D20EA36FFF0EA46F6DEC24F024
:10168800C00E3FEC25F0A7C006F0A8C007F0000E7A
:10169800096E600E086E81EC24F0A90E0624D96E3E
:1016A800010E0720DA6EDECF6CF0DDCF6DF0C10ED3
:1016B80000019D6FFF0E9E6FAC0E9F6FFE0EA06F18
:1016C8006CC0A1F06DC0A2F06DEC24F0900E3FEC60
:1016D80025F0D10E00019D6FFF0E9E6FE70E9F6FE4
:1016E800FE0EA06F6DEC24F0D00E3FEC25F0D10E6D
:1016F80000019D6FFF0E9E6F7C0E9F6FFE0EA06F08
:101708006DEC24F0F5D0800E3FEC25F0070E666EE8
:101718007D0EE82EFED7662EFCD700F0BD0E000128
:101728009D6FFF0E9E6FDA0E9F6FFF0EA06F6EC04B
:10173800A1F06FC0A2F0FC0EA36FFF0EA46F000E05
:10174800A66F010EA56F6DEC24F0C00E3FEC25F0DE
:10175800A7C006F0A8C007F0000E096E600E086E5C
:1017680081EC24F0A70E666E010E676E06506626A1
:10177800075067226EC006F06FC007F0000E096EB2
:10178800030E086E81EC24F0D89006360736065012
:101798006624D96E07506720DA6EDECF6CF0DDCF95
:1017A8006DF0C10E00019D6FFF0E9E6FC60E9F6FFC
:1017B800FF0EA06F6CC0A1F06DC0A2F06DEC24F01C
:1017C800A7C006F0A8C007F0000E096E600E086EEC
:1017D80081EC24F0A70E666E010E676E040E662675
:1017E800000E672206506626075067226EC006F074
:1017F8006FC007F0000E096E030E086E81EC24F02E
:10180800D8900636073606506624D96E07506720EA
:10181800DA6EDECF6CF0DDCF6DF0C10E00019D6F8A
:10182800FF0E9E6FD40E9F6FFF0EA06F6CC0A1F0CD
:101838006DC0A2F06DEC24F0900E3FEC25F0A7C02F
:1018480006F0A8C007F0000E096E600E086E81EC65
:1018580024F0A70E666E010E676E020E6626000E55
:10186800672206506626075067226EC006F06FC0D2
:1018780007F0000E096E030E086E81EC24F0D89074
:101888000636073606506624D96E07506720DA6E8A
:10189800DECF6CF0DDCF6DF0C10E00019D6FFF0E45
:1018A8009E6F670E9F6FFF0EA06F6CC0A1F06DC09A
:1018B800A2F06DEC24F0D00E3FEC25F0D10E000123
:1018C8009D6FFF0E9E6F030E9F6FFF0EA06F6DEC56
:1018D80024F00ED06A50666E676A6750000AD8A472
:1018E80007D06650000AD8B499D6010AD8B40BD7E5
:1018F8000001E951D8B470D0000EE96F81380F0BA0
:101908000F0B696E470E6924F66EF76AFE0EF72212
:101918000800F5CF6BF0010E3FEC25F0110E666E56
:101928003A0EE82EFED7662EFCD700D047D0310EEF
:101938006B18D8A403D0010E6A6E4ED0320E6B1805
:10194800D8B4120049D0330E6B18D8A407D0000EB3
:101958006A6E000E6F6E010E6E6E3ED0320E6B1800
:10196800D8A41DD0A7C006F0A8C007F0000E096EC5
:10197800600E086E81EC24F0AB0E0624D96E010EC1
:101988000720DA6EDE506E5C6F50800A686EDE509B
:10199800800A6858D8B020D06E4A6F2A1DD0310E00
:1019A8006B18D8B46FBE18D06F5004E1020E6E5C8D
:1019B800D8A012D06E06D8A06F060ED06A50666EF8
:1019C800676A6750000AD8A407D06650000AD8B4DE
:1019D800AED7010AD8B4B7D7040E666E3E0EE82E0D
:1019E800FED7662EFCD776D7010E3FEC25F0110EF8
:1019F80000019C6F3A0EE82EFED79C2FFCD700F012
:101A0800800E3FEC25F0070E00019C6F7D0EE82E3E
:101A1800FED79C2FFCD7000E0001AE6F010EAD6FF4
:101A2800000EB06F010EAF6F70D081A803D09C6B11
:101A38009C2B02D000019C6B9C51B96FBA6B81AA98
:101A480003D09C6B9C2B02D000019C6B9C51BB6FFC
:101A5800BC6BB951BA11D8A40CD0AD05AE11D8A43D
:101A680008D0DBC0A1F0DCC0A2F0DDC0A3F0DEC06E
:101A7800A4F0BB51BC11D8A40CD0AF05B011D8A4A8
:101A880008D0DBC0A5F0DCC0A6F0DDC0A7F0DEC042
:101A9800A8F0B951BA11D8A412D0A151DB5D186EC3
:101AA800A251DC59196EB6EC23F018C0B1F019C078
:101AB800B2F00001000EB2BFFF0EB36FB46FBB519E
:101AC800BC11D8A412D0A551DB5D186EA651DC5903
:101AD800196EB6EC23F018C0B5F019C0B6F00001C5
:101AE800000EB6BFFF0EB76FB86FB951BA11D8B4B0
:101AF80004D0BB51BC11D8A412D0B9C0ADF0BAC043
:101B0800AEF0BBC0AFF0BCC0B0F09851745C995156
:101B180075589A5176589B517758D8A086D7B4BF34
:101B280008D0B451B311B2114BE1500EB15DD8B029
:101B380047D0000E8B6F000E8A6F010E8C6F010E5E
:101B48008D6F000E8F6F000E8E6FB8EC1FF0000EB9
:101B5800076E640E066E98C008F099C009F09AC026
:101B68000AF09BC00BF0A9EC21F00ED0000E8B6F91
:101B78005A0E8A6F000E8C6F000E8D6F000E8F6FDD
:101B88005A0E8E6FB8EC1FF000019851745C995191
:101B980075589A5176589B517758D8B002D081B869
:101BA800E5D7000E8B6F000E8A6F010E8C6F010E49
:101BB8008D6F000E8F6F000E8E6FB8EC1FF08ED0F9
:101BC800000E8B6F000E8A6F010E8C6F010E8D6FE9
:101BD800000E8F6F000E8E6FB8EC1FF0000E076EB0
:101BE800640E066E98C008F099C009F09AC00AF011
:101BF8009BC00BF0A9EC21F00ED0000E8B6F5A0E93
:101C08008A6F000E8C6F000E8D6F000E8F6F5A0E4C
:101C18008E6FB8EC1FF000019851745C995175589B
:101C28009A5176589B517758D8B002D081B8E5D7E9
:101C3800DBC0A9F0DCC0AAF0DDC0ABF0DEC0ACF0C0
:101C48000ED0000E8B6F5A0E8A6F000E8C6F000E2E
:101C58008D6F000E8F6F5A0E8E6FB8EC1FF000015B
:101C68009851745C995175589A5176589B51775888
:101C7800D8B097D7DB51A95D186EDC51AA59196EF7
:101C8800B6EC23F018C09CF019C09DF0000E0001BE
:101C98009DBFFF0E9E6F9F6FB5C006F0B6C007F0E0
:101CA800B7C008F0B8C009F0020E0A6E000E0B6E3D
:101CB800000E0C6E000E0D6E49EC1EF00650000171
:101CC8009C5D07509D5908509E599F51800AA06FEE
:101CD8000950800AA059D8B064D7B3D70001B4BF5F
:101CE80008D0B451B311B21113E1500EB15DD8B0A0
:101CF8000FD0B8BF08D0B851B711B61109E1500ECE
:101D0800B55DD8B005D0000E996F000E986F12001F
:101D1800B4BF17D0B451B311B21104E1510EB15D83
:101D2800D8A00FD0B8BF0DD0B851B711B61104E183
:101D3800510EB55DD8A005D0000E996F020E986FB0
:101D48001200000E996F010E986F12003050800B30
:101D5800396E305030243F6E2FBE3F803F50D8B48C
:101D68000DD03F28D8A408D0000E2D6E000E2E6E80
:101D7800000E2F6E000E306E2F8E08D0000E2D6EC6
:101D8800000E2E6E000E2F6E000E306E3450800B3B
:101D9800391A345034243A6E33BE3A803A50D8B4A3
:101DA8000DD03A28D8A408D0000E316E000E326E3D
:101DB800000E336E000E346E338E08D0000E316E76
:101DC800000E326E000E336E000E346E3A50D8B4E8
:101DD80003D03F50D8A409D0000E2D6E000E2E6EF1
:101DE800000E2F6E000E306E120033502D02F3CF0E
:101DF80044F0F4CF45F044503B6E3C6A3D6A3E6A7D
:101E08004550406E416A426A436A32502E02F3CF0F
:101E180044F0F4CF45F044503B26000E3C223D22CE
:101E28003E2245504026000E412242224322315094
:101E38002F02F3CF44F0F4CF45F044503B26000E78
:101E48003C223D223E2245504026000E412242229D
:101E580043223DC03EF03CC03DF03BC03CF03B6AF5
:101E680031502E02F3CF44F0F4CF45F044503B26D6
:101E780045503C22000E3D22000E3E2232502D02DB
:101E8800F3CF44F0F4CF45F044503B2645503C2274
:101E9800000E3D22000E3E223DC03EF03CC03DF00B
:101EA8003BC03CF03B6A31502D02F3CF44F0F4CFF5
:101EB80045F044503B2645503C22000E3D22000E82
:101EC8003E2233502E02F3CF44F0F4CF45F0445075
:101ED800402645504122000E4222000E4322325035
:101EE8002F02F3CF44F0F4CF45F04450402645503C
:101EF8004122000E4222000E432233502F02F3CF1C
:101F080044F0F4CF45F04450356E4550366E376A8C
:101F1800386A37C038F036C037F035C036F0356A21
:101F280035504026365041223750422238504322FD
:101F38003BC035F03CC036F03DC037F03EC038F00D
:101F4800190E05D0D8903832373236323532E82E6D
:101F5800F9D7355040263650412237504222385062
:101F680043223DC03EF03CC03DF03BC03CF03B6AE4
:101F78003A503FC035F0366A3526000E3622820EBA
:101F88003524446EFF0E3620456E0FD0D89040366B
:101F98004136423643363EBE4080D8903B363C36CA
:101FA8003D363E364406D8A0450642AEEFD7000E71
:101FB8003A6E3EAE17D0FF0E3B14356EFF0E3C1442
:101FC800366EFF0E3D14376E7F0E3E14386E355058
:101FD800361037103810D8B403D0010E3A6E02D03C
:101FE80040B0FBD73A50D8B41FD0010E4026000E9F
:101FF80041224222432243A017D040C035F041C0BD
:1020080036F042C037F043C038F03834383237320F
:102018003632353235C040F036C041F037C042F074
:1020280038C043F0444A452A45BE0DD0455003E127
:102038004428D8A008D0000E406E000E416E800ED5
:10204800426E7F0E20D045BE05D045500EE14404B7
:10205800D8B00BD0000E406E000E416E000E426EDE
:10206800000E436E000E396E0FD044C03FF0FF0ED5
:102078004016FF0E41167F0E4216000E43163FB063
:10208800428ED8903F30436E3950431240C02DF0F5
:1020980041C02EF042C02FF043C030F0120049502A
:1020A800800B526E49504924546E48BE5480545097
:1020B800D8B40DD05428D8A408D0000E466E000E0F
:1020C800476E000E486E000E496E488E06D0000E10
:1020D800466E000E476E000E486E000E496E4D505B
:1020E800800B536E52505318D8A4528C4D504D2427
:1020F800536E4CBE53805350D8B40DD05328D8A437
:1021080008D0000E4A6E000E4B6E000E4C6E000E8C
:102118004D6E4C8E06D0000E4A6E000E4B6E000EB1
:102128004C6E000E4D6E5450535CD8B022D052AC59
:1021380002D0800E521A54C055F053C054F055C006
:1021480053F046C055F04AC046F055C04AF047C063
:1021580055F04BC047F055C04BF048C055F04CC047
:1021680048F055C04CF049C055F04DC049F055C035
:102178004DF0000E556E545053C04EF04F6A4E5EEF
:10218800000E4F5A4FBE2CD04F5004E11A0E4E5C31
:10219800D8A026D04650471048104910D8B402D0CD
:1021A800010E01D0000E556E000E466E000E476EF1
:1021B800000E486E000E496E53C054F015D055A05D
:1021C80005D0D89055300109556E02D0D8905532B7
:1021D80046B0558E49344932483247324632542A3D
:1021E8005350545CD8A0EBD752BC28D05450D8A434
:1021F80009D0000E466E000E476E000E486E000EA7
:10220800496E12004A5046264B5047224C504822ED
:102218004D50492249A071D055A005D0D8905530CD
:102228000109556E02D0D890553246B0558E4934C2
:102238004932483247324632542A5FD04A50465CC7
:102248004B5047584C5048584950800A4E6E4D5094
:10225800800A4E58D8B025D046504A5C4E6E47503A
:102268004B584F6E48504C58506E49504D58516E0F
:10227800FF0E4E24466EFF0E4F20476EFF0E502075
:10228800486EFF0E5120496E800E521A556C5550FB
:10229800D8A40FD0010E4626000E47224822492214
:1022A80008D04A50465E4B50475A4C50485A4D50F9
:1022B800495A4650471048104910D8A41CD05550C8
:1022C800D8A419D0000E466E000E476E000E486E58
:1022D800000E496E1200D8904636473648364936C1
:1022E80055BE468055A002D0D88001D0D89055362A
:1022F8005450D8A4540648AEEED7000E536E55AECF
:102308000BD055C04EF07F0E4E16D8B403D0010E38
:10231800536E02D046B0FBD75350D8B420D0010E2C
:102328004626000E47224822492249A018D046C016
:102338004EF047C04FF048C050F049C051F05134FA
:10234800513250324F324E324EC046F04FC047F0F5
:1023580050C048F051C049F05428D8A4542A5428F1
:10236800D8B403D05450D8A40DD0000E466E000E39
:10237800476E000E486E000E496E5450D8A402D025
:10238800000E526E54A002D0488E01D0489ED890BC
:102398005430496E52BE498E46C046F047C047F099
:1023A80048C048F049C049F012001750800B246E0D
:1023B800175017242B6E16BE2B802B50D8B40DD077
:1023C8002B28D8A408D0000E146E000E156E000E2F
:1023D800166E000E176E168E06D0000E146E000EC6
:1023E800156E000E166E000E176E1B50800B241A09
:1023F8001B501B242C6E1ABE2C802C50D8B40DD028
:102408002C28D8A408D0000E186E000E196E000EE5
:102418001A6E000E1B6E1A8E06D0000E186E000E75
:10242800196E000E1A6E000E1B6E185019101A1035
:102438001B10D8A417D0000E146E000E156E000ED7
:10244800166E000E176E800E16127F0E171224508D
:10245800171214C014F015C015F016C016F017C0E6
:1024680017F012002B50D8A409D0000E146E000EDD
:10247800156E000E166E000E176E12002C502BC033
:102488001CF01D6A1C5E000E1D5A7F0E1C24256E52
:10249800000E1D20266E14C020F015C021F016C0B5
:1024A80022F017C023F0000E146E000E156E000EF9
:1024B800166E000E176E000E276E000E286E000EA8
:1024C800296E000E2A6E000E2C6E28D02C50D8B41F
:1024D80011D0D8902036213622362336D89014369B
:1024E8001536163617362ABE1480D8902736283661
:1024F80029362A361850205C195021581A5022586B
:102508001B502358D8A009D02A8C1850205E195087
:10251800215A1A50225A1B50235A2C2A190E2C645D
:10252800D5D72050211022102310D8B411D02780DD
:102538000FD0D89014361536163617362ABE1480A2
:10254800D8902736283629362A362506D8A02606D2
:1025580016AEEFD7000E2C6E2AAE17D0FF0E27143A
:102568001C6EFF0E28141D6EFF0E29141E6E7F0EA2
:102578002A141F6E1C501D101E101F10D8B403D033
:10258800010E2C6E02D014B0FBD72C50D8B41FD03B
:10259800010E1426000E15221622172217A017D096
:1025A80014C01CF015C01DF016C01EF017C01FF097
:1025B8001F341F321E321D321C321CC014F01DC0C5
:1025C80015F01EC016F01FC017F0254A262A26BE91
:1025D80010D0265003E12528D8A00BD0000E266E77
:1025E8002568000E146E000E156E000E166E000E95
:1025F800176E26BE05D0265011E12504D8B00ED09E
:10260800000E266E000E256E000E146E000E156E5E
:10261800000E166E000E176E000E246E25C02BF0ED
:102628002BA002D0168E01D0169ED8902B30176E94
:102638000ED79AC018F09BC019F09CC01AF09DC024
:102648001BF00001A251D75D066EA351D859076E41
:10265800A451D959086EA551DA59096E010E04EC36
:1026680019F006C014F007C015F008C016F009C02C
:1026780017F0D9EC11F014C05AF015C05BF016C071
:102688005CF017C05DF000019E51DB5D066E9F5146
:10269800DC59076EA051DD59086EA151DE59096E4B
:1026A800010E04EC19F006C056F007C057F008C038
:1026B80058F009C059F0D7EC22F056C05EF057C068
:1026C8005FF058C060F059C061F0AFEC1EF05EC01A
:1026D800AAF05FC0ABF060C0ACF061C0ADF0A6C0BE
:1026E80031F0A7C032F0A8C033F0A9C034F0AAC0B6
:1026F80006F0ABC007F0ACC008F0ADC009F0010EA1
:1027080004EC19F006C02DF007C02EF008C02FF019
:1027180009C030F0AAEC0EF02DC05AF02EC05BF0C4
:102728002FC05CF030C05DF098C006F099C007F08B
:10273800000E07BEFF0E086E096E010E04EC19F0BC
:1027480006C056F007C057F008C058F009C059F045
:10275800D7EC22F056C05EF057C05FF058C060F06A
:1027680059C061F0AFEC1EF05EC0AEF05FC0AFF0D4
:10277800A6C031F0A7C032F0A8C033F0A9C034F029
:10278800AAC006F0ABC007F0ACC008F0ADC009F0B5
:10279800010E04EC19F006C02DF007C02EF008C099
:1027A8002FF009C030F0AAEC0EF02DC04AF02EC070
:1027B8004BF02FC04CF030C04DF09AC031F09BC0A8
:1027C80032F09CC033F09DC034F098C006F099C038
:1027D80007F0000E07BEFF0E086E096E010E04EC2E
:1027E80019F006C02DF007C02EF008C02FF009C060
:1027F80030F0AAEC0EF02DC046F02EC047F02FC0E6
:1028080048F030C049F053EC10F046C05EF047C0C5
:102818005FF048C060F049C061F0AFEC1EF05EC0E8
:10282800B0F05FC0B1F00001AFBF0AD0AF5104E112
:10283800650EAE5DD8A004D0000EAF6F640EAE6F0B
:10284800AFAF04D0000EAF6F000EAE6FB1BF0AD0AD
:10285800B15104E1650EB05DD8A004D0000EB16F8F
:10286800640EB06FB1AF04D0000EB16F000EB06F40
:10287800AEC08AF0AFC08BF0010E8C6F010E8D6F69
:10288800B0C08EF0B1C08FF0B8EC1FF0120027C0B6
:102898003FF028C040F029C041F02AC042F02BC0C8
:1028A80043F02CC044F02DC045F02EC046F046AE93
:1028B80002D0010E01D0000E3D6E3E6A3D503E1022
:1028C800D8B410D0461E451E441E431E421E411E4B
:1028D800401E3F6C000E40224122422243224422E5
:1028E800452246220001E4AF7892E4BF05D0E451C6
:1028F80008E1E305D8B005D0000E3A6E010E396E36
:1029080004D0E3C039F0E4C03AF0E1C03BF0E2C0E3
:102918003CF03D503E10D8A402D078A403D03B062A
:10292800D8A03C06000E486E1F0E476E000E01012F
:10293800926F7CD04706D8A04806730E4724D96EFC
:10294800010E4820DA6E3FC006F040C007F041C0D3
:1029580008F042C009F043C00AF044C00BF045C07B
:102968000CF046C00DF00A0E0E6E000E0F6E000E33
:10297800106E000E116E000E126E000E136E000E19
:10298800146E000E156E79EC1BF006C02FF007C010
:1029980030F008C031F009C032F00AC033F00BC083
:1029A80034F00CC035F00DC036F02FC018F031C02F
:1029B80019F0B6EC23F01850300FDF6E3906D8A0A6
:1029C8003A063B06D8A03C063FC006F040C007F0D8
:1029D80041C008F042C009F043C00AF044C00BF0FF
:1029E80045C00CF046C00DF00A0E0E6E000E0F6EBC
:1029F800000E106E000E116E000E126E000E136E99
:102A0800000E146E000E156E60EC18F006C03FF054
:102A180007C040F008C041F009C042F00AC043F0C6
:102A28000BC044F00CC045F00DC046F048BE1FD0A6
:102A3800485003E14704D8A01AD03F504010411035
:102A480042104310441045104610D8A473D73ABE1C
:102A580005D03A5002E13904D8B06CD73CBE07D053
:102A68003C5003E13B04D8A002D078B263D73D5074
:102A78003E10D8A402D078A417D04706D8A048069C
:102A88003D503E10D8A404D0000E386E2B0E03D053
:102A9800000E386E2D0E376E730E4724D96E010E58
:102AA8004820DA6E37C0DFFF25C01AF026C01BF0B9
:102AB800730E47241C6E010E48201D6E3BC01EF08D
:102AC8003CC01FF004EC20F01AC025F01BC026F013
:102AD80012000001E4AF7892E4BF05D0E45108E1A8
:102AE800E305D8B005D0000E3D6E010E3C6E04D053
:102AF800E3C03CF0E4C03DF0E1C03EF0E2C03FF08E
:102B080078A804D0FE0E3E26FF0E3F2227C040F0D4
:102B180028C041F029C042F02AC043F02BC044F03D
:102B28002CC045F02DC046F02EC047F0000E496E6F
:102B38001F0E486E000E0101926F93D04806D8A070
:102B480049060F0E40144A6E4B6A4BBE08D04B50D4
:102B580004E10A0E4A5CD8A002D0570E01D0300E0C
:102B68004A244A6E000E4B204B6EBF0E306EFF0E8D
:102B7800316E2F50326E336A305032263150332244
:102B8800335006E11A0E325CD8B002D0010E01D0E3
:102B9800000E386E396A38503910D8B427D09F0ED5
:102BA800306EFF0E316E200E4A10326E000E4B1042
:102BB800336E3050322631503322335006E11A0E2C
:102BC800325CD8B002D0010E01D0000E3A6E3B6ADA
:102BD8003A503B10D8B40AD04AC00CF04BC00DF0A4
:102BE800B2EC22F00CC04AF00DC04BF0730E482432
:102BF800D96E010E4920DA6E4AC0DFFF3C06D8A024
:102C08003D063E06D8A03F0640C030F041C031F036
:102C180042C032F043C033F044C034F045C035F010
:102C280046C036F047C037F0050E09D0D890373285
:102C38003632353234323332323231323032E82EB3
:102C4800F5D730C040F031C041F032C042F033C057
:102C580043F034C044F035C045F036C046F037C0C4
:102C680047F049BE20D0495004E1020E485CD8A084
:102C78001AD04050411042104310441045104610DD
:102C88004710D8A45BD73DBE05D03D5002E13C04B7
:102C9800D8B054D73FBE07D03F5003E13E04D8A078
:102CA80002D078B24BD778A816D04806D8A04906E3
:102CB800730E4824D96E010E4920DA6E2FC0DFFF4B
:102CC8004806D8A04906730E4824D96E010E49203B
:102CD800DA6E300EDF6E25C01AF026C01BF0730EB8
:102CE80048241C6E010E49201D6E3EC01EF03FC0D8
:102CF8001FF004EC20F01AC025F01BC026F01200CB
:102D08006BBE1200000E146E000E156EC80E166E05
:102D1800420E176E68C018F069C019F06AC01AF040
:102D28006BC01BF07AEC1DF0D8A012006FBE120029
:102D3800000E146E000E156EC80E166E420E176E3B
:102D48006CC018F06DC019F06EC01AF06FC01BF09F
:102D58007AEC1DF0D8A01200010ECB240001806F80
:102D6800816B000E8123000E186E000E196EC80EBE
:102D78001A6E420E1B6E000E316E000E326E800E01
:102D8800336E400E346E68C02DF069C02EF06AC0F4
:102D98002FF06BC030F0AAEC0EF02DC014F02EC04E
:102DA80015F02FC016F030C017F0D9EC11F014C090
:102DB80086F015C087F016C088F017C089F080C06B
:102DC80006F081C007F0086A096A000E04EC19F0E1
:102DD80006C031F007C032F008C033F009C034F043
:102DE80086C02DF087C02EF088C02FF089C030F043
:102DF800AAEC0EF02DC05EF02EC05FF02FC060F080
:102E080030C061F0AFEC1EF05EC082F05FC083F0AE
:102E1800000E186E000E196EC80E1A6E420E1B6E4A
:102E2800000E316E000E326E800E336E400E346E20
:102E38006CC02DF06DC02EF06EC02FF06FC030F05A
:102E4800AAEC0EF02DC014F02EC015F02FC016F00D
:102E580030C017F0D9EC11F014C086F015C087F017
:102E680016C088F017C089F080C006F081C007F04E
:102E7800086A096A000E04EC19F006C031F007C0B0
:102E880032F008C033F009C034F086C02DF087C096
:102E98002EF088C02FF089C030F0AAEC0EF02DC0BB
:102EA8005EF02EC05FF02FC060F030C061F0AFEC74
:102EB8001EF05EC084F05FC085F0BD9A000182A15B
:102EC80002D0BD8801D0BD9882C070F083C071F077
:102ED800D89071327032D890713270327050BE6EA4
:102EE800BA9A000184A102D0BA8801D0BA9884C0E5
:102EF80070F085C071F0D89071327032D89071320C
:102F080070327050BB6E12000001E4AF7892E4BFDB
:102F180005D0E45108E1E305D8B005D0000E386EBD
:102F2800010E376E04D0E3C037F0E4C038F0E1C0DA
:102F380039F0E2C03AF027C03BF028C03CF029C085
:102F48003DF02AC03EF02BC03FF02CC040F02DC011
:102F580041F02EC042F0000E446E1F0E436E000E6C
:102F68000101926F76D04306D8A04406730E43241D
:102F7800D96E010E4420DA6E3BC006F03CC007F063
:102F88003DC008F03EC009F03FC00AF040C00BF059
:102F980041C00CF042C00DF00A0E0E6E000E0F6E0E
:102FA800000E106E000E116E000E126E000E136EE3
:102FB800000E146E000E156E0CEC1FF006C02FF0FC
:102FC80007C030F008C031F009C032F00AC033F051
:102FD8000BC034F00CC035F00DC036F02F50300F58
:102FE800DF6E3706D8A038063906D8A03A063BC0A7
:102FF80006F03CC007F03DC008F03EC009F03FC0F5
:103008000AF040C00BF041C00CF042C00DF00A0EAF
:103018000E6E000E0F6E000E106E000E116E000E7A
:10302800126E000E136E000E146E000E156EE2EC9A
:103038001DF006C03BF007C03CF008C03DF009C0D9
:103048003EF00AC03FF00BC040F00CC041F00DC08C
:1030580042F043504410D8B41AD03B503C103D10B5
:103068003E103F10401041104210D8A47CD738BE03
:1030780005D0385002E13704D8B075D73ABE07D02A
:103088003A5003E13904D8A002D078B26CD725C0F1
:103098001AF026C01BF0730E43241C6E010E442048
:1030A8001D6E39C01EF03AC01FF004EC20F01AC0A3
:1030B80025F01BC026F01200000E176E15AE12D0B8
:1030C800151E141E131E121E111E101E0F1E0E6C2E
:1030D800000E0F221022112212221322142215226E
:1030E800010E176E0DAE12D00D1E0C1E0B1E0A1E01
:1030F800091E081E071E066C000E07220822092258
:103108000A220B220C220D22010E171A20EE18F0AB
:10311800070EDE6AE806FDE20E500F1010101110BF
:103128001210131014101510D8B446D0010E166ED4
:103138000AD0D8900E360F3610361136123613369E
:1031480014361536162A15AEF4D7D890183619360F
:103158001A361B361C361D361E361F360E50065CB8
:103168000F500758105008581150095812500A5853
:1031780013500B5814500C5815500D58D8A011D096
:103188000E50065E0F50075A1050085A1150095A2F
:1031980012500A5A13500B5A14500C5A15500D5A03
:1031A8001880D8901532143213321232113210327C
:1031B8000F320E32162EC9D71750D8B410D01F1E92
:1031C8001E1E1D1E1C1E1B1E1A1E191E186C000E0C
:1031D80019221A221B221C221D221E221F2218C05D
:1031E80006F019C007F01AC008F01BC009F01CC08F
:1031F8000AF01DC00BF01EC00CF01FC00DF012002D
:103208000E6E0E50D8A409AE1AD006C00AF007C038
:103218000BF008C00CF009C00DF00A1E0B1E0C1EA6
:103228000D1E0A2A000E0B220C220D220AC010F0D5
:103238000BC011F00CC012F00DC013F008D006C07E
:1032480010F007C011F008C012F009C013F00650C2
:10325800071008100910D8A409D0000E066E000E39
:10326800076E000E086E000E096E1200960E0F6EA5
:1032780006D00F2AD8901332123211321032000EB3
:1032880010140A6E000E11140B6E000E12140C6E40
:10329800FE0E13140D6E0A500B100C100D10D8B43E
:1032A8000DD0E7D70F2A010E1026000E1122122288
:1032B8001322D8901332123211321032000E101429
:1032C8000A6E000E11140B6E000E12140C6EFF0E17
:1032D80013140D6E0A500B100C100D10D8B407D033
:1032E800E1D70F06D890103611361236133612BEB3
:1032F80003D0020E0F60F5D70FA0129ED8900F32A0
:103308000FC00AF00B6A0C6A0D6A0AC00DF00C6A4D
:103318000B6A0A6A0A5010120B5011120C50121242
:103328000D5013120E50D8A409AE01D0138E10C040
:1033380006F011C007F012C008F013C009F012001F
:1033480020EEEAF010EE18F0060EDBCFE3FFE806F9
:10335800FCE215C023F016C024F023502410D8A492
:1033680004D0180E236E000E246E23C006F024C06D
:1033780007F03FEC23F006C027F007C028F0E3C0B1
:1033880025F0E4C026F026BE0ED02750255C265036
:10339800800A176E2850800A1758D8B004D025C064
:1033A80027F026C028F027C025F028C026F0E1C065
:1033B80021F0E2C022F078A00DD016D0000E0B6EDE
:1033C800200E0A6E13C00CF014C00DF00BEC21F0A7
:1033D800274A282A2150275C2850800A176E225035
:1033E800800A1758D8A0EAD7000E206E000E1F6E6C
:1033F8001FD023C0F6FF24C0F7FF000EF86E0F0E93
:10340800F76403D00800F55005D0F6CFE1FFF7CFF9
:10341800E2FFE750176E17500A6E0B6A13C00CF0E4
:1034280014C00DF00BEC21F0234A242A1F4A202A4D
:1034380025501F5C2050800A176E2650800A1758A6
:10344800D8A0D7D778B00DD016D0000E0B6E200EAE
:103458000A6E13C00CF014C00DF00BEC21F0274AD3
:10346800282A2150275C2850800A176E2250800A8B
:103478001758D8A0EAD727C013F028C014F01200B4
:10348800000E1B6E000E1A6E000E146E000E136EE8
:1034980002D00D4A0E2A010E196E0DC0F6FF0EC09D
:1034A800F7FF0800F550200AD8B418D0F70E0F6EB1
:1034B800FF0E106E0DC0F6FF0EC0F7FF0800F550A6
:1034C800116E126A0F50112610501222125004E188
:1034D800050E115CD8A002D0000E196E19C015F0A7
:1034E800166A15501610D8B408D0D3D7000E146E2B
:1034F800010E136E0D4A0E2A2ED00DC0F6FF0EC017
:10350800F7FF0800F5500F6E106A1050000AD8A493
:1035180022D00F502B0AD8B4EDD7060AD8B4E6D774
:103528001AD01AC006F01BC007F0000E096E0A0E6A
:10353800086E81EC24F00DC0F6FF0EC0F7FF0800FE
:10354800F550065E000E075A300E06241A6E000E5D
:1035580007201B6ECFD7D00E0F6EFF0E106E0DC05A
:10356800F6FF0EC0F7FF0800F550116E126A0F50F3
:10357800112610501222125006E10A0E115CD8B022
:1035880002D0010E01D0000E176E186A17501810DD
:10359800D8A4C7D713501410D8A40DD01AC00FF050
:1035A8001BC010F00F1E101E0F4A102A0FC00DF07E
:1035B80010C00EF012001AC00DF01BC00EF0120061
:1035C800000E1C6E000E1B6ED8901B34D96E1C3476
:1035D800DA6E670ED926020EDA22D8901B34E16E15
:1035E8001C34E26E070EE126020EE222DECFE6FF71
:1035F800DDCFE5FF1B4A1C2A1CBEE6D71C5004E1A0
:10360800300E1B5CD8A0E0D7000E1E6E000E1D6E9B
:10361800D8901D34D96E1E34DA6EC70ED926020E24
:10362800DA22D8901D34E16E1E34E26E670EE12670
:10363800020EE222DECFE6FFDDCFE5FF1D4A1E2A9D
:103648001EBEE6D71E5004E1300E1D5CD8A0E0D7A0
:10365800000E206E000E1F6ED8901F34D96E2034D5
:10366800DA6E270ED926030EDA22D8901F34E16EBF
:103678002034E26EC70EE126020EE222DECFE6FF1C
:10368800DDCFE5FF1F4A202A20BEE6D7205004E1FF
:10369800300E1F5CD8A0E0D7000E226E000E216EFF
:1036A800D8902134D96E2234DA6EA70ED926010EAD
:1036B800DA22D8902134E16E2234E26E270EE12618
:1036C800030EE222DECFE6FFDDCFE5FF214A222A04
:1036D80022BEE6D7225004E1300E215CD8A0E0D704
:1036E80004EC1DF01DEC23F01200000E176E0DAE59
:1036F80012D00D1E0C1E0B1E0A1E091E081E071EC8
:10370800066C000E0722082209220A220B220C222C
:103718000D22010E176E15AE10D0151E141E131EA5
:10372800121E111E101E0F1E0E6C000E0F221022EC
:10373800112212221322142215220E500F101010DB
:1037480011101210131014101510D8B43CD0010E1B
:10375800166E0AD0D8900E360F361036113612363D
:10376800133614361536162A15AEF4D70E50065CE5
:103778000F500758105008581150095812500A583D
:1037880013500B5814500C5815500D58D8A010D081
:103798000E50065E0F50075A1050085A1150095A19
:1037A80012500A5A13500B5A14500C5A15500D5AED
:1037B800D8901532143213321232113210320F32BD
:1037C8000E32162ED3D71750D8B410D00D1E0C1E9B
:1037D8000B1E0A1E091E081E071E066C000E072275
:1037E800082209220A220B220C220D2206C006F00A
:1037F80007C007F008C008F009C009F00AC00AF0BD
:103808000BC00BF00CC00CF00DC00DF01200000E38
:10381800136E000E126E010E116E000E166E000E63
:10382800156E16BE36D0165004E1050E155CD8A0EC
:1038380030D0FB0E1524066EFF0E1620076E000E04
:10384800096E030E086ED3EC20F006500710D8A4BA
:1038580020D0140E066E000E076E1350F9EC24F0FB
:103868000E0E066E000E076E1328F9EC24F0020EF9
:10387800132614C00FF0106A0E500FC00CF010C0C1
:103888000DF00CC00DF00C6A0C100F6E0D50106E80
:103898000BD0140E066E000E076E1350F9EC24F0D0
:1038A800132A14C00FF0106A11C006F012C007F0F6
:1038B800000E096E600E086E81EC24F0A70E0C6EE7
:1038C800010E0D6E06500C2607500D22D8901534A7
:1038D800D96E1634DA6E0C50D9260D50DA220FC084
:1038E800DEFF10C0DDFF154A162A16BE9AD71650FD
:1038F80004E1300E155CD8A094D7114A122A12BEE2
:103908008CD7125005E1050E115CD8B0120085D78E
:103918001200DBC0CFF0DCC0D0F0DDC0D1F0DEC0DB
:10392800D2F0D7C0C7F0D8C0C8F0D9C0C9F0DAC043
:10393800CAF03AD0B4C006F0B5C007F0000E07BE12
:10394800FF0E086E096E010E04EC19F006C0CBF0EC
:1039580007C0CCF008C0CDF009C0CEF0B2C098F0D6
:10396800B3C099F0CBC09AF0CCC09BF0CDC09CF00E
:10397800CEC09DF0CFC09EF0D0C09FF0D1C0A0F0C7
:10398800D2C0A1F0C7C0A2F0C8C0A3F0C9C0A4F0BB
:10399800CAC0A5F0B6C0A6F0B7C0A7F0B8C0A8F0D6
:1039A800B9C0A9F01DEC13F00001BE51745CBF5101
:1039B8007558C0517658C1517758D8B01200CF51B8
:1039C800DB5D186ED051DC59196EB6EC23F018C0C7
:1039D800C2F019C0C3F0000E0001C3BFFF0EC46FD0
:1039E800C56FBA51C25DBB51C359BC51C459C55109
:1039F800800AC66FBD51800AC659D8B012009AD73E
:103A0800000E146E000E136E010E126E000E166E6E
:103A1800000E156E12C006F013C007F0000E096EF6
:103A2800600E086E81EC24F0A70E0C6E010E0D6E70
:103A380006500C2607500D22D8901534D96E16342E
:103A4800DA6E0C50D9260D50DA22DECF10F0DDCF19
:103A580011F016BE2BD0165004E1050E155CD8A047
:103A680025D0FB0E1524066EFF0E1620076E000EDD
:103A7800096E030E086ED3EC20F006500710D8A488
:103A880015D011500F6E10C00EF00F0E066E000EFE
:103A9800076E145017EC24F00E0E066E000E076E1B
:103AA800142817EC24F0020E14260AD010C00FF0C8
:103AB8000F0E066E000E076E145017EC24F0142A31
:103AC800154A162A16BEA6D7165004E1300E155C04
:103AD800D8A0A0D7124A132A13BE98D7135005E1CD
:103AE800050E125CD8B0120091D71200000E141403
:103AF8001C6E000E15141D6E800E16141E6E7F0EA1
:103B080017141F6E1C501D101E101F10D8A408D0AB
:103B1800000E146E000E156E000E166E000E176E57
:103B2800000E18141C6E000E19141D6E800E1A1447
:103B38001E6E7F0E1B141F6E1C501D101E101F10B2
:103B4800D8A408D0000E186E000E196E000E1A6E5A
:103B5800000E1B6E17AE09D0146C151ED8B0152AAE
:103B6800161ED8B0162A800E17561BAE09D0186C30
:103B7800191ED8B0192A1A1ED8B01A2A800E1B5638
:103B8800000E141A000E151A000E161A800E171AB7
:103B9800000E181A000E191A000E1A1A800E1B1A97
:103BA8001850145C195015581A5016581B501758AD
:103BB800D8B002D0D8901200D880120020EE16F0AB
:103BC800070EDE6AE806FDE20E500F101010111005
:103BD8001210131014101510D8B446D0010E1E6E12
:103BE8000AD0D8900E360F361036113612361336E4
:103BF800143615361E2A15AEF4D7D8901636173651
:103C0800183619361A361B361C361D360E50065C09
:103C18000F500758105008581150095812500A5898
:103C280013500B5814500C5815500D58D8A011D0DB
:103C38000E50065E0F50075A1050085A1150095A74
:103C480012500A5A13500B5A14500C5A15500D5A48
:103C58001680D890153214321332123211321032C3
:103C68000F320E321E2EC9D716C006F017C007F045
:103C780018C008F019C009F01AC00AF01BC00BF0F0
:103C88001CC00CF01DC00DF01200000E0F6E0DAE22
:103C98000AD00D1E0C1E0B1E0A6C000E0B220C22E5
:103CA8000D22010E0F6E09AE0AD0091E081E071E4E
:103CB800066C000E072208220922010E0F1A000EB8
:103CC800106E000E116E000E126E000E136E0A506A
:103CD8000B100C100D10D8B42AD0010E0E6E06D0A1
:103CE800D8900A360B360C360D360E2A0DAEF8D79C
:103CF800D89010361136123613360A50065C0B501F
:103D080007580C5008580D500958D8A009D00A5027
:103D1800065E0B50075A0C50085A0D50095A10806D
:103D2800D8900D320C320B320A320E2EE1D70F50DA
:103D3800D8B408D0131E121E111E106C000E1122CA
:103D48001222132210C006F011C007F012C008F0AA
:103D580013C009F0120060346134676E6750D8A44C
:103D680009D0000E5E6E000E5F6E000E606E000ED3
:103D7800616E12005EC062F05FC063F060C064F004
:103D880061C065F0200E05D0D89065326432633288
:103D98006232E82EF9D76250666E608EFF0E5E16AC
:103DA800FF0E5F16FF0E6016000E6116960E675E18
:103DB80067AE0DD06750800A970FD8A0D2D7D89099
:103DC800613260325F325E32673EF9D70DD01F0E26
:103DD800676407D0C6D7D8905E365F3660366136DE
:103DE80067066750D8A4F7D76650D8B408D0611EC4
:103DF800601E5F1E5E6C000E5F22602261225EC044
:103E08005EF05FC05FF060C060F061C061F01200FA
:103E18000E500F101010111012101310141015104E
:103E2800D8B43CD0010E166E0AD0D8900E360F3694
:103E3800103611361236133614361536162A15AEC4
:103E4800F4D70E50065C0F50075810500858115000
:103E5800095812500A5813500B5814500C58155042
:103E68000D58D8A010D00E50065E0F50075A1050AB
:103E7800085A1150095A12500A5A13500B5A145022
:103E88000C5A15500D5AD89015321432133212327A
:103E9800113210320F320E32162ED3D706C006F06A
:103EA80007C007F008C008F009C009F00AC00AF006
:103EB8000BC00BF00CC00CF00DC00DF0120006C0CA
:103EC8000DF007C00EF008C00FF009C010F00A0688
:103ED800D8A00B060A280FE10B28D8A40CD0000E96
:103EE800076E000E066E12000D4A0E2A0F4A102A9F
:103EF8000A06D8A00B060DC0F6FF0EC0F7FF080093
:103F0800F5500009D8B41DD00FC0F6FF10C0F7FF58
:103F18000800F5500009D8B414D00A500B10D8B4D2
:103F280010D00DC0F6FF0EC0F7FF0800F5CF0CF05B
:103F38000FC0F6FF10C0F7FF0800F5500C18D8B4F2
:103F4800D3D70DC0F6FF0EC0F7FF0800F5CF0CF071
:103F58000FC0F6FF10C0F7FF0800F5500C5C066EA6
:103F6800076AD8A00706120000018C51D8B403D004
:103F78008980899202D0899089828D51D8B403D0E2
:103F88008984899602D0899489868AC006F08BC074
:103F980007F0000E07BEFF0E086E096E010E04EC56
:103FA80019F006C090F007C091F008C092F009C05F
:103FB80093F08EC006F08FC007F0000E07BEFF0E0C
:103FC800086E096E010E04EC19F006C094F007C0E3
:103FD80095F008C096F009C097F090C068F091C0BD
:103FE80069F092C06AF093C06BF094C06CF095C011
:103FF8006DF096C06EF097C06FF084EC16F012006A
:1040080078A00AD01CC013F01DC014F01AC015F017
:104018001BC016F080EC23F01FBE05D01EC023F095
:104028001FC024F004D0000E246E000E236E000E74
:10403800226E000E216E0CD0000E0B6E200E0A6E42
:104048001AC00CF01BC00DF00BEC21F0214A222AFB
:104058002350215C2250800A206E2450800A205868
:10406800D8A0EAD778B00AD01CC013F01DC014F04D
:104078001AC015F01BC016F080EC23F01CC006F027
:104088001DC007F03FEC23F0235006241A6E24507D
:1040980007201B6E12003A0EF66E4A0EF76E000EDF
:1040A800F86E01EE93F010EE14F00900F5CFEEFF74
:1040B800E550E150FAE1940EF66E4A0EF76E000EE6
:1040C800F86E00EEEAF010EE09F00900F5CFEEFF09
:1040D800E550E150FAE101EEA7F011EEE0F0EE6AEA
:1040E800E550E150FCE1E250FAE101EE6BF0280EF8
:1040F800EE6AE806FDE100EED7F0130EEE6AE80678
:10410800FDE1796A786A776A766A756A746A7A907C
:104118007A92000EF86E0001D8EF08F0000E0E6ECD
:10412800000E0F6E000E106E000E116E0A500B106E
:104138000C100D10D8B42AD0010E126E06D0D890EB
:104148000A360B360C360D36122A0DAEF8D7D89033
:104158000E360F36103611360A50065C0B500758CB
:104168000C5008580D500958D8A009D00A50065EBE
:104178000B50075A0C50085A0D50095A0E80D89007
:104188000D320C320B320A32122EE1D70EC006F075
:104198000FC007F010C008F011C009F01200000E9F
:1041A8000B6E07AE06D0066C071ED8B0072A010EA4
:1041B8000B6E09AE04D0086C091ED8B0092A085045
:1041C8000910D8B418D0010E0A6E04D0D890083659
:1041D80009360A2A09AEFAD70850065C095007586A
:1041E800D8A004D00850065E0950075AD890093262
:1041F80008320A2EF1D70B50D8B404D0066C071E2B
:10420800D8B0072A06C006F007C007F012000C5005
:104218000D10D8B404D00C500D10D8A404D00A50F6
:1042280039EC25F0120020EE04F00C50D9260D5080
:10423800DA22DE50DE10D8B416D020EE04F00C508E
:10424800D9260D50DA2210EE02F00C50E1260D505E
:10425800E222DE50E65CE650800A126EDE50800AEA
:104268001258D8B0120020EE02F00C50D9260D508A
:10427800DA22DE2A000EDD221200310E0A6EB20E9C
:10428800E82EFED70A2EFCD700D08C94030E12EC31
:1042980025F0110E0A6E3A0EE82EFED70A2EFCD72C
:1042A80000D0030E12EC25F07D0EE82EFED7320E5C
:1042B80030EC25F0280E30EC25F0080E30EC25F017
:1042C800010E30EC25F0110E0A6E3A0EE82EFED7DC
:1042D8000A2EFCD700D0060E30EC25F00C0E3FEC71
:1042E80025F012000A500B100C100D10D8B424D071
:1042F800010E0E6E06D0D8900A360B360C360D36E7
:104308000E2A0DAEF8D70A50065C0B5007580C5011
:1043180008580D500958D8A008D00A50065E0B500E
:10432800075A0C50085A0D50095AD8900D320C32C1
:104338000B320A320E2EE7D706C006F007C007F088
:1043480008C008F009C009F0120074C014F075C064
:1043580015F076C016F077C017F00850745C095055
:1043680075580A5076580B507758D8B0120006C0C6
:104378000CF007C00DF0000E0DBEFF0E0E6E0F6E96
:104388001450745C106E15507558116E165076588E
:10439800126E17507758136E0C50105C0D50115850
:1043A8000E5012580F501358D8B01200D6D7C69ACC
:1043B80094869488800E066E960E076E980E086E88
:1043C800000E096E13C017F014C018F015C019F0CC
:1043D80016C01AF0020ED8901736183619361A3643
:1043E800E82EF9D717C00AF018C00BF019C00CF066
:1043F8001AC00DF092EC20F00604C86E800EC76E4D
:10440800280EC66E000EC56E120099C060F09AC0E4
:1044180061F0000E0001E06F000EDF6F13D097C04F
:104428004CF098C04DF0600E4E6E000E4F6E9BC063
:1044380050F09CC051F0DDEC04F04C500001DF2737
:104448004D50E02360C0F6FF61C0F7FF0800F5504B
:104458000009D8A4E4D7DFC097F0E0C098F01200B4
:1044680081A403D0016A012A01D0016A0150026EB9
:10447800036A82A003D0016A012A01D0016A0150AF
:10448800046E056A025004180EE103500518D8A4FA
:104498000AD0FF0E0001D727FF0ED823FF0ED9231D
:1044A800FF0EDA231200010E0001D727000ED823D1
:1044B800D923DA23120081A003D0016A012A01D08E
:1044C800016A0150026E036A84A203D0016A012ABC
:1044D80001D0016A0150046E056A025004180CE10B
:1044E80003500518D8A408D0010E0001DB27000EE0
:1044F800DC23DD23DE231200FF0E0001DB27FF0E85
:10450800DC23FF0EDD23FF0EDE2312000001E15144
:10451800E211D8A405D0E1C028F0E2C029F006D005
:10452800FF0EE125286EFF0EE221296E27C073F1E8
:10453800000E0101746F25C01AF026C01BF0730E1F
:104548001C6E010E1D6E28C01EF029C01FF004EC61
:1045580020F01AC025F01BC026F012009F0E0E6E28
:10456800FF0E0F6E0CC010F00DC011F00E5010268B
:104578000F501122115006E11A0E105CD8B002D06B
:10458800010E01D0000E126E136A12501310D8B427
:1045980005D05F0E0C140C6E0D6A12000CC00CF0E6
:1045A8000DC00DF01200000E5A1A000E5B1A000E14
:1045B8005C1A800E5D1A56C046F057C047F058C0C6
:1045C80048F059C049F05AC04AF05BC04BF05CC093
:1045D8004CF05DC04DF053EC10F046C056F047C0AB
:1045E80057F048C058F049C059F012000600F0A032
:1045F80005D0010E0001E96FF09019D0F2A40CD09B
:10460800F294FB0ED76E1E0ED66E010E7426000EA7
:104618007522762277220BD0F0A204D0F09234ECE7
:1046280022F005D0F2A203D0F2925FEC22F07A9247
:10463800110006EC25F0000E8C6E000E956E000E33
:104648008A6E93829388938A938C938E9396929A88
:1046580092988998A00E136E860E146E010E156E30
:10466800000E166EDBEC21F00F0EC16EF08641ECE9
:1046780021F0F28E120006C008F007C009F002D03F
:10468800064A072A06C0F6FF07C0F7FF000EF86EB5
:104698000F0EF76403D00800F55005D0F6CFE1FF00
:1046A800F7CFE2FFE7500009D8A4EAD70850065C24
:1046B800066E09500758076E1200010E0C6E200E88
:1046C80006180710D8B414D0F70E086EFF0E096E3E
:1046D80006C00AF007C00BF008500A2609500B2242
:1046E8000B5004E1050E0A5CD8A002D0000E0C6E37
:1046F8000CC006F0076A1200000E196E000E186E44
:104708000BD017C00AF00B6A15C00CF016C00DF0DC
:104718000BEC21F0184A192A18501324D96E195095
:104728001420DA6EDF50176E1750D8B41200E9D78C
:104738009F0E086EFF0E096E200E06100A6E000E00
:1047480007100B6E08500A2609500B220B5006E181
:104758001A0E0A5CD8B002D0010E01D0000E066E07
:10476800076A120019BE05D0195010E11804D8B014
:104778000DD018C01AF019C01BF01A1E1B1E1A4AB9
:104788001B2A1AC018F01BC019F0120018C018F024
:1047980019C019F012009F0E086EFF0E096E06C0B0
:1047A8000AF007C00BF008500A2609500B220B50DC
:1047B80006E11A0E0A5CD8B002D0010E01D0000E34
:1047C800066E076A1200BF0E086EFF0E096E06C05D
:1047D8000AF007C00BF008500A2609500B220B50AC
:1047E80006E11A0E0A5CD8B002D0010E01D0000E04
:1047F800066E076A1200D00E086EFF0E096E06C01C
:104808000AF007C00BF008500A2609500B220B507B
:1048180006E10A0E0A5CD8B002D0010E01D0000EE3
:10482800066E076A1200086E06C0D9FF07C0DAFFD5
:10483800DF50A86E08C0A9FFA69EA69CA684F29E7B
:10484800550EA76EAA0EA76EA6820400A6B2FDD7C3
:10485800A694120053EC25F0000E086E110E076E98
:1048680045EC25F0010E94EC24F0096E4FEC25F090
:10487800310E0918D8A402D0010E1200000E120041
:10488800000EF2BE010E066EF29E8C86140EE82E05
:10489800FED700D08C96530EE82EFED700F006B057
:1048A80002D0F29E01D0F28E1200948494829B0E64
:1048B800CB6EBD9EBD9CBD86BD84BD92BD90BA86A3
:1048C800BA84BA92BA90CA80CA82CA8494949492DA
:1048D80012009F0E646E000E656E000E0001976F49
:1048E800000E986F9DC099F09EC09AF0640E9B6F61
:1048F800000E9C6F09EC22F0120006500802F3CF5C
:104908000AF0F4CF0BF006500902F3500B260750BB
:104918000802F3500B260AC006F00BC007F012007D
:10492800076E27EC25F0C58627EC25F0C9CF08F0DF
:1049380027EC25F007B002D0C59A01D0C58AC588F2
:104948000850120053EC25F0000E086E100E076E8A
:1049580045EC25F0000E086E410E076E45EC25F07B
:104968004FEC25F0120053EC25F0000E086E100EE7
:10497800076E45EC25F0000E086E320E076E45EC0A
:1049880025F04FEC25F0120053EC25F0000E086ED0
:10499800100E076E45EC25F0000E086E310E076EFE
:1049A80045EC25F04FEC25F0120053EC25F0000EF5
:1049B800086E100E076E45EC25F0000E086E330EDB
:1049C800076E45EC25F04FEC25F01200D59ED59CDE
:1049D800D59AD596F80ED516FB0ED76E1E0ED66E46
:1049E800D58EF28AF28EF28C1200086E08C0A9FFEA
:1049F800A69CA69EA68006C0D9FF07C0DAFFA8CF4E
:104A0800DFFF1200010E0001F26F010EF16F9480BA
:104A1800968293849380F088F2881200076E8C50F7
:104A28000F0B8C6E0738F00B8C108C6E44EC24F056
:104A380012000000010002000300017D05000600CD
:104A4800070008000900C7B4FED7C5CF06F01F0E3F
:104A58000616D8B41200F7D7086E08380F0B12ECF8
:104A680025F0085012EC25F01200096E8C840950CC
:104A780030EC25F01200096E8C94095030EC25F0CA
:104A8800120027EC25F007C0C9FF1200286E756CCC
:054A98006C2900010182
:104A9E0027EC25F0C584120027EC25F0C580120006
:10FE4600003132334134353642373839432A30238C
:10FE5600440000370E0213021300041010E80300DA
:10FE660000EA06501040283129202832292028335C
:10FE76002920283429002832292053415645202696
:10FE860020455849540028322920515549542044C8
:10FE96004F204E4F5400256420636D2066726F6DAF
:10FEA60020706F6C65005449522E20535550504CAB
:10FEB6004945442000253032782F253032782F25C9
:10FEC60030327800253032783A253032783A25308B
:10FED6003278002831204953204F4C444553542949
:10FEE6000028312920504F4C4520494E464F0028C6
:10FEF60032292056494557204C4F475300313C2D57
:10FF060020322D3E20334D454E55004F502E204376
:10FF16004F4D504C455445002831292056494557E8
:10FF2600204C4F47004F5045524154494F4E2049AF
:10FF36004E004C656176696E6720506F6C650025D2
:10FF4600642064726F7070696E670053454C454358
:10FF560054204C4F47002564206F6E20706F6C65EF
:10FF6600004F4E20504F4C453A20004F502E205403
:10FF7600494D452000544952452044524F500028CF
:10FF860031292053544152540077726F74653A20D8
:10FF960025630057454C434F4D4520005341564578
:10FFA600204C4F470050524F4752455353007265FD
:10FFB60061643A2025630025732564257325640052
:10FFC6004445504C3A200025732564257300204390
:10FFD6004D3A2000504F4C452000413A2025640000
:10FFE600423A20256400256C75006C58006C64004C
:09FFF6006C69006C78002F00001A
:020000040020DA
:08000000FFFFFFFFFFFFFFFF00
:020000040030CA
:0E000000FF021E1EFF8381FF0F400FE00F4026
:00000001FF
