:020000040000FA
:0400000007EF00F016
:100008007F82DFED0CF0D6EF0BF049C0D9FF4AC074
:10001800DAFFDECFF6FFDDCFF7FF0800F550250A3F
:10002800D8A4E8D149C0D9FF4AC0DAFFDE2A000EB9
:10003800DD22000E0001836F000E826F82C086F001
:1000480083C087F084698569000E646E000E19D03C
:100058000001868149C0D9FF4AC0DAFFDE2A000EB6
:10006800DD2232D000018683F5D700018685F2D7DC
:1000780000018687EFD700018689ECD7000E646EF1
:10008800010E636E21D049C0D9FF4AC0DAFFDECF26
:10009800F6FFDDCFF7FF0800F5504D6E4E6A4E5063
:1000A800000AD8A4EBD74D50200AD8B4E1D7030AE8
:1000B800D8B4E1D7080AD8B4D8D7060AD8B4C8D76C
:1000C8001D0AD8B4CFD7DAD763506410D8B4DBD7B9
:1000D800000186B1869349C0D9FF4AC0DAFFDECF56
:1000E800F6FFDDCFF7FF0800F5502A0AD8A423D081
:1000F80049C0D9FF4AC0DAFFDE2A000EDD224BC014
:10010800D9FF4CC0DAFFDFCF4DF0020EDE26DFCF7D
:100118004EF0000EDD224DC0D9FF4EC0DAFFDECF13
:1001280082F0DDCF83F083AF3FD08681826D831F5D
:10013800D8B0832B39D049C0D9FF4AC0DAFFDECF07
:1001480008F0DDCF09F076EC08F008C082F009C0AD
:1001580083F007D049C0D9FF4AC0DAFFDE2A000E73
:10016800DD22D00E4D6EFF0E4E6E49C0D9FF4AC03B
:10017800DAFFDECFF6FFDDCFF7FF0800F5504F6E50
:10018800506A4D504F264E505022505006E10A0EEC
:100198004F5CD8B002D0010E01D0000E656E666AC1
:1001A80065506610D8A4D6D749C0D9FF4AC0DAFF2F
:1001B800DECFF6FFDDCFF7FF0800F550640AD8B4AC
:1001C8000DD049C0D9FF4AC0DAFFDECFF6FFDDCF38
:1001D800F7FF0800F550690AD8A43FD049C0D9FFF5
:1001E8004AC0DAFFDE2A000EDD224BC0D9FF4CC020
:1001F800DAFFDFCF4DF0020EDE26DFCF4EF0000E25
:10020800DD224DC0D9FF4EC0DAFFDECF51F0DDCF81
:1002180052F0000E52BEFF0E536E546E556E566E5F
:10022800576E586E47C020F048C021F051C022F0E8
:1002380052C023F053C024F054C025F055C026F016
:1002480056C027F057C028F058C029F012EC04F027
:1002580020C047F021C048F0120049C0D9FF4AC069
:10026800DAFFDECFF6FFDDCFF7FF0800F550730A9F
:10027800D8A42AD049C0D9FF4AC0DAFFDE2A000E26
:10028800DD224BC0D9FF4CC0DAFFDFCF4DF0020EA4
:10029800DE26DFCF4EF0000EDD224DC0D9FF4EC066
:1002A800DAFFDECF61F0DDCF62F047C00EF048C064
:1002B8000FF061C010F062C011F0D4EC07F00EC06E
:1002C80047F00FC048F0120049C0D9FF4AC0DAFF12
:1002D800DECFF6FFDDCFF7FF0800F550780AD8B477
:1002E8000DD049C0D9FF4AC0DAFFDECFF6FFDDCF17
:1002F800F7FF0800F550580AD8A44DD049C0D9FFD7
:100308004AC0DAFFDECFF6FFDDCFF7FF0800F5CFF2
:1003180067F049C0D9FF4AC0DAFFDE2A000EDD22A5
:100328004BC0D9FF4CC0DAFFDFCF4DF0020EDE26FE
:10033800DFCF4EF0000EDD224DC0D9FF4EC0DAFFF0
:10034800DECF4FF0DDCF50F04FC059F050C05AF01B
:100358005B6A5C6A5D6A5E6A5F6A606A47C020F0D1
:1003680048C021F059C022F05AC023F05BC024F0E5
:100378005CC025F05DC026F05EC027F05FC028F0A5
:1003880060C029F067C02AF035EC05F020C047F0BE
:1003980021C048F0120049C0D9FF4AC0DAFFDECFB9
:1003A800F6FFDDCFF7FF0800F550250AD8A416D0D0
:1003B80049C0D9FF4AC0DAFFDE2A000EDD22000E4E
:1003C800066E250E056E47C007F048C008F079ECA8
:1003D8000AF0000E486E010E476E120049C0D9FFA0
:1003E8004AC0DAFFDE2A000EDD22000E486E000E3B
:1003F800476E120049C0D9FF4AC0DAFFDECFF6FFC8
:10040800DDCFF7FF0800F550056E066A47C007F014
:1004180048C008F079EC0AF049C0D9FF4AC0DAFFB1
:10042800DE2A000EDD22D5D72AEC0CF0000E0001E2
:10043800D76F010ED66F000ED06F000ED16F000E71
:10044800D26F000ED36FD0C001F0D1C002F0D2C07D
:1004580003F0D3C004F00A0E056E000E066E000EFF
:10046800076E000E086EE4EC0AF00150021003104B
:100478000410D8A442D147EC0DF0000E036ED00E44
:10048800026E3EEC0DF0000E036E000E026E3EECA6
:100498000DF043EC0DF047EC0DF0000E036ED10E9D
:1004A800026E3EEC0DF0000E0001D56FC90ED52589
:1004B800D96EDA6A000EDA22000EF2EC0CF0DF6E6A
:1004C8000001D52B050ED565F1D7010EF2EC0CF025
:1004D8000001CF6F43EC0DF010D1800E38EC0DF019
:1004E800070E0001C76F7D0EE82EFED7C72FFCD779
:1004F800FC0E706EFF0E716ED50E726EFF0E736E6F
:10050800B9EC0CF0370E706EFF0E716ECFC072F042
:10051800736ACEC074F0756ACDC076F0776AB9ECAC
:100528000CF0C00E38EC0DF0460E706EFF0E716EBA
:10053800CBC072F0736ACAC074F0756AC9C076F02D
:10054800776AB9EC0CF0900E38EC0DF0FC0E706E7A
:10055800FF0E716ECB0E726EFF0E736EB9EC0CF05F
:10056800D00E38EC0DF0FC0E706EFF0E716E710E31
:10057800726EFF0E736EB9EC0CF0D7D0800E38ECAB
:100588000DF0070E0001C76F7D0EE82EFED7C72FAE
:10059800FCD7FC0E706EFF0E716EA70E726EFF0E0A
:1005A800736EB9EC0CF0C00E38EC0DF0FC0E706EEA
:1005B800FF0E716EE70E726EFF0E736EB9EC0CF0E3
:1005C800F5EC09F0010E38EC0DF0110E0001C76FC3
:1005D8003A0EE82EFED7C72FFCD700F0020E8AD0BD
:1005E800800E38EC0DF0070E0001C76F7D0EE82E67
:1005F800FED7C72FFCD7FC0E706EFF0E716E8D0EE6
:10060800726EFF0E736EB9EC0CF0C00E38EC0DF084
:10061800FC0E706EFF0E716E9A0E726EFF0E736E88
:10062800B9EC0CF0900E38EC0DF0FC0E706EFF0E6D
:10063800716E180E726EFF0E736EB9EC0CF0D00E60
:1006480038EC0DF0FC0E706EFF0E716EDE0E726EE1
:10065800FF0E736EB9EC0CF0000E0001D66F65D07A
:10066800800E38EC0DF0070E0001C76F7D0EE82EE6
:10067800FED7C72FFCD7FC0E706EFF0E716EC00E32
:10068800726EFF0E736EB9EC0CF0C00E38EC0DF004
:10069800FC0E706EFF0E716E550E726EFF0E736E4D
:1006A800B9EC0CF0900E38EC0DF0FC0E706EFF0EED
:1006B800716EE80E726EFE0E736EB9EC0CF035D0EA
:1006C800D651D8A405D04FEC0DF0040E0001D66F1A
:1006D800D6C07CF07D6A4DEC06F0010E38EC0DF0CA
:1006E800110E0001C76F3A0EE82EFED7C72FFCD7B0
:1006F80000F0000E0001D76F18D00001D751C76F66
:10070800C86BC851000AD8A410D0C751000AD8B481
:10071800E4D6010AD8B432D7030AD8B461D7010A9B
:10072800D8B49ED7070AD8B4CBD77E50D8B465D0F2
:10073800000E7E6E81380F0B0F0B0001D46FB90EBF
:10074800D425F66EF76AFE0EF7220800F5CFD8F02A
:10075800010E38EC0DF0110E0001C76F3A0EE82EAD
:10076800FED7C72FFCD700F032D0310ED819D8A445
:1007780002D0010E11D0320ED819D8A43ED0030EE3
:100788000BD0310ED819D8A402D0040E05D0320EE1
:10079800D819D8A432D0000ED76F2FD0310ED8195F
:1007A800D8A402D0010E11D0320ED819D8A402D084
:1007B800020E0BD0330ED819D8A402D0030E05D0E0
:1007C800340ED819D8A419D0340ED66FDED700014C
:1007D800D751C76FC86BC851000AD8A40ED0C751EB
:1007E800000AD8B4C2D7010AD8B407D0030AD8B4CB
:1007F800C8D7010AD8B4D2D7070A010E0001D027FA
:10080800000ED123D223D323040E0001C76F3D0E5F
:10081800E82EFED7C72FFCD700D015D622C03AF055
:1008280023C03BF024C03CF025C03DF026C03EF07C
:1008380027C03FF028C040F029C041F041AE02D0A7
:10084800010E01D0000E386E396A38503910D8B40C
:1008580010D0411E401E3F1E3E1E3D1E3C1E3B1E2C
:100868003A6C000E3B223C223D223E223F2240228F
:100878004122000185AF869385BF05D0855108E1E7
:100888008405D8B005D0000E356E010E346E04D044
:1008980084C034F085C035F082C036F083C037F0AC
:1008A80038503910D8A402D086A503D03606D8A06F
:1008B8003706000E436E1F0E426E000EAF6F7CD0DF
:1008C8004206D8A04306900E4224D96E000E43205B
:1008D800DA6E3AC001F03BC002F03CC003F03DC004
:1008E80004F03EC005F03FC006F040C007F041C02C
:1008F80008F00A0E096E000E0A6E000E0B6E000E4E
:100908000C6E000E0D6E000E0E6E000E0F6E000EB9
:10091800106E16EC09F001C02AF002C02BF003C0DB
:100928002CF004C02DF005C02EF006C02FF007C033
:1009380030F008C031F02AC013F02CC014F043EC9A
:100948000CF01350300FDF6E3406D8A0350636068B
:10095800D8A037063AC001F03BC002F03CC003F013
:100968003DC004F03EC005F03FC006F040C007F0AF
:1009780041C008F00A0E096E000E0A6E000E0B6EDA
:10098800000E0C6E000E0D6E000E0E6E000E0F6E39
:10099800000E106E30EC07F001C03AF002C03BF0D8
:1009A80003C03CF004C03DF005C03EF006C03FF077
:1009B80007C040F008C041F043BE20D0435003E1D7
:1009C8004204D8A01BD03A503B103C103D103E10BA
:1009D8003F1040104110D8A473D735BE05D035500C
:1009E80002E13404D8B06CD737BE08D0375003E1E1
:1009F8003604D8A003D0000186B362D73850391026
:100A0800D8A403D0000186A517D04206D8A0430673
:100A180038503910D8A404D0000E336E2B0E03D0F2
:100A2800000E336E2D0E326E900E4224D96E000EDB
:100A38004320DA6E32C0DFFF20C015F021C016F067
:100A4800900E4224176E000E4320186E36C019F01F
:100A580037C01AF0A8EC09F015C020F016C021F034
:100A68001200000185AF869385BF05D0855108E146
:100A78008405D8B005D0000E386E010E376E04D04C
:100A880084C037F085C038F082C039F083C03AF0AE
:100A980086A904D0FE0E3926FF0E3A2222C03BF06A
:100AA80023C03CF024C03DF025C03EF026C03FF0F6
:100AB80027C040F028C041F029C042F0000E446E23
:100AC8001F0E436E000EAF6F93D04306D8A04406A6
:100AD8000F0E3B14456E466A46BE08D0465004E1E8
:100AE8000A0E455CD8A002D0570E01D0300E45241E
:100AF800456E000E4620466EBF0E2B6EFF0E2C6E06
:100B08002A502D6E2E6A2B502D262C502E222E5018
:100B180006E11A0E2D5CD8B002D0010E01D0000EED
:100B2800336E346A33503410D8B427D09F0E2B6EEE
:100B3800FF0E2C6E200E45102D6E000E46102E6EE8
:100B48002B502D262C502E222E5006E11A0E2D5CED
:100B5800D8B002D0010E01D0000E356E366A35507D
:100B68003610D8B40AD045C007F046C008F070EC7B
:100B78000BF007C045F008C046F0900E4324D96E2C
:100B8800000E4420DA6E45C0DFFF3706D8A03806CD
:100B98003906D8A03A063BC02BF03CC02CF03DC02B
:100BA8002DF03EC02EF03FC02FF040C030F041C0C5
:100BB80031F042C032F0050E09D0D89032323132CD
:100BC80030322F322E322D322C322B32E82EF5D7FE
:100BD8002BC03BF02CC03CF02DC03DF02EC03EF0A9
:100BE8002FC03FF030C040F031C041F032C042F079
:100BF80044BE21D0445004E1020E435CD8A01BD06F
:100C08003B503C103D103E103F1040104110421028
:100C1800D8A45BD738BE05D0385002E13704D8B025
:100C280054D73ABE08D03A5003E13904D8A003D0CB
:100C3800000186B34AD7000186A916D04306D8A07A
:100C48004406900E4324D96E000E4420DA6E2AC062
:100C5800DFFF4306D8A04406900E4324D96E000E49
:100C68004420DA6E300EDF6E20C015F021C016F079
:100C7800900E4324176E000E4420186E39C019F0E8
:100C88003AC01AF0A8EC09F015C020F016C021F0FF
:100C98001200800E38EC0DF0070E0001B06F7D0ECB
:100CA800E82EFED7B02FFCD7000E0001B56F7AD022
:100CB800800E38EC0DF0070E0001B06F7D0EE82EA7
:100CC800FED7B02FFCD7FC0E706EFF0E716EB40EFF
:100CD800726EFF0E736EB9EC0CF0C00E38EC0DF0AE
:100CE800FC0E706EFF0E716EF80E726EFE0E736E55
:100CF800B9EC0CF0900E38EC0DF0FC0E706EFF0E97
:100D0800716E630E726EFF0E736EB9EC0CF0D00E3E
:100D180038EC0DF0FC0E706EFF0E716E080E726EE0
:100D2800FF0E736EB9EC0CF04CD0800E38EC0DF061
:100D3800070E0001B06F7D0EE82EFED7B02FFCD74E
:100D4800FC0E706EFF0E716EF00E726EFF0E736EFB
:100D5800B9EC0CF0C00E38EC0DF0FC0E706EFF0E06
:100D6800716E280E726EFF0E736EB9EC0CF0900E59
:100D780038EC0DF0FC0E706EFF0E716ED70E726EB1
:100D8800FE0E736EB9EC0CF0D00E38EC0DF0FC0EC4
:100D9800706EFF0E716E7F0E726EFF0E736EB9EC81
:100DA8000CF00FD00001B551B06FB16BB151000A12
:100DB800D8A407D0B051000AD8B47AD7010AD8B459
:100DC800B4D77E50D8B43ED0000E7E6E81380F0B5B
:100DD8000F0B0001B46FB90EB425F66EF76AFE0E5C
:100DE800F7220800F5CFB6F0010E38EC0DF0110E21
:100DF8000001B06F3A0EE82EFED7B02FFCD700F0F6
:100E080012D0310EB619D8A402D0010E0AD0320E73
:100E1800B619D8B4120016D0330EB619D8A412D009
:100E2800000EB56F0FD00001B551B06FB16BB15165
:100E3800000AD8A407D0B051000AD8B4E2D7010AF2
:100E4800D8B4EAD7040E0001B06F3D0EE82EFED7E5
:100E5800B02FFCD700D0A6D7000E126E10AE12D05D
:100E6800101E0F1E0E1E0D1E0C1E0B1E0A1E096CD8
:100E7800000E0A220B220C220D220E220F22102213
:100E8800010E126E08AE12D0081E071E061E051EA1
:100E9800041E031E021E016C000E022203220422FD
:100EA8000522062207220822010E121A20EE13F04C
:100EB800070EDE6AE806FDE209500A100B100C1056
:100EC8000D100E100F101010D8B446D0010E116E70
:100ED8000AD0D89009360A360B360C360D360E363F
:100EE8000F361036112A10AEF4D7D89013361436B0
:100EF800153616361736183619361A360950015C63
:100F08000A5002580B5003580C5004580D500558FD
:100F18000E5006580F50075810500858D8A011D036
:100F28000950015E0A50025A0B50035A0C50045AD9
:100F38000D50055A0E50065A0F50075A1050085AAD
:100F48001380D89010320F320E320D320C320B3221
:100F58000A320932112EC9D71250D8B410D01A1E2D
:100F6800191E181E171E161E151E141E136C000EB1
:100F78001422152216221722182219221A2213C007
:100F880001F014C002F015C003F016C004F017C039
:100F980005F018C006F019C007F01AC008F01200D2
:100FA80020EED9F010EE13F0060EDBCFE3FFE806D3
:100FB800FCE210C01EF011C01FF01E501F10D8A474
:100FC80004D0130E1E6E000E1F6E1EC001F01FC04F
:100FD80002F095EC0BF001C022F002C023F084C0AF
:100FE80020F085C021F021BE0ED02250205C215077
:100FF800800A126E2350800A1258D8B004D020C03C
:1010080022F021C023F022C020F023C021F082C0AA
:101018001CF083C01DF0000186A10DD016D0000E73
:10102800066E200E056E0EC007F00FC008F079ECB2
:101038000AF0224A232A1C50225C2350800A126E8E
:101048001D50800A1258D8A0EAD7000E1B6E000E59
:101058001A6E1FD01EC0F6FF1FC0F7FF000EF86EF5
:101068000F0EF76403D00800F55005D0F6CFE1FF66
:10107800F7CFE2FFE750126E1250056E066A0EC0F7
:1010880007F00FC008F079EC0AF01E4A1F2A1A4A26
:101098001B2A20501A5C1B50800A126E2150800AAD
:1010A8001258D8A0D7D7000186B10DD016D0000E9F
:1010B800066E200E056E0EC007F00FC008F079EC22
:1010C8000AF0224A232A1C50225C2350800A126EFE
:1010D8001D50800A1258D8A0EAD722C00EF023C0AB
:1010E8000FF01200000E166E000E156E000E0F6E39
:1010F800000E0E6E02D0084A092A010E146E08C0AE
:10110800F6FF09C0F7FF0800F550200AD8B418D038
:10111800F70E0A6EFF0E0B6E08C0F6FF09C0F7FF48
:101128000800F5500C6E0D6A0A500C260B500D2263
:101138000D5004E1050E0C5CD8A002D0000E146E10
:1011480014C010F0116A10501110D8B408D0D3D7B9
:10115800000E0F6E010E0E6E084A092A2ED008C026
:10116800F6FF09C0F7FF0800F5500A6E0B6A0B502E
:10117800000AD8A422D00A502B0AD8B4EDD7060A00
:10118800D8B4E6D71AD015C001F016C002F0000E88
:10119800046E0A0E036ECCEC0CF008C0F6FF09C012
:1011A800F7FF0800F550015E000E025A300E0124C8
:1011B800156E000E0220166ECFD7D00E0A6EFF0EE7
:1011C8000B6E08C0F6FF09C0F7FF0800F5500C6E5B
:1011D8000D6A0A500C260B500D220D5006E10A0E1E
:1011E8000C5CD8B002D0010E01D0000E126E136A4A
:1011F80012501310D8A4C7D70E500F10D8A40DD072
:1012080015C00AF016C00BF00A1E0B1E0A4A0B2A5C
:101218000AC008F00BC009F0120015C008F016C08B
:1012280009F01200000E126E08AE12D0081E071E3A
:10123800061E051E041E031E021E016C000E02225D
:10124800032204220522062207220822010E126E1A
:1012580010AE10D0101E0F1E0E1E0D1E0C1E0B1EE3
:101268000A1E096C000E0A220B220C220D220E22E5
:101278000F22102209500A100B100C100D100E101E
:101288000F101010D8B43CD0010E116E0AD0D890AF
:1012980009360A360B360C360D360E360F36103632
:1012A800112A10AEF4D70950015C0A5002580B50AD
:1012B80003580C5004580D5005580E5006580F503E
:1012C800075810500858D8A010D00950015E0A508D
:1012D800025A0B50035A0C50045A0D50055A0E501E
:1012E800065A0F50075A1050085AD89010320F3229
:1012F8000E320D320C320B320A320932112ED3D78C
:101308001250D8B410D0081E071E061E051E041E53
:10131800031E021E016C000E022203220422052273
:1013280006220722082201C001F002C002F003C011
:1013380003F004C004F005C005F006C006F007C0BD
:1013480007F008C008F01200000186A10AD017C0F3
:101358000EF018C00FF015C010F016C011F0F4EC24
:101368000BF01ABE05D019C01EF01AC01FF004D029
:10137800000E1F6E000E1E6E000E1D6E000E1C6EFF
:101388000CD0000E066E200E056E15C007F016C0B4
:1013980008F079EC0AF01C4A1D2A1E501C5C1D50EE
:1013A800800A1B6E1F50800A1B58D8A0EAD700017C
:1013B80086B10AD017C00EF018C00FF015C010F093
:1013C80016C011F0F4EC0BF017C001F018C002F0D1
:1013D80095EC0BF01E500124156E1F500220166E5E
:1013E800120047EC0DF0000E036E100E026E3EEC7C
:1013F8000DF043EC0DF004EC0DF0000E0001896FC8
:10140800000E886F8988000EC66F000EC56F22D047
:101418008851C55DC651800A7C6E8951800A7C5806
:10142800D8B018D0010E38EC0DF0110E7C6E3A0EC3
:10143800E82EFED77C2EFCD700D0F90E706EFF0E7A
:10144800716E88C072F089C073F0B9EC0CF00001BD
:10145800C54BC62B89BFDCD7895105E10A0E885DCB
:10146800D8B01200D5D71200000E096E000E0A6E11
:10147800000E0B6E000E0C6E0550061007100810BB
:10148800D8B42AD0010E0D6E06D0D890053606368F
:10149800073608360D2A08AEF8D7D89009360A3626
:1014A8000B360C360550015C06500258075003589D
:1014B80008500458D8A009D00550015E0650025AB9
:1014C8000750035A0850045A0980D8900832073246
:1014D800063205320D2EE1D709C001F00AC002F02C
:1014E8000BC003F00CC004F0120007500810D8B469
:1014F80004D007500810D8A404D0055032EC0DF0E1
:10150800120020EE04F00750D9260850DA22DE50E7
:10151800DE10D8B416D020EE04F00750D9260850B3
:10152800DA2210EE02F00750E1260850E222DE50DF
:10153800E65CE650800A0D6EDE50800A0D58D8B081
:10154800120020EE02F00750D9260850DA22DE2ACF
:10155800000EDD221200310E056EB20EE82EFED707
:10156800052EFCD700D08C94030E15EC0DF0110E4F
:10157800056E3A0EE82EFED7052EFCD700D0030ED6
:1015880015EC0DF07D0EE82EFED7320E20EC0DF096
:10159800280E20EC0DF0080E20EC0DF0010E20ECCA
:1015A8000DF0110E056E3A0EE82EFED7052EFCD76B
:1015B80000D0060E20EC0DF00C0E38EC0DF01200E9
:1015C8000550061007100810D8B424D0010E096E73
:1015D80006D0D8900536063607360836092A08AEEA
:1015E800F8D70550015C06500258075003580850B8
:1015F8000458D8A008D00550015E0650025A07507A
:10160800035A0850045AD890083207320632053275
:10161800092EE7D701C001F002C002F003C003F0B1
:1016280004C004F01200C69A94869488800E016E55
:10163800960E026E980E036E000E046E0EC012F027
:101648000FC013F010C014F011C015F0020ED8909E
:101658001236133614361536E82EF9D712C005F0AF
:1016680013C006F014C007F015C008F038EC0AF0F3
:101678000104C86E800EC76E280EC66E000EC56EB9
:1016880012006AC06EF06BC06FF0000E0001816F2F
:10169800000E806F13D068C047F069C048F06E0E26
:1016A800496E000E4A6E6CC04BF06DC04CF009ECF0
:1016B80000F0475000018027485081236EC0F6FF94
:1016C8006FC0F7FF0800F5500009D8A4E4D780C020
:1016D80068F081C069F012009F0E096EFF0E0A6E55
:1016E80007C00BF008C00CF009500B260A500C225A
:1016F8000C5006E11A0E0B5CD8B002D0010E01D0D6
:10170800000E0D6E0E6A0D500E10D8B405D05F0E87
:101718000714076E086A120007C007F008C008F02F
:10172800120001C003F002C004F002D0014A022AEC
:1017380001C0F6FF02C0F7FF000EF86E0F0EF76447
:1017480003D00800F55005D0F6CFE1FFF7CFE2FF50
:10175800E7500009D8A4EAD70350015C016E045091
:101768000258026E1200010E076E200E01180210B8
:10177800D8B414D0F70E036EFF0E046E01C005F046
:1017880002C006F00350052604500622065004E164
:10179800050E055CD8A002D0000E076E07C001F048
:1017A800026A1200960EF66E1A0EF76E000EF86EAA
:1017B80000EED9F010EE07F00900F5CFEEFFE55086
:1017C800E150FAE100EE80F0300EEE6AE806FDE145
:1017D8007E6A7F907F92000EF86E000118EF02F08B
:1017E800000E146E000E136E0BD012C005F0066AC0
:1017F80010C007F011C008F079EC0AF0134A142A57
:1018080013500E24D96E14500F20DA6EDF50126E6A
:101818001250D8B41200E9D79F0E036EFF0E046E63
:10182800200E0110056E000E0210066E03500526EC
:1018380004500622065006E11A0E055CD8B002D004
:10184800010E01D0000E016E026A1200000E8C6EAD
:10185800000E956E000E8A6EF20E936EA00E0E6E3E
:10186800860E0F6E010E106E000E116E17EC0BF047
:101878000F0EC16EF086AFEC0AF0F28E120014BEA5
:1018880005D0145010E11304D8B00DD013C015F0D2
:1018980014C016F0151E161E154A162A15C013F088
:1018A80016C014F0120013C013F014C014F0120084
:1018B8009F0E036EFF0E046E01C005F002C006F015
:1018C8000350052604500622065006E11A0E055C50
:1018D800D8B002D0010E01D0000E016E026A1200CB
:1018E800BF0E036EFF0E046E01C005F002C006F0C5
:1018F8000350052604500622065006E11A0E055C20
:10190800D8B002D0010E01D0000E016E026A12009A
:10191800D00E036EFF0E046E01C005F002C006F083
:101928000350052604500622065006E10A0E055CFF
:10193800D8B002D0010E01D0000E016E026A12006A
:10194800000EF2BE010E016EF29E8C86140EE82E79
:10195800FED700D08C96530EE82EFED700F001B0CB
:1019680002D0F29E01D0F28E1200720E7A6E000E34
:101978007B6E000E686E000E696E70C06AF071C0F2
:101988006BF07A0E6C6E000E6D6E45EC0BF012006B
:1019980001500302F3CF05F0F4CF06F00150040222
:1019A800F350062602500302F350062605C001F044
:1019B80006C002F012000600F0A004D0010E7E6EF0
:1019C800F0900AD0F2A408D0F294B30ED76EB50EF8
:1019D800D66E0001884B892B7F921100026E29EC8C
:1019E8000DF0C58629EC0DF0C9CF03F029EC0DF0F8
:1019F80002B002D0C59A01D0C58AC588035012002A
:101A0800D59ED59CD59AD596D550F80B0509D56E97
:101A1800B30ED76EB50ED66ED58EF28AF28EF28CD4
:101A28001200026E8C500F0B8C6E0238F00B8C106B
:101A38008C6EA4EC0CF01200036E03380F0B15EC3F
:101A48000DF0035015EC0DF01200C7B4FED7C5CF4A
:101A580001F01F0E0116D8B41200F7D7046E8C845B
:101A6800045020EC0DF01200046E8C94045020EC0D
:101A78000DF0120029EC0DF002C0C9FF120029EC8C
:101A88000DF0C584120029EC0DF0C5801200286EF7
:051A9800756C6C2900D3
:021A9E00120034
:10FEB800003132334134353642373839432A30231A
:10FEC800440000370E02130213000410501040546F
:10FED8004952452E204F4E20504F4C453A2058004D
:10FEE800283129202832292028332920283429009C
:10FEF80058205449522E20535550504C49454400DF
:10FF08002832292053415645202620455849540077
:10FF1800283229205155495420444F204E4F54002F
:10FF28005449522E204445504C4F593A20580025E8
:10FF38003032782F253032782F253032780025302E
:10FF480032783A253032783A253032780028312014
:10FF58004953204F4C4445535429002831292050F7
:10FF68004F4C4520494E464F0028322920564945D6
:10FF780057204C4F475300313C2D20322D3E203323
:10FF88004D454E55004F502E20434F4D504C455433
:10FF980045002831292056494557204C4F47004FE6
:10FFA8005045524154494F4E20494E004F502E2043
:10FFB80054494D452058730053454C454354204CF3
:10FFC8004F47002831292053544152540057454C7B
:10FFD800434F4D45200053415645204C4F47005054
:10FFE800524F475245535300504F4C4520582F59B4
:08FFF8000025640025730000E0
:020000040020DA
:08000000FFFFFFFFFFFFFFFF00
:020000040030CA
:0E000000FF021F1EFF8381FF0F400FE00F4025
:00000001FF
