:020000040000FA
:0400000007EF00F016
:1000080079820EED13F0FCEF11F04EC0D9FF4FC00E
:10001800DAFFDECFF6FFDDCFF7FF0800F550250A3F
:10002800D8A4E3D14EC0D9FF4FC0DAFFDE2A000EB4
:10003800DD22000E0001C06F000EBF6FBFC075F05B
:10004800C0C076F073687468000E6A6E000E14D033
:1000580075804EC0D9FF4FC0DAFFDE2A000EDD22C0
:100068002ED07582F6D77584F4D77586F2D7758841
:10007800F0D7000E6A6E010E696E21D04EC0D9FF0E
:100088004FC0DAFFDECFF6FFDDCFF7FF0800F550EF
:10009800526E536A5350000AD8A4EBD75250200A24
:1000A800D8B4E3D7030AD8B4E2D7080AD8B4DBD760
:1000B800060AD8B4CDD71D0AD8B4D3D7DAD7695031
:1000C8006A10D8B4DBD775B075924EC0D9FF4FC04F
:1000D800DAFFDECFF6FFDDCFF7FF0800F5502A0A7A
:1000E800D8A424D04EC0D9FF4FC0DAFFDE2A000EB4
:1000F800DD2250C0D9FF51C0DAFFDFCF52F0020E27
:10010800DE26DFCF53F0000EDD2252C0D9FF53C0E8
:10011800DAFFDECFBFF0DDCFC0F00001C0AF3FD0C7
:100128007580BF6DC01FD8B0C02B39D04EC0D9FF65
:100138004FC0DAFFDECF0DF0DDCF0EF02BEC0EF066
:100148000DC0BFF00EC0C0F007D04EC0D9FF4FC0E1
:10015800DAFFDE2A000EDD22D00E526EFF0E536E3D
:100168004EC0D9FF4FC0DAFFDECFF6FFDDCFF7FF75
:100178000800F550546E556A525054265350552273
:10018800555006E10A0E545CD8B002D0010E01D0D9
:10019800000E6B6E6C6A6B506C10D8A4D6D74EC02C
:1001A800D9FF4FC0DAFFDECFF6FFDDCFF7FF08003B
:1001B800F550640AD8B40DD04EC0D9FF4FC0DAFF4D
:1001C800DECFF6FFDDCFF7FF0800F550690AD8A4A7
:1001D8003FD04EC0D9FF4FC0DAFFDE2A000EDD2225
:1001E80050C0D9FF51C0DAFFDFCF52F0020EDE2631
:1001F800DFCF53F0000EDD2252C0D9FF53C0DAFF23
:10020800DECF56F0DDCF57F0000E57BEFF0E586E0A
:10021800596E5A6E5B6E5C6E5D6E4CC025F04DC0BB
:1002280026F056C027F057C028F058C029F059C00A
:100238002AF05AC02BF05BC02CF05CC02DF05DC0DA
:100248002EF007EC07F025C04CF026C04DF0120048
:100258004EC0D9FF4FC0DAFFDECFF6FFDDCFF7FF84
:100268000800F550730AD8A42AD04EC0D9FF4FC051
:10027800DAFFDE2A000EDD2250C0D9FF51C0DAFFB6
:10028800DFCF52F0020EDE26DFCF53F0000EDD2264
:1002980052C0D9FF53C0DAFFDECF66F0DDCF67F07A
:1002A8004CC013F04DC014F066C015F067C016F0CE
:1002B8008BEC0DF013C04CF014C04DF012004EC082
:1002C800D9FF4FC0DAFFDECFF6FFDDCFF7FF08001A
:1002D800F550780AD8B40DD04EC0D9FF4FC0DAFF18
:1002E800DECFF6FFDDCFF7FF0800F550580AD8A497
:1002F8004DD04EC0D9FF4FC0DAFFDECFF6FFDDCFBD
:10030800F7FF0800F5CF68F04EC0D9FF4FC0DAFFFD
:10031800DE2A000EDD2250C0D9FF51C0DAFFDFCF40
:1003280052F0020EDE26DFCF53F0000EDD2252C05F
:10033800D9FF53C0DAFFDECF54F0DDCF55F054C0FB
:100348005EF055C05FF0606A616A626A636A646AF7
:10035800656A4CC025F04DC026F05EC027F05FC02E
:1003680028F060C029F061C02AF062C02BF063C099
:100378002CF064C02DF065C02EF068C02FF045EC5D
:1003880009F025C04CF026C04DF012004EC0D9FF30
:100398004FC0DAFFDECFF6FFDDCFF7FF0800F550DC
:1003A800250AD8A416D04EC0D9FF4FC0DAFFDE2ADE
:1003B800000EDD22000E0B6E250E0A6E4CC00CF0EE
:1003C8004DC00DF030EC11F0000E4D6E010E4C6E6C
:1003D80012004EC0D9FF4FC0DAFFDE2A000EDD2220
:1003E800000E4D6E000E4C6E12004EC0D9FF4FC06D
:1003F800DAFFDECFF6FFDDCFF7FF0800F5500A6E13
:100408000B6A4CC00CF04DC00DF030EC11F04EC032
:10041800D9FF4FC0DAFFDE2A000EDD22D5D799ECCE
:1004280012F0000E0001BB6F010EBA6F000EB46F20
:10043800000EB56F000EB66F000EB76FB4C006F0B1
:10044800B5C007F0B6C008F0B7C009F00A0E0A6ECA
:10045800000E0B6E000E0C6E000E0D6E9BEC11F074
:100468000650071008100910D8A450D164EC14F0F5
:10047800000E086ED00E076E57EC14F0000E086ED2
:10048800000E076E57EC14F060EC14F064EC14F0F6
:10049800000E086ED10E076E57EC14F0000E000126
:1004A800B96FAD0EB925D96EDA6A000EDA22000EE0
:1004B800EFEC13F0DF6E0001B92B050EB965F1D72B
:1004C800010EEFEC13F00001B36F60EC14F01ED1D5
:1004D800800E51EC14F0070E0001AB6F7D0EE82E74
:1004E800FED7AB2FFCD7FB0E0001826FFF0E836F88
:1004F800D40E846FFF0E856FC8EC13F02C0E00012C
:10050800826FFF0E836FB3C084F0856BB2C086F034
:10051800876BB1C088F0896BC8EC13F0C00E51EC42
:1005280014F03B0E0001826FFF0E836FAFC084F0A2
:10053800856BAEC086F0876BADC088F0896BC8EC60
:1005480013F0900E51EC14F0FB0E0001826FFF0EB9
:10055800836FCA0E846FFF0E856FC8EC13F0D00E40
:1005680051EC14F0FB0E0001826FFF0E836F660ED4
:10057800846FFF0E856FC8EC13F0E0D0800E51EC4D
:1005880014F0070E0001AB6F7D0EE82EFED7AB2FDF
:10059800FCD7FB0E0001826FFF0E836F9C0E846FE9
:1005A800FF0E856FC8EC13F0C00E51EC14F0FB0E73
:1005B8000001826FFF0E836FE60E846FFF0E856F5A
:1005C800C8EC13F028EC08F0010E51EC14F0110EF1
:1005D8000001AB6F3A0EE82EFED7AB2FFCD700F028
:1005E800020E91D0800E51EC14F0070E0001AB6F93
:1005F8007D0EE82EFED7AB2FFCD7FB0E0001826FD5
:10060800FF0E836F820E846FFF0E856FC8EC13F0A8
:10061800C00E51EC14F0FB0E0001826FFF0E836FC9
:100628008F0E846FFF0E856FC8EC13F0900E51EC9F
:1006380014F0FB0E0001826FFF0E836F0D0E846FA6
:10064800FF0E856FC8EC13F0D00E51EC14F0FB0EC2
:100658000001826FFF0E836FDD0E846FFF0E856FC2
:10066800C8EC13F0000E0001BA6F68D0800E51EC90
:1006780014F0070E0001AB6F7D0EE82EFED7AB2FEE
:10068800FCD7FB0E0001826FFF0E836FB50E846FDF
:10069800FF0E856FC8EC13F0C00E51EC14F0FB0E82
:1006A8000001826FFF0E836F4A0E846FFF0E856F05
:1006B800C8EC13F0900E51EC14F0FB0E0001826FA1
:1006C800FF0E836FDD0E846FFE0E856FC8EC13F08E
:1006D80035D0BA51D8A405D068EC14F0040E000146
:1006E800BA6FBAC08EF08F6B5CEC0BF0010E51EC58
:1006F80014F0110E0001AB6F3A0EE82EFED7AB2FA7
:10070800FCD700F0000E0001BB6F18D00001BB51F0
:10071800AB6FAC6BAC51000AD8A410D0AB51000A37
:10072800D8B4D6D6010AD8B429D7030AD8B45AD728
:10073800010AD8B49BD7070AD8B4CBD70001CA514D
:10074800D8B464D0000ECA6F81380F0B0F0BB86F86
:10075800A90EB825F66EF76AFE0EF7220800F5CF47
:10076800BCF0010E51EC14F0110E0001AB6F3A0E03
:10077800E82EFED7AB2FFCD700F032D0310EBC19D3
:10078800D8A402D0010E11D0320EBC19D8A43ED084
:10079800030E0BD0310EBC19D8A402D0040E05D01C
:1007A800320EBC19D8A432D0000EBB6F2FD0310E38
:1007B800BC19D8A402D0010E11D0320EBC19D8A48D
:1007C80002D0020E0BD0330EBC19D8A402D0030EEF
:1007D80005D0340EBC19D8A419D0340EBA6FDED7A0
:1007E8000001BB51AB6FAC6BAC51000AD8A40ED062
:1007F800AB51000AD8B4C2D7010AD8B407D0030A4B
:10080800D8B4C8D7010AD8B4D2D7070A010EB4277A
:10081800000EB523B623B723040E0001AB6F3D0EBF
:10082800E82EFED7AB2FFCD700D008D61750800B88
:10083800206E17501724266E16BE26802650D8B470
:100848000DD02628D8A408D0000E146E000E156E00
:10085800000E166E000E176E168E08D0000E146E5F
:10086800000E156E000E166E000E176E1B50800BD4
:10087800201A1B501B24256E1ABE25802550D8B47B
:100888000DD02528D8A408D0000E186E000E196EB9
:10089800000E1A6E000E1B6E1A8E08D0000E186E0F
:1008A800000E196E000E1A6E000E1B6E2550D8B47D
:1008B80003D02650D8A409D0000E146E000E156E71
:1008C800000E166E000E176E12001A501402F3CFA7
:1008D8002BF0F4CF2CF02B50216E226A236A246A65
:1008E8002C50276E286A296A2A6A19501502F3CFF4
:1008F8002BF0F4CF2CF02B502126000E222223229D
:1009080024222C502726000E282229222A22185079
:100918001602F3CF2BF0F4CF2CF02B502126000E2B
:100928002222232224222C502726000E2822292284
:100938002A2223C024F022C023F021C022F0216AF9
:1009480018501502F3CF2BF0F4CF2CF02B502126A2
:100958002C502222000E2322000E242219501402A9
:10096800F3CF2BF0F4CF2CF02B5021262C50222241
:10097800000E2322000E242223C024F022C023F0DC
:1009880021C022F0216A18501402F3CF2BF0F4CFC3
:100998002CF02B5021262C502222000E2322000E50
:1009A80024221A501502F3CF2BF0F4CF2CF02B5041
:1009B80027262C502822000E2922000E2A22195000
:1009C8001602F3CF2BF0F4CF2CF02B5027262C5007
:1009D8002822000E2922000E2A221A501602F3CFCE
:1009E8002BF0F4CF2CF02B501C6E2C501D6E1E6A71
:1009F8001F6A1EC01FF01DC01EF01CC01DF01C6A1F
:100A08001C5027261D5028221E5029221F502A22FA
:100A180021C01CF022C01DF023C01EF024C01FF00E
:100A2800190E05D0D8901F321E321D321C32E82E06
:100A3800F9D71C5027261D5028221E5029221F5046
:100A48002A2223C024F022C023F021C022F0216AE8
:100A5800255026C01CF01D6A1C26000E1D22820E81
:100A68001C242B6EFF0E1D202C6E0FD0D89027361D
:100A7800283629362A3624BE2780D89021362236B1
:100A8800233624362B06D8A02C0629AEEFD7000E25
:100A9800256E24AE17D0FF0E21141C6EFF0E2214F3
:100AA8001D6EFF0E23141E6E7F0E24141F6E1C5025
:100AB8001D101E101F10D8B403D0010E256E02D0D1
:100AC80027B0FBD72550D8B41FD0010E2726000E1B
:100AD800282229222A222AA017D027C01CF028C0A1
:100AE8001DF029C01EF02AC01FF01F341F321E320D
:100AF8001D321C321CC027F01DC028F01EC029F072
:100B08001FC02AF02B4A2C2A2CBE0DD02C5003E1F2
:100B18002B28D8A008D0000E276E000E286E800E55
:100B2800296E7F0E20D02CBE05D02C500EE12B0450
:100B3800D8B00BD0000E276E000E286E000E296E5E
:100B4800000E2A6E000E206E0FD02BC026F0FF0E6E
:100B58002716FF0E28167F0E2916000E2A1626B015
:100B6800298ED89026302A6E20502A1227C014F0D9
:100B780028C015F029C016F02AC017F0120030500E
:100B8800800B3D6E30503024446E2FBE448044505C
:100B9800D8B40DD04428D8A408D0000E2D6E000E6D
:100BA8002E6E000E2F6E000E306E2F8E06D0000EA9
:100BB8002D6E000E2E6E000E2F6E000E306E34500D
:100BC800800B3D1A34503424456E33BE4580455061
:100BD800D8B40DD04528D8A408D0000E316E000E28
:100BE800326E000E336E000E346E338E06D0000E59
:100BF800316E000E326E000E336E000E346E3150C0
:100C0800321033103410D8A417D0000E2D6E000EF9
:100C18002E6E000E2F6E000E306E800E2F127F0E7D
:100C280030123D5030122DC02DF02EC02EF02FC0A6
:100C38002FF030C030F012004450D8A409D0000E74
:100C48002D6E000E2E6E000E2F6E000E306E1200EE
:100C5800455044C035F0366A355E000E365A7F0E70
:100C680035243E6E000E36203F6E2DC039F02EC062
:100C78003AF02FC03BF030C03CF0000E2D6E000E55
:100C88002E6E000E2F6E000E306E000E406E000E9F
:100C9800416E000E426E000E436E000E456E28D067
:100CA8004550D8B411D0D89039363A363B363C3610
:100CB800D8902D362E362F36303643BE2D80D8901C
:100CC80040364136423643363150395C32503A5814
:100CD80033503B5834503C58D8A009D0438C31503D
:100CE800395E32503A5A33503B5A34503C5A452AAE
:100CF800190E4564D5D739503A103B103C10D8B47A
:100D080011D040800FD0D8902D362E362F36303661
:100D180043BE2D80D89040364136423643363E0693
:100D2800D8A03F062FAEEFD7000E456E43AE17D0C2
:100D3800FF0E4014356EFF0E4114366EFF0E42143E
:100D4800376E7F0E4314386E355036103710381012
:100D5800D8B403D0010E456E02D02DB0FBD7455054
:100D6800D8B41FD0010E2D26000E2E222F2230229D
:100D780030A017D02DC035F02EC036F02FC037F078
:100D880030C038F03834383237323632353235C040
:100D98002DF036C02EF037C02FF038C030F03E4A64
:100DA8003F2A3FBE10D03F5003E13E28D8A00BD0C9
:100DB800000E3F6E3E68000E2D6E000E2E6E000E69
:100DC8002F6E000E306E3FBE05D03F5011E13E043D
:100DD800D8B00ED0000E3F6E000E3E6E000E2D6E87
:100DE800000E2E6E000E2F6E000E306E000E3D6E41
:100DF8003EC044F044A002D02F8E01D02F9ED89040
:100E08004430306E0ED727C03FF028C040F029C0CC
:100E180041F02AC042F02BC043F02CC044F02DC052
:100E280045F02EC046F046AE02D0010E01D0000EAD
:100E38003D6E3E6A3D503E10D8B410D0461E451E49
:100E4800441E431E421E411E401E3F6C000E40229F
:100E580041224222432244224522462274AE759200
:100E680074BE05D0745008E17304D8B005D0000EE4
:100E78003A6E010E396E04D073C039F074C03AF07E
:100E8800BFC03BF0C0C03CF03D503E10D8A402D0DB
:100E980075A403D03B06D8A03C06000E486E1F0E72
:100EA800476E000E0001EA6F7CD04706D8A04806BE
:100EB800CB0E4724D96E000E4820DA6E3FC006F0EC
:100EC80040C007F041C008F042C009F043C00AF032
:100ED80044C00BF045C00CF046C00DF00A0E0E6E73
:100EE800000E0F6E000E106E000E116E000E126EC8
:100EF800000E136E000E146E000E156ECBEC0EF085
:100F080006C02FF007C030F008C031F009C032F039
:100F18000AC033F00BC034F00CC035F00DC036F009
:100F28002FC018F031C019F028EC13F01850300F0A
:100F3800DF6E3906D8A03A063B06D8A03C063FC06B
:100F480006F040C007F041C008F042C009F043C0B5
:100F58000AF044C00BF045C00CF046C00DF00A0E74
:100F68000E6E000E0F6E000E106E000E116E000E4B
:100F7800126E000E136E000E146E000E156E47EC06
:100F88000CF006C03FF007C040F008C041F009C0AF
:100F980042F00AC043F00BC044F00CC045F00DC04D
:100FA80046F048BE1FD0485003E14704D8A01AD0E5
:100FB8003F50401041104210431044104510461055
:100FC800D8A473D73ABE05D03A5002E13904D8B054
:100FD8006CD73CBE07D03C5003E13B04D8A002D0FC
:100FE80075B263D73D503E10D8A402D075A417D06F
:100FF8004706D8A048063D503E10D8A404D0000E9D
:10100800386E2B0E03D0000E386E2D0E376ECB0EB9
:101018004724D96E000E4820DA6E37C0DFFF25C09E
:101028001AF026C01BF0CB0E47241C6E000E482079
:101038001D6E3BC01EF03CC01FF022EC10F01AC021
:1010480025F01BC026F0120064EC14F0000E086EA8
:10105800100E076E57EC14F060EC14F012EC14F05C
:10106800000E0001C26F000EC16F000E9E6F640E6D
:101078009D6F000EA06F640E9F6F000EA96F000E8B
:10108800A86F000EA76F000EA26F140EA16FB4EC2C
:1010980013F0929092929298898881A802D0010EBA
:1010A80001D0000E0001AA6F000EA56F000EA46FFC
:1010B800AAC0A6F081A802D0010E01D0000EAA6F26
:1010C800C151A45DA551800A8E6FC251800A8E5904
:1010D800D8B08FD0A44BA52B8CD0010E51EC14F0B6
:1010E800110E00018E6F3A0EE82EFED78E2FFCD718
:1010F80000F0F80E0001826FFF0E836FC1C084F00C
:10110800C2C085F0C8EC13F0900E51EC14F0F80E44
:101118000001826FFF0E836FAAC084F0856BC8EC54
:1011280013F0C00E51EC14F0F80E0001826FFF0EA0
:10113800836FC3C084F0C4C085F0C8EC13F09DC0B1
:101148005AF09EC05BF0010E5C6E9FC05DF0A0C0BF
:101158005EF06DEC10F067D001EC14F0000E0001A9
:10116800A86F010EA76F020EA96F010E51EC14F0C3
:10117800110E00018E6F3A0EE82EFED78E2FFCD787
:1011880000F0C00E0001826FFF0E836FC8EC13F0F1
:10119800000E5B6E000E5A6E010E5C6E000E5E6EE7
:1011A800000E5D6E6DEC10F03ED089EC13F000017E
:1011B800A36FA351D8B437D0A707D8A0A807A751C1
:1011C800A811D8A402D0000E04D001EC14F02BD042
:1011D800050EA96F28D0000E5B6E000E5A6E010E28
:1011E8005C6E000E5E6E000E5D6E6DEC10F0899800
:1011F8001200A9518E6F8F6B8F51000AD8A413D09B
:101208008E51000AD8B469D7010AD8B4A5D7030A01
:10121800D8B4CBD7010AD8B4D6D7070AD8B4D8D708
:10122800010AD8B4D8D70001A151C15DC251800AC2
:101238008E6FA251800A8E59D8A00AD0050EA96FC8
:1012480007D0AA51A619D8B433D7010EA96F30D741
:10125800A9518E6F8F6B8F51000AD8A429D78E5150
:10126800000AD8B4EED7010AD8B422D7030AD8B4F2
:101278001FD7010AD8B41CD7070AD8B419D7010A4E
:1012880017D774AE759274BE05D0745008E1730414
:10129800D8B005D0000E3D6E010E3C6E04D073C070
:1012A8003CF074C03DF0BFC03EF0C0C03FF075A830
:1012B80004D0FE0E3E26FF0E3F2227C040F028C075
:1012C80041F029C042F02AC043F02BC044F02CC0A2
:1012D80045F02DC046F02EC047F0000E496E1F0E97
:1012E800486E000E0001EA6F93D04806D8A0490660
:1012F8000F0E40144A6E4B6A4BBE08D04B5004E1A7
:101308000A0E4A5CD8A002D0570E01D0300E4A24EB
:101318004A6E000E4B204B6EBF0E306EFF0E316EC4
:101328002F50326E336A30503226315033223350C8
:1013380006E11A0E325CD8B002D0010E01D0000EC0
:10134800386E396A38503910D8B427D09F0E306EAD
:10135800FF0E316E200E4A10326E000E4B10336EA7
:101368003050322631503322335006E11A0E325CA7
:10137800D8B002D0010E01D0000E3A6E3B6A3A5046
:101388003B10D8B40AD04AC00CF04BC00DF052EC58
:1013980012F00CC04AF00DC04BF0CB0E4824D96EA9
:1013A800000E4920DA6E4AC0DFFF3C06D8A03D0691
:1013B8003E06D8A03F0640C030F041C031F042C0E0
:1013C80032F043C033F044C034F045C035F046C075
:1013D80036F047C037F0050E09D0D890373236328C
:1013E800353234323332323231323032E82EF5D7B8
:1013F80030C040F031C041F032C042F033C043F059
:1014080034C044F035C045F036C046F037C047F028
:1014180049BE20D0495004E1020E485CD8A01AD039
:1014280040504110421043104410451046104710D8
:10143800D8A45BD73DBE05D03D5002E13C04D8B0EE
:1014480054D73FBE07D03F5003E13E04D8A002D096
:1014580075B24BD775A816D04806D8A04906CB0E4A
:101468004824D96E000E4920DA6E2FC0DFFF4806E7
:10147800D8A04906CB0E4824D96E000E4920DA6E52
:10148800300EDF6E25C01AF026C01BF0CB0E4824A4
:101498001C6E000E49201D6E3EC01EF03FC01FF09E
:1014A80022EC10F01AC025F01BC026F0120049BE2D
:1014B8001200000E066E000E076EC80E086E420E71
:1014C800096E46C00AF047C00BF048C00CF049C08E
:1014D8000DF05DEC0FF0D8A012004DBE1200000E0A
:1014E800066E000E076EC80E086E420E096E4AC0E0
:1014F8000AF04BC00BF04CC00CF04DC00DF05DEC89
:101508000FF0D8A01200010ECB24506E516A000EC5
:101518005122000E316E000E326EC80E336E420E2E
:10152800346E000E186E000E196E800E1A6E400E84
:101538001B6E46C014F047C015F048C016F049C0ED
:1015480017F01AEC04F014C02DF015C02EF016C0D8
:101558002FF017C030F0C3EC05F02DC056F02EC0A8
:1015680057F02FC058F030C059F050C006F051C0A5
:1015780007F0086A096A000EEBEC0CF006C018F0D8
:1015880007C019F008C01AF009C01BF056C014F0C3
:1015980057C015F058C016F059C017F01AEC04F0EF
:1015A80014C02DF015C02EF016C02FF017C030F063
:1015B800C5EC0FF02DC052F02EC053F0000E316E66
:1015C800000E326EC80E336E420E346E000E186E68
:1015D800000E196E800E1A6E400E1B6E4AC014F073
:1015E8004BC015F04CC016F04DC017F01AEC04F0C3
:1015F80014C02DF015C02EF016C02FF017C030F013
:10160800C3EC05F02DC056F02EC057F02FC058F08F
:1016180030C059F050C006F051C007F0086A096A96
:10162800000EEBEC0CF006C018F007C019F008C06B
:101638001AF009C01BF056C014F057C015F058C076
:1016480016F059C017F01AEC04F014C02DF015C0AC
:101658002EF016C02FF017C030F0C5EC0FF02DC0DB
:1016680054F02EC055F0BD9A52A002D0BD8801D0CA
:10167800BD9852C04EF053C04FF0D8904F324E3202
:10168800D8904F324E324E50BE6EBA9A54A002D005
:10169800BA8801D0BA9854C04EF055C04FF0D890CF
:1016A8004F324E32D8904F324E324E50BB6E1200EF
:1016B800800E51EC14F0070E0001906F7D0EE82E9D
:1016C800FED7902FFCD7000E0001956F82D0800EB8
:1016D80051EC14F0070E0001906F7D0EE82EFED736
:1016E800902FFCD7FB0E0001826FFF0E836FA90EAF
:1016F800846FFF0E856FC8EC13F0C00E51EC14F028
:10170800FB0E0001826FFF0E836FED0E846FFE0EDD
:10171800856FC8EC13F0900E51EC14F0FB0E00012D
:10172800826FFF0E836F580E846FFF0E856FC8ECB3
:1017380013F0D00E51EC14F0FB0E0001826FFF0E77
:10174800836FFD0E846FFE0E856FC8EC13F050D0CA
:10175800800E51EC14F0070E0001906F7D0EE82EFC
:10176800FED7902FFCD7FB0E0001826FFF0E836F10
:10177800EF0E846FFF0E856FC8EC13F0C00E51ECAE
:1017880014F0FB0E0001826FFF0E836F1D0E846F35
:10179800FF0E856FC8EC13F0900E51EC14F0FB0EA1
:1017A8000001826FFF0E836FCC0E846FFE0E856F73
:1017B800C8EC13F0D00E51EC14F0FB0E0001826F50
:1017C800FF0E836F740E846FFF0E856FC8EC13F0E5
:1017D8000FD000019551906F916B9151000AD8A4D8
:1017E80007D09051000AD8B472D7010AD8B4B0D73C
:1017F8000001CA51D8B43DD0000ECA6F81380F0B12
:101808000F0B946FA90E9425F66EF76AFE0EF72259
:101818000800F5CF96F0010E51EC14F0110E0001FE
:10182800906F3A0EE82EFED7902FFCD700F012D01A
:10183800310E9619D8A402D0010E0AD0320E96198C
:10184800D8B4120016D0330E9619D8A412D0000EB0
:10185800956F0FD000019551906F916B9151000ACF
:10186800D8A407D09051000AD8B4E2D7010AD8B456
:10187800EAD7040E0001906F3D0EE82EFED7902F98
:10188800FCD700D0A6D7000E176E15AE12D0151EC5
:10189800141E131E121E111E101E0F1E0E6C000E9B
:1018A8000F22102211221222132214221522010EB5
:1018B800176E0DAE12D00D1E0C1E0B1E0A1E091E31
:1018C800081E071E066C000E0722082209220A229B
:1018D8000B220C220D22010E171A20EE18F0070E0B
:1018E800DE6AE806FDE20E500F10101011101210FB
:1018F800131014101510D8B446D0010E166E0AD065
:10190800D8900E360F361036113612361336143676
:101918001536162A15AEF4D7D890183619361A3651
:101928001B361C361D361E361F360E50065C0F50F1
:101938000758105008581150095812500A58135097
:101948000B5814500C5815500D58D8A011D00E50E3
:10195800065E0F50075A1050085A1150095A125073
:101968000A5A13500B5A14500C5A15500D5A188015
:10197800D8901532143213321232113210320F321B
:101988000E32162EC9D71750D8B410D01F1E1E1EDF
:101998001D1E1C1E1B1E1A1E191E186C000E192255
:1019A8001A221B221C221D221E221F2218C006F0EA
:1019B80019C007F01AC008F01BC009F01CC00AF0D3
:1019C8001DC00BF01EC00CF01FC00DF012000E6EF3
:1019D8000E50D8A409AE1AD006C00AF007C00BF002
:1019E80008C00CF009C00DF00A1E0B1E0C1E0D1EBF
:1019F8000A2A000E0B220C220D220AC010F00BC07E
:101A080011F00CC012F00DC013F008D006C010F091
:101A180007C011F008C012F009C013F006500710F3
:101A280008100910D8A409D0000E066E000E076E23
:101A3800000E086E000E096E1200960E0F6E06D08C
:101A48000F2AD8901332123211321032000E1014AD
:101A58000A6E000E11140B6E000E12140C6EFE0EA0
:101A680013140D6E0A500B100C100D10D8B40DD0B5
:101A7800E7D70F2A010E1026000E11221222132278
:101A8800D8901332123211321032000E10140A6E2E
:101A9800000E11140B6E000E12140C6EFF0E1314B0
:101AA8000D6E0A500B100C100D10D8B407D0E1D7EA
:101AB8000F06D890103611361236133612BE03D0E0
:101AC800020E0F60F5D70FA0129ED8900F320FC0EC
:101AD8000AF00B6A0C6A0D6A0AC00DF00C6A0B6AF0
:101AE8000A6A0A5010120B5011120C5012120D50A3
:101AF80013120E50D8A409AE01D0138E10C006F0F0
:101B080011C007F012C008F013C009F0120020EE4F
:101B1800EBF010EE18F0060EDBCFE3FFE806FCE270
:101B280015C023F016C024F023502410D8A404D0E4
:101B3800180E236E000E246E23C006F024C007F092
:101B480077EC12F006C027F007C028F073C025F024
:101B580074C026F026BE0ED02750255C2650800A79
:101B6800176E2850800A1758D8B004D025C027F01F
:101B780026C028F027C025F028C026F0BFC021F0D5
:101B8800C0C022F075A00DD016D0000E0B6E200E2E
:101B98000A6E13C00CF014C00DF030EC11F0274A97
:101BA800282A2150275C2850800A176E2250800A64
:101BB8001758D8A0EAD7000E206E000E1F6E1FD04F
:101BC80023C0F6FF24C0F7FF000EF86E0F0EF7646F
:101BD80003D00800F55005D0F6CFE1FFF7CFE2FFBC
:101BE800E750176E17500A6E0B6A13C00CF014C03A
:101BF8000DF030EC11F0234A242A1F4A202A2550E0
:101C08001F5C2050800A176E2650800A1758D8A0EB
:101C1800D7D775B00DD016D0000E0B6E200E0A6EF9
:101C280013C00CF014C00DF030EC11F0274A282A2C
:101C38002150275C2850800A176E2250800A1758B6
:101C4800D8A0EAD727C013F028C014F01200000E5D
:101C58001B6E000E1A6E000E146E000E136E02D06C
:101C68000D4A0E2A010E196E0DC0F6FF0EC0F7FFC1
:101C78000800F550200AD8B418D0F70E0F6EFF0EE2
:101C8800106E0DC0F6FF0EC0F7FF0800F550116E7C
:101C9800126A0F50112610501222125004E1050E3C
:101CA800115CD8A002D0000E196E19C015F0166A82
:101CB80015501610D8B408D0D3D7000E146E010EE4
:101CC800136E0D4A0E2A2ED00DC0F6FF0EC0F7FF78
:101CD8000800F5500F6E106A1050000AD8A422D0E0
:101CE8000F502B0AD8B4EDD7060AD8B4E6D71AD0C5
:101CF8001AC006F01BC007F0000E096E0A0E086E27
:101D0800DCEC13F00DC0F6FF0EC0F7FF0800F5502D
:101D1800065E000E075A300E06241A6E000E0720C3
:101D28001B6ECFD7D00E0F6EFF0E106E0DC0F6FFD4
:101D38000EC0F7FF0800F550116E126A0F501126F9
:101D480010501222125006E10A0E115CD8B002D0CF
:101D5800010E01D0000E176E186A17501810D8A47B
:101D6800C7D713501410D8A40DD01AC00FF01BC039
:101D780010F00F1E101E0F4A102A0FC00DF010C0D1
:101D88000EF012001AC00DF01BC00EF01200000E6B
:101D9800176E0DAE12D00D1E0C1E0B1E0A1E091E4C
:101DA800081E071E066C000E0722082209220A22B6
:101DB8000B220C220D22010E176E15AE10D0151E27
:101DC800141E131E121E111E101E0F1E0E6C000E66
:101DD8000F221022112212221322142215220E5031
:101DE8000F10101011101210131014101510D8B471
:101DF8003CD0010E166E0AD0D8900E360F3610362B
:101E080011361236133614361536162A15AEF4D78F
:101E18000E50065C0F5007581050085811500958BA
:101E280012500A5813500B5814500C5815500D588E
:101E3800D8A010D00E50065E0F50075A1050085AFE
:101E48001150095A12500A5A13500B5A14500C5A6E
:101E580015500D5AD89015321432133212321132ED
:101E680010320F320E32162ED3D71750D8B410D0E6
:101E78000D1E0C1E0B1E0A1E091E081E071E066CD0
:101E8800000E0722082209220A220B220C220D2208
:101E980006C006F007C007F008C008F009C009F03E
:101EA8000AC00AF00BC00BF00CC00CF00DC00DF00E
:101EB8001200000E06140E6E000E07140F6E800E30
:101EC8000814106E7F0E0914116E0E500F101010AA
:101ED8001110D8A408D0000E066E000E076E000E72
:101EE800086E000E096E000E0A140E6E000E0B141A
:101EF8000F6E800E0C14106E7F0E0D14116E0E50A6
:101F08000F1010101110D8A408D0000E0A6E000E81
:101F18000B6E000E0C6E000E0D6E09AE09D0066C2D
:101F2800071ED8B0072A081ED8B0082A800E0956FE
:101F38000DAE09D00A6C0B1ED8B00B2A0C1ED8B0F7
:101F48000C2A800E0D56000E061A000E071A000EF7
:101F5800081A800E091A000E0A1A000E0B1A000E33
:101F68000C1A800E0D1A0A50065C0B5007580C50BC
:101F780008580D500958D8B002D0D8901200D8800F
:101F880012002F343034366E3650D8A409D0000EE3
:101F98002D6E000E2E6E000E2F6E000E306E12008B
:101FA8002DC031F02EC032F02FC033F030C034F0E5
:101FB800200E05D0D8903432333232323132E82E06
:101FC800F9D73150356E2F8EFF0E2D16FF0E2E16B7
:101FD800FF0E2F16000E3016960E365E36AE0DD05A
:101FE8003650800A970FD8A0D2D7D89030322F32E7
:101FF8002E322D32363EF9D70DD01F0E366407D05B
:10200800C6D7D8902D362E362F363036360636506F
:10201800D8A4F7D73550D8B408D0301E2F1E2E1E9E
:102028002D6C000E2E222F2230222DC02DF02EC016
:102038002EF02FC02FF030C030F0120075A00AD05B
:102048001CC013F01DC014F01AC015F01BC016F008
:10205800D8EC12F01FBE05D01EC023F01FC024F01C
:1020680004D0000E246E000E236E000E226E000EA9
:10207800216E0CD0000E0B6E200E0A6E1AC00CF0EA
:102088001BC00DF030EC11F0214A222A2350215CAC
:102098002250800A206E2450800A2058D8A0EAD7FF
:1020A80075B00AD01CC013F01DC014F01AC015F08A
:1020B8001BC016F0D8EC12F01CC006F01DC007F0CB
:1020C80077EC12F0235006241A6E245007201B6E5A
:1020D80012005C50D8B403D08990898202D08980DC
:1020E80089925AC006F05BC007F0000E07BEFF0ECB
:1020F800086E096E010EEBEC0CF006C05FF007C02D
:1021080060F008C061F009C062F05DC006F05EC012
:1021180007F0000E07BEFF0E086E096E010EEBEC0D
:102128000CF006C063F007C064F008C065F009C091
:1021380066F05FC046F060C047F061C048F062C01A
:1021480049F063C04AF064C04BF065C04CF066C00B
:102158004DF05BEC0AF01200000E0E6E000E0F6ED2
:10216800000E106E000E116E0A500B100C100D10A0
:10217800D8B42AD0010E126E06D0D8900A360B3683
:102188000C360D36122A0DAEF8D7D8900E360F360B
:10219800103611360A50065C0B5007580C50085878
:1021A8000D500958D8A009D00A50065E0B50075A9E
:1021B8000C50085A0D50095A0E80D8900D320C3226
:1021C8000B320A32122EE1D70EC006F00FC007F00C
:1021D80010C008F011C009F0120081A403D0016AF0
:1021E800012A01D0016A0150026E036A7750D8A40F
:1021F8001FD002040310D8A41BD084A403D0016A02
:10220800012A01D0016A0150046E056A04500510C4
:10221800D8A405D07850D8B402D0000E08D0040451
:102228000510D8A405D07850D8A402D0010E786E35
:1022380002500310D8B402D0010E01D0000E776E00
:102248007850D8A404D00001C34BC42B120000015D
:10225800C307D8A0C40712000C500D10D8B404D07E
:102268000C500D10D8A404D00A504BEC14F01200F6
:1022780020EE04F00C50D9260D50DA22DE50DE1084
:10228800D8B416D020EE04F00C50D9260D50DA221E
:1022980010EE02F00C50E1260D50E222DE50E65C12
:1022A800E650800A126EDE50800A1258D8B012002A
:1022B80020EE02F00C50D9260D50DA22DE2A000E4C
:1022C800DD221200310E0A6EB20EE82EFED70A2E5B
:1022D800FCD700D08C94030E2EEC14F0110E0A6E6D
:1022E8003A0EE82EFED70A2EFCD700D0030E2EECAD
:1022F80014F07D0EE82EFED7320E42EC14F0280EB4
:1023080042EC14F0080E42EC14F0010E42EC14F00A
:10231800110E0A6E3A0EE82EFED70A2EFCD700D010
:10232800060E42EC14F00C0E51EC14F012000A5098
:102338000B100C100D10D8B424D0010E0E6E06D060
:10234800D8900A360B360C360D360E2A0DAEF8D755
:102358000A50065C0B5007580C5008580D50095885
:10236800D8A008D00A50065E0B50075A0C50085ADD
:102378000D50095AD8900D320C320B320A320E2EFB
:10238800E7D706C006F007C007F008C008F009C084
:1023980009F01200C69A94869488800E066E960EEE
:1023A800076E980E086E000E096E13C017F014C061
:1023B80018F015C019F016C01AF0020ED89017368A
:1023C800183619361A36E82EF9D717C00AF018C089
:1023D8000BF019C00CF01AC00DF0B0EC10F00604A8
:1023E800C86E800EC76E280EC66E000EC56E12002F
:1023F800B80EF66E280EF76E000EF86E00EEEBF0D3
:1024080010EE08F00900F5CFEEFFE550E150FAE1D3
:10241800D20EF66E280EF76E000EF86E0900F5CF94
:1024280078F000EEBDF02E0EEE6AE806FDE1776A60
:10243800766A756A746A736A79907992000EF86E92
:10244800000113EF02F06FC080F070C081F0000E41
:102458000001BE6F000EBD6F13D06DC04CF06EC092
:102468004DF0800E4E6E000E4F6E71C050F072C06F
:1024780051F009EC00F04C500001BD274D50BE232F
:1024880080C0F6FF81C0F7FF0800F5500009D8A406
:10249800E4D7BDC06DF0BEC06EF012009F0E0E6E88
:1024A800FF0E0F6E0CC010F00DC011F00E5010266C
:1024B8000F501122115006E11A0E105CD8B002D04C
:1024C800010E01D0000E126E136A12501310D8B408
:1024D80005D05F0E0C140C6E0D6A12000CC00CF0C7
:1024E8000DC00DF0120006C008F007C009F002D0B8
:1024F800064A072A06C0F6FF07C0F7FF000EF86E67
:102508000F0EF76403D00800F55005D0F6CFE1FFB1
:10251800F7CFE2FFE7500009D8A4EAD70850065CD5
:10252800066E09500758076E120023EC14F0000ECF
:102538008C6E000E956E000E8A6E93829388938A35
:10254800938C938E92988998A00E136E860E146EB3
:10255800010E156E000E166ECEEC11F00F0EC16E48
:10256800F08666EC11F0F28E1200010E0C6E200E51
:1025780006180710D8B414D0F70E086EFF0E096EAF
:1025880006C00AF007C00BF008500A2609500B22B3
:102598000B5004E1050E0A5CD8A002D0000E0C6EA8
:1025A8000CC006F0076A1200000E196E000E186EB5
:1025B8000BD017C00AF00B6A15C00CF016C00DF04E
:1025C80030EC11F0184A192A18501324D96E1950F2
:1025D8001420DA6EDF50176E1750D8B41200E9D7FE
:1025E8009F0E086EFF0E096E200E06100A6E000E72
:1025F80007100B6E08500A2609500B220B5006E1F3
:102608001A0E0A5CD8B002D0010E01D0000E066E78
:10261800076A12000600F0A005D0010E0001CA6F7B
:10262800F09010D0F2A409D0F294B30ED76EB50E84
:10263800D66E0001C14BC22B05D0F0A203D0F09298
:10264800F1EC10F07992110019BE05D0195010E183
:102658001804D8B00DD018C01AF019C01BF01A1EF3
:102668001B1E1A4A1B2A1AC018F01BC019F01200A8
:1026780018C018F019C019F012009F0E086EFF0E4E
:10268800096E06C00AF007C00BF008500A26095068
:102698000B220B5006E11A0E0A5CD8B002D0010ECC
:1026A80001D0000E066E076A1200BF0E086EFF0EFC
:1026B800096E06C00AF007C00BF008500A26095038
:1026C8000B220B5006E11A0E0A5CD8B002D0010E9C
:1026D80001D0000E066E076A1200D00E086EFF0EBB
:1026E800096E06C00AF007C00BF008500A26095008
:1026F8000B220B5006E10A0E0A5CD8B002D0010E7C
:1027080001D0000E066E076A120064EC14F0000E89
:10271800086E110E076E57EC14F0010EEFEC13F073
:10272800096E60EC14F0310E0918D8A402D0010E1D
:102738001200000E1200000EF2BE010E066EF29E8E
:102748008C86140EE82EFED700D08C96530EE82EF9
:10275800FED700F006B002D0F29E01D0F28E120031
:10276800948494829B0ECB6EBD9EBD9CBD86BD8419
:10277800BD92BD90BA86BA84BA92BA90CA80CA820B
:10278800CA84949494921200840E00018C6F000EF7
:102798008D6F000E6D6E000E6E6E82C06FF083C07E
:1027A80070F08C0E716E000E726E27EC12F0120033
:1027B80006500802F3CF0AF0F4CF0BF006500902D6
:1027C800F3500B2607500802F3500B260AC006F0F8
:1027D8000BC007F01200076E39EC14F0C58639EC0F
:1027E80014F0C9CF08F039EC14F007B002D0C59A3C
:1027F80001D0C58AC5880850120064EC14F0000E98
:10280800086E100E076E57EC14F0000E086E310EAD
:10281800076E57EC14F060EC14F01200D59ED59CAE
:10282800D59AD596D550F80B0509D56EB30ED76E47
:10283800B50ED66ED58EF28AF28EF28C1200010E8B
:10284800786E010E0001F26F9684968293849380CD
:10285800F0881200076E8C500F0B8C6E0738F00B47
:102868008C108C6E9FEC13F01200C7B4FED7C5CF46
:1028780006F01F0E0616D8B41200F7D7086E0838EF
:102888000F0B2EEC14F008502EEC14F01200096E09
:102898008C84095042EC14F01200096E8C94095093
:1028A80042EC14F0120039EC14F007C0C9FF120012
:1028B800286E756C6C29000139EC14F0C58412007F
:0B28C80039EC14F0C580120012000172
:10FEA800003132334134353642373839432A30232A
:10FEB800440000370E0213021300041010E8030078
:10FEC80000501040544952452E204F4E20504F4C60
:10FED800453A20580028312920283229202833295A
:10FEE800202834290058205449522E205355505068
:10FEF8004C494544002832292053415645202620A4
:10FF08004558495400283229205155495420444F16
:10FF1800204E4F54005449522E204445504C4F59BE
:10FF28003A205800253032782F253032782F253066
:10FF3800327800253032783A253032783A25303216
:10FF480078002831204953204F4C44455354290008
:10FF580028312920504F4C4520494E464F00283221
:10FF6800292056494557204C4F475300313C2D20F6
:10FF7800322D3E20334D454E55004F502E20434FD5
:10FF88004D504C45544500283129205649455720A5
:10FF98004C4F47004F5045524154494F4E20494E0F
:10FFA800004F502E2054494D452058730053454C5E
:10FFB800454354204C4F4700544952452044524F22
:10FFC80050002831292053544152540057454C437E
:10FFD8004F4D45200053415645204C4F4700505245
:10FFE8004F475245535300504F4C4520582F590006
:07FFF80025640025730000E1
:020000040020DA
:08000000FFFFFFFFFFFFFFFF00
:020000040030CA
:0E000000FF021F1EFF8381FF0F400FE00F4025
:00000001FF
