:020000040000FA
:0400000007EF00F016
:100008007A82FFED1AF043EF18F056EC1DF0000E5F
:10001800086E100E076E4DEC1DF052EC1DF0D6EC7C
:100028001CF009EC1DF0000E756E000E766E000EC9
:10003800776E000E786E000E0101286F140E276F80
:10004800000E406F000E336F000E326FF00E3C6FE3
:10005800490E3D6F020E3E6F000E3F6FD0C02AF171
:10006800D1C02BF1CEC02CF1CFC02DF1000E006F06
:10007800000E016F000E026F000E036F89EC1CF07A
:10008800000E01012F6F000E2E6F000E1A6F000E6A
:10009800196F000E1C6F000E1B6F000E1E6F000EF6
:1000A8001D6F000E356F000E346F000E136F000EBB
:1000B800126F000E376F000E366F000E206F000EA5
:1000C8001F6F000E316F000E306F000E226F000E92
:1000D800216F92909292929492969298898875C084
:1000E80023F176C024F177C025F178C026F1640E9B
:1000F800010123250001B66F000E01012421000132
:10010800B76F000E010125210001B86F000E010133
:1001180026210001B96FB651755CB7517658B851B0
:100128007758B9517858D8A0E2D781A802D0010EE3
:1001380001D0000E0101426F42C138F181AA02D0FC
:10014800010E01D0000E416F41C139F1010E186F47
:1001580001012E4B2F2B42C138F181A802D0010E8C
:1001680001D0000E426F41C139F181AA02D0010EBF
:1001780001D0000E416FBCD12EC106F02FC107F08F
:10018800000E096E640E086E09EC19F0065007108F
:10019800D8A44FD0010E47EC1DF0110E0001B66F28
:1001A8003A0EE82EFED7B62FFCD700F0800E47ECAB
:1001B8001DF0070E0001B66F7D0EE82EFED7B62F94
:1001C800FCD7F30E0001806FFF0E816F75C082F0BF
:1001D80076C083F077C084F078C085F09DEC1CF081
:1001E800900E47EC1DF0F30E0001806FFF0E816F3B
:1001F80042C182F0836B9DEC1CF0C00E47EC1DF0F1
:10020800F60E0001806FFF0E816FCEC082F0CFC066
:1002180083F09DEC1CF0D00E47EC1DF0F00E0001B1
:10022800806FFF0E816FD0C082F0D1C083F09DEC4B
:100238001CF027C188F028C189F0000E00018A6FE0
:10024800000E8B6F800E8C6F3F0E8D6F2AC18EF063
:100258002BC18FF02CC190F02DC191F0CD0E926F73
:10026800CC0E936FCC0E946F3D0E956FFCEC0EF098
:100278005DD1010130510001D05D0101216F315183
:100288000001D1590101226FD0C030F1D1C031F144
:100298001D4B1E2B3CC18EF03DC18FF03EC190F02E
:1002A8003FC191F0A9EC0AF08EC036F18FC037F14A
:1002B800010E47EC1DF0110E0001B66F3A0EE82E44
:1002C800FED7B62FFCD700F0800E47EC1DF0070EC6
:1002D8000001B66F7D0EE82EFED7B62FFCD7A10E13
:1002E8000001806FFF0E816F9DEC1CF0C00E47EC83
:1002F8001DF0760E0001806FFF0E816F36C182F00F
:1003080037C183F09DEC1CF0000E6D6E000E6C6E14
:10031800010E6E6E010E6F6E000E716E000E706E25
:10032800F8EC17F0E7EC1CF0000E0101336F010E3A
:10033800326F020E24D05EEC1CF00101296F2951A6
:10034800D8B4F4D03207D8A03307344B352B325108
:100358003311D8A40FD0060E406F000E376F000E71
:10036800366F34511F2735512023000E356F000E8C
:10037800346FDCD0E7EC1CF0D9D0000E88D0406F89
:10038800D5D0010E47EC1DF0110E0001B66F3A0EE4
:10039800E82EFED7B62FFCD700F0800E47EC1DF0F4
:1003A800070E0001B66F7D0EE82EFED7B62FFCD7DC
:1003B800510E0001806FFF0E816F9DEC1CF0D0C0C4
:1003C80014F1D1C015F1CEC016F1CFC017F1000E4F
:1003D8000001A16F1E0EA06F000EA36F010EA26F89
:1003E800CD0EA46FCC0EA56FCC0EA66F3D0EA76FD9
:1003F8000B0EA96FB80EA86F3CC1AAF03DC1ABF0B7
:100408003EC1ACF03FC1ADF051EC17F0000E6D6E7F
:10041800000E6C6E010E6E6E010E6F6E000E716E28
:10042800000E706EF8EC17F00F0E076EA00E066E39
:100438003CC108F03DC109F03EC10AF03FC10BF0D4
:10044800DFEC19F0000E01012B6F000E2A6F000E71
:100458002D6F000E2C6F000E406F81A802D0010E88
:1004680001D0000E426F81A802D0010E01D0000E0B
:10047800386F81AA02D0010E01D0000E416F81AA07
:1004880002D0010E01D0000E396F50D0050E0101C7
:1004980076D7F8EC1CF0000E01013B6F000E3A6FA6
:1004A8003BBF06D03B5114E1300E3A5DD8B010D0B6
:1004B800D8903A35D96E3B35DA6E780ED926010ECA
:1004C800DA22030EDE6E000EDD6E3A4B3B2BE8D7C8
:1004D800000E6D6E000E6C6E010E6E6E010E6F6E6C
:1004E800000E716E000E706EF8EC17F0899812000D
:1004F80040510001B66FB76BB751000AD8A416D0A7
:10050800B651000AD8B438D6010AD8B4B2D6030A0C
:10051800D8B411D7010AD8B430D7070AD8B4B6D797
:10052800010AD8B4B6D7030AD8B42BD701013C5175
:10053800755C3D5176583E5177583F517858D8A050
:100548001BD0050E406F18D0010142513819D8A4AC
:1005580004D041513919D8B4FBD542513819D8B40F
:1005680002D0194B1A2B41513919D8B402D01B4B60
:100578001C2B010E406FECD540510001B66FB76BD4
:10058800B751000AD8A4E4D5B651000AD8B4DCD7CC
:10059800010AD8B4DDD5030AD8B4DAD5010AD8B42B
:1005A800D7D5070AD8B4D4D5010AD8B4D1D5030A07
:1005B800CFD54EC0D9FF4FC0DAFFDECFF6FFDDCF73
:1005C800F7FF0800F550250AD8A41ED24EC0D9FF5F
:1005D8004FC0DAFFDE2A000EDD22000E01014A6F4D
:1005E800000E496F49C1CCF04AC1CDF04B694C6946
:1005F800000E696E000E19D00001CC814EC0D9FFE3
:100608004FC0DAFFDE2A000EDD2232D00001CC8393
:10061800F5D70001CC85F2D70001CC87EFD70001D0
:10062800CC89ECD7000E696E010E686E21D04EC0E1
:10063800D9FF4FC0DAFFDECFF6FFDDCFF7FF0800A6
:10064800F550526E536A5350000AD8A4EBD7525053
:10065800200AD8B4E1D7030AD8B4E1D7080AD8B435
:10066800D8D7060AD8B4C8D71D0AD8B4CFD7DAD78E
:1006780068506910D8B4DBD70001CCB1CC934EC018
:10068800D9FF4FC0DAFFDECFF6FFDDCFF7FF080056
:10069800F5502A0AD8A426D04EC0D9FF4FC0DAFF99
:1006A800DE2A000EDD2250C0D9FF51C0DAFFDFCFAD
:1006B80052F0020EDE26DFCF53F0000EDD2252C0CC
:1006C800D9FF53C0DAFFDECF49F1DDCF4AF101018E
:1006D8004AAF41D00001CC810101496D4A1FD8B011
:1006E8004A2B39D04EC0D9FF4FC0DAFFDECF0DF00C
:1006F800DDCF0EF05AEC15F00DC049F10EC04AF1ED
:1007080007D04EC0D9FF4FC0DAFFDE2A000EDD2227
:10071800D00E526EFF0E536E4EC0D9FF4FC0DAFF97
:10072800DECFF6FFDDCFF7FF0800F550546E556AAF
:100738005250542653505522555006E10A0E545C27
:10074800D8B002D0010E01D0000E6A6E6B6A6A50F2
:100758006B10D8A4D6D74EC0D9FF4FC0DAFFDECF72
:10076800F6FFDDCFF7FF0800F550630AD8A426D0BE
:100778004EC0D9FF4FC0DAFFDE2A000EDD2250C07E
:10078800D9FF51C0DAFFDFCF52F0020EDE26DFCFED
:1007980053F0000EDD2252C0D9FF53C0DAFFDF50FC
:1007A8006C6E4CC025F04DC026F06CC027F06AEC8A
:1007B8001AF025C04CF026C04DF012004EC0D9FFEB
:1007C8004FC0DAFFDECFF6FFDDCFF7FF0800F550A8
:1007D800640AD8B40DD04EC0D9FF4FC0DAFFDECFBF
:1007E800F6FFDDCFF7FF0800F550690AD8A43FD01F
:1007F8004EC0D9FF4FC0DAFFDE2A000EDD2250C0FE
:10080800D9FF51C0DAFFDFCF52F0020EDE26DFCF6C
:1008180053F0000EDD2252C0D9FF53C0DAFFDECFFD
:1008280056F0DDCF57F0000E57BEFF0E586E596ECA
:100838005A6E5B6E5C6E5D6E4CC025F04DC026F046
:1008480056C027F057C028F058C029F059C02AF0E0
:100858005AC02BF05BC02CF05CC02DF05DC02EF0B0
:100868002EEC10F025C04CF026C04DF012004EC002
:10087800D9FF4FC0DAFFDECFF6FFDDCFF7FF080064
:10088800F550730AD8A42AD04EC0D9FF4FC0DAFF5A
:10089800DE2A000EDD2250C0D9FF51C0DAFFDFCFBB
:1008A80052F0020EDE26DFCF53F0000EDD2252C0DA
:1008B800D9FF53C0DAFFDECF66F0DDCF67F04CC05A
:1008C80013F04DC014F066C015F067C016F018ECB0
:1008D80014F013C04CF014C04DF012004EC0D9FFF4
:1008E8004FC0DAFFDECFF6FFDDCFF7FF0800F55087
:1008F800780AD8B40DD04EC0D9FF4FC0DAFFDECF8A
:10090800F6FFDDCFF7FF0800F550580AD8A44DD000
:100918004EC0D9FF4FC0DAFFDECFF6FFDDCFF7FFBD
:100928000800F5CF6CF04EC0D9FF4FC0DAFFDE2AC1
:10093800000EDD2250C0D9FF51C0DAFFDFCF52F0E0
:10094800020EDE26DFCF53F0000EDD2252C0D9FFA3
:1009580053C0DAFFDECF54F0DDCF55F054C05EF05F
:1009680055C05FF0606A616A626A636A646A656A50
:100978004CC025F04DC026F05EC027F05FC028F0BF
:1009880060C029F061C02AF062C02BF063C02CF06F
:1009980064C02DF065C02EF06CC02FF056EC11F03D
:1009A80025C04CF026C04DF012004EC0D9FF4FC0F4
:1009B800DAFFDECFF6FFDDCFF7FF0800F550250A96
:1009C800D8A416D04EC0D9FF4FC0DAFFDE2A000ED9
:1009D800DD22000E0B6E250E0A6E4CC00CF04DC0C9
:1009E8000DF041EC19F0000E4D6E010E4C6E120028
:1009F8004EC0D9FF4FC0DAFFDE2A000EDD22000EFE
:100A08004D6E000E4C6E12004EC0D9FF4FC0DAFF7B
:100A1800DECFF6FFDDCFF7FF0800F5500A6E0B6A50
:100A28004CC00CF04DC00DF041EC19F04EC0D9FF90
:100A38004FC0DAFFDE2A000EDD22D5D788EC1BF086
:100A4800000E0001CA6F010EC96F000EC36F000EC1
:100A5800C46F000EC56F000EC66FC3C006F0C4C0D9
:100A680007F0C5C008F0C6C009F00A0E0A6E000EED
:100A78000B6E000E0C6E000E0D6EACEC19F00650ED
:100A8800071008100910D8A450D156EC1DF0000E1C
:100A9800086ED00E076E4DEC1DF0000E086E000EAD
:100AA800076E4DEC1DF052EC1DF056EC1DF0000EDB
:100AB800086ED10E076E4DEC1DF0000E0001C86FD8
:100AC800BC0EC825D96EDA6A000EDA22000EC4EC14
:100AD8001CF0DF6E0001C82B050EC865F1D7010EAA
:100AE800C4EC1CF00001C26F52EC1DF01ED1800E48
:100AF80047EC1DF0070E0001BA6F7D0EE82EFED7F9
:100B0800BA2FFCD7E70E0001806FFF0E816FBF0E72
:100B1800826FFF0E836F9DEC1CF0C60E0001806F84
:100B2800FE0E816FC2C082F0836BC1C084F0856BFA
:100B3800C0C086F0876B9DEC1CF0C00E47EC1DF022
:100B4800D50E0001806FFE0E816FBEC082F0836BF0
:100B5800BDC084F0856BBCC086F0876B9DEC1CF033
:100B6800900E47EC1DF0E70E0001806FFF0E816FBD
:100B7800AB0E826FFF0E836F9DEC1CF0D00E47EC1E
:100B88001DF0E70E0001806FFF0E816F0E0E826F61
:100B9800FF0E836F9DEC1CF0E0D0800E47EC1DF03B
:100BA800070E0001BA6F7D0EE82EFED7BA2FFCD7CC
:100BB800E70E0001806FFF0E816F440E826FFF0EFB
:100BC800836F9DEC1CF0C00E47EC1DF0E70E000192
:100BD800806FFF0E816FD10E826FFF0E836F9DECC9
:100BE8001CF009EC00F0010E47EC1DF0110E00019D
:100BF800BA6F3A0EE82EFED7BA2FFCD700F0020ED5
:100C080091D0800E47EC1DF0070E0001BA6F7D0EE3
:100C1800E82EFED7BA2FFCD7E70E0001806FFF0E33
:100C2800816F2A0E826FFF0E836F9DEC1CF0C00E41
:100C380047EC1DF0E70E0001806FFF0E816F370E45
:100C4800826FFF0E836F9DEC1CF0900E47EC1DF039
:100C5800E70E0001806FFF0E816FA70E826FFE0EF8
:100C6800836F9DEC1CF0D00E47EC1DF0E70E0001E1
:100C7800806FFF0E816FC80E826FFF0E836F9DEC31
:100C88001CF0000E0001C96F68D0800E47EC1DF003
:100C9800070E0001BA6F7D0EE82EFED7BA2FFCD7DB
:100CA800E70E0001806FFF0E816F6B0E826FFF0EE3
:100CB800836F9DEC1CF0C00E47EC1DF0E70E0001A1
:100CC800806FFF0E816FF20E826FFE0E836F9DECB8
:100CD8001CF0900E47EC1DF0E70E0001806FFF0E30
:100CE800816F870E826FFE0E836F9DEC1CF035D0EE
:100CF800C951D8A405D091EC1AF0040E0001C96FAF
:100D0800C9C08EF08F6B29EC07F0010E47EC1DF07F
:100D1800110E0001BA6F3A0EE82EFED7BA2FFCD793
:100D280000F0000E0001CA6F18D00001CA51BA6F56
:100D3800BB6BBB51000AD8A410D0BA51000AD8B472
:100D4800D6D6010AD8B429D7030AD8B45AD7010A83
:100D5800D8B49BD7070AD8B4CBD70001D251D8B49E
:100D680064D0000ED26F81380F0B0F0BC76F430E84
:100D7800C725F66EF76AFE0EF7220800F5CFCBF00E
:100D8800010E47EC1DF0110E0001BA6F3A0EE82E65
:100D9800FED7BA2FFCD700F032D0310ECB19D8A429
:100DA80002D0010E11D0320ECB19D8A43ED0030EBA
:100DB8000BD0310ECB19D8A402D0040E05D0320EB8
:100DC800CB19D8A432D0000ECA6F2FD0310ECB1950
:100DD800D8A402D0010E11D0320ECB19D8A402D05B
:100DE800020E0BD0330ECB19D8A402D0030E05D0B7
:100DF800340ECB19D8A419D0340EC96FDED7000130
:100E0800CA51BA6FBB6BBB51000AD8A40ED0BA51F5
:100E1800000AD8B4C2D7010AD8B407D0030AD8B494
:100E2800C8D7010AD8B4D2D7070A010EC327000EC3
:100E3800C423C523C623040E0001BA6F3D0EE82E55
:100E4800FED7BA2FFCD700D008D6800E47EC1DF08D
:100E5800070E0001906F7D0EE82EFED7902FFCD76D
:100E6800000E0001986F010E976F000E956F34D138
:100E7800800E47EC1DF0070E0001906F7D0EE82EE6
:100E8800FED7902FFCD78EC006F08FC007F0000E5B
:100E9800096E600E086EB1EC1CF0780E0624D96E4F
:100EA800010E0720DA6EDECF99F0DDCF9AF0E30E5F
:100EB8000001806FFF0E816F970E826FFF0E836FA8
:100EC80099C084F09AC085F0E80E866FFF0E876F90
:100ED8009DEC1CF0C00E47EC1DF08EC006F08FC0D4
:100EE80007F0000E096E600E086EB1EC1CF07A0E69
:100EF8000624D96E010E0720DA6EDECF99F0DDCF19
:100F08009AF0DE0E0001806FFF0E816FB70E826FC0
:100F1800FE0E836F99C084F09AC085F09DEC1CF09A
:100F2800900E47EC1DF0E70E0001806FFF0E816FF9
:100F3800000E826FFF0E836F9DEC1CF0D00E47EC05
:100F48001DF0E70E0001806FFF0E816F970E826F14
:100F5800FE0E836F9DEC1CF0CED0800E47EC1DF08A
:100F6800070E0001906F7D0EE82EFED7902FFCD75C
:100F78008EC006F08FC007F0000E096E600E086E76
:100F8800B1EC1CF07C0E0624D96E010E0720DA6E37
:100F9800DECF99F0DDCF9AF0DA0E0001806FFF0EF8
:100FA800816FEA0E826FFF0E836F97C084F098C03E
:100FB80085F0FC0E866FFF0E876F99C088F09AC087
:100FC80089F09DEC1CF0C00E47EC1DF097C090F026
:100FD80098C091F0D890000190379137D890903709
:100FE80091378EC006F08FC007F0000E096E600EB4
:100FF800086EB1EC1CF0780E0001926F010E936F31
:10100800020E9227000E932306509227075093232F
:1010180090519225D96E91519321DA6EDECF99F0D5
:10102800DDCF9AF0DE0E806FFF0E816FE40E826FC7
:10103800FE0E836F99C084F09AC085F09DEC1CF079
:10104800900E47EC1DF097C090F098C091F0D890A2
:10105800000190379137D890903791378EC006F0BD
:101068008FC007F0000E096E600E086EB1EC1CF020
:10107800780E0001926F010E936F040E9227000EF6
:101088009323065092270750932390519225D96EA7
:1010980091519321DA6EDECF99F0DDCF9AF0DE0E12
:1010A800806FFF0E816F770E826FFE0E836F99C07F
:1010B80084F09AC085F09DEC1CF0D00E47EC1DF032
:1010C800E70E0001806FFF0E816F1C0E826FFF0E0E
:1010D800836F9DEC1CF00FD000019551906F916BC0
:1010E8009151000AD8A407D09051000AD8B4C0D6AC
:1010F800010AD8B432D70001D251D8B473D0000E47
:10110800D26F81380F0B0F0B946F430E9425F66E38
:10111800F76AFE0EF7220800F5CF96F0010E47ECAD
:101128001DF0110E0001906F3A0EE82EFED7902F99
:10113800FCD700F048D0310E9619D8A403D0010E80
:10114800956F50D0320E9619D8B412004BD0330E8A
:101158009619D8A407D0000E956F000E986F010E4F
:10116800976F40D0320E9619D8A41ED08EC006F0C4
:101178008FC007F0000E096E600E086EB1EC1CF00F
:101188007C0E0624D96E010E0720DA6EDE500001AF
:10119800975D9851800A926FDE50800A9259D8B0B4
:1011A80021D0974B982B1ED0310E9619D8B498BFE2
:1011B80019D0985104E1020E975DD8A013D0970773
:1011C800D8A098070FD000019551906F916B91515D
:1011D800000AD8A407D09051000AD8B4ACD7010AA5
:1011E800D8B4B5D7040E0001906F3D0EE82EFED797
:1011F800902FFCD700D070D71750800B206E175057
:101208001724266E16BE26802650D8B40DD0262860
:10121800D8A408D0000E146E000E156E000E166EBF
:10122800000E176E168E08D0000E146E000E156E86
:10123800000E166E000E176E1B50800B201A1B50E6
:101248001B24216E1ABE21802150D8B40DD021282C
:10125800D8A408D0000E186E000E196E000E1A6E73
:10126800000E1B6E1A8E08D0000E186E000E196E36
:10127800000E1A6E000E1B6E2150D8B403D02650F3
:10128800D8A409D0000E146E000E156E000E166E4E
:10129800000E176E12001A501402F3CF2BF0F4CF81
:1012A8002CF02B50226E236A246A256A2C50276E54
:1012B800286A296A2A6A19501502F3CF2BF0F4CF4D
:1012C8002CF02B502226000E2322242225222C50DB
:1012D8002726000E282229222A2218501602F3CF88
:1012E8002BF0F4CF2CF02B502226000E23222422A0
:1012F80025222C502726000E282229222A2224C003
:1013080025F023C024F022C023F0226A18501502C9
:10131800F3CF2BF0F4CF2CF02B5022262C50232285
:10132800000E2422000E252219501402F3CF2BF0B0
:10133800F4CF2CF02B5022262C502322000E2422EE
:10134800000E252224C025F023C024F022C023F05B
:10135800226A18501402F3CF2BF0F4CF2CF02B5044
:1013680022262C502322000E2422000E25221A5059
:101378001502F3CF2BF0F4CF2CF02B5027262C504E
:101388002822000E2922000E2A2219501602F3CF15
:101398002BF0F4CF2CF02B5027262C502822000EAF
:1013A8002922000E2A221A501602F3CF2BF0F4CF6E
:1013B8002CF02B501C6E2C501D6E1E6A1F6A1EC00E
:1013C8001FF01DC01EF01CC01DF01C6A1C502726F3
:1013D8001D5028221E5029221F502A2222C01CF0EC
:1013E80023C01DF024C01EF025C01FF0190E05D023
:1013F800D8901F321E321D321C32E82EF9D71C50ED
:1014080027261D5028221E5029221F502A2224C078
:1014180025F023C024F022C023F0226A215026C0E0
:101428001CF01D6A1C26000E1D22820E1C242B6E29
:10143800FF0E1D202C6E0FD0D8902736283629365F
:101448002A3625BE2780D8902236233624362536DC
:101458002B06D8A02C0629AEEFD7000E216E25AE9C
:1014680017D0FF0E22141C6EFF0E23141D6EFF0EE4
:1014780024141E6E7F0E25141F6E1C501D101E1086
:101488001F10D8B403D0010E216E02D027B0FBD7AD
:101498002150D8B41FD0010E2726000E2822292259
:1014A8002A222AA017D027C01CF028C01DF029C066
:1014B8001EF02AC01FF01F341F321E321D321C328C
:1014C8001CC027F01DC028F01EC029F01FC02AF03C
:1014D8002B4A2C2A2CBE0DD02C5003E12B28D8A047
:1014E80008D0000E276E000E286E800E296E7F0E23
:1014F80020D02CBE05D02C500EE12B04D8B00BD038
:10150800000E276E000E286E000E296E000E2A6E41
:10151800000E206E0FD02BC026F0FF0E2716FF0EF0
:1015280028167F0E2916000E2A1626B0298ED89066
:1015380026302A6E20502A1227C014F028C015F031
:1015480029C016F02AC017F01200010E47EC1DF052
:10155800110E0001926F3A0EE82EFED7922FFCD79B
:1015680000F0800E47EC1DF0070E0001926F7D0E13
:10157800E82EFED7922FFCD7660E0001806FFE0E74
:10158800816F9DEC1CF0000E00019C6F010E9B6F9B
:10159800000E9E6F010E9D6F5ED081A803D0926BE6
:1015A800922B02D00001926B9251A36FA46B81AA77
:1015B80003D0926B922B02D00001926B9251A56FCF
:1015C800A66BA351A411D8A408D09B059C11D8A43C
:1015D80004D0D0C095F0D1C096F0A551A611D8A4DA
:1015E80008D09D059E11D8A404D0D0C097F0D1C0D2
:1015F80098F0A351A411D8A40CD09551D05D186EC1
:101608009651D159196EFDEC1BF018C09FF019C006
:10161800A0F00001A551A611D8A40CD09751D05D17
:10162800186E9851D159196EFDEC1BF018C0A1F035
:1016380019C0A2F00001A351A411D8B404D0A55137
:10164800A611D8A412D0A3C09BF0A4C09CF0A5C03A
:101658009DF0A6C09EF08E51755C8F5176589051C2
:10166800775891517858D8A098D7A0BF06D0A051E4
:101678004BE1AA0E9F5DD8B047D0000E6D6E000EEC
:101688006C6E010E6E6E010E6F6E000E716E000EA6
:10169800706EF8EC17F0000E076E640E066E8EC0C2
:1016A80008F08FC009F090C00AF091C00BF0DFEC91
:1016B80019F00ED0000E6D6E1E0E6C6E000E6E6E62
:1016C800000E6F6E000E716E1E0E706EF8EC17F045
:1016D80000018E51755C8F51765890517758915111
:1016E8007858D8B002D081B8E5D7000E6D6E000EDC
:1016F8006C6E010E6E6E010E6F6E000E716E000E36
:10170800706EF8EC17F078D0000E6D6E000E6C6EEF
:10171800010E6E6E010E6F6E000E716E000E706E11
:10172800F8EC17F0000E076E640E066E8EC008F017
:101738008FC009F090C00AF091C00BF0DFEC19F0EF
:101748000ED0000E6D6E1E0E6C6E000E6E6E000ECC
:101758006F6E000E716E1E0E706EF8EC17F00001C1
:101768008E51755C8F5176589051775891517858B1
:10177800D8B002D081B8E5D7D0C099F0D1C09AF0DE
:101788000ED0000E6D6E1E0E6C6E000E6E6E000E8C
:101798006F6E000E716E1E0E706EF8EC17F0000181
:1017A8008E51755C8F517658905177589151785871
:1017B800D8B09BD7D051995D186ED1519A59196EEE
:1017C800FDEC1BF018C092F019C093F0A1C006F010
:1017D800A2C007F0000E096E020E086E86EC18F023
:1017E80006500001925D9351800A946F0750800A59
:1017F8009459D8B07AD7C5D70001A0BF06D0A05158
:1018080011E1AA0E9F5DD8B00DD0A2BF06D0A2519B
:1018180009E1AA0EA15DD8B005D0000E8F6F000EA9
:101828008E6F1200A1519F5D186EA251A059196EBA
:10183800FDEC1BF019BE0CD0195004E1B50E185C74
:10184800D8A006D0000E00018F6F010E8E6F120017
:10185800000E00018F6F020E8E6F12003050800B49
:10186800396E305030243B6E2FBE3B803B50D8B48D
:101878000DD03B28D8A408D0000E2D6E000E2E6E79
:10188800000E2F6E000E306E2F8E06D0000E2D6EBD
:10189800000E2E6E000E2F6E000E306E3450800B30
:1018A8003A6E39503A18D8A4398C345034243A6EE8
:1018B80033BE3A803A50D8B40DD03A28D8A408D0CC
:1018C800000E316E000E326E000E336E000E346E56
:1018D800338E06D0000E316E000E326E000E336E5F
:1018E800000E346E3B503A5CD8B022D039AC02D0EE
:1018F800800E391A3BC03CF03AC03BF03CC03AF08D
:101908002DC03CF031C02DF03CC031F02EC03CF071
:1019180032C02EF03CC032F02FC03CF033C02FF064
:101928003CC033F030C03CF034C030F03CC034F040
:10193800000E3C6E3B503AC035F0366A355E000EFC
:10194800365A36BE2CD0365004E11A0E355CD8A073
:1019580026D02D502E102F103010D8B402D0010EE2
:1019680001D0000E3C6E000E2D6E000E2E6E000E85
:101978002F6E000E306E3AC03BF015D03CA005D05B
:10198800D8903C3001093C6E02D0D8903C322DB042
:101998003C8E303430322F322E322D323B2A3A50A0
:1019A8003B5CD8A0EBD739BC28D03B50D8A409D091
:1019B800000E2D6E000E2E6E000E2F6E000E306E75
:1019C800120031502D2632502E2233502F223450FF
:1019D800302230A071D03CA005D0D8903C3001090D
:1019E8003C6E02D0D8903C322DB03C8E3034303230
:1019F8002F322E322D323B2A5FD031502D5C32509F
:101A08002E5833502F583050800A356E3450800A83
:101A18003558D8B025D02D50315C356E2E503258FF
:101A2800366E2F503358376E30503458386EFF0E9C
:101A380035242D6EFF0E36202E6EFF0E37202F6EAA
:101A4800FF0E3820306E800E391A3C6C3C50D8A4FA
:101A58000FD0010E2D26000E2E222F22302208D064
:101A680031502D5E32502E5A33502F5A3450305A3E
:101A78002D502E102F103010D8A41CD03C50D8A4B4
:101A880019D0000E2D6E000E2E6E000E2F6E000E59
:101A9800306E1200D8902D362E362F3630363CBE9A
:101AA8002D803CA002D0D88001D0D8903C363B5045
:101AB800D8A43B062FAEEED7000E3A6E3CAE0BD044
:101AC8003CC035F07F0E3516D8B403D0010E3A6EFF
:101AD80002D02DB0FBD73A50D8B420D0010E2D2615
:101AE800000E2E222F22302230A018D02DC035F023
:101AF8002EC036F02FC037F030C038F038343832C6
:101B080037323632353235C02DF036C02EF037C078
:101B18002FF038C030F03B28D8A43B2A3B28D8B453
:101B280003D03B50D8A40DD0000E2D6E000E2E6EA3
:101B3800000E2F6E000E306E3B50D8A402D0000E5F
:101B4800396E3BA002D02F8E01D02F9ED8903B300B
:101B5800306E39BE308E2DC02DF02EC02EF02FC025
:101B68002FF030C030F012003050800B3D6E3050F6
:101B78003024446E2FBE44804450D8B40DD044283D
:101B8800D8A408D0000E2D6E000E2E6E000E2F6EFB
:101B9800000E306E2F8E06D0000E2D6E000E2E6EAB
:101BA800000E2F6E000E306E3450800B3D1A3450EC
:101BB8003424456E33BE45804550D8B40DD04528F1
:101BC800D8A408D0000E316E000E326E000E336EAF
:101BD800000E346E338E06D0000E316E000E326E5B
:101BE800000E336E000E346E315032103310341044
:101BF800D8A417D0000E2D6E000E2E6E000E2F6E7C
:101C0800000E306E800E2F127F0E30123D503012B3
:101C18002DC02DF02EC02EF02FC02FF030C030F088
:101C280012004450D8A409D0000E2D6E000E2E6E5E
:101C3800000E2F6E000E306E1200455044C035F075
:101C4800366A355E000E365A7F0E35243E6E000E1B
:101C580036203F6E2DC039F02EC03AF02FC03BF031
:101C680030C03CF0000E2D6E000E2E6E000E2F6E52
:101C7800000E306E000E406E000E416E000E426E79
:101C8800000E436E000E456E28D04550D8B411D0D2
:101C9800D89039363A363B363C36D8902D362E36E3
:101CA8002F36303643BE2D80D890403641364236E6
:101CB80043363150395C32503A5833503B583450DF
:101CC8003C58D8A009D0438C3150395E32503A5A2A
:101CD80033503B5A34503C5A452A190E4564D5D7DF
:101CE80039503A103B103C10D8B411D040800FD076
:101CF800D8902D362E362F36303643BE2D80D890CC
:101D080040364136423643363E06D8A03F062FAE0F
:101D1800EFD7000E456E43AE17D0FF0E4014356E58
:101D2800FF0E4114366EFF0E4214376E7F0E4314B9
:101D3800386E3550361037103810D8B403D0010E2D
:101D4800456E02D02DB0FBD74550D8B41FD0010E38
:101D58002D26000E2E222F22302230A017D02DC083
:101D680035F02EC036F02FC037F030C038F0383498
:101D7800383237323632353235C02DF036C02EF093
:101D880037C02FF038C030F03E4A3F2A3FBE10D04F
:101D98003F5003E13E28D8A00BD0000E3F6E3E68AE
:101DA800000E2D6E000E2E6E000E2F6E000E306E81
:101DB8003FBE05D03F5011E13E04D8B00ED0000E12
:101DC8003F6E000E3E6E000E2D6E000E2E6E000E43
:101DD8002F6E000E306E000E3D6E3EC044F044A0E3
:101DE80002D02F8E01D02F9ED8904430306E0ED75F
:101DF8008AC031F08BC032F08CC033F08DC034F023
:101E080000019051CE5D966F9151CF59976F96C052
:101E180006F097C007F0000E07BEFF0E086E096EA9
:101E2800010EBAEC14F006C02DF007C02EF008C061
:101E38002FF009C030F0B8EC0DF02DC04AF02EC0DC
:101E48004BF02FC04CF030C04DF000018E51D05DEA
:101E5800986F8F51D159996F98C006F099C007F0C3
:101E6800000E07BEFF0E086E096E010EBAEC14F0E4
:101E780006C046F007C047F008C048F009C049F05E
:101E8800DCEC1AF046C04EF047C04FF048C050F0A6
:101E980049C051F0F4EC16F04EC09AF04FC09BF0D8
:101EA80092C018F093C019F094C01AF095C01BF0B6
:101EB8009AC006F09BC007F0000E07BEFF0E086E22
:101EC800096E010EBAEC14F006C014F007C015F044
:101ED80008C016F009C017F000EC09F014C04AF069
:101EE80015C04BF016C04CF017C04DF088C006F076
:101EF80089C007F0000E07BEFF0E086E096E010EBE
:101F0800BAEC14F006C046F007C047F008C048F025
:101F180009C049F0DCEC1AF046C04EF047C04FF05B
:101F280048C050F049C051F0F4EC16F04EC09CF097
:101F38004FC09DF092C018F093C019F094C01AF0E9
:101F480095C01BF09AC006F09BC007F0000E07BEB4
:101F5800FF0E086E096E010EBAEC14F006C014F0FC
:101F680007C015F008C016F009C017F000EC09F01A
:101F780014C031F015C032F016C033F017C034F079
:101F88008AC018F08BC019F08CC01AF08DC01BF0F5
:101F980088C006F089C007F0000E07BEFF0E086E65
:101FA800096E010EBAEC14F006C014F007C015F063
:101FB80008C016F009C017F000EC09F014C02DF0A5
:101FC80015C02EF016C02FF017C030F032EC0CF010
:101FD8002DC04EF02EC04FF02FC050F030C051F041
:101FE800F4EC16F04EC09EF04FC09FF000019DBF6C
:101FF8000AD09D5104E1650E9C5DD8A004D0000E66
:102008009D6F640E9C6F9DAF04D0000E9D6F000EF7
:102018009C6F9FBF0AD09F5104E1650E9E5DD8A0BA
:1020280004D0000E9F6F640E9E6F9FAF04D0000E09
:102038009F6F000E9E6F9CC06CF09DC06DF0010EEE
:102048006E6E010E6F6E9EC070F09FC071F0F8EC5E
:1020580017F0120027C03FF028C040F029C041F017
:102068002AC042F02BC043F02CC044F02DC045F0EC
:102078002EC046F046AE02D0010E01D0000E3D6ED5
:102088003E6A3D503E10D8B410D0461E451E441E30
:10209800431E421E411E401E3F6C000E402241223C
:1020A8004222432244224522462201014CBF02D04B
:1020B8000001CC9301014CBF05D04C5108E14B0500
:1020C800D8B005D0000E3A6E010E396E04D04BC15F
:1020D80039F04CC13AF049C13BF04AC13CF03D509F
:1020E8003E10D8A403D00001CCA503D03B06D8A04D
:1020F8003C06000E486E1F0E476E000E0101706F01
:102108007CD04706D8A04806510E4724D96E010E48
:102118004820DA6E3FC006F040C007F041C008F022
:1021280042C009F043C00AF044C00BF045C00CF0AF
:1021380046C00DF00A0E0E6E000E0F6E000E106EE9
:10214800000E116E000E126E000E136E000E146E4D
:10215800000E156EFAEC15F006C02FF007C030F02F
:1021680008C031F009C032F00AC033F00BC034F0B7
:102178000CC035F00DC036F02FC018F031C019F082
:10218800FDEC1BF01850300FDF6E3906D8A03A0668
:102198003B06D8A03C063FC006F040C007F041C04F
:1021A80008F042C009F043C00AF044C00BF045C033
:1021B8000CF046C00DF00A0E0E6E000E0F6E000EEB
:1021C800106E000E116E000E126E000E136E000ED1
:1021D800146E000E156E74EC13F006C03FF007C0C5
:1021E80040F008C041F009C042F00AC043F00BC0FB
:1021F80044F00CC045F00DC046F048BE20D0485011
:1022080003E14704D8A01BD03F50401041104210B2
:102218004310441045104610D8A473D73ABE05D0D1
:102228003A5002E13904D8B06CD73CBE08D03C50D3
:1022380003E13B04D8A003D00001CCB362D73D50E2
:102248003E10D8A403D00001CCA517D04706D8A0CB
:1022580048063D503E10D8A404D0000E386E2B0E10
:1022680003D0000E386E2D0E376E510E4724D96EEE
:10227800010E4820DA6E37C0DFFF25C01AF026C0ED
:102288001BF0510E47241C6E010E48201D6E3BC0EA
:102298001EF03CC01FF0ABEC17F01AC025F01BC0B5
:1022A80026F0120001014CBF02D00001CC930101BD
:1022B8004CBF05D04C5108E14B05D8B005D0000EF5
:1022C8003D6E010E3C6E04D04BC13CF04CC13DF05C
:1022D80049C13EF04AC13FF00001CCA904D0FE0E2E
:1022E8003E26FF0E3F2227C040F028C041F029C0FB
:1022F80042F02AC043F02BC044F02CC045F02DC05A
:1023080046F02EC047F0000E496E1F0E486E000EB4
:102318000101706F93D04806D8A049060F0E4014EB
:102328004A6E4B6A4BBE08D04B5004E10A0E4A5C19
:10233800D8A002D0570E01D0300E4A244A6E000EA3
:102348004B204B6EBF0E306EFF0E316E2F50326E2B
:10235800336A3050322631503322335006E11A0E98
:10236800325CD8B002D0010E01D0000E386E396A46
:1023780038503910D8B427D09F0E306EFF0E316E0A
:10238800200E4A10326E000E4B10336E305032263B
:1023980031503322335006E11A0E325CD8B002D0E5
:1023A800010E01D0000E3A6E3B6A3A503B10D8B489
:1023B8000AD04AC00CF04BC00DF0B7EC1AF00CC0B4
:1023C8004AF00DC04BF0510E4824D96E010E492039
:1023D800DA6E4AC0DFFF3C06D8A03D063E06D8A00C
:1023E8003F0640C030F041C031F042C032F043C037
:1023F80033F044C034F045C035F046C036F047C02D
:1024080037F0050E09D0D8903732363235323432AB
:102418003332323231323032E82EF5D730C040F024
:1024280031C041F032C042F033C043F034C044F010
:1024380035C045F036C046F037C047F049BE21D018
:10244800495004E1020E485CD8A01BD0405041100E
:10245800421043104410451046104710D8A45BD7CB
:102468003DBE05D03D5002E13C04D8B054D73FBE34
:1024780008D03F5003E13E04D8A003D00001CCB3FC
:102488004AD70001CCA916D04806D8A04906510E53
:102498004824D96E010E4920DA6E2FC0DFFF4806A6
:1024A800D8A04906510E4824D96E010E4920DA6E8B
:1024B800300EDF6E25C01AF026C01BF0510E4824DE
:1024C8001C6E010E49201D6E3EC01EF03FC01FF05D
:1024D800ABEC17F01AC025F01BC026F012005BBE4B
:1024E8001200000E066E000E076EC80E086E420E31
:1024F800096E58C00AF059C00BF05AC00CF05BC006
:102508000DF08CEC16F0D8A012005FBE1200000E81
:10251800066E000E076EC80E086E420E096E5CC08D
:102528000AF05DC00BF05EC00CF05FC00DF08CECE3
:1025380016F0D8A01200010ECB24626E636A000E5A
:102548006322000E316E000E326EC80E336E420EDC
:10255800346E000E186E000E196E800E1A6E400E44
:102568001B6E58C014F059C015F05AC016F05BC065
:1025780017F000EC09F014C02DF015C02EF016C0AD
:102588002FF017C030F0B8EC0DF02DC068F02EC059
:1025980069F02FC06AF030C06BF062C006F063C00B
:1025A80007F0086A096A000EBAEC14F006C018F0C1
:1025B80007C019F008C01AF009C01BF068C014F071
:1025C80069C015F06AC016F06BC017F000EC09F08E
:1025D80014C04EF015C04FF016C050F017C051F09F
:1025E800F4EC16F04EC064F04FC065F0000E316E8A
:1025F800000E326EC80E336E420E346E000E186E28
:10260800000E196E800E1A6E400E1B6E5CC014F020
:102618005DC015F05EC016F05FC017F000EC09F061
:1026280014C02DF015C02EF016C02FF017C030F0D2
:10263800B8EC0DF02DC068F02EC069F02FC06AF01C
:1026480030C06BF062C006F063C007F0086A096A20
:10265800000EBAEC14F006C018F007C019F008C054
:102668001AF009C01BF068C014F069C015F06AC000
:1026780016F06BC017F000EC09F014C04EF015C04E
:102688004FF016C050F017C051F0F4EC16F04EC0E1
:1026980066F04FC067F0BD9A64A002D0BD8801D033
:1026A800BD9864C060F065C061F0D8906132603256
:1026B800D890613260326050BE6EBA9A66A002D07D
:1026C800BA8801D0BA9866C060F067C061F0D89047
:1026D80061326032D890613260326050BB6E120055
:1026E800000E176E15AE12D0151E141E131E121EE4
:1026F800111E101E0F1E0E6C000E0F22102211222A
:102708001222132214221522010E176E0DAE12D0BA
:102718000D1E0C1E0B1E0A1E091E081E071E066C27
:10272800000E0722082209220A220B220C220D225F
:10273800010E171A20EE18F0070EDE6AE806FDE211
:102748000E500F1010101110121013101410151035
:10275800D8B446D0010E166E0AD0D8900E360F3671
:10276800103611361236133614361536162A15AEAB
:10277800F4D7D890183619361A361B361C361D363B
:102788001E361F360E50065C0F500758105008585A
:102798001150095812500A5813500B5814500C581D
:1027A80015500D58D8A011D00E50065E0F50075A7C
:1027B8001050085A1150095A12500A5A13500B5AFD
:1027C80014500C5A15500D5A1880D89015321432DE
:1027D80013321232113210320F320E32162EC9D77E
:1027E8001750D8B410D01F1E1E1E1D1E1C1E1B1EE7
:1027F8001A1E191E186C000E19221A221B221C22DE
:102808001D221E221F2218C006F019C007F01AC088
:1028180008F01BC009F01CC00AF01DC00BF01EC058
:102828000CF01FC00DF0120021EE71F010EE18F040
:10283800060EDBCFE3FFE806FCE215C023F016C066
:1028480024F023502410D8A404D0180E236E000EB0
:10285800246E23C006F024C007F022EC1BF006C04B
:1028680027F007C028F04BC125F04CC126F026BE42
:102878000ED02750255C2650800A176E2850800AF3
:102888001758D8B004D025C027F026C028F027C094
:1028980025F028C026F049C121F04AC122F00001E4
:1028A800CCA10DD016D0000E0B6E200E0A6E13C0F0
:1028B8000CF014C00DF041EC19F0274A282A2150D9
:1028C800275C2850800A176E2250800A1758D8A013
:1028D800EAD7000E206E000E1F6E1FD023C0F6FF31
:1028E80024C0F7FF000EF86E0F0EF76403D008003F
:1028F800F55005D0F6CFE1FFF7CFE2FFE750176EAE
:1029080017500A6E0B6A13C00CF014C00DF041EC9E
:1029180019F0234A242A1F4A202A25501F5C2050D8
:10292800800A176E2650800A1758D8A0D7D70001FA
:10293800CCB10DD016D0000E0B6E200E0A6E13C04F
:102948000CF014C00DF041EC19F0274A282A215048
:10295800275C2850800A176E2250800A1758D8A082
:10296800EAD727C013F028C014F012000E6E0E50DC
:10297800D8A409AE1AD006C00AF007C00BF008C0E8
:102988000CF009C00DF00A1E0B1E0C1E0D1E0A2AA3
:10299800000E0B220C220D220AC010F00BC011F001
:1029A8000CC012F00DC013F008D006C010F007C01C
:1029B80011F008C012F009C013F0065007100810F3
:1029C8000910D8A409D0000E066E000E076E000E7E
:1029D800086E000E096E1200960E0F6E06D00F2AB2
:1029E800D8901332123211321032000E10140A6EBF
:1029F800000E11140B6E000E12140C6EFE0E131442
:102A08000D6E0A500B100C100D10D8B40DD0E7D76E
:102A18000F2A010E1026000E112212221322D8901E
:102A28001332123211321032000E10140A6E000ED8
:102A380011140B6E000E12140C6EFF0E13140D6E93
:102A48000A500B100C100D10D8B407D0E1D70F06A0
:102A5800D890103611361236133612BE03D0020E35
:102A68000F60F5D70FA0129ED8900F320FC00AF052
:102A78000B6A0C6A0D6A0AC00DF00C6A0B6A0A6AC6
:102A88000A5010120B5011120C5012120D50131242
:102A98000E50D8A409AE01D0138E10C006F011C094
:102AA80007F012C008F013C009F01200000E1B6EE8
:102AB800000E1A6E000E146E000E136E02D00D4A30
:102AC8000E2A010E196E0DC0F6FF0EC0F7FF0800A2
:102AD800F550200AD8B418D0F70E0F6EFF0E106EFE
:102AE8000DC0F6FF0EC0F7FF0800F550116E126A10
:102AF8000F50112610501222125004E1050E115CDD
:102B0800D8A002D0000E196E19C015F0166A15501B
:102B18001610D8B408D0D3D7000E146E010E136E59
:102B28000D4A0E2A2ED00DC0F6FF0EC0F7FF080082
:102B3800F5500F6E106A1050000AD8A422D00F501A
:102B48002B0AD8B4EDD7060AD8B4E6D71AD01AC0DB
:102B580006F01BC007F0000E096E0A0E086EB1ECF5
:102B68001CF00DC0F6FF0EC0F7FF0800F550065E1A
:102B7800000E075A300E06241A6E000E07201B6E30
:102B8800CFD7D00E0F6EFF0E106E0DC0F6FF0EC021
:102B9800F7FF0800F550116E126A0F5011261050F9
:102BA8001222125006E10A0E115CD8B002D0010EB2
:102BB80001D0000E176E186A17501810D8A4C7D77E
:102BC80013501410D8A40DD01AC00FF01BC010F069
:102BD8000F1E101E0F4A102A0FC00DF010C00EF065
:102BE80012001AC00DF01BC00EF01200000E176E76
:102BF8000DAE12D00D1E0C1E0B1E0A1E091E081E3D
:102C0800071E066C000E0722082209220A220B2240
:102C18000C220D22010E176E15AE10D0151E141EB3
:102C2800131E121E111E101E0F1E0E6C000E0F22F8
:102C38001022112212221322142215220E500F10D4
:102C4800101011101210131014101510D8B43CD015
:102C5800010E166E0AD0D8900E360F361036113681
:102C68001236133614361536162A15AEF4D70E500A
:102C7800065C0F5007581050085811500958125048
:102C88000A5813500B5814500C5815500D58D8A00A
:102C980010D00E50065E0F50075A1050085A1150A7
:102CA800095A12500A5A13500B5A14500C5A1550FC
:102CB8000D5AD890153214321332123211321032A2
:102CC8000F320E32162ED3D71750D8B410D00D1E8F
:102CD8000C1E0B1E0A1E091E081E071E066C000E7F
:102CE8000722082209220A220B220C220D2206C0E2
:102CF80006F007C007F008C008F009C009F00AC0CC
:102D08000AF00BC00BF00CC00CF00DC00DF0120057
:102D1800000E06140E6E000E07140F6E800E0814B7
:102D2800106E7F0E0914116E0E500F101010111036
:102D3800D8A408D0000E066E000E076E000E086EAE
:102D4800000E096E000E0A140E6E000E0B140F6EA4
:102D5800800E0C14106E7F0E0D14116E0E500F1095
:102D680010101110D8A408D0000E0A6E000E0B6EB9
:102D7800000E0C6E000E0D6E09AE09D0066C071E13
:102D8800D8B0072A081ED8B0082A800E09560DAEFA
:102D980009D00A6C0B1ED8B00B2A0C1ED8B00C2A0E
:102DA800800E0D56000E061A000E071A000E081A9D
:102DB800800E091A000E0A1A000E0B1A000E0C1AC1
:102DC800800E0D1A0A50065C0B5007580C50085814
:102DD8000D500958D8B002D0D8901200D8801200EF
:102DE80050345134576E5750D8A409D0000E4E6E47
:102DF800000E4F6E000E506E000E516E12004EC047
:102E080052F04FC053F050C054F051C055F0200E4E
:102E180005D0D8905532543253325232E82EF9D771
:102E28005250566E508EFF0E4E16FF0E4F16FF0E66
:102E38005016000E5116960E575E57AE0DD05750CD
:102E4800800A970FD8A0D2D7D890513250324F323B
:102E58004E32573EF9D70DD01F0E576407D0C6D74C
:102E6800D8904E364F365036513657065750D8A45C
:102E7800F7D75650D8B408D0511E501E4F1E4E6C6E
:102E8800000E4F22502251224EC04EF04FC04FF03C
:102E980050C050F051C051F01200D0C0B4F0D1C0B1
:102EA800B5F0CEC0B2F0CFC0B3F032D0A2C006F0B9
:102EB800A3C007F0000E07BEFF0E086E096E010ED4
:102EC800BAEC14F006C0AEF007C0AFF008C0B0F01E
:102ED80009C0B1F0A0C088F0A1C089F0AEC08AF0E6
:102EE800AFC08BF0B0C08CF0B1C08DF0B4C08EF024
:102EF800B5C08FF0B2C090F0B3C091F0A4C092F00A
:102F0800A5C093F0A6C094F0A7C095F0FCEC0EF015
:102F18000001AA51755CAB517658AC517758AD5148
:102F28007858D8B01200B451D05D186EB551D15947
:102F3800196EFDEC1BF00001A851185C1950800AAD
:102F4800726EA951800A7258D8B01200AFD700012A
:102F5800CCA10AD01CC013F01DC014F01AC015F083
:102F68001BC016F0C7EC1BF01FBE05D01EC023F017
:102F78001FC024F004D0000E246E000E236E000E35
:102F8800226E000E216E0CD0000E0B6E200E0A6E03
:102F98001AC00CF01BC00DF041EC19F0214A222A8E
:102FA8002350215C2250800A206E2450800A205829
:102FB800D8A0EAD70001CCB10AD01CC013F01DC0BC
:102FC80014F01AC015F01BC016F0C7EC1BF01CC09B
:102FD80006F01DC007F022EC1BF0235006241A6EE1
:102FE800245007201B6E12006E50D8B403D089807D
:102FF800899202D0899089826F50D8B403D089848D
:10300800899602D0899489866CC006F06DC007F055
:10301800000E07BEFF0E086E096E010EBAEC14F022
:1030280006C080F007C081F008C082F009C083F0B4
:1030380070C006F071C007F0000E07BEFF0E086EE4
:10304800096E010EBAEC14F006C084F007C085F0D2
:1030580008C086F009C087F080C058F081C059F0D8
:1030680082C05AF083C05BF084C05CF085C05DF01C
:1030780086C05EF087C05FF073EC12F01200B40EE9
:10308800F66E3A0EF76E000EF86E01EE71F010EE65
:1030980007F00900F5CFEEFFE550E150FAE1BC0E6C
:1030A800F66E3A0EF76E000EF86E0900F5CFD3F003
:1030B800BB0EF66E3A0EF76E000EF86E0900F5CFED
:1030C80079F001EE78F011EEE0F0EE6AE550E150AB
:1030D800FCE1E250FAE101EE43F02E0EEE6AE8065A
:1030E800FDE100EECCF0070EEE6AE806FDE1786A35
:1030F800776A766A756A7A907A92000EF86E00019D
:1031080022EF05F0000E0B6E09AE06D0086C091E02
:10311800D8B0092A010E0B6E07AE06D0066C071E42
:10312800D8B0072A010E0B1A000E0D6E000E0C6E99
:1031380008500910D8B41CD0010E0A6E04D0D890DB
:10314800083609360A2A09AEFAD7D8900C360D3651
:103158000850065C09500758D8A005D00850065EEC
:103168000950075A0C80D890093208320A2EEDD738
:103178000B50D8B404D00C6C0D1ED8B00D2A0CC05E
:1031880006F00DC007F01200000E0E6E000E0F6E56
:10319800000E106E000E116E0A500B100C100D1060
:1031A800D8B42AD0010E126E06D0D8900A360B3643
:1031B8000C360D36122A0DAEF8D7D8900E360F36CB
:1031C800103611360A50065C0B5007580C50085838
:1031D8000D500958D8A009D00A50065E0B50075A5E
:1031E8000C50085A0D50095A0E80D8900D320C32E6
:1031F8000B320A32122EE1D70EC006F00FC007F0CC
:1032080010C008F011C009F01200000E0B6E07AED6
:1032180006D0066C071ED8B0072A010E0B6E09AE41
:1032280004D0086C091ED8B0092A08500910D8B46F
:1032380018D0010E0A6E04D0D890083609360A2A2A
:1032480009AEFAD70850065C09500758D8A004D030
:103258000850065E0950075AD890093208320A2EDB
:10326800F1D70B50D8B404D0066C071ED8B0072A83
:1032780006C006F007C007F012000C500D10D8B4B5
:1032880004D00C500D10D8A404D00A5041EC1DF005
:10329800120020EE04F00C50D9260D50DA22DE5030
:1032A800DE10D8B416D020EE04F00C50D9260D50FC
:1032B800DA2210EE02F00C50E1260D50E222DE5028
:1032C800E65CE650800A126EDE50800A1258D8B0CA
:1032D800120020EE02F00C50D9260D50DA22DE2A18
:1032E800000EDD221200310E0A6EB20EE82EFED755
:1032F8000A2EFCD700D08C94030E24EC1DF0110E7E
:103308000A6E3A0EE82EFED70A2EFCD700D0030E1E
:1033180024EC1DF07D0EE82EFED7320E38EC1DF0A1
:10332800280E38EC1DF0080E38EC1DF0010E38ECB4
:103338001DF0110E0A6E3A0EE82EFED70A2EFCD7A3
:1033480000D0060E38EC1DF00C0E47EC1DF01200F4
:103358000A500B100C100D10D8B424D0010E0E6EAC
:1033680006D0D8900A360B360C360D360E2A0DAE1E
:10337800F8D70A50065C0B5007580C5008580D50E7
:103388000958D8A008D00A50065E0B50075A0C50AE
:10339800085A0D50095AD8900D320C320B320A32A5
:1033A8000E2EE7D706C006F007C007F008C008F0E1
:1033B80009C009F0120075C014F076C015F077C086
:1033C80016F078C017F00850755C095076580A5006
:1033D80077580B507858D8B0120006C00CF007C0C8
:1033E8000DF0000E0DBEFF0E0E6E0F6E1450755CC4
:1033F800106E15507658116E16507758126E175079
:103408007858136E0C50105C0D5011580E5012580D
:103418000F501358D8B01200D6D7C69A94869488FD
:10342800800E066E960E076E980E086E000E096ED8
:1034380013C017F014C018F015C019F016C01AF010
:10344800020ED8901736183619361A36E82EF9D7DC
:1034580017C00AF018C00BF019C00CF01AC00DF014
:10346800C8EC18F00604C86E800EC76E280EC66E2B
:10347800000EC56E12006FC073F070C074F0000EBD
:103488000101486F000E476F13D06DC04CF06EC03D
:103498004DF0730E4E6E000E4F6E71C050F072C03C
:1034A80051F0DDEC02F04C50010147274D50482304
:1034B80073C0F6FF74C0F7FF0800F5500009D8A4E0
:1034C800E4D747C16DF048C16EF0120001014951BF
:1034D8004A11D8A405D049C128F04AC129F006D01C
:1034E800FF0E4925286EFF0E4A21296E27C051F18B
:1034F800000E526F25C01AF026C01BF0510E1C6E2C
:10350800010E1D6E28C01EF029C01FF0ABEC17F08D
:103518001AC025F01BC026F01200000E076E000E20
:10352800066ED8900634D96E0734DA6E780ED9262E
:10353800010EDA22D8900634E16E0734E26EF80EF6
:10354800E126020EE222DECFE6FFDDCFE5FF064AE6
:10355800072A07BEE6D7075005E1300E065CD8B04B
:103568001200DFD712009F0E0E6EFF0E0F6E0CC0FA
:1035780010F00DC011F00E5010260F5011221150EE
:1035880006E11A0E105CD8B002D0010E01D0000E70
:10359800126E136A12501310D8B405D05F0E0C14B3
:1035A8000C6E0D6A12000CC00CF00DC00DF012006C
:1035B800000E4A1A000E4B1A000E4C1A800E4D1AB5
:1035C80046C02DF047C02EF048C02FF049C030F05B
:1035D8004AC031F04BC032F04CC033F04DC034F02B
:1035E80032EC0CF02DC046F02EC047F02FC048F04A
:1035F80030C049F012000600F0A005D0010E00010D
:10360800D26FF09019D0F2A40CD0F294FB0ED76EC2
:103618001E0ED66E010E7526000E762277227822AF
:103628000BD0F0A204D0F09244EC1BF005D0F2A22B
:1036380003D0F29266EC1BF07A92110006C008F0F3
:1036480007C009F002D0064A072A06C0F6FF07C0DD
:10365800F7FF000EF86E0F0EF76403D00800F55060
:1036680005D0F6CFE1FFF7CFE2FFE7500009D8A475
:10367800EAD70850065C066E09500758076E120014
:1036880081A403D0016A012A01D0016A0150026EA7
:10369800036A82A003D0016A012A01D0016A01509D
:1036A800046E056A0250041808E103500518D8A4EE
:1036B80004D00001CE4BCF2B12000001CE07D8A0BA
:1036C800CF07120081A003D0016A012A01D0016A44
:1036D8000150026E036A84A203D0016A012A01D054
:1036E800016A0150046E056A0250041809E103508A
:1036F8000518D8A405D00001D007D8A0D10712001A
:103708000001D04BD12B120018EC1DF0000E8C6E6E
:10371800000E956E000E8A6E93829388938A938C1E
:10372800938E92988998A00E136E860E146E010ED1
:10373800156E000E166E11EC1AF00F0EC16EF086A3
:1037480077EC19F0F28E1200010E0C6E200E06189E
:103758000710D8B414D0F70E086EFF0E096E06C015
:103768000AF007C00BF008500A2609500B220B502C
:1037780004E1050E0A5CD8A002D0000E0C6E0CC045
:1037880006F0076A1200000E196E000E186E0BD0B4
:1037980017C00AF00B6A15C00CF016C00DF041EC0A
:1037A80019F0184A192A18501324D96E19501420E0
:1037B800DA6EDF50176E1750D8B41200E9D79F0E93
:1037C800086EFF0E096E200E06100A6E000E071016
:1037D8000B6E08500A2609500B220B5006E11A0EF0
:1037E8000A5CD8B002D0010E01D0000E066E076A3E
:1037F800120019BE05D0195010E11804D8B00DD028
:1038080018C01AF019C01BF01A1E1B1E1A4A1B2AD0
:103818001AC018F01BC019F0120018C018F019C00F
:1038280019F012009F0E086EFF0E096E06C00AF00E
:1038380007C00BF008500A2609500B220B5006E16E
:103848001A0E0A5CD8B002D0010E01D0000E066E26
:10385800076A1200BF0E086EFF0E096E06C00AF056
:1038680007C00BF008500A2609500B220B5006E13E
:103878001A0E0A5CD8B002D0010E01D0000E066EF6
:10388800076A1200D00E086EFF0E096E06C00AF015
:1038980007C00BF008500A2609500B220B5006E10E
:1038A8000A0E0A5CD8B002D0010E01D0000E066ED6
:1038B800076A120056EC1DF0000E086E110E076E16
:1038C8004DEC1DF0010EC4EC1CF0096E52EC1DF01D
:1038D800310E0918D8A402D0010E1200000E1200F1
:1038E800000EF2BE010E066EF29E8C86140EE82EB5
:1038F800FED700D08C96530EE82EFED700F006B007
:1039080002D0F29E01D0F28E1200948494829B0E13
:10391800CB6EBD9EBD9CBD86BD84BD92BD90BA8652
:10392800BA84BA92BA90CA80CA82CA849494949289
:103938001200820E00018C6F000E8D6F000E6D6EEE
:10394800000E6E6E80C06FF081C070F08C0E716ECC
:10395800000E726E3FEC1AF0120006500802F3CF08
:103968000AF0F4CF0BF006500902F3500B2607506B
:103978000802F3500B260AC006F00BC007F012002D
:10398800076E2FEC1DF0C5862FEC1DF0C9CF08F08F
:103998002FEC1DF007B002D0C59A01D0C58AC588A2
:1039A8000850120056EC1DF0000E086E100E076E3F
:1039B8004DEC1DF0000E086E320E076E4DEC1DF03A
:1039C80052EC1DF0120056EC1DF0000E086E100EA1
:1039D800076E4DEC1DF0000E086E310E076E4DECB3
:1039E8001DF052EC1DF0120056EC1DF0000E086E92
:1039F800100E076E4DEC1DF0000E086E330E076EAC
:103A08004DEC1DF052EC1DF01200D59ED59CD59AB8
:103A1800D596F80ED516FB0ED76E1E0ED66ED58E21
:103A2800F28AF28EF28C1200010E796E010E0001FC
:103A3800D36F9480968293849380F088F2881200E2
:103A4800076E8C500F0B8C6E0738F00B8C108C6E39
:103A580074EC1CF01200C7B4FED7C5CF06F01F0ED9
:103A68000616D8B41200F7D7086E08380F0B24ECE6
:103A78001DF0085024EC1DF01200096E8C840950CA
:103A880038EC1DF01200096E8C94095038EC1DF0CA
:103A980012002FEC1DF007C0C9FF12002FEC1DF01B
:103AA800C58412002FEC1DF0C5801200286E756CBD
:053AB8006C2900010172
:10FE4200003132334134353642373839432A302390
:10FE5200440000370E0213021300041010E80300DE
:10FE6200005010405449524520504F534954494F75
:10FE72004E494E4700544952452E204F4E20504F76
:10FE82004C453A20002831292028322920283329BC
:10FE92002028342900283229205341564520262083
:10FEA2004558495400283229205155495420444F7D
:10FEB200204E4F54005449522E20535550504C4915
:10FEC20045442000253032782F253032782F2530D6
:10FED200327800253032783A253032783A2530327D
:10FEE20078005449522E204445504C4F593A200034
:10FEF2002831204953204F4C44455354290028317E
:10FF02002920504F4C4520494E464F002832292087
:10FF120056494557204C4F475300313C2D20322D36
:10FF22003E20334D454E55004F502E20434F4D50ED
:10FF32004C455445002831292056494557204C4FFD
:10FF420047004F5045524154494F4E20494E004CB4
:10FF5200656176696E6720506F6C65004545505249
:10FF62004F4D2D44656D6F6E0053454C45435420F3
:10FF72004C4F47002564206F6E20706F6C650077D0
:10FF8200726F74653A2025636E00726561643A206F
:10FF920025636E6E004F502E2054494D452000546B
:10FFA2004952452044524F50002831292053544190
:10FFB200525400726561643A2025636E0057454CC5
:10FFC200434F4D45200053415645204C4F4700506A
:10FFD200524F4752455353002573256425732564B8
:10FFE2000025732564257300504F4C452000413A8B
:0DFFF20020256400423A202564002F000005
:020000040020DA
:08000000FFFFFFFFFFFFFFFF00
:020000040030CA
:0E000000FF021E1EFF8381FF0F400FE00F4026
:00000001FF
