:020000040000FA
:0400000007EF00F016
:100008007A82A2ED1EF01BEF1CF04EC0D9FF4FC044
:10001800DAFFDECFF6FFDDCFF7FF0800F550250A3F
:10002800D8A4D4D34EC0D9FF4FC0DAFFDE2A000EC1
:10003800DD22000E0001E26F000EE16FE1C0E5F085
:10004800E2C0E6F0E369E469000E836F000E14D0A5
:10005800E5814EC0D9FF4FC0DAFFDE2A000EDD224F
:100068002ED0E583F6D7E585F4D7E587F2D7E5897D
:10007800F0D7000E836F010E826F21D04EC0D9FFDA
:100088004FC0DAFFDECFF6FFDDCFF7FF0800F550EF
:10009800526E536A5350000AD8A4EBD75250200A24
:1000A800D8B4E3D7030AD8B4E2D7080AD8B4DBD760
:1000B800060AD8B4CDD71D0AD8B4D3D7DAD7825117
:1000C8008311D8B4DBD7E5B1E5934EC0D9FF4FC053
:1000D800DAFFDECFF6FFDDCFF7FF0800F5502A0A7A
:1000E800D8A423D04EC0D9FF4FC0DAFFDE2A000EB5
:1000F800DD2250C0D9FF51C0DAFFDFCF52F0020E27
:10010800DE26DFCF53F0000EDD2252C0D9FF53C0E8
:10011800DAFFDECFE1F0DDCFE2F0E2AF40D0E581FB
:10012800E16DE21FD8B0E22B3AD04EC0D9FF4FC0E4
:10013800DAFFDECF0DF0DDCF0EF0C1EC17F00DC009
:10014800E1F00EC0E2F007D04EC0D9FF4FC0DAFF91
:10015800DE2A000EDD22D00E526EFF0E536E4EC008
:10016800D9FF4FC0DAFFDECFF6FFDDCFF7FF08007B
:10017800F550546E556A52505426535055225550D6
:1001880006E10A0E545CD8B002D0010E01D0000E70
:100198000001846F856B84518511D8A4D5D74EC0D2
:1001A800D9FF4FC0DAFFDECFF6FFDDCFF7FF08003B
:1001B800F550630AD8A426D04EC0D9FF4FC0DAFF45
:1001C800DE2A000EDD2250C0D9FF51C0DAFFDFCF92
:1001D80052F0020EDE26DFCF53F0000EDD2252C0B1
:1001E800D9FF53C0DAFFDF508E6F4CC025F04DC0E9
:1001F80026F08EC027F00CEC1EF025C04CF026C06F
:100208004DF012004EC0D9FF4FC0DAFFDECFF6FF27
:10021800DDCFF7FF0800F550640AD8B40DD04EC002
:10022800D9FF4FC0DAFFDECFF6FFDDCFF7FF0800BA
:10023800F550690AD8A43FD04EC0D9FF4FC0DAFFA5
:10024800DE2A000EDD2250C0D9FF51C0DAFFDFCF11
:1002580052F0020EDE26DFCF53F0000EDD2252C030
:10026800D9FF53C0DAFFDECF86F0DDCF87F0000E6E
:1002780087BFFF0E886F896F8A6F8B6F8C6F8D6F4A
:100288004CC025F04DC026F086C027F087C028F066
:1002980088C029F089C02AF08AC02BF08BC02CF0C6
:1002A8008CC02DF08DC02EF0A2EC10F025C04CF0C3
:1002B80026C04DF012004EC0D9FF4FC0DAFFDECF86
:1002C80006F0DDCF07F0F40E086EFF0E096E000E83
:1002D8000B6E020E0A6EEDEC1AF006500710D8B439
:1002E80016D04EC0D9FF4FC0DAFFDECF06F0DDCF03
:1002F80007F0F70E086EFF0E096E000E0B6E020E69
:100308000A6EEDEC1AF006500710D8A45CD0020E65
:100318004EC0D9FF4FC0DAFFDE26000EDD2250C0E6
:10032800D9FF51C0DAFFDFCF52F0040EDE26DFCF4F
:1003380053F0000EDD2252C0D9FF53C0DAFFDECFE2
:1003480054F0DECF55F0DECF56F0DECF57F054C074
:1003580058F055C059F056C05AF057C05BF05C6A67
:100368005BBE5C685CC05DF05CC05EF05CC05FF06A
:1003780058C086F059C087F05AC088F05BC089F031
:100388005CC08AF05DC08BF05EC08CF05FC08DF001
:100398004CC025F04DC026F086C027F087C028F055
:1003A80088C029F089C02AF08AC02BF08BC02CF0B5
:1003B8008CC02DF08DC02EF0A2EC10F025C04CF0B2
:1003C80026C04DF012004EC0D9FF4FC0DAFFDECF75
:1003D800F6FFDDCFF7FF0800F550730AD8A42AD03E
:1003E8004EC0D9FF4FC0DAFFDE2A000EDD2250C012
:1003F800D9FF51C0DAFFDFCF52F0020EDE26DFCF81
:1004080053F0000EDD2252C0D9FF53C0DAFFDECF11
:1004180080F0DDCF81F04CC013F04DC014F080C0E7
:1004280015F081C016F07FEC16F013C04CF014C024
:100438004DF012004EC0D9FF4FC0DAFFDECFF6FFF5
:10044800DDCFF7FF0800F550750AD8A441D04EC09B
:10045800D9FF4FC0DAFFDE2A000EDD2250C0D9FFD7
:1004680051C0DAFFDFCF52F0020EDE26DFCF53F0A5
:10047800000EDD2252C0D9FF53C0DAFFDECF54F0A0
:10048800DDCF55F054C08FF055C090F00001916B4E
:10049800926B936B946B956B966B4CC025F04DC02B
:1004A80026F08FC027F090C028F091C029F092C0A4
:1004B8002AF093C02BF094C02CF095C02DF096C074
:1004C8002EF002EC15F025C04CF026C04DF01200BD
:1004D8004EC0D9FF4FC0DAFFDECF06F0DDCF07F000
:1004E800EE0E086EFF0E096E000E0B6E020E0A6EFF
:1004F800EDEC1AF006500710D8A448D0020E4EC0F2
:10050800D9FF4FC0DAFFDE26000EDD2250C0D9FF2A
:1005180051C0DAFFDFCF52F0040EDE26DFCF53F0F2
:10052800000EDD2252C0D9FF53C0DAFFDECF54F0EF
:10053800DECF55F0DECF56F0DECF57F05450000135
:100548008F6F5550906F5650916F5750926F936BB5
:10055800946B956B966B4CC025F04DC026F08FC000
:1005680027F090C028F091C029F092C02AF093C0DB
:100578002BF094C02CF095C02DF096C02EF002EC14
:1005880015F025C04CF026C04DF012004EC0D9FF22
:100598004FC0DAFFDECFF6FFDDCFF7FF0800F550DA
:1005A800780AD8B40DD04EC0D9FF4FC0DAFFDECFDD
:1005B800F6FFDDCFF7FF0800F550580AD8A44ED053
:1005C8004EC0D9FF4FC0DAFFDECFF6FFDDCFF7FF11
:1005D8000800F5CF8EF04EC0D9FF4FC0DAFFDE2AF3
:1005E800000EDD2250C0D9FF51C0DAFFDFCF52F034
:1005F800020EDE26DFCF53F0000EDD2252C0D9FFF7
:1006080053C0DAFFDECF54F0DDCF55F054C08FF081
:1006180055C090F00001916B926B936B946B956B46
:10062800966B4CC025F04DC026F08FC027F090C0C7
:1006380028F091C029F092C02AF093C02BF094C002
:100648002CF095C02DF096C02EF08EC02FF0E8EC5F
:1006580012F025C04CF026C04DF012004EC0D9FF54
:100668004FC0DAFFDECF06F0DDCF07F0FA0E086ED6
:10067800FF0E096E000E0B6E020E0A6EEDEC1AF0FC
:1006880006500710D8B416D04EC0D9FF4FC0DAFFB5
:10069800DECF06F0DDCF07F0F10E086EFF0E096E13
:1006A800000E0B6E020E0A6EEDEC1AF006500710E3
:1006B800D8A45DD04EC0D9FF4FC0DAFFDECF52F0CC
:1006C800DDCF53F0010E5226000E532252C0F6FF22
:1006D80053C0F7FF0800F5CF8EF0020E4EC0D9FFC9
:1006E8004FC0DAFFDE26000EDD2250C0D9FF51C010
:1006F800DAFFDFCF52F0040EDE26DFCF53F0000E14
:10070800DD2252C0D9FF53C0DAFFDECF54F0DECF6E
:1007180055F0DECF56F0DECF57F0545000018F6F02
:100728005550906F5650916F5750926F936B946BD2
:10073800956B966B4CC025F04DC026F08FC027F006
:1007480090C028F091C029F092C02AF093C02BF0F5
:1007580094C02CF095C02DF096C02EF08EC02FF0CE
:10076800E8EC12F025C04CF026C04DF012004EC047
:10077800D9FF4FC0DAFFDECFF6FFDDCFF7FF080065
:10078800F550250AD8A416D04EC0D9FF4FC0DAFFBD
:10079800DE2A000EDD22000E0B6E250E0A6E4CC0FE
:1007A8000CF04DC00DF08DEC1CF0000E4D6E010EDE
:1007B8004C6E12004EC0D9FF4FC0DAFFDE2A000E81
:1007C800DD22000E4D6E000E4C6E12004EC0D9FF99
:1007D8004FC0DAFFDECFF6FFDDCFF7FF0800F55098
:1007E8000A6E0B6A4CC00CF04DC00DF08DEC1CF07D
:1007F8004EC0D9FF4FC0DAFFDE2A000EDD22D5D762
:10080800CAEC20F0000E086E100E076EBDEC20F04A
:10081800C6EC20F046EC20F079EC20F0300E756E36
:10082800750E766E000E776E000E786E000E010162
:10083800566F000E456F000E446F200E506FBF0EAE
:10084800516F020E526F000E536FDBC04AF1DCC0CD
:100858004BF1DDC04CF1DEC04DF1D7C039F1D8C045
:100868003AF1D9C03BF1DAC03CF175C024F176C049
:1008780025F177C026F178C027F1000E216F000E10
:10088800206F21EE00F0070EDE6AE806FDE2E8ECD4
:100898001FF0000E0101436F000E426F000E2E6F15
:1008A800000E2D6F000E306F000E2F6F000E326F8E
:1008B800000E316F000E476F000E466F000E236F5B
:1008C800000E226F000E496F000E486F000E346F45
:1008D800000E336F000E3D6F000E3E6F000E3F6F2F
:1008E800000E406F000E286F000E296F000E2A6F51
:1008F800000E2B6F92909292929492969298898879
:1009080075C035F176C036F177C037F178C038F167
:10091800640E010135250001C36F000E0101362167
:100928000001C46F000E010137210001C56F000EE0
:10093800010138210001C66FC351755CC451765856
:10094800C5517758C6517858D8A0E2D781A802D0A7
:10095800010E01D0000E0101586F58C14EF181AA55
:1009680002D0010E01D0000E576F57C14FF1010E92
:100978002C6F0101424B432B58C14EF181A802D084
:10098800010E01D0000E586F57C14FF181AA02D055
:10099800010E01D0000E576FF7D142C106F043C1D6
:1009A80007F0000E096E640E086E55EC1CF0065038
:1009B8000710D8A457D0010EB7EC20F0110E000193
:1009C800C36F3A0EE82EFED7C32FFCD700F0800E77
:1009D800B7EC20F0070E0001C36F7D0EE82EFED79E
:1009E800C32FFCD7ED0E00019D6FFF0E9E6F75C0E3
:1009F8009FF076C0A0F077C0A1F078C0A2F0FCEC20
:100A08001FF0900EB7EC20F0E40E00019D6FFF0E72
:100A18009E6F58C19FF0A06BFCEC1FF0C00EB7ECA6
:100A280020F0E70E00019D6FFF0E9E6FD7C09FF06C
:100A3800D8C0A0F0D9C0A1F0DAC0A2F0FCEC1FF039
:100A4800D00EB7EC20F0E10E00019D6FFF0E9E6FF7
:100A5800DBC09FF0DCC0A0F0DDC0A1F0DEC0A2F0DA
:100A6800FCEC1FF0000E0001896F5A0E886F000E13
:100A78008A6F000E8B6F800E8C6F3F0E8D6F4AC190
:100A88008EF04BC18FF04CC190F04DC191F039C13F
:100A980092F03AC193F03BC194F03CC195F0CD0E71
:100AA800966FCC0E976FCC0E986F3E0E996F74ECC4
:100AB8000FF001014A510001DB5DC36F01014B5189
:100AC8000001DC59C46F01014C510001DD59C56FAB
:100AD80001014D510001DE59C66FC6BF73D1C65121
:100AE800C51106E1310EC35D750EC459D8A06AD18F
:100AF800050E93D001013D510001DB5D0101286F16
:100B08003E510001DC590101296F3F510001DD59B7
:100B180001012A6F40510001DE5901012B6FDBC032
:100B28003DF1DCC03EF1DDC03FF1DEC040F1314BAC
:100B3800322B50C188F051C189F052C18AF053C19B
:100B48008BF0C6EC11F088C048F189C049F1010E5C
:100B5800B7EC20F0110E0001C36F3A0EE82EFED755
:100B6800C32FFCD700F0800EB7EC20F0070E000171
:100B7800C36F7D0EE82EFED7C32FFCD7890E000168
:100B88009D6FFF0E9E6FFCEC1FF0C00EB7EC20F0BF
:100B9800740E00019D6FFF0E9E6F48C19FF049C102
:100BA800A0F0FCEC1FF0000E6D6E000E6C6E010ED6
:100BB8006E6E010E6F6E000E716E000E706E8FEC11
:100BC8001BF057EC20F0000E0101456F010E446F39
:100BD800020E24D0BDEC1FF00101416F4151D8B481
:100BE800F1D04407D8A04507464B472B445145113F
:100BF800D8A40FD0060E566F000E496F000E486F2E
:100C08004651332747513423000E476F000E466F75
:100C1800D9D057EC20F0D6D0000E0101566FD2D0B3
:100C2800010EB7EC20F0110E0001C36F3A0EE82E4A
:100C3800FED7C32FFCD700F0800EB7EC20F0070ECC
:100C48000001C36F7D0EE82EFED7C32FFCD75C0EC4
:100C580000019D6FFF0E9E6FFCEC1FF0DBC008F1DA
:100C6800DCC009F1DDC00AF1DEC00BF1D7C00CF120
:100C7800D8C00DF1D9C00EF1DAC00FF1000E000195
:100C8800A36F5A0EA26F000EA56F010EA46FCD0EB2
:100C9800A66FCC0EA76FCC0EA86F3D0EA96FB40E31
:100CA800AA6F000EAB6F000EAC6F000EAD6F50C197
:100CB800AEF051C1AFF052C1B0F053C1B1F0F3EC96
:100CC80018F0000E01014A6F000E4B6F000E4C6FBA
:100CD800000E4D6F000E396F000E3A6F000E3B6F1D
:100CE800000E3C6F75C024F176C025F177C026F15F
:100CF80078C027F1000E566F81A802D0010E01D0EE
:100D0800000E586F81A802D0010E01D0000E4E6F60
:100D180081AA02D0010E01D0000E576F81AA02D01D
:100D2800010E01D0000E4F6F4DD0000E6D6E000EFB
:100D38006C6E010E6E6E010E6F6E000E716E000EFF
:100D4800706E8FEC1BF068EC20F0000E0101556FFF
:100D5800000E546F55BF06D0555114E1300E545D46
:100D6800D8B010D0D8905435D96E5535DA6E810E7A
:100D7800D926010EDA22030EDE6E000EDD6E544B0C
:100D8800552BE8D78998120056510001C36FC46BE0
:100D9800C451000AD8A416D0C351000AD8B4FDD54E
:100DA800010AD8B4A7D6030AD8B414D7010AD8B40C
:100DB80033D7070AD8B49CD6010AD8B4B6D7030AE1
:100DC800D8B42ED701015051755C51517658525103
:100DD800775853517858D8A01BD0050E566F18D0A5
:100DE800010158514E19D8A404D057514F19D8B4FD
:100DF800C0D558514E19D8B402D02D4B2E2B57516F
:100E08004F19D8B402D02F4B302B010E566FB1D5E5
:100E180056510001C36FC46BC451000AD8A4A9D5A8
:100E2800C351000AD8B4DCD7010AD8B4A2D5030A42
:100E3800D8B49FD5010AD8B49CD5070AD8B499D597
:100E4800010AD8B496D5030A94D5E7EC1EF0000E33
:100E58000001D56F010ED46F000ECE6F000ECF6F5C
:100E6800000ED06F000ED16FCEC006F0CFC007F0D5
:100E7800D0C008F0D1C009F00A0E0A6E000E0B6E41
:100E8800000E0C6E000E0D6EF8EC1CF006500710EC
:100E980008100910D8A44ED1CAEC20F0000E086E34
:100EA800D00E076EBDEC20F0000E086E000E076E27
:100EB800BDEC20F0C6EC20F0CAEC20F0000E086E65
:100EC800D10E076EBDEC20F0000E0001D36FC70EE7
:100ED800D325D96EDA6A000EDA22000E23EC20F050
:100EE800DF6E0001D32B050ED365F1D7010E23EC7D
:100EF80020F00001CD6FC6EC20F01CD1800EB7ECBD
:100F080020F0070E736E7D0EE82EFED7732EFCD7E9
:100F180000F0D80E00019D6FFF0E9E6FA70E9F6F09
:100F2800FF0EA06FFCEC1FF0D10E00019D6FFE0EAE
:100F38009E6FCDC09FF0A06BCCC0A1F0A26BCBC0C0
:100F4800A3F0A46BFCEC1FF0C00EB7EC20F0E00E91
:100F580000019D6FFE0E9E6FC9C09FF0A06BC8C0B8
:100F6800A1F0A26BC7C0A3F0A46BFCEC1FF0900E1D
:100F7800B7EC20F0D80E00019D6FFF0E9E6F930E08
:100F88009F6FFF0EA06FFCEC1FF0D00EB7EC20F0A7
:100F9800D80E00019D6FFF0E9E6F190E9F6FFF0EFA
:100FA800A06FFCEC1FF0DED0800EB7EC20F0070E2F
:100FB800736E7D0EE82EFED7732EFCD700F0D80E88
:100FC80000019D6FFF0E9E6F4F0E9F6FFF0EA06F6B
:100FD800FCEC1FF0C00EB7EC20F0D80E00019D6F9E
:100FE800FF0E9E6FB90E9F6FFF0EA06FFCEC1FF0F7
:100FF80004EC04F0010EB7EC20F0110E736E3A0EFB
:10100800E82EFED7732EFCD700D0020E90D0800EAB
:10101800B7EC20F0070E736E7D0EE82EFED7732E08
:10102800FCD700F0D80E00019D6FFF0E9E6F350EA5
:101038009F6FFF0EA06FFCEC1FF0C00EB7EC20F006
:10104800D80E00019D6FFF0E9E6F420E9F6FFF0E20
:10105800A06FFCEC1FF0900EB7EC20F0D80E00014A
:101068009D6FFF0E9E6FB20E9F6FFE0EA06FFCEC81
:101078001FF0D00EB7EC20F0D80E00019D6FFF0EC8
:101088009E6FB00E9F6FFF0EA06FFCEC1FF0000E5E
:101098000001D46F67D0800EB7EC20F0070E736E96
:1010A8007D0EE82EFED7732EFCD700F0D80E000177
:1010B8009D6FFF0E9E6F690E9F6FFF0EA06FFCEC79
:1010C8001FF0C00EB7EC20F0D80E00019D6FFF0E88
:1010D8009E6FFD0E9F6FFE0EA06FFCEC1FF0900E32
:1010E800B7EC20F0D80E00019D6FFF0E9E6F920E98
:1010F8009F6FFE0EA06FFCEC1FF034D0D451D8A423
:1011080005D034EC1EF0040E0001D46FD4C0A7F053
:10111800A86B33EC09F0010EB7EC20F0110E736EDA
:101128003A0EE82EFED7732EFCD700D0000E000131
:10113800D56F18D00001D551736E746A7450000AC7
:10114800D8A410D07350000AD8B4D8D6010AD8B49D
:101158002BD7030AD8B45BD7010AD8B49CD7070A9F
:10116800D8B4CCD70001EB51D8B46AD0000EEB6FDD
:1011780081380F0B0F0BD26F5F0ED225F66EF76A10
:10118800FE0EF7220800F5CFD6F0010EB7EC20F0DE
:10119800110E736E3A0EE82EFED7732EFCD700D0D0
:1011A80039D0310ED619D8A402D0010E18D0320E7B
:1011B800D619D8A402D0030E12D0410ED619D8A43D
:1011C8003FD035EC20F03CD0310ED619D8A402D04F
:1011D800040E05D0320ED619D8A432D0000ED56F21
:1011E8002FD0310ED619D8A402D0010E11D0320E4C
:1011F800D619D8A402D0020E0BD0330ED619D8A413
:1012080002D0030E05D0340ED619D8A419D0340E46
:10121800D46FDED70001D551736E746A7450000A1A
:10122800D8A40ED07350000AD8B4BBD7010AD8B4DA
:1012380007D0030AD8B4C8D7010AD8B4D2D7070A46
:10124800010E0001CE27000ECF23D023D123040E98
:10125800736E3E0EE82EFED7732EFCD705D6800E91
:10126800B7EC20F0070E666E7D0EE82EFED7662ED0
:10127800FCD700F0000E6E6E010E6D6E000E6B6EE8
:1012880032D1800EB7EC20F0070E666E7D0EE82E88
:10129800FED7662EFCD700F0A7C006F0A8C007F05E
:1012A800000E096E600E086E10EC20F0810E062408
:1012B800D96E010E0720DA6EDECF6FF0DDCF70F049
:1012C800D40E00019D6FFF0E9E6F7F0E9F6FFF0E65
:1012D800A06F6FC0A1F070C0A2F0D90EA36FFF0E6F
:1012E800A46FFCEC1FF0C00EB7EC20F0A7C006F00E
:1012F800A8C007F0000E096E600E086E10EC20F012
:10130800830E0624D96E010E0720DA6EDECF6FF049
:10131800DDCF70F0CF0E00019D6FFF0E9E6FC20EE5
:101328009F6FFE0EA06F6FC0A1F070C0A2F0FCEC22
:101338001FF0900EB7EC20F0D80E00019D6FFF0E45
:101348009E6F0B0E9F6FFF0EA06FFCEC1FF0D00E70
:10135800B7EC20F0D80E00019D6FFF0E9E6FA20E15
:101368009F6FFE0EA06FFCEC1FF0CBD0800EB7EC89
:1013780020F0070E666E7D0EE82EFED7662EFCD78F
:1013880000F0A7C006F0A8C007F0000E096E600EB6
:10139800086E10EC20F0850E0624D96E010E072089
:1013A800DA6EDECF6FF0DDCF70F0CB0E00019D6FEF
:1013B800FF0E9E6FDB0E9F6FFF0EA06F6DC0A1F03A
:1013C8006EC0A2F0FD0EA36FFF0EA46F6FC0A5F054
:1013D80070C0A6F0FCEC1FF0C00EB7EC20F06DC09A
:1013E80066F06EC067F0D89066366736D890663675
:1013F8006736A7C006F0A8C007F0000E096E600E99
:10140800086E10EC20F0810E686E010E696E020EF7
:101418006826000E69220650682607506922665021
:101428006824D96E67506920DA6EDECF6FF0DDCFA1
:1014380070F0CF0E00019D6FFF0E9E6FEF0E9F6F35
:10144800FE0EA06F6FC0A1F070C0A2F0FCEC1FF000
:10145800900EB7EC20F06DC066F06EC067F0D890C3
:1014680066366736D89066366736A7C006F0A8C0D5
:1014780007F0000E096E600E086E10EC20F0810E69
:10148800686E010E696E040E6826000E6922065009
:1014980068260750692266506824D96E675069200B
:1014A800DA6EDECF6FF0DDCF70F0CF0E00019D6FEA
:1014B800FF0E9E6F820E9F6FFE0EA06F6FC0A1F091
:1014C80070C0A2F0FCEC1FF0D00EB7EC20F0D80EE4
:1014D80000019D6FFF0E9E6F270E9F6FFF0EA06F7E
:1014E800FCEC1FF00ED06B50666E676A6750000AFE
:1014F800D8A407D06650000AD8B4C3D6010AD8B415
:1015080035D70001EB51D8B470D0000EEB6F81389D
:101518000F0B0F0B6A6E5F0E6A24F66EF76AFE0EEB
:10152800F7220800F5CF6CF0010EB7EC20F0110E91
:10153800666E3A0EE82EFED7662EFCD700D047D04E
:10154800310E6C18D8A403D0010E6B6E4ED0320E3B
:101558006C18D8B4120049D0330E6C18D8A407D030
:10156800000E6B6E000E6E6E010E6D6E3ED0320E6A
:101578006C18D8A41DD0A7C006F0A8C007F0000EAC
:10158800096E600E086E10EC20F0850E0624D96EE8
:10159800010E0720DA6EDE506D5C6E50800A686EB0
:1015A800DE50800A6858D8B020D06D4A6E2A1DD007
:1015B800310E6C18D8B46EBE18D06E5004E1020E0D
:1015C8006D5CD8A012D06D06D8A06E060ED06B50F8
:1015D800666E676A6750000AD8A407D06650000A8A
:1015E800D8B4AED7010AD8B4B7D7040E666E3E0E8B
:1015F800E82EFED7662EFCD776D71750800B206EC4
:1016080017501724266E16BE26802650D8B40DD043
:101618002628D8A408D0000E146E000E156E000EF1
:10162800166E000E176E168E08D0000E146E000E81
:10163800156E000E166E000E176E1B50800B201ACA
:101648001B501B24216E1ABE21802150D8B40DD006
:101658002128D8A408D0000E186E000E196E000EAE
:101668001A6E000E1B6E1A8E08D0000E186E000E31
:10167800196E000E1A6E000E1B6E2150D8B403D0DE
:101688002650D8A409D0000E146E000E156E000E58
:10169800166E000E176E12001A501402F3CF2BF0BC
:1016A800F4CF2CF02B50226E236A246A256A2C5022
:1016B800276E286A296A2A6A19501502F3CF2BF077
:1016C800F4CF2CF02B502226000E23222422252290
:1016D8002C502726000E282229222A2218501602CA
:1016E800F3CF2BF0F4CF2CF02B502226000E232220
:1016F800242225222C502726000E282229222A229D
:1017080024C025F023C024F022C023F0226A1850F8
:101718001502F3CF2BF0F4CF2CF02B5022262C50AF
:101728002322000E2422000E252219501402F3CF82
:101738002BF0F4CF2CF02B5022262C502322000E15
:101748002422000E252224C025F023C024F022C024
:1017580023F0226A18501402F3CF2BF0F4CF2CF0A8
:101768002B5022262C502322000E2422000E252244
:101778001A501502F3CF2BF0F4CF2CF02B5027265C
:101788002C502822000E2922000E2A221950160257
:10179800F3CF2BF0F4CF2CF02B5027262C502822F7
:1017A800000E2922000E2A221A501602F3CF2BF01F
:1017B800F4CF2CF02B501C6E2C501D6E1E6A1F6A25
:1017C8001EC01FF01DC01EF01CC01DF01C6A1C505E
:1017D80027261D5028221E5029221F502A2222C0A7
:1017E8001CF023C01DF024C01EF025C01FF0190EE8
:1017F80005D0D8901F321E321D321C32E82EF9D780
:101808001C5027261D5028221E5029221F502A22EC
:1018180024C025F023C024F022C023F0226A2150DE
:1018280026C01CF01D6A1C26000E1D22820E1C24D8
:101838002B6EFF0E1D202C6E0FD0D8902736283621
:1018480029362A3625BE2780D890223623362436D4
:1018580025362B06D8A02C0629AEEFD7000E216E10
:1018680025AE17D0FF0E22141C6EFF0E23141D6E1A
:10187800FF0E24141E6E7F0E25141F6E1C501D10A3
:101888001E101F10D8B403D0010E216E02D027B04D
:10189800FBD72150D8B41FD0010E2726000E2822CE
:1018A80029222A222AA017D027C01CF028C01DF000
:1018B80029C01EF02AC01FF01F341F321E321D32ED
:1018C8001C321CC027F01DC028F01EC029F01FC004
:1018D8002AF02B4A2C2A2CBE0DD02C5003E12B28A1
:1018E800D8A008D0000E276E000E286E800E296E34
:1018F8007F0E20D02CBE05D02C500EE12B04D8B082
:101908000BD0000E276E000E286E000E296E000EFA
:101918002A6E000E206E0FD02BC026F0FF0E271661
:10192800FF0E28167F0E2916000E2A1626B0298EBD
:10193800D89026302A6E20502A1227C014F028C0CA
:1019480015F029C016F02AC017F012003050800B8D
:10195800396E305030243B6E2FBE3B803B50D8B49C
:101968000DD03B28D8A408D0000E2D6E000E2E6E88
:10197800000E2F6E000E306E2F8E06D0000E2D6ECC
:10198800000E2E6E000E2F6E000E306E3450800B3F
:101998003A6E39503A18D8A4398C345034243A6EF7
:1019A80033BE3A803A50D8B40DD03A28D8A408D0DB
:1019B800000E316E000E326E000E336E000E346E65
:1019C800338E06D0000E316E000E326E000E336E6E
:1019D800000E346E3B503A5CD8B022D039AC02D0FD
:1019E800800E391A3BC03CF03AC03BF03CC03AF09C
:1019F8002DC03CF031C02DF03CC031F02EC03CF081
:101A080032C02EF03CC032F02FC03CF033C02FF073
:101A18003CC033F030C03CF034C030F03CC034F04F
:101A2800000E3C6E3B503AC035F0366A355E000E0B
:101A3800365A36BE2CD0365004E11A0E355CD8A082
:101A480026D02D502E102F103010D8B402D0010EF1
:101A580001D0000E3C6E000E2D6E000E2E6E000E94
:101A68002F6E000E306E3AC03BF015D03CA005D06A
:101A7800D8903C3001093C6E02D0D8903C322DB051
:101A88003C8E303430322F322E322D323B2A3A50AF
:101A98003B5CD8A0EBD739BC28D03B50D8A409D0A0
:101AA800000E2D6E000E2E6E000E2F6E000E306E84
:101AB800120031502D2632502E2233502F2234500E
:101AC800302230A071D03CA005D0D8903C3001091C
:101AD8003C6E02D0D8903C322DB03C8E303430323F
:101AE8002F322E322D323B2A5FD031502D5C3250AE
:101AF8002E5833502F583050800A356E3450800A93
:101B08003558D8B025D02D50315C356E2E5032580E
:101B1800366E2F503358376E30503458386EFF0EAB
:101B280035242D6EFF0E36202E6EFF0E37202F6EB9
:101B3800FF0E3820306E800E391A3C6C3C50D8A409
:101B48000FD0010E2D26000E2E222F22302208D073
:101B580031502D5E32502E5A33502F5A3450305A4D
:101B68002D502E102F103010D8A41CD03C50D8A4C3
:101B780019D0000E2D6E000E2E6E000E2F6E000E68
:101B8800306E1200D8902D362E362F3630363CBEA9
:101B98002D803CA002D0D88001D0D8903C363B5054
:101BA800D8A43B062FAEEED7000E3A6E3CAE0BD053
:101BB8003CC035F07F0E3516D8B403D0010E3A6E0E
:101BC80002D02DB0FBD73A50D8B420D0010E2D2624
:101BD800000E2E222F22302230A018D02DC035F032
:101BE8002EC036F02FC037F030C038F038343832D5
:101BF80037323632353235C02DF036C02EF037C088
:101C08002FF038C030F03B28D8A43B2A3B28D8B462
:101C180003D03B50D8A40DD0000E2D6E000E2E6EB2
:101C2800000E2F6E000E306E3B50D8A402D0000E6E
:101C3800396E3BA002D02F8E01D02F9ED8903B301A
:101C4800306E39BE308E2DC02DF02EC02EF02FC034
:101C58002FF030C030F012003050800B3D6E305005
:101C68003024446E2FBE44804450D8B40DD044284C
:101C7800D8A408D0000E2D6E000E2E6E000E2F6E0A
:101C8800000E306E2F8E06D0000E2D6E000E2E6EBA
:101C9800000E2F6E000E306E3450800B3D1A3450FB
:101CA8003424456E33BE45804550D8B40DD0452800
:101CB800D8A408D0000E316E000E326E000E336EBE
:101CC800000E346E338E06D0000E316E000E326E6A
:101CD800000E336E000E346E315032103310341053
:101CE800D8A417D0000E2D6E000E2E6E000E2F6E8B
:101CF800000E306E800E2F127F0E30123D503012C3
:101D08002DC02DF02EC02EF02FC02FF030C030F097
:101D180012004450D8A409D0000E2D6E000E2E6E6D
:101D2800000E2F6E000E306E1200455044C035F084
:101D3800366A355E000E365A7F0E35243E6E000E2A
:101D480036203F6E2DC039F02EC03AF02FC03BF040
:101D580030C03CF0000E2D6E000E2E6E000E2F6E61
:101D6800000E306E000E406E000E416E000E426E88
:101D7800000E436E000E456E28D04550D8B411D0E1
:101D8800D89039363A363B363C36D8902D362E36F2
:101D98002F36303643BE2D80D890403641364236F5
:101DA80043363150395C32503A5833503B583450EE
:101DB8003C58D8A009D0438C3150395E32503A5A39
:101DC80033503B5A34503C5A452A190E4564D5D7EE
:101DD80039503A103B103C10D8B411D040800FD085
:101DE800D8902D362E362F36303643BE2D80D890DB
:101DF80040364136423643363E06D8A03F062FAE1F
:101E0800EFD7000E456E43AE17D0FF0E4014356E67
:101E1800FF0E4114366EFF0E4214376E7F0E4314C8
:101E2800386E3550361037103810D8B403D0010E3C
:101E3800456E02D02DB0FBD74550D8B41FD0010E47
:101E48002D26000E2E222F22302230A017D02DC092
:101E580035F02EC036F02FC037F030C038F03834A7
:101E6800383237323632353235C02DF036C02EF0A2
:101E780037C02FF038C030F03E4A3F2A3FBE10D05E
:101E88003F5003E13E28D8A00BD0000E3F6E3E68BD
:101E9800000E2D6E000E2E6E000E2F6E000E306E90
:101EA8003FBE05D03F5011E13E04D8B00ED0000E21
:101EB8003F6E000E3E6E000E2D6E000E2E6E000E52
:101EC8002F6E000E306E000E3D6E3EC044F044A0F2
:101ED80002D02F8E01D02F9ED8904430306E0ED76E
:101EE8008AC031F08BC032F08CC033F08DC034F032
:101EF80000019251D75D066E9351D859076E9451DF
:101F0800D959086E9551DA59096E010E21EC17F06E
:101F180006C02DF007C02EF008C02FF009C030F021
:101F280030EC0EF02DC04AF02EC04BF02FC04CF014
:101F380030C04DF000018E51DB5D066E8F51DC59CB
:101F4800076E9051DD59086E9151DE59096E010EE8
:101F580021EC17F006C046F007C047F008C048F06B
:101F680009C049F07FEC1EF046C04EF047C04FF064
:101F780048C050F049C051F039EC1AF04EC09AF000
:101F88004FC09BF050C09CF051C09DF096C018F017
:101F980097C019F098C01AF099C01BF09AC006F0C3
:101FA8009BC007F09CC008F09DC009F0010E21EC11
:101FB80017F006C014F007C015F008C016F009C0E5
:101FC80017F001EC0BF014C04AF015C04BF016C026
:101FD8004CF017C04DF088C006F089C007F0000E1D
:101FE80007BEFF0E086E096E010E21EC17F006C041
:101FF80046F007C047F008C048F009C049F07FEC38
:102008001EF046C04EF047C04FF048C050F049C0DF
:1020180051F039EC1AF04EC09EF04FC09FF096C0B8
:1020280018F097C019F098C01AF099C01BF09AC020
:1020380006F09BC007F09CC008F09DC009F0010E97
:1020480021EC17F006C014F007C015F008C016F010
:1020580009C017F001EC0BF014C031F015C032F0D4
:1020680016C033F017C034F08AC018F08BC019F0CE
:102078008CC01AF08DC01BF088C006F089C007F02C
:10208800000E07BEFF0E086E096E010E21EC17F058
:1020980006C014F007C015F008C016F009C017F004
:1020A80001EC0BF014C02DF015C02EF016C02FF067
:1020B80017C030F0AAEC0CF02DC04EF02EC04FF037
:1020C8002FC050F030C051F039EC1AF04EC0A0F0DB
:1020D8004FC0A1F000019FBF0AD09F5104E1650ED7
:1020E8009E5DD8A004D0000E9F6F640E9E6F9FAFB8
:1020F80004D0000E9F6F000E9E6FA1BF0AD0A151A1
:1021080004E1650EA05DD8A004D0000EA16F640E96
:10211800A06FA1AF04D0000EA16F000EA06F9EC0EB
:102128006CF09FC06DF0010E6E6E010E6F6EA0C058
:1021380070F0A1C071F08FEC1BF0120027C03FF0C7
:1021480028C040F029C041F02AC042F02BC043F01B
:102158002CC044F02DC045F02EC046F046AE02D04B
:10216800010E01D0000E3D6E3E6A3D503E10D8B4BF
:1021780010D0461E451E441E431E421E411E401ED0
:102188003F6C000E40224122422243224422452233
:1021980046220001E4AFE593E4BF05D0E45108E12D
:1021A800E305D8B005D0000E3A6E010E396E04D0A2
:1021B800E3C039F0E4C03AF0E1C03BF0E2C03CF0E3
:1021C8003D503E10D8A402D0E5A503D03B06D8A0C8
:1021D8003C06000E486E1F0E476E000E0101806F10
:1021E8007CD04706D8A04806610E4724D96E010E58
:1021F8004820DA6E3FC006F040C007F041C008F042
:1022080042C009F043C00AF044C00BF045C00CF0CE
:1022180046C00DF00A0E0E6E000E0F6E000E106E08
:10222800000E116E000E126E000E136E000E146E6C
:10223800000E156E61EC18F006C02FF007C030F0E4
:1022480008C031F009C032F00AC033F00BC034F0D6
:102258000CC035F00DC036F02FC018F031C019F0A1
:102268005CEC1FF01850300FDF6E3906D8A03A0624
:102278003B06D8A03C063FC006F040C007F041C06E
:1022880008F042C009F043C00AF044C00BF045C052
:102298000CF046C00DF00A0E0E6E000E0F6E000E0A
:1022A800106E000E116E000E126E000E136E000EF0
:1022B800146E000E156EDBEC15F006C03FF007C07B
:1022C80040F008C041F009C042F00AC043F00BC01A
:1022D80044F00CC045F00DC046F048BE20D0485030
:1022E80003E14704D8A01BD03F50401041104210D2
:1022F8004310441045104610D8A473D73ABE05D0F1
:102308003A5002E13904D8B06CD73CBE08D03C50F2
:1023180003E13B04D8A003D00001E5B362D73D50E8
:102328003E10D8A403D00001E5A517D04706D8A0D1
:1023380048063D503E10D8A404D0000E386E2B0E2F
:1023480003D0000E386E2D0E376E610E4724D96EFD
:10235800010E4820DA6E37C0DFFF25C01AF026C00C
:102368001BF0610E47241C6E010E48201D6E3BC0F9
:102378001EF03CC01FF042EC1BF01AC025F01BC039
:1023880026F01200010EB7EC20F0110E726E3A0E14
:10239800E82EFED7722EFCD700D0800EB7EC20F0C6
:1023A800070E726E7D0EE82EFED7722EFCD700F057
:1023B800000E0001956F010E946F000E976F010ECD
:1023C800966F70D081A803D0726A722A01D0726A9F
:1023D80072500001A06FA16B81AA03D0726A722AA1
:1023E80001D0726A72500001A26FA36BA051A111B3
:1023F800D8A40CD094059511D8A408D0DBC08CF0D3
:10240800DCC08DF0DDC08EF0DEC08FF0A251A311CC
:10241800D8A40CD096059711D8A408D0DBC090F0AA
:10242800DCC091F0DDC092F0DEC093F0A051A111A4
:10243800D8A412D08C51DB5D186E8D51DC59196E01
:102448005CEC1FF018C09CF019C09DF00001000E54
:102458009DBFFF0E9E6F9F6FA251A311D8A412D0EB
:102468009051DB5D186E9151DC59196E5CEC1FF0D0
:1024780018C098F019C099F00001000E99BFFF0E1E
:102488009A6F9B6FA051A111D8B404D0A251A31187
:10249800D8A412D0A0C094F0A1C095F0A2C096F024
:1024A800A3C097F08851755C895176588A5177583E
:1024B8008B517858D8A086D79FBF08D09F519E11BE
:1024C8009D114AE1500E9C5DD8B046D0000E6D6E4D
:1024D800000E6C6E010E6E6E010E6F6E000E716E48
:1024E800000E706E8FEC1BF0000E076E640E066E09
:1024F80088C008F089C009F08AC00AF08BC00BF0C8
:102508002BEC1DF00ED0000E6D6E5A0E6C6E000E88
:102518006E6E000E6F6E000E716E5A0E706E8FEC3E
:102528001BF000018851755C895176588A5177589B
:102538008B517858D8B002D081B8E5D7000E6D6EAF
:10254800000E6C6E010E6E6E010E6F6E000E716ED7
:10255800000E706E8FEC1BF000019FBF08D09F51DA
:102568009E119D1113E1500E9C5DD8B00FD09BBFFA
:1025780008D09B519A11991109E1500E985DD8B075
:1025880005D0000E896F000E886F12009FBF17D00C
:102598009F519E119D1104E1510E9C5DD8A00FD052
:1025A8009BBF0DD09B519A11991104E1510E985D72
:1025B800D8A005D0000E896F020E886F1200000E99
:1025C800896F010E886F12000001E4AFE593E4BF44
:1025D80005D0E45108E1E305D8B005D0000E3D6E02
:1025E800010E3C6E04D0E3C03CF0E4C03DF0E1C015
:1025F8003EF0E2C03FF0E5A904D0FE0E3E26FF0EF5
:102608003F2227C040F028C041F029C042F02AC02C
:1026180043F02BC044F02CC045F02DC046F02EC02E
:1026280047F0000E496E1F0E486E000E0101806FC4
:1026380093D04806D8A049060F0E40144A6E4B6A3C
:102648004BBE08D04B5004E10A0E4A5CD8A002D019
:10265800570E01D0300E4A244A6E000E4B204B6EA6
:10266800BF0E306EFF0E316E2F50326E336A30500F
:10267800322631503322335006E11A0E325CD8B07C
:1026880002D0010E01D0000E386E396A3850391068
:10269800D8B427D09F0E306EFF0E316E200E4A1030
:1026A800326E000E4B10336E3050322631503322CA
:1026B800335006E11A0E325CD8B002D0010E01D0B8
:1026C800000E3A6E3B6A3A503B10D8B40AD04AC062
:1026D8000CF04BC00DF05AEC1EF00CC04AF00DC0C7
:1026E8004BF0610E4824D96E010E4920DA6E4AC0BB
:1026F800DFFF3C06D8A03D063E06D8A03F0640C0F6
:1027080030F041C031F042C032F043C033F044C031
:1027180034F045C035F046C036F047C037F0050EF6
:1027280009D0D890373236323532343233323232F9
:1027380031323032E82EF5D730C040F031C041F0A8
:1027480032C042F033C043F034C044F035C045F0E5
:1027580036C046F037C047F049BE21D0495004E1A1
:10276800020E485CD8A01BD04050411042104310C4
:102778004410451046104710D8A45BD73DBE05D07D
:102788003D5002E13C04D8B054D73FBE08D03F507A
:1027980003E13E04D8A003D00001E5B34AD7000105
:1027A800E5A916D04806D8A04906610E4824D96E76
:1027B800010E4920DA6E2FC0DFFF4806D8A049066F
:1027C800610E4824D96E010E4920DA6E300EDF6E94
:1027D80025C01AF026C01BF0610E48241C6E010E9D
:1027E80049201D6E3EC01EF03FC01FF042EC1BF09A
:1027F8001AC025F01BC026F012005BBE1200000EA6
:10280800066E000E076EC80E086E420E096E58C09E
:102818000AF059C00BF05AC00CF05BC00DF06AEC1E
:1028280019F0D8A012005FBE1200000E066E000E4E
:10283800076EC80E086E420E096E5CC00AF05DC0D5
:102848000BF05EC00CF05FC00DF06AEC19F0D8A078
:102858001200010ECB24626E636A000E6322000E22
:10286800316E000E326EC80E336E420E346E000E9C
:10287800186E000E196E800E1A6E400E1B6E58C030
:1028880014F059C015F05AC016F05BC017F001ECEF
:102898000BF014C02DF015C02EF016C02FF017C085
:1028A80030F030EC0EF02DC068F02EC069F02FC06B
:1028B8006AF030C06BF062C006F063C007F0086AC7
:1028C800096A000E21EC17F006C018F007C019F0CD
:1028D80008C01AF009C01BF068C014F069C015F0F0
:1028E8006AC016F06BC017F001EC0BF014C04EF084
:1028F80015C04FF016C050F017C051F039EC1AF05F
:102908004EC064F04FC065F0000E316E000E326E9E
:10291800C80E336E420E346E000E186E000E196E1D
:10292800800E1A6E400E1B6E5CC014F05DC015F070
:102938005EC016F05FC017F001EC0BF014C02DF06C
:1029480015C02EF016C02FF017C030F030EC0EF086
:102958002DC068F02EC069F02FC06AF030C06BF04F
:1029680062C006F063C007F0086A096A000E21EC2D
:1029780017F006C018F007C019F008C01AF009C00F
:102988001BF068C014F069C015F06AC016F06BC07F
:1029980017F001EC0BF014C04EF015C04FF016C044
:1029A80050F017C051F039EC1AF04EC066F04FC025
:1029B80067F0BD9A64A002D0BD8801D0BD9864C0FC
:1029C80060F065C061F0D89061326032D8906132B1
:1029D80060326050BE6EBA9A66A002D0BA8801D042
:1029E800BA9866C060F067C061F0D8906132603212
:1029F800D890613260326050BB6E12000001E4AFC3
:102A0800E593E4BF05D0E45108E1E305D8B005D06B
:102A1800000E386E010E376E04D0E3C037F0E4C004
:102A280038F0E1C039F0E2C03AF027C03BF028C0E6
:102A38003CF029C03DF02AC03EF02BC03FF02CC02E
:102A480040F02DC041F02EC042F0000E446E1F0E23
:102A5800436E000E0101806F76D04306D8A044066D
:102A6800610E4324D96E010E4420DA6E3BC006F095
:102A78003CC007F03DC008F03EC009F03FC00AF076
:102A880040C00BF041C00CF042C00DF00A0E0E6EB3
:102A9800000E0F6E000E106E000E116E000E126EFC
:102AA800000E136E000E146E000E156E96EC1AF0E2
:102AB80006C02FF007C030F008C031F009C032F06E
:102AC8000AC033F00BC034F00CC035F00DC036F03E
:102AD8002F50300FDF6E3706D8A038063906D8A039
:102AE8003A063BC006F03CC007F03DC008F03EC0C7
:102AF80009F03FC00AF040C00BF041C00CF042C0E2
:102B08000DF00A0E0E6E000E0F6E000E106E000E07
:102B1800116E000E126E000E136E000E146E000E73
:102B2800156ED2EC19F006C03BF007C03CF008C0A7
:102B38003DF009C03EF00AC03FF00BC040F00CC0A9
:102B480041F00DC042F043504410D8B41BD03B5064
:102B58003C103D103E103F10401041104210D8A4C8
:102B68007CD738BE05D0385002E13704D8B075D7C5
:102B78003ABE08D03A5003E13904D8A003D0000186
:102B8800E5B36BD725C01AF026C01BF0610E4324AD
:102B98001C6E010E44201D6E39C01EF03AC01FF095
:102BA80042EC1BF01AC025F01BC026F01200000EE4
:102BB800176E15AE12D0151E141E131E121E111EEE
:102BC800101E0F1E0E6C000E0F2210221122122250
:102BD800132214221522010E176E0DAE12D00D1EEF
:102BE8000C1E0B1E0A1E091E081E071E066C000E70
:102BF8000722082209220A220B220C220D22010E8A
:102C0800171A20EE18F0070EDE6AE806FDE20E50ED
:102C18000F10101011101210131014101510D8B432
:102C280046D0010E166E0AD0D8900E360F361036E2
:102C380011361236133614361536162A15AEF4D751
:102C4800D890183619361A361B361C361D361E36DD
:102C58001F360E50065C0F50075810500858115078
:102C6800095812500A5813500B5814500C58155044
:102C78000D58D8A011D00E50065E0F50075A1050AC
:102C8800085A1150095A12500A5A13500B5A145024
:102C98000C5A15500D5A1880D89015321432133228
:102CA8001232113210320F320E32162EC9D7175087
:102CB800D8B410D01F1E1E1E1D1E1C1E1B1E1A1E41
:102CC800191E186C000E19221A221B221C221D2202
:102CD8001E221F2218C006F019C007F01AC008F0FB
:102CE8001BC009F01CC00AF01DC00BF01EC00CF080
:102CF8001FC00DF0120020EEECF010EE18F0060EDA
:102D0800DBCFE3FFE806FCE215C023F016C024F091
:102D180023502410D8A404D0180E236E000E246E5D
:102D280023C006F024C007F0C5EC1EF006C027F04B
:102D380007C028F0E3C025F0E4C026F026BE0ED078
:102D48002750255C2650800A176E2850800A17588D
:102D5800D8B004D025C027F026C028F027C025F019
:102D680028C026F0E1C021F0E2C022F00001E5A170
:102D78000DD016D0000E0B6E200E0A6E13C00CF08C
:102D880014C00DF08DEC1CF0274A282A2150275C2E
:102D98002850800A176E2250800A1758D8A0EAD700
:102DA800000E206E000E1F6E1FD023C0F6FF24C039
:102DB800F7FF000EF86E0F0EF76403D00800F55009
:102DC80005D0F6CFE1FFF7CFE2FFE750176E1750B7
:102DD8000A6E0B6A13C00CF014C00DF08DEC1CF0D9
:102DE800234A242A1F4A202A25501F5C2050800A83
:102DF800176E2650800A1758D8A0D7D70001E5B11A
:102E08000DD016D0000E0B6E200E0A6E13C00CF0FB
:102E180014C00DF08DEC1CF0274A282A2150275C9D
:102E28002850800A176E2250800A1758D8A0EAD76F
:102E380027C013F028C014F012000E6E0E50D8A44C
:102E480009AE1AD006C00AF007C00BF008C00CF093
:102E580009C00DF00A1E0B1E0C1E0D1E0A2A000EBC
:102E68000B220C220D220AC010F00BC011F00CC06E
:102E780012F00DC013F008D006C010F007C011F012
:102E880008C012F009C013F0065007100810091006
:102E9800D8A409D0000E066E000E076E000E086E4C
:102EA800000E096E1200960E0F6E06D00F2AD890EB
:102EB8001332123211321032000E10140A6E000E44
:102EC80011140B6E000E12140C6EFE0E13140D6E00
:102ED8000A500B100C100D10D8B40DD0E7D70F2ADC
:102EE800010E1026000E112212221322D89013323E
:102EF800123211321032000E10140A6E000E111424
:102F08000B6E000E12140C6EFF0E13140D6E0A5089
:102F18000B100C100D10D8B407D0E1D70F06D890BD
:102F2800103611361236133612BE03D0020E0F6059
:102F3800F5D70FA0129ED8900F320FC00AF00B6A77
:102F48000C6A0D6A0AC00DF00C6A0B6A0A6A0A500C
:102F580010120B5011120C5012120D5013120E5069
:102F6800D8A409AE01D0138E10C006F011C007F026
:102F780012C008F013C009F01200000E1B6E000EFC
:102F88001A6E000E146E000E136E02D00D4A0E2A31
:102F9800010E196E0DC0F6FF0EC0F7FF0800F550C0
:102FA800200AD8B418D0F70E0F6EFF0E106E0DC0A1
:102FB800F6FF0EC0F7FF0800F550116E126A0F50A9
:102FC800112610501222125004E1050E115CD8A0EF
:102FD80002D0000E196E19C015F0166A1550161099
:102FE800D8B408D0D3D7000E146E010E136E0D4A54
:102FF8000E2A2ED00DC0F6FF0EC0F7FF0800F550C0
:103008000F6E106A1050000AD8A422D00F502B0A55
:10301800D8B4EDD7060AD8B4E6D71AD01AC006F045
:103028001BC007F0000E096E0A0E086E10EC20F0A7
:103038000DC0F6FF0EC0F7FF0800F550065E000E43
:10304800075A300E06241A6E000E07201B6ECFD7C3
:10305800D00E0F6EFF0E106E0DC0F6FF0EC0F7FFFC
:103068000800F550116E126A0F50112610501222E6
:10307800125006E10A0E115CD8B002D0010E01D040
:10308800000E176E186A17501810D8A4C7D7135017
:103098001410D8A40DD01AC00FF01BC010F00F1ECA
:1030A800101E0F4A102A0FC00DF010C00EF01200AB
:1030B8001AC00DF01BC00EF01200000E176E0DAEF8
:1030C80012D00D1E0C1E0B1E0A1E091E081E071EFE
:1030D800066C000E0722082209220A220B220C2263
:1030E8000D22010E176E15AE10D0151E141E131EDC
:1030F800121E111E101E0F1E0E6C000E0F22102223
:10310800112212221322142215220E500F10101011
:1031180011101210131014101510D8B43CD0010E51
:10312800166E0AD0D8900E360F3610361136123673
:10313800133614361536162A15AEF4D70E50065C1B
:103148000F500758105008581150095812500A5873
:1031580013500B5814500C5815500D58D8A010D0B7
:103168000E50065E0F50075A1050085A1150095A4F
:1031780012500A5A13500B5A14500C5A15500D5A23
:10318800D8901532143213321232113210320F32F3
:103198000E32162ED3D71750D8B410D00D1E0C1ED1
:1031A8000B1E0A1E091E081E071E066C000E0722AB
:1031B800082209220A220B220C220D2206C006F040
:1031C80007C007F008C008F009C009F00AC00AF0F3
:1031D8000BC00BF00CC00CF00DC00DF01200DBC0E2
:1031E800BFF0DCC0C0F0DDC0C1F0DEC0C2F0D7C0A7
:1031F800B7F0D8C0B8F0D9C0B9F0DAC0BAF03AD050
:10320800A4C006F0A5C007F0000E07BEFF0E086EAA
:10321800096E010E21EC17F006C0BBF007C0BCF028
:1032280008C0BDF009C0BEF0A2C088F0A3C089F0F4
:10323800BBC08AF0BCC08BF0BDC08CF0BEC08DF0A6
:10324800BFC08EF0C0C08FF0C1C090F0C2C091F076
:10325800B7C092F0B8C093F0B9C094F0BAC095F076
:10326800A6C096F0A7C097F0A8C098F0A9C099F09A
:1032780074EC0FF00001AE51755CAF517658B05147
:103288007758B1517858D8B01200BF51DB5D186E2D
:10329800C051DC59196E5CEC1FF018C0B2F019C0AF
:1032A800B3F0000E0001B3BFFF0EB46FB56FAA51A3
:1032B800B25DAB51B359AC51B459B551800AB66F30
:1032C800AD51800AB659D8B012009AD7000E06142C
:1032D8000E6E000E07140F6E800E0814106E7F0E0F
:1032E8000914116E0E500F1010101110D8A408D028
:1032F800000E066E000E076E000E086E000E096EB8
:10330800000E0A140E6E000E0B140F6E800E0C14B5
:10331800106E7F0E0D14116E0E500F10101011103C
:10332800D8A408D0000E0A6E000E0B6E000E0C6EAC
:10333800000E0D6E09AE09D0066C071ED8B0072A1C
:10334800081ED8B0082A800E09560DAE09D00A6C9E
:103358000B1ED8B00B2A0C1ED8B00C2A800E0D56A6
:10336800000E061A000E071A000E081A800E091A17
:10337800000E0A1A000E0B1A000E0C1A800E0D1AF7
:103388000A50065C0B5007580C5008580D50095845
:10339800D8B002D0D8901200D880120020EE16F0D3
:1033A800070EDE6AE806FDE20E500F10101011102D
:1033B8001210131014101510D8B446D0010E1E6E3A
:1033C8000AD0D8900E360F3610361136123613360C
:1033D800143615361E2A15AEF4D7D8901636173679
:1033E800183619361A361B361C361D360E50065C32
:1033F8000F500758105008581150095812500A58C1
:1034080013500B5814500C5815500D58D8A011D003
:103418000E50065E0F50075A1050085A1150095A9C
:1034280012500A5A13500B5A14500C5A15500D5A70
:103438001680D890153214321332123211321032EB
:103448000F320E321E2EC9D716C006F017C007F06D
:1034580018C008F019C009F01AC00AF01BC00BF018
:103468001CC00CF01DC00DF0120050345134576EC2
:103478005750D8A409D0000E4E6E000E4F6E000EA5
:10348800506E000E516E12004EC052F04FC053F0F5
:1034980050C054F051C055F0200E05D0D890553288
:1034A800543253325232E82EF9D75250566E508E5B
:1034B800FF0E4E16FF0E4F16FF0E5016000E511639
:1034C800960E575E57AE0DD05750800A970FD8A06A
:1034D800D2D7D890513250324F324E32573EF9D768
:1034E8000DD01F0E576407D0C6D7D8904E364F362A
:1034F8005036513657065750D8A4F7D75650D8B437
:1035080008D0511E501E4F1E4E6C000E4F225022E6
:1035180051224EC04EF04FC04FF050C050F051C035
:1035280051F012000E500F1010101110121013103D
:1035380014101510D8B43CD0010E166E0AD0D890CD
:103548000E360F3610361136123613361436153637
:10355800162A15AEF4D70E50065C0F5007581050B7
:1035680008581150095812500A5813500B58145043
:103578000C5815500D58D8A010D00E50065E0F509C
:10358800075A1050085A1150095A12500A5A135023
:103598000B5A14500C5A15500D5AD8901532143233
:1035A80013321232113210320F320E32162ED3D796
:1035B80006C006F007C007F008C008F009C009F007
:1035C8000AC00AF00BC00BF00CC00CF00DC00DF0D7
:1035D800120006C00DF007C00EF008C00FF009C0B9
:1035E80010F00A06D8A00B060A280FE10B28D8A469
:1035F8000CD0000E076E000E066E12000D4A0E2A41
:103608000F4A102A0A06D8A00B060DC0F6FF0EC0F6
:10361800F7FF0800F5500009D8B41DD00FC0F6FF19
:1036280010C0F7FF0800F5500009D8B414D00A50AC
:103638000B10D8B410D00DC0F6FF0EC0F7FF08006D
:10364800F5CF0CF00FC0F6FF10C0F7FF0800F550DB
:103658000C18D8B4D3D70DC0F6FF0EC0F7FF08007A
:10366800F5CF0CF00FC0F6FF10C0F7FF0800F550BB
:103678000C5C066E076AD8A0070612000001E5A1D7
:103688000AD01CC013F01DC014F01AC015F01BC0DE
:1036980016F026EC1FF01FBE05D01EC023F01FC079
:1036A80024F004D0000E246E000E236E000E226E4D
:1036B800000E216E0CD0000E0B6E200E0A6E1AC082
:1036C8000CF01BC00DF08DEC1CF0214A222A23506F
:1036D800215C2250800A206E2450800A2058D8A0ED
:1036E800EAD70001E5B10AD01CC013F01DC014F0E0
:1036F8001AC015F01BC016F026EC1FF01CC006F00F
:103708001DC007F0C5EC1EF0235006241A6E245085
:1037180007201B6E12006E50D8B403D0898089929E
:1037280002D0899089826F50D8B403D08984899651
:1037380002D0899489866CC006F06DC007F0000E2F
:1037480007BEFF0E086E096E010E21EC17F006C0C9
:1037580080F007C081F008C082F009C083F070C013
:1037680006F071C007F0000E07BEFF0E086E096E66
:10377800010E21EC17F006C084F007C085F008C0E0
:1037880086F009C087F080C058F081C059F082C027
:103798005AF083C05BF084C05CF085C05DF086C0E1
:1037A8005EF087C05FF001EC14F01200000E0E6EA0
:1037B800000E0F6E000E106E000E116E0A500B10E8
:1037C8000C100D10D8B42AD0010E126E06D0D89065
:1037D8000A360B360C360D36122A0DAEF8D7D890AD
:1037E8000E360F36103611360A50065C0B50075845
:1037F8000C5008580D500958D8A009D00A50065E38
:103808000B50075A0C50085A0D50095A0E80D89080
:103818000D320C320B320A32122EE1D70EC006F0EE
:103828000FC007F010C008F011C009F01200840E94
:10383800F66E410EF76E000EF86E00EEECF010EE2C
:1038480008F00900F5CFEEFFE550E150FAE19C0ED3
:10385800F66E410EF76E000EF86E0900F5CF79F09E
:1038680001EE81F011EEE0F0EE6AE550E150FCE186
:10387800E250FAE101EE59F0280EEE6AE806FDE1A1
:1038880000EED7F0150EEE6AE806FDE1786A776A71
:10389800766A756A7A907A92000EF86E000129EFBE
:1038A80007F0000E0B6E07AE06D0066C071ED8B0E8
:1038B800072A010E0B6E09AE04D0086C091ED8B099
:1038C800092A08500910D8B418D0010E0A6E04D07D
:1038D800D890083609360A2A09AEFAD70850065C85
:1038E80009500758D8A004D00850065E0950075A56
:1038F800D890093208320A2EF1D70B50D8B404D028
:10390800066C071ED8B0072A06C006F007C007F0E5
:1039180012000C500D10D8B404D00C500D10D8A4BF
:1039280004D00A50B1EC20F0120020EE04F00C5044
:10393800D9260D50DA22DE50DE10D8B416D020EE8B
:1039480004F00C50D9260D50DA2210EE02F00C507B
:10395800E1260D50E222DE50E65CE650800A126E47
:10396800DE50800A1258D8B0120020EE02F00C5037
:10397800D9260D50DA22DE2A000EDD221200310E81
:103988000A6EB20EE82EFED70A2EFCD700D08C9411
:10399800030E94EC20F0110E0A6E3A0EE82EFED7B4
:1039A8000A2EFCD700D0030E94EC20F07D0EE82EF2
:1039B800FED7320EA8EC20F0280EA8EC20F0080E56
:1039C800A8EC20F0010EA8EC20F0110E0A6E3A0EB9
:1039D800E82EFED70A2EFCD700D0060EA8EC20F061
:1039E8000C0EB7EC20F012000A500B100C100D1042
:1039F800D8B424D0010E0E6E06D0D8900A360B36F5
:103A08000C360D360E2A0DAEF8D70A50065C0B5050
:103A180007580C5008580D500958D8A008D00A501B
:103A2800065E0B50075A0C50085A0D50095AD89088
:103A38000D320C320B320A320E2EE7D706C006F0D2
:103A480007C007F008C008F009C009F0120075C0E7
:103A580014F076C015F077C016F078C017F008504B
:103A6800755C095076580A5077580B507858D8B07A
:103A7800120006C00CF007C00DF0000E0DBEFF0EC0
:103A88000E6E0F6E1450755C106E15507658116ED0
:103A980016507758126E17507858136E0C50105CE9
:103AA8000D5011580E5012580F501358D8B012001C
:103AB800D6D7C69A94869488800E066E960E076EA0
:103AC800980E086E000E096E13C017F014C018F097
:103AD80015C019F016C01AF0020ED890173618360D
:103AE80019361A36E82EF9D717C00AF018C00BF0A5
:103AF80019C00CF01AC00DF0DAEC1BF00604C86E01
:103B0800800EC76E280EC66E000EC56E120099C0D4
:103B180060F09AC061F0000E0001E06F000EDF6FE8
:103B280013D097C04CF098C04DF0600E4E6E000E4A
:103B38004F6E9BC050F09CC051F009EC00F04C5007
:103B48000001DF274D50E02360C0F6FF61C0F7FF9A
:103B58000800F5500009D8A4E4D7DFC097F0E0C00A
:103B680098F0120081A403D0016A012A01D0016AE9
:103B78000150026E036A82A003D0016A012A01D0B3
:103B8800016A0150046E056A025004180EE10350E0
:103B98000518D8A40AD0FF0E0001D727FF0ED82396
:103BA800FF0ED923FF0EDA231200010E0001D727DA
:103BB800000ED823D923DA23120081A003D0016A8A
:103BC800012A01D0016A0150026E036A84A203D05F
:103BD800016A012A01D0016A0150046E056A025087
:103BE80004180CE103500518D8A408D0010E0001F0
:103BF800DB27000EDC23DD23DE231200FF0E00018D
:103C0800DB27FF0EDC23FF0EDD23FF0EDE23120071
:103C18000001E151E211D8A405D0E1C028F0E2C0CA
:103C280029F006D0FF0EE125286EFF0EE221296E4D
:103C380027C061F1000E0101626F25C01AF026C08D
:103C48001BF0610E1C6E010E1D6E28C01EF029C0EF
:103C58001FF042EC1BF01AC025F01BC026F0120022
:103C6800000E076E000E066ED8900634D96E073423
:103C7800DA6E810ED926010EDA22D8900634E16E6A
:103C88000734E26E010EE126030EE222DECFE6FFE4
:103C9800DDCFE5FF064A072A07BEE6D7075005E14C
:103CA800300E065CD8B01200DFD712009F0E0E6EE1
:103CB800FF0E0F6E0CC010F00DC011F00E50102644
:103CC8000F501122115006E11A0E105CD8B002D024
:103CD800010E01D0000E126E136A12501310D8B4E0
:103CE80005D05F0E0C140C6E0D6A12000CC00CF09F
:103CF8000DC00DF01200000E4A1A000E4B1A000EED
:103D08004C1A800E4D1A46C02DF047C02EF048C000
:103D18002FF049C030F04AC031F04BC032F04CC0EF
:103D280033F04DC034F0AAEC0CF02DC046F02EC094
:103D380047F02FC048F030C049F012000600F0A04C
:103D480005D0010E0001EB6FF09019D0F2A40CD051
:103D5800F294FB0ED76E1E0ED66E010E7526000E5F
:103D68007622772278220BD0F0A204D0F092B6EC1B
:103D78001DF005D0F2A203D0F292E1EC1DF07A9288
:103D8800110006C008F007C009F002D0064A072A49
:103D980006C0F6FF07C0F7FF000EF86E0F0EF764B7
:103DA80003D00800F55005D0F6CFE1FFF7CFE2FFCA
:103DB800E7500009D8A4EAD70850065C066E0950F7
:103DC8000758076E120088EC20F0000E8C6E000E6B
:103DD800956E000E8A6E93829388938A938C938E45
:103DE80092988998A00E136E860E146E010E156EA9
:103DF800000E166E5DEC1DF00F0EC16EF086C3EC62
:103E08001CF0F28E1200010E0C6E200E0618071020
:103E1800D8B414D0F70E086EFF0E096E06C00AF06B
:103E280007C00BF008500A2609500B220B5004E17A
:103E3800050E0A5CD8A002D0000E0C6E0CC006F06D
:103E4800076A1200000E196E000E186E0BD017C00C
:103E58000AF00B6A15C00CF016C00DF08DEC1CF0C2
:103E6800184A192A18501324D96E19501420DA6EDA
:103E7800DF50176E1750D8B41200E9D79F0E086E9E
:103E8800FF0E096E200E06100A6E000E07100B6E4C
:103E980008500A2609500B220B5006E11A0E0A5C3C
:103EA800D8B002D0010E01D0000E066E076A1200CB
:103EB80019BE05D0195010E11804D8B00DD018C09B
:103EC8001AF019C01BF01A1E1B1E1A4A1B2A1AC008
:103ED80018F01BC019F0120018C018F019C019F01A
:103EE80012009F0E086EFF0E096E06C00AF007C08A
:103EF8000BF008500A2609500B220B5006E11A0E47
:103F08000A5CD8B002D0010E01D0000E066E076A16
:103F18001200BF0E086EFF0E096E06C00AF007C039
:103F28000BF008500A2609500B220B5006E11A0E16
:103F38000A5CD8B002D0010E01D0000E066E076AE6
:103F48001200D00E086EFF0E096E06C00AF007C0F8
:103F58000BF008500A2609500B220B5006E10A0EF6
:103F68000A5CD8B002D0010E01D0000E066E076AB6
:103F78001200CAEC20F0000E086E110E076EBDECA0
:103F880020F0010E23EC20F0096EC6EC20F0310E73
:103F98000918D8A402D0010E1200000E1200000E5B
:103FA800F2BE010E066EF29E8C86140EE82EFED727
:103FB80000D08C96530EE82EFED700F006B002D043
:103FC800F29E01D0F28E1200948494829B0ECB6EE6
:103FD800BD9EBD9CBD86BD84BD92BD90BA86BA8487
:103FE800BA92BA90CA80CA82CA84949494921200EF
:103FF8009F0E646E000E656E000E0001976F000E36
:10400800986F9DC099F09EC09AF0640E9B6F000E49
:104018009C6F8BEC1DF0120006500802F3CF0AF0DB
:10402800F4CF0BF006500902F3500B260750080294
:10403800F3500B260AC006F00BC007F01200076EFB
:104048009FEC20F0C5869FEC20F0C9CF08F09FECCC
:1040580020F007B002D0C59A01D0C58AC58808509B
:104068001200CAEC20F0000E086E100E076EBDECB0
:1040780020F0000E086E410E076EBDEC20F0C6EC75
:1040880020F01200CAEC20F0000E086E100E076E29
:10409800BDEC20F0000E086E320E076EBDEC20F06D
:1040A800C6EC20F01200CAEC20F0000E086E100ECC
:1040B800076EBDEC20F0000E086E310E076EBDECE9
:1040C80020F0C6EC20F01200CAEC20F0000E086EBA
:1040D800100E076EBDEC20F0000E086E330E076E52
:1040E800BDEC20F0C6EC20F01200D59ED59CD59AE8
:1040F800D596F80ED516FB0ED76E1E0ED66ED58E3B
:10410800F28AF28EF28C1200010E796E010E000115
:10411800F36F9480968293849380F088F2881200DB
:10412800076E8C500F0B8C6E0738F00B8C108C6E52
:10413800D3EC1FF01200C7B4FED7C5CF06F01F0E90
:104148000616D8B41200F7D7086E08380F0B94EC8F
:1041580020F0085094EC20F01200096E8C8409506D
:10416800A8EC20F01200096E8C940950A8EC20F0FD
:1041780012009FEC20F007C0C9FF1200286E756C72
:104188006C2900019FEC20F0C58412009FEC20F000
:05419800C580120001CA
:10FE5E00003132334134353642373839432A302374
:10FE6E00440000370E0213021300041010E80300C2
:10FE7E0000501040544952452E204F4E20504F4CAA
:10FE8E00453A2000283129202832292028332920DC
:10FE9E002834290028322920534156452026204552
:10FEAE0058495400283229205155495420444F2096
:10FEBE004E4F54005449522E20535550504C4945E4
:10FECE00442000253032782F253032782F253032DD
:10FEDE007800253032783A253032783A253032782B
:10FEEE00005449522E204445504C4F593A20002878
:10FEFE0031204953204F4C44455354290028312971
:10FF0E0020504F4C4520494E464F0028322920564E
:10FF1E00494557204C4F475300313C2D20322D3E42
:10FF2E0020334D454E55004F502E20434F4D504CD3
:10FF3E00455445002831292056494557204C4F47F6
:10FF4E00004F5045524154494F4E20494E004C658A
:10FF5E006176696E6720506F6C650053454C454362
:10FF6E0054204C4F47002564206F6E20706F6C65D7
:10FF7E00004F502E2054494D4520005449524520E3
:10FF8E0044524F5000283129205354415254007787
:10FF9E00726F74653A2025630057454C434F4D45AB
:10FFAE00200053415645204C4F470050524F475268
:10FFBE0045535300726561643A202563002573250D
:10FFCE0064257325640025732564257300504F4CFA
:10FFDE00452000413A20256400423A202564002540
:10FFEE006C75006C58006C64006C69006C78002FA6
:02FFFE00000001
:020000040020DA
:08000000FFFFFFFFFFFFFFFF00
:020000040030CA
:0E000000FF021E1EFF8381FF0F400FE00F4026
:00000001FF
