:020000040000FA
:0400000007EF00F016
:100008007A8219ED1AF056EF17F04EC0D9FF4FC09B
:10001800DAFFDECFF6FFDDCFF7FF0800F550250A3F
:10002800D8A416D24EC0D9FF4FC0DAFFDE2A000E80
:10003800DD22000E0001DD6F000EDC6FDCC075F004
:10004800DDC076F0DE69DF69000E696E000E14D03F
:1000580075804EC0D9FF4FC0DAFFDE2A000EDD22C0
:100068002ED07582F6D77584F4D77586F2D7758841
:10007800F0D7000E696E010E686E21D04EC0D9FF10
:100088004FC0DAFFDECFF6FFDDCFF7FF0800F550EF
:10009800526E536A5350000AD8A4EBD75250200A24
:1000A800D8B4E3D7030AD8B4E2D7080AD8B4DBD760
:1000B800060AD8B4CDD71D0AD8B4D3D7DAD7685032
:1000C8006910D8B4DBD775B075924EC0D9FF4FC050
:1000D800DAFFDECFF6FFDDCFF7FF0800F5502A0A7A
:1000E800D8A424D04EC0D9FF4FC0DAFFDE2A000EB4
:1000F800DD2250C0D9FF51C0DAFFDFCF52F0020E27
:10010800DE26DFCF53F0000EDD2252C0D9FF53C0E8
:10011800DAFFDECFDCF0DDCFDDF00001DDAF3FD070
:100128007580DC6DDD1FD8B0DD2B39D04EC0D9FF0E
:100138004FC0DAFFDECF0DF0DDCF0EF046EC14F045
:100148000DC0DCF00EC0DDF007D04EC0D9FF4FC0A7
:10015800DAFFDE2A000EDD22D00E526EFF0E536E3D
:100168004EC0D9FF4FC0DAFFDECFF6FFDDCFF7FF75
:100178000800F550546E556A525054265350552273
:10018800555006E10A0E545CD8B002D0010E01D0D9
:10019800000E6A6E6B6A6A506B10D8A4D6D74EC030
:1001A800D9FF4FC0DAFFDECFF6FFDDCFF7FF08003B
:1001B800F550630AD8A426D04EC0D9FF4FC0DAFF45
:1001C800DE2A000EDD2250C0D9FF51C0DAFFDFCF92
:1001D80052F0020EDE26DFCF53F0000EDD2252C0B1
:1001E800D9FF53C0DAFFDF506C6E4CC025F04DC00C
:1001F80026F06CC027F0BFEC18F025C04CF026C0E4
:100208004DF012004EC0D9FF4FC0DAFFDECFF6FF27
:10021800DDCFF7FF0800F550640AD8B40DD04EC002
:10022800D9FF4FC0DAFFDECFF6FFDDCFF7FF0800BA
:10023800F550690AD8A43FD04EC0D9FF4FC0DAFFA5
:10024800DE2A000EDD2250C0D9FF51C0DAFFDFCF11
:1002580052F0020EDE26DFCF53F0000EDD2252C030
:10026800D9FF53C0DAFFDECF56F0DDCF57F0000ECE
:1002780057BEFF0E586E596E5A6E5B6E5C6E5D6EA1
:100288004CC025F04DC026F056C027F057C028F0C6
:1002980058C029F059C02AF05AC02BF05BC02CF086
:1002A8005CC02DF05DC02EF028EC0FF025C04CF09E
:1002B80026C04DF012004EC0D9FF4FC0DAFFDECF86
:1002C800F6FFDDCFF7FF0800F550730AD8A42AD04F
:1002D8004EC0D9FF4FC0DAFFDE2A000EDD2250C023
:1002E800D9FF51C0DAFFDFCF52F0020EDE26DFCF92
:1002F80053F0000EDD2252C0D9FF53C0DAFFDECF23
:1003080066F0DDCF67F04CC013F04DC014F066C046
:1003180015F067C016F0A6EC13F013C04CF014C02B
:100328004DF012004EC0D9FF4FC0DAFFDECFF6FF06
:10033800DDCFF7FF0800F550780AD8B40DD04EC0CD
:10034800D9FF4FC0DAFFDECFF6FFDDCFF7FF080099
:10035800F550580AD8A44DD04EC0D9FF4FC0DAFF87
:10036800DECFF6FFDDCFF7FF0800F5CF6CF04EC00B
:10037800D9FF4FC0DAFFDE2A000EDD2250C0D9FFB8
:1003880051C0DAFFDFCF52F0020EDE26DFCF53F086
:10039800000EDD2252C0D9FF53C0DAFFDECF54F081
:1003A800DDCF55F054C05EF055C05FF0606A616AF9
:1003B800626A636A646A656A4CC025F04DC026F0BB
:1003C8005EC027F05FC028F060C029F061C02AF045
:1003D80062C02BF063C02CF064C02DF065C02EF015
:1003E8006CC02FF04AEC10F025C04CF026C04DF040
:1003F80012004EC0D9FF4FC0DAFFDECFF6FFDDCFC7
:10040800F7FF0800F550250AD8A416D04EC0D9FF2A
:100418004FC0DAFFDE2A000EDD22000E0B6E250E1D
:100428000A6E4CC00CF04DC00DF0C8EC17F0000E71
:100438004D6E010E4C6E12004EC0D9FF4FC0DAFF50
:10044800DE2A000EDD22000E4D6E000E4C6E1200EC
:100458004EC0D9FF4FC0DAFFDECFF6FFDDCFF7FF82
:100468000800F5500A6E0B6A4CC00CF04DC00DF038
:10047800C8EC17F04EC0D9FF4FC0DAFFDE2A000ED5
:10048800DD22D5D7BBEC19F0000E01012E6F010E4D
:100498002D6F000E276F000E286F000E296F000EBB
:1004A8002A6F27C106F028C107F029C108F02AC120
:1004B80009F00A0E0A6E000E0B6E000E0C6E000E8E
:1004C8000D6E33EC18F00650071008100910D8A468
:1004D80052D1A9EC1BF0000E086ED00E076E9CECF2
:1004E8001BF0000E086E000E076E9CEC1BF0A5ECCE
:1004F8001BF0A9EC1BF0000E086ED10E076E9CECE9
:100508001BF0000E01012C6F200E2C25D96EDA6A23
:10051800010EDA22000E35EC1BF0DF6E01012C2BE8
:10052800050E2C65F1D7010E35EC1BF00101266F85
:10053800A5EC1BF020D1800E96EC1BF0070E0001F5
:10054800D46F7D0EE82EFED7D42FFCD7E70E00011E
:10055800806FFF0E816FBF0E826FFF0E836F0EECF0
:100568001BF0D30E0001806FFE0E816F26C182F052
:10057800836B25C184F0856B24C186F0876B0EECF4
:100588001BF0C00E96EC1BF0E20E0001806FFE0E11
:10059800816F22C182F0836B21C184F0856B20C1F9
:1005A80086F0876B0EEC1BF0900E96EC1BF0E70EB6
:1005B8000001806FFF0E816FAB0E826FFF0E836F9D
:1005C8000EEC1BF0D00E96EC1BF0E70E0001806FCE
:1005D800FF0E816F1B0E826FFF0E836F0EEC1BF0F8
:1005E800E3D0800E96EC1BF0070E0001D46F7D0E51
:1005F800E82EFED7D42FFCD7E70E0001806FFF0E40
:10060800816F510E826FFF0E836F0EEC1BF0C00ED0
:1006180096EC1BF0E70E0001806FFF0E816FD10E84
:10062800826FFF0E836F0EEC1BF056EC04F0010E88
:1006380096EC1BF0110E0001D46F3A0EE82EFED78F
:10064800D42FFCD700F0020E93D0800E96EC1BF04E
:10065800070E0001D46F7D0EE82EFED7D42FFCD7ED
:10066800E70E0001806FFF0E816F370E826FFF0E5D
:10067800836F0EEC1BF0C00E96EC1BF0E70E00012A
:10068800806FFF0E816F440E826FFF0E836F0EEC3A
:100698001BF0900E96EC1BF0E70E0001806FFF0E2A
:1006A800816FB40E826FFE0E836F0EEC1BF0D00EBE
:1006B80096EC1BF0E70E0001806FFF0E816FC80EED
:1006C800826FFF0E836F0EEC1BF0000E01012D6F81
:1006D8006BD0800E96EC1BF0070E0001D46F7D0ED8
:1006E800E82EFED7D42FFCD7E70E0001806FFF0E4F
:1006F800816F6B0E826FFF0E836F0EEC1BF0C00EC6
:1007080096EC1BF0E70E0001806FFF0E816FFF0E65
:10071800826FFE0E836F0EEC1BF0900E96EC1BF0B2
:10072800E70E0001806FFF0E816F940E826FFE0E40
:10073800836F0EEC1BF038D001012D51D8A405D0E1
:10074800E7EC18F0040E01012D6F2DC18EF00001A9
:100758008F6B58EC06F0010E96EC1BF0110E0001A1
:10076800D46F3A0EE82EFED7D42FFCD700F0000E37
:1007780001012E6F19D001012E510001D46FD56BE4
:10078800D551000AD8A410D0D451000AD8B4D3D671
:10079800010AD8B426D7030AD8B457D7010AD8B45F
:1007A80098D7070AD8B4C8D70001E851D8B469D097
:1007B800000EE86F81380F0B0F0B01012B6F610ED4
:1007C8002B25F66EF76AFE0EF7220800F5CF2FF1FB
:1007D800010E96EC1BF0110E0001D46F3A0EE82EB4
:1007E800FED7D42FFCD700F035D0310E01012F19D8
:1007F800D8A402D0010E12D0320E2F19D8A441D09D
:10080800030E0CD0310E01012F19D8A402D0040E0A
:1008180005D0320E2F19D8A434D0000E2E6F31D047
:10082800310E01012F19D8A402D0010E11D0320EB9
:100838002F19D8A402D0020E0BD0330E2F19D8A42A
:1008480002D0030E05D0340E2F19D8A41AD0340EB6
:100858002D6FDDD701012E510001D46FD56BD55115
:10086800000AD8A40ED0D451000AD8B4BED7010AC1
:10087800D8B407D0030AD8B4C5D7010AD8B4D0D79A
:10088800070A010E01012727000E282329232A23FE
:10089800040E0001D46F3D0EE82EFED7D42FFCD7EE
:1008A80000D0FFD5A9EC1BF0000E086E100E076EE5
:1008B8009CEC1BF0A5EC1BF058EC1BF0000E786EBE
:1008C800000E776E000E0001D16F000ECA6F000E89
:1008D800C96F3A0ECE6F980ECD6FE2C0BCF0E3C080
:1008E800BDF0E0C0BEF0E1C0BFF0000EA36F000E87
:1008F800A46F000EA56F000EA66FFAEC1AF0000E9A
:100908000001C66F000EC56F000EB96F000EB86FFC
:10091800000EBB6F000EBA6F9290929292949296CC
:100928009298898877C0C2F078C0C3F0640EC22557
:10093800A06F000EC321A16FA051775C7850800A88
:10094800A26FA151800AA259D8A0F0D781A802D0DD
:10095800010E01D0000ED36FD3C0CBF081AA02D014
:10096800010E01D0000ED26FD2C0CCF0010EB76FCD
:10097800000EC86F000EC76FC54BC62BD3C0CBF097
:1009880081A802D0010E01D0000ED36FD2C0CCF0E6
:1009980081AA02D0010E01D0000ED26F7750C75D38
:1009A800C851800AA06F7850800AA059D8B024D1C5
:1009B800C74BC82B21D1C5C006F0C6C007F0000E32
:1009C800096E640E086E90EC17F006500710D8A454
:1009D80040D0010E96EC1BF0110E0001A06F3A0EEC
:1009E800E82EFED7A02FFCD700F0F30E0001806F91
:1009F800FF0E816F77C082F078C083F00EEC1BF099
:100A0800900E96EC1BF0F30E0001806FFF0E816FC5
:100A1800D3C082F0836B0EEC1BF0C00E96EC1BF07B
:100A2800F60E0001806FFF0E816FE0C082F0E1C01A
:100A380083F00EEC1BF0D00E96EC1BF0F00E0001CC
:100A4800806FFF0E816FE2C082F0E3C083F00EEC8E
:100A58001BF0000E0001896F1E0E886F000E8A6F52
:100A6800000E8B6F800E8C6F3F0E8D6FBCC08EF0AA
:100A7800BDC08FF0BEC090F0BFC091F0CD0E926F98
:100A8800CC0E936FCC0E946F3D0E956FF6EC0DF077
:100A9800CDD0CDC088F0CEC089F05EEC0BF088C018
:100AA800C0F089C0C1F0010E96EC1BF0110E0001D8
:100AB800A06F3A0EE82EFED7A02FFCD700F0A10EAB
:100AC8000001806FFF0E816F0EEC1BF0C00E96ECDC
:100AD8001BF0760E0001806FFF0E816FC0C082F0A0
:100AE800C1C083F00EEC1BF0000E6D6E000E6C6E34
:100AF800010E6E6E010E6F6E000E716E000E706E3E
:100B08003DEC16F00001CD51775C7850800AA06F5B
:100B1800CE51800AA059D8A0F5D747EC1BF047EC76
:100B28001BF0000E0001CA6F010EC96F020ED16FD3
:100B3800010E96EC1BF0110E0001A06F3A0EE82E84
:100B4800FED7A02FFCD700F0A10E0001806FFF0E8A
:100B5800816F0EEC1BF0000E6D6E000E6C6E010EB8
:100B68006E6E010E6F6E000E716E000E706E3DECB3
:100B780016F05CD0CFEC1AF00001C46FC451D8B4A1
:100B880055D0C907D8A0CA07C951CA11D8A402D0DC
:100B9800000E04D047EC1BF049D0050ED16F46D0AB
:100BA800000ED06F000ECF6FD0BF06D0D05114E129
:100BB800210ECF5DD8B010D0D890CF35D96ED035B2
:100BC800DA6E300ED926010EDA22030EDE6E000E22
:100BD800DD6ECF4BD02BE8D7000E6D6E000E6C6E1D
:100BE800010E6E6E010E6F6E000E716E000E706E4D
:100BF8003DEC16F089981200D151A06FA16BA1515C
:100C0800000AD8A413D0A051000AD8B4D4D6010A37
:100C1800D8B43FD7030AD8B4ADD7010AD8B4B8D7E7
:100C2800070AD8B4BAD7010AD8B4BAD70001CD5147
:100C3800775C7850800AA06FCE51800AA059D8A05E
:100C48001AD0050ED16F17D0D351CB19D8A404D020
:100C5800D251CC19D8B490D6D351CB19D8B402D02C
:100C6800B84BB92BD251CC19D8B402D0BA4BBB2B44
:100C7800010ED16F81D6D151A06FA16BA151000A8D
:100C8800D8A47AD6A051000AD8B4DED7010AD8B4BD
:100C980073D6030AD8B470D6010AD8B46DD6070A39
:100CA800D8B46AD6010A68D6800E96EC1BF0070EF7
:100CB8000001906F7D0EE82EFED7902FFCD7000E16
:100CC8000001986F010E976F000E956F34D1800E5A
:100CD80096EC1BF0070E0001906F7D0EE82EFED7F4
:100CE800902FFCD78EC006F08FC007F0000E096E5B
:100CF800420E086E22EC1BF0300E0624D96E010E4F
:100D08000720DA6EDECF99F0DDCF9AF0E30E00010E
:100D1800806FFF0E816F970E826FFF0E836F99C0F1
:100D280084F09AC085F0E80E866FFF0E876F0EEC90
:100D38001BF0C00E96EC1BF08EC006F08FC007F0BB
:100D4800000E096E420E086E22EC1BF0320E0624CD
:100D5800D96E010E0720DA6EDECF99F0DDCF9AF05A
:100D6800DE0E0001806FFF0E816FC40E826FFE0ED3
:100D7800836F99C084F09AC085F00EEC1BF0900E3A
:100D880096EC1BF0E70E0001806FFF0E816F0D0ED1
:100D9800826FFF0E836F0EEC1BF0D00E96EC1BF0EB
:100DA800E70E0001806FFF0E816FA40E826FFE0EAA
:100DB800836F0EEC1BF0CED0800E96EC1BF0070E66
:100DC8000001906F7D0EE82EFED7902FFCD78EC0C5
:100DD80006F08FC007F0000E096E420E086E22EC76
:100DE8001BF0340E0624D96E010E0720DA6EDECF12
:100DF80099F0DDCF9AF0DA0E0001806FFF0E816F57
:100E0800EA0E826FFF0E836F97C084F098C085F05A
:100E1800FC0E866FFF0E876F99C088F09AC089F024
:100E28000EEC1BF0C00E96EC1BF097C090F098C02B
:100E380091F0D890000190379137D890903791373A
:100E48008EC006F08FC007F0000E096E420E086EC5
:100E580022EC1BF0300E0001926F010E936F020E10
:100E68009227000E93230650922707509323905100
:100E78009225D96E91519321DA6EDECF99F0DDCFAC
:100E88009AF0DE0E806FFF0E816FF10E826FFE0EFC
:100E9800836F99C084F09AC085F00EEC1BF0900E19
:100EA80096EC1BF097C090F098C091F0D890000194
:100EB80090379137D890903791378EC006F08FC011
:100EC80007F0000E096E420E086E22EC1BF0300E81
:100ED8000001926F010E936F040E9227000E932368
:100EE800065092270750932390519225D96E91511D
:100EF8009321DA6EDECF99F0DDCF9AF0DE0E806FA7
:100F0800FF0E816F840E826FFE0E836F99C084F08E
:100F18009AC085F00EEC1BF0D00E96EC1BF0E70E95
:100F28000001806FFF0E816F290E826FFF0E836FA5
:100F38000EEC1BF00FD000019551906F916B915101
:100F4800000AD8A407D09051000AD8B4C0D6010A24
:100F5800D8B432D70001E851D8B473D0000EE86F86
:100F680081380F0B0F0B946F610E9425F66EF76A9C
:100F7800FE0EF7220800F5CF96F0010E96EC1BF056
:100F8800110E0001906F3A0EE82EFED7902FFCD775
:100F980000F048D0310E9619D8A403D0010E956FF1
:100FA80050D0320E9619D8B412004BD0330E961981
:100FB800D8A407D0000E956F000E986F010E976F9A
:100FC80040D0320E9619D8A41ED08EC006F08FC01D
:100FD80007F0000E096E420E086E22EC1BF0340E6C
:100FE8000624D96E010E0720DA6EDE500001975DE7
:100FF8009851800A926FDE50800A9259D8B021D059
:10100800974B982B1ED0310E9619D8B498BF19D08B
:10101800985104E1020E975DD8A013D09707D8A085
:1010280098070FD000019551906F916B9151000A6C
:10103800D8A407D09051000AD8B4ACD7010AD8B4C4
:10104800B5D7040E0001906F3D0EE82EFED7902F05
:10105800FCD700D070D71750800B206E175017247C
:10106800266E16BE26802650D8B40DD02628D8A4C1
:1010780008D0000E146E000E156E000E166E000ECF
:10108800176E168E08D0000E146E000E156E000E28
:10109800166E000E176E1B50800B201A1B501B2457
:1010A800216E1ABE21802150D8B40DD02128D8A491
:1010B80008D0000E186E000E196E000E1A6E000E83
:1010C8001B6E1A8E08D0000E186E000E196E000ED8
:1010D8001A6E000E1B6E2150D8B403D02650D8A427
:1010E80009D0000E146E000E156E000E166E000E5E
:1010F800176E12001A501402F3CF2BF0F4CF2CF015
:101108002B50226E236A246A256A2C50276E286A7F
:10111800296A2A6A19501502F3CF2BF0F4CF2CF064
:101128002B502226000E2322242225222C5027264B
:10113800000E282229222A2218501602F3CF2BF05B
:10114800F4CF2CF02B502226000E23222422252215
:101158002C502726000E282229222A2224C025F0D6
:1011680023C024F022C023F0226A18501502F3CFBE
:101178002BF0F4CF2CF02B5022262C502322000EDB
:101188002422000E252219501402F3CF2BF0F4CF9D
:101198002CF02B5022262C502322000E2422000E45
:1011A800252224C025F023C024F022C023F0226A7F
:1011B80018501402F3CF2BF0F4CF2CF02B5022262A
:1011C8002C502322000E2422000E25221A5015022C
:1011D800F3CF2BF0F4CF2CF02B5027262C502822BD
:1011E800000E2922000E2A2219501602F3CF2BF0E6
:1011F800F4CF2CF02B5027262C502822000E292221
:10120800000E2A221A501602F3CF2BF0F4CF2CF03E
:101218002B501C6E2C501D6E1E6A1F6A1EC01FF0BC
:101228001DC01EF01CC01DF01C6A1C5027261D5036
:1012380028221E5029221F502A2222C01CF023C017
:101248001DF024C01EF025C01FF0190E05D0D8903F
:101258001F321E321D321C32E82EF9D71C502726A9
:101268001D5028221E5029221F502A2224C025F052
:1012780023C024F022C023F0226A215026C01CF08B
:101288001D6A1C26000E1D22820E1C242B6EFF0ECA
:101298001D202C6E0FD0D8902736283629362A36AE
:1012A80025BE2780D89022362336243625362B06AD
:1012B800D8A02C0629AEEFD7000E216E25AE17D088
:1012C800FF0E22141C6EFF0E23141D6EFF0E241435
:1012D8001E6E7F0E25141F6E1C501D101E101F1031
:1012E800D8B403D0010E216E02D027B0FBD721500D
:1012F800D8B41FD0010E2726000E282229222A2220
:101308002AA017D027C01CF028C01DF029C01EF045
:101318002AC01FF01F341F321E321D321C321CC05F
:1013280027F01DC028F01EC029F01FC02AF02B4A44
:101338002C2A2CBE0DD02C5003E12B28D8A008D085
:10134800000E276E000E286E800E296E7F0E20D0AC
:101358002CBE05D02C500EE12B04D8B00BD0000EBB
:10136800276E000E286E000E296E000E2A6E000EE3
:10137800206E0FD02BC026F0FF0E2716FF0E281662
:101388007F0E2916000E2A1626B0298ED8902630F0
:101398002A6E20502A1227C014F028C015F029C040
:1013A80016F02AC017F012003050800B396E3050FA
:1013B80030243B6E2FBE3B803B50D8B40DD03B2829
:1013C800D8A408D0000E2D6E000E2E6E000E2F6EC3
:1013D800000E306E2F8E06D0000E2D6E000E2E6E73
:1013E800000E2F6E000E306E3450800B3A6E39505E
:1013F8003A18D8A4398C345034243A6E33BE3A8023
:101408003A50D8B40DD03A28D8A408D0000E316E7E
:10141800000E326E000E336E000E346E338E06D020
:10142800000E316E000E326E000E336E000E346EFA
:101438003B503A5CD8B022D039AC02D0800E391A71
:101448003BC03CF03AC03BF03CC03AF02DC03CF009
:1014580031C02DF03CC031F02EC03CF032C02EF02F
:101468003CC032F02FC03CF033C02FF03CC033F00A
:1014780030C03CF034C030F03CC034F0000E3C6E5C
:101488003B503AC035F0366A355E000E365A36BEE5
:101498002CD0365004E11A0E355CD8A026D02D5039
:1014A8002E102F103010D8B402D0010E01D0000E2B
:1014B8003C6E000E2D6E000E2E6E000E2F6E000E6E
:1014C800306E3AC03BF015D03CA005D0D8903C30E7
:1014D80001093C6E02D0D8903C322DB03C8E30349D
:1014E80030322F322E322D323B2A3A503B5CD8A074
:1014F800EBD739BC28D03B50D8A409D0000E2D6EAC
:10150800000E2E6E000E2F6E000E306E120031503F
:101518002D2632502E2233502F223450302230A024
:1015280071D03CA005D0D8903C3001093C6E02D067
:10153800D8903C322DB03C8E303430322F322E329F
:101548002D323B2A5FD031502D5C32502E5833500B
:101558002F583050800A356E3450800A3558D8B02C
:1015680025D02D50315C356E2E503258366E2F50A6
:101578003358376E30503458386EFF0E35242D6E80
:10158800FF0E36202E6EFF0E37202F6EFF0E3820EE
:10159800306E800E391A3C6C3C50D8A40FD0010E26
:1015A8002D26000E2E222F22302208D031502D5EFB
:1015B80032502E5A33502F5A3450305A2D502E1044
:1015C8002F103010D8A41CD03C50D8A419D0000E2D
:1015D8002D6E000E2E6E000E2F6E000E306E120055
:1015E800D8902D362E362F3630363CBE2D803CA076
:1015F80002D0D88001D0D8903C363B50D8A43B06C6
:101608002FAEEED7000E3A6E3CAE0BD03CC035F094
:101618007F0E3516D8B403D0010E3A6E02D02DB025
:10162800FBD73A50D8B420D0010E2D26000E2E221A
:101638002F22302230A018D02DC035F02EC036F021
:101648002FC037F030C038F03834383237323632BD
:10165800353235C02DF036C02EF037C02FF038C0E7
:1016680030F03B28D8A43B2A3B28D8B403D03B50C1
:10167800D8A40DD0000E2D6E000E2E6E000E2F6E0B
:10168800000E306E3B50D8A402D0000E396E3BA03D
:1016980002D02F8E01D02F9ED8903B30306E39BEAD
:1016A800308E2DC02DF02EC02EF02FC02FF030C060
:1016B80030F01200000E0001916F010E906F000EC5
:1016C800936F010E926F50D081A803D0726A722A6C
:1016D80001D0726A72500001986F996B81AA03D089
:1016E800726A722A01D0726A725000019A6F9B6BFB
:1016F80098519911D8A408D090059111D8A404D074
:10170800E2C08AF0E3C08BF09A519B11D8A408D0AC
:1017180092059311D8A404D0E2C08CF0E3C08DF0F8
:1017280098519911D8A406D08A51E25D946F8B51D3
:10173800E359956F9A519B11D8A406D08C51E25D5C
:10174800966F8D51E359976F98519911D8B404D079
:101758009A519B11D8A412D098C090F099C091F0DA
:101768009AC092F09BC093F08851775C7850800AB9
:10177800726E8951800A7258D8A0A6D795BF06D034
:10178800955147E1AA0E945DD8B043D0000E6D6E16
:10179800000E6C6E010E6E6E010E6F6E000E716E95
:1017A800000E706E3DEC16F0000E076E640E066EAD
:1017B80088C008F089C009F0DBEC19F00ED0000EE3
:1017C8006D6E1E0E6C6E000E6E6E000E6F6E000E4D
:1017D800716E1E0E706E3DEC16F000018851775C3C
:1017E8007850800A726E8951800A7258D8B002D037
:1017F80081B8E5D7000E6D6E000E6C6E010E6E6E30
:10180800010E6F6E000E716E000E706E3DEC16F0DC
:1018180073D0000E6D6E000E6C6E010E6E6E010EB2
:101828006F6E000E716E000E706E3DEC16F0000EBD
:10183800076E640E066E88C008F089C009F0DBECFC
:1018480019F00ED0000E6D6E1E0E6C6E000E6E6ED0
:10185800000E6F6E000E716E1E0E706E3DEC16F06F
:1018680000018851775C7850800A726E8951800A2D
:101878007258D8B002D081B8E5D7E2C08EF0E3C084
:101888008FF00ED0000E6D6E1E0E6C6E000E6E6E1A
:10189800000E6F6E000E716E1E0E706E3DEC16F02F
:1018A80000018851775C7850800A726E8951800AED
:1018B8007258D8B09FD7E2518E5D186EE3518F5998
:1018C800196E6EEC1AF018C072F019C073F096C059
:1018D80006F097C007F0000E096E020E086ED3ECF2
:1018E80016F00650725C7350800A746E0750800AB6
:1018F8007458D8B07FD7C6D7000195BF06D0955188
:1019080011E1AA0E945DD8B00DD097BF06D09751BB
:1019180009E1AA0E965DD8B005D0000E896F000EB9
:10192800886F12009651945D186E97519559196EEB
:101938006EEC1AF019BE0CD0195004E1B50E185C03
:10194800D8A006D0000E0001896F010E886F120022
:10195800000E0001896F020E886F12003050800B54
:101968003D6E30503024446E2FBE44804450D8B46D
:101978000DD04428D8A408D0000E2D6E000E2E6E6F
:10198800000E2F6E000E306E2F8E06D0000E2D6EBC
:10199800000E2E6E000E2F6E000E306E3450800B2F
:1019A8003D1A34503424456E33BE45804550D8B472
:1019B8000DD04528D8A408D0000E316E000E326E26
:1019C800000E336E000E346E338E06D0000E316E6C
:1019D800000E326E000E336E000E346E315032102F
:1019E80033103410D8A417D0000E2D6E000E2E6EB2
:1019F800000E2F6E000E306E800E2F127F0E3012EA
:101A08003D5030122DC02DF02EC02EF02FC02FF0DB
:101A180030C030F012004450D8A409D0000E2D6E0A
:101A2800000E2E6E000E2F6E000E306E1200455006
:101A380044C035F0366A355E000E365A7F0E3524BE
:101A48003E6E000E36203F6E2DC039F02EC03AF0A3
:101A58002FC03BF030C03CF0000E2D6E000E2E6EF5
:101A6800000E2F6E000E306E000E406E000E416E9E
:101A7800000E426E000E436E000E456E28D0455093
:101A8800D8B411D0D89039363A363B363C36D8904F
:101A98002D362E362F36303643BE2D80D890403620
:101AA8004136423643363150395C32503A58335019
:101AB8003B5834503C58D8A009D0438C3150395E3B
:101AC80032503A5A33503B5A34503C5A452A190E30
:101AD8004564D5D739503A103B103C10D8B411D0D2
:101AE80040800FD0D8902D362E362F36303643BE54
:101AF8002D80D89040364136423643363E06D8A02F
:101B08003F062FAEEFD7000E456E43AE17D0FF0E3F
:101B18004014356EFF0E4114366EFF0E4214376EB8
:101B28007F0E4314386E3550361037103810D8B43D
:101B380003D0010E456E02D02DB0FBD74550D8B466
:101B48001FD0010E2D26000E2E222F22302230A06B
:101B580017D02DC035F02EC036F02FC037F030C06A
:101B680038F03834383237323632353235C02DF025
:101B780036C02EF037C02FF038C030F03E4A3F2A2A
:101B88003FBE10D03F5003E13E28D8A00BD0000E36
:101B98003F6E3E68000E2D6E000E2E6E000E2F6EEC
:101BA800000E306E3FBE05D03F5011E13E04D8B064
:101BB8000ED0000E3F6E000E3E6E000E2D6E000E13
:101BC8002E6E000E2F6E000E306E000E3D6E3EC063
:101BD80044F044A002D02F8E01D02F9ED8904430DC
:101BE800306E0ED78AC031F08BC032F08CC033F023
:101BF8008DC034F000019051E05D966F9151E1592C
:101C0800976F96C006F097C007F0000E07BEFF0E4C
:101C1800086E096E010E06EC13F006C02DF007C021
:101C28002EF008C02FF009C030F0B2EC0CF02DC037
:101C38004AF02EC04BF02FC04CF030C04DF00001E0
:101C48008E51E25D986F8F51E359996F98C006F0F5
:101C580099C007F0000E07BEFF0E086E096E010E50
:101C680006EC13F006C046F007C047F008C048F07D
:101C780009C049F032EC19F046C04EF047C04FF0A9
:101C880048C050F049C051F0E0EC15F04EC09AF051
:101C98004FC09BF092C018F093C019F094C01AF08E
:101CA80095C01BF09AC006F09BC007F0000E07BE57
:101CB800FF0E086E096E010E06EC13F006C014F054
:101CC80007C015F008C016F009C017F02FEC08F08F
:101CD80014C04AF015C04BF016C04CF017C04DF0B8
:101CE80088C006F089C007F0000E07BEFF0E086E18
:101CF800096E010E06EC13F006C046F007C047F067
:101D080008C048F009C049F032EC19F046C04EF05E
:101D180047C04FF048C050F049C051F0E0EC15F012
:101D28004EC09CF04FC09DF092C018F093C019F0BF
:101D380094C01AF095C01BF09AC006F09BC007F03B
:101D4800000E07BEFF0E086E096E010E06EC13F0BA
:101D580006C014F007C015F008C016F009C017F047
:101D68002FEC08F014C031F015C032F016C033F073
:101D780017C034F08AC018F08BC019F08CC01AF064
:101D88008DC01BF088C006F089C007F0000E07BEA2
:101D9800FF0E086E096E010E06EC13F006C014F073
:101DA80007C015F008C016F009C017F02FEC08F0AE
:101DB80014C02DF015C02EF016C02FF017C030F04B
:101DC800D8EC09F02DC04EF02EC04FF02FC050F0C7
:101DD80030C051F0E0EC15F04EC09EF04FC09FF0BF
:101DE80000019DBF0AD09D5104E1650E9C5DD8A0FD
:101DF80004D0000E9D6F640E9C6F9DAF04D0000E42
:101E08009D6F000E9C6F9FBF0AD09F5104E1650E25
:101E18009E5DD8A004D0000E9F6F640E9E6F9FAF8A
:101E280004D0000E9F6F000E9E6F9CC06CF09DC08A
:101E38006DF0010E6E6E010E6F6E9EC070F09FC049
:101E480071F03DEC16F0120027C03FF028C040F0BA
:101E580029C041F02AC042F02BC043F02CC044F006
:101E68002DC045F02EC046F046AE02D0010E01D07E
:101E7800000E3D6E3E6A3D503E10D8B410D0461E4E
:101E8800451E441E431E421E411E401E3F6C000E4E
:101E98004022412242224322442245224622000176
:101EA800DFAF7592DFBF05D0DF5108E1DE05D8B09E
:101EB80005D0000E3A6E010E396E04D0DEC039F03E
:101EC800DFC03AF0DCC03BF0DDC03CF03D503E10D6
:101ED800D8A402D075A403D03B06D8A03C06000EB7
:101EE800486E1F0E476E000E01011F6F7CD047061B
:101EF800D8A04806000E4724D96E010E4820DA6E95
:101F08003FC006F040C007F041C008F042C009F0E9
:101F180043C00AF044C00BF045C00CF046C00DF0B9
:101F28000A0E0E6E000E0F6E000E106E000E116E71
:101F3800000E126E000E136E000E146E000E156E5B
:101F4800E6EC14F006C02FF007C030F008C031F0FE
:101F580009C032F00AC033F00BC034F00CC035F0C1
:101F68000DC036F02FC018F031C019F06EEC1AF021
:101F78001850300FDF6E3906D8A03A063B06D8A0B5
:101F88003C063FC006F040C007F041C008F042C020
:101F980009F043C00AF044C00BF045C00CF046C03D
:101FA8000DF00A0E0E6E000E0F6E000E106E000E73
:101FB800116E000E126E000E136E000E146E000EDF
:101FC800156E62EC12F006C03FF007C040F008C082
:101FD80041F009C042F00AC043F00BC044F00CC005
:101FE80045F00DC046F048BE1FD0485003E14704F5
:101FF800D8A01AD03F50401041104210431044104E
:1020080045104610D8A473D73ABE05D03A5002E11D
:102018003904D8B06CD73CBE07D03C5003E13B0430
:10202800D8A002D075B263D73D503E10D8A402D0D4
:1020380075A417D04706D8A048063D503E10D8A42E
:1020480004D0000E386E2B0E03D0000E386E2D0E05
:10205800376E000E4724D96E010E4820DA6E37C05D
:10206800DFFF25C01AF026C01BF0000E47241C6EA7
:10207800010E48201D6E3BC01EF03CC01FF088ECCE
:1020880016F01AC025F01BC026F012000001DFAFC1
:102098007592DFBF05D0DF5108E1DE05D8B005D065
:1020A800000E3D6E010E3C6E04D0DEC03CF0DFC079
:1020B8003DF0DCC03EF0DDC03FF075A804D0FE0E58
:1020C8003E26FF0E3F2227C040F028C041F029C01D
:1020D80042F02AC043F02BC044F02CC045F02DC07C
:1020E80046F02EC047F0000E496E1F0E486E000ED7
:1020F80001011F6F93D04806D8A049060F0E40145F
:102108004A6E4B6A4BBE08D04B5004E10A0E4A5C3B
:10211800D8A002D0570E01D0300E4A244A6E000EC5
:102128004B204B6EBF0E306EFF0E316E2F50326E4D
:10213800336A3050322631503322335006E11A0EBA
:10214800325CD8B002D0010E01D0000E386E396A68
:1021580038503910D8B427D09F0E306EFF0E316E2C
:10216800200E4A10326E000E4B10336E305032265D
:1021780031503322335006E11A0E325CD8B002D007
:10218800010E01D0000E3A6E3B6A3A503B10D8B4AB
:102198000AD04AC00CF04BC00DF00DEC19F00CC081
:1021A8004AF00DC04BF0000E4824D96E010E4920AC
:1021B800DA6E4AC0DFFF3C06D8A03D063E06D8A02E
:1021C8003F0640C030F041C031F042C032F043C059
:1021D80033F044C034F045C035F046C036F047C04F
:1021E80037F0050E09D0D8903732363235323432CE
:1021F8003332323231323032E82EF5D730C040F047
:1022080031C041F032C042F033C043F034C044F032
:1022180035C045F036C046F037C047F049BE20D03B
:10222800495004E1020E485CD8A01AD04050411031
:10223800421043104410451046104710D8A45BD7ED
:102248003DBE05D03D5002E13C04D8B054D73FBE56
:1022580007D03F5003E13E04D8A002D075B24BD757
:1022680075A816D04806D8A04906000E4824D96E8D
:10227800010E4920DA6E2FC0DFFF4806D8A04906B4
:10228800000E4824D96E010E4920DA6E300EDF6E3A
:1022980025C01AF026C01BF0000E48241C6E010E43
:1022A80049201D6E3EC01EF03FC01FF088EC16F09E
:1022B8001AC025F01BC026F012005BBE1200000EEB
:1022C800066E000E076EC80E086E420E096E58C0E4
:1022D8000AF059C00BF05AC00CF05BC00DF078EC56
:1022E80015F0D8A012005FBE1200000E066E000E98
:1022F800076EC80E086E420E096E5CC00AF05DC01B
:102308000BF05EC00CF05FC00DF078EC15F0D8A0B3
:102318001200010ECB24626E636A000E6322000E67
:10232800316E000E326EC80E336E420E346E000EE1
:10233800186E000E196E800E1A6E400E1B6E58C075
:1023480014F059C015F05AC016F05BC017F02FEC06
:1023580008F014C02DF015C02EF016C02FF017C0CD
:1023680030F0B2EC0CF02DC068F02EC069F02FC030
:102378006AF030C06BF062C006F063C007F0086A0C
:10238800096A000E06EC13F006C018F007C019F031
:1023980008C01AF009C01BF068C014F069C015F035
:1023A8006AC016F06BC017F02FEC08F014C04EF09E
:1023B80015C04FF016C050F017C051F0E0EC15F002
:1023C8004EC064F04FC065F0000E316E000E326EE4
:1023D800C80E336E420E346E000E186E000E196E63
:1023E800800E1A6E400E1B6E5CC014F05DC015F0B6
:1023F8005EC016F05FC017F02FEC08F014C02DF087
:1024080015C02EF016C02FF017C030F0B2EC0CF04B
:102418002DC068F02EC069F02FC06AF030C06BF094
:1024280062C006F063C007F0086A096A000E06EC8D
:1024380013F006C018F007C019F008C01AF009C058
:102448001BF068C014F069C015F06AC016F06BC0C4
:1024580017F02FEC08F014C04EF015C04FF016C05E
:1024680050F017C051F0E0EC15F04EC066F04FC0C8
:1024780067F0BD9A64A002D0BD8801D0BD9864C041
:1024880060F065C061F0D89061326032D8906132F6
:1024980060326050BE6EBA9A66A002D0BA8801D087
:1024A800BA9866C060F067C061F0D8906132603257
:1024B800D890613260326050BB6E1200000E176E09
:1024C80015AE12D0151E141E131E121E111E101E3C
:1024D8000F1E0E6C000E0F22102211221222132240
:1024E80014221522010E176E0DAE12D00D1E0C1EF1
:1024F8000B1E0A1E091E081E071E066C000E072268
:10250800082209220A220B220C220D22010E171A78
:1025180020EE18F0070EDE6AE806FDE20E500F10F6
:10252800101011101210131014101510D8B446D032
:10253800010E166E0AD0D8900E360F3610361136A8
:102548001236133614361536162A15AEF4D7D89027
:10255800183619361A361B361C361D361E361F36E7
:102568000E50065C0F500758105008581150095863
:1025780012500A5813500B5814500C5815500D5837
:10258800D8A011D00E50065E0F50075A1050085AA6
:102598001150095A12500A5A13500B5A14500C5A17
:1025A80015500D5A1880D890153214321332123241
:1025B800113210320F320E32162EC9D71750D8B436
:1025C80010D01F1E1E1E1D1E1C1E1B1E1A1E191E8D
:1025D800186C000E19221A221B221C221D221E22F0
:1025E8001F2218C006F019C007F01AC008F01BC057
:1025F80009F01CC00AF01DC00BF01EC00CF01FC073
:102608000DF012000E6E0E50D8A409AE1AD006C0F6
:102618000AF007C00BF008C00CF009C00DF00A1E44
:102628000B1E0C1E0D1E0A2A000E0B220C220D2258
:102638000AC010F00BC011F00CC012F00DC013F05E
:1026480008D006C010F007C011F008C012F009C089
:1026580013F00650071008100910D8A409D0000E6E
:10266800066E000E076E000E086E000E096E120050
:10267800960E0F6E06D00F2AD890133212321132EE
:102688001032000E10140A6E000E11140B6E000E9C
:1026980012140C6EFE0E13140D6E0A500B100C1053
:1026A8000D10D8B40DD0E7D70F2A010E1026000E52
:1026B800112212221322D890133212321132103200
:1026C800000E10140A6E000E11140B6E000E121478
:1026D8000C6EFF0E13140D6E0A500B100C100D101B
:1026E800D8B407D0E1D70F06D89010361136123675
:1026F800133612BE03D0020E0F60F5D70FA0129E3C
:10270800D8900F320FC00AF00B6A0C6A0D6A0AC023
:102718000DF00C6A0B6A0A6A0A5010120B5011125B
:102728000C5012120D5013120E50D8A409AE01D03D
:10273800138E10C006F011C007F012C008F013C0C5
:1027480009F0120020EEE9F010EE18F0060EDBCFCB
:10275800E3FFE806FCE215C023F016C024F023507E
:102768002410D8A404D0180E236E000E246E23C0A3
:1027780006F024C007F055EC19F006C027F007C092
:1027880028F0DEC025F0DFC026F026BE0ED0275088
:10279800255C2650800A176E2850800A1758D8B032
:1027A80004D025C027F026C028F027C025F028C06F
:1027B80026F0DCC021F0DDC022F075A00DD016D0C7
:1027C800000E0B6E200E0A6E13C00CF014C00DF034
:1027D800C8EC17F0274A282A2150275C2850800A7D
:1027E800176E2250800A1758D8A0EAD7000E206E1C
:1027F800000E1F6E1FD023C0F6FF24C0F7FF000E87
:10280800F86E0F0EF76403D00800F55005D0F6CF28
:10281800E1FFF7CFE2FFE750176E17500A6E0B6A19
:1028280013C00CF014C00DF0C8EC17F0234A242A8A
:102838001F4A202A25501F5C2050800A176E2650F8
:10284800800A1758D8A0D7D775B00DD016D0000E6B
:102858000B6E200E0A6E13C00CF014C00DF0C8ECFD
:1028680017F0274A282A2150275C2850800A176E1B
:102878002250800A1758D8A0EAD727C013F028C0DA
:1028880014F01200000E1B6E000E1A6E000E146E6D
:10289800000E136E02D00D4A0E2A010E196E0DC0DD
:1028A800F6FF0EC0F7FF0800F550200AD8B418D07C
:1028B800F70E0F6EFF0E106E0DC0F6FF0EC0F7FF7D
:1028C8000800F550116E126A0F501126105012228E
:1028D800125004E1050E115CD8A002D0000E196E4A
:1028E80019C015F0166A15501610D8B408D0D3D7E9
:1028F800000E146E010E136E0D4A0E2A2ED00DC056
:10290800F6FF0EC0F7FF0800F5500F6E106A105062
:10291800000AD8A422D00F502B0AD8B4EDD7060A43
:10292800D8B4E6D71AD01AC006F01BC007F0000EBC
:10293800096E0A0E086E22EC1BF00DC0F6FF0EC0E1
:10294800F7FF0800F550065E000E075A300E062401
:102958001A6E000E07201B6ECFD7D00E0F6EFF0E1B
:10296800106E0DC0F6FF0EC0F7FF0800F550116E8F
:10297800126A0F50112610501222125006E10A0E48
:10298800115CD8B002D0010E01D0000E176E186A83
:1029980017501810D8A4C7D713501410D8A40DD0A6
:1029A8001AC00FF01BC010F00F1E101E0F4A102A7D
:1029B8000FC00DF010C00EF012001AC00DF01BC0B1
:1029C8000EF01200000E176E0DAE12D00D1E0C1E6A
:1029D8000B1E0A1E091E081E071E066C000E072283
:1029E800082209220A220B220C220D22010E176E40
:1029F80015AE10D0151E141E131E121E111E101E09
:102A08000F1E0E6C000E0F2210221122122213220A
:102A1800142215220E500F1010101110121013103E
:102A280014101510D8B43CD0010E166E0AD0D890E8
:102A38000E360F3610361136123613361436153652
:102A4800162A15AEF4D70E50065C0F5007581050D2
:102A580008581150095812500A5813500B5814505E
:102A68000C5815500D58D8A010D00E50065E0F50B7
:102A7800075A1050085A1150095A12500A5A13503E
:102A88000B5A14500C5A15500D5AD890153214324E
:102A980013321232113210320F320E32162ED3D7B1
:102AA8001750D8B410D00D1E0C1E0B1E0A1E091E7E
:102AB800081E071E066C000E0722082209220A2299
:102AC8000B220C220D2206C006F007C007F008C032
:102AD80008F009C009F00AC00AF00BC00BF00CC0DE
:102AE8000CF00DC00DF01200000E06140E6E000E54
:102AF80007140F6E800E0814106E7F0E0914116EE5
:102B08000E500F1010101110D8A408D0000E066E29
:102B1800000E076E000E086E000E096E000E0A14F5
:102B28000E6E000E0B140F6E800E0C14106E7F0EBE
:102B38000D14116E0E500F1010101110D8A408D0DB
:102B4800000E0A6E000E0B6E000E0C6E000E0D6E5F
:102B580009AE09D0066C071ED8B0072A081ED8B0DF
:102B6800082A800E09560DAE09D00A6C0B1ED8B083
:102B78000B2A0C1ED8B00C2A800E0D56000E061A11
:102B8800000E071A000E081A800E091A000E0A1AFB
:102B9800000E0B1A000E0C1A800E0D1A0A50065C55
:102BA8000B5007580C5008580D500958D8B002D08F
:102BB800D8901200D880120050345134576E5750B4
:102BC800D8A409D0000E4E6E000E4F6E000E506E47
:102BD800000E516E12004EC052F04FC053F050C05C
:102BE80054F051C055F0200E05D0D89055325432CB
:102BF80053325232E82EF9D75250566E508EFF0E8D
:102C08004E16FF0E4F16FF0E5016000E5116960E5A
:102C1800575E57AE0DD05750800A970FD8A0D2D71D
:102C2800D890513250324F324E32573EF9D70DD0EC
:102C38001F0E576407D0C6D7D8904E364F36503639
:102C4800513657065750D8A4F7D75650D8B408D09D
:102C5800511E501E4F1E4E6C000E4F225022512204
:102C68004EC04EF04FC04FF050C050F051C051F020
:102C780012006E50D8B403D08980899202D089900E
:102C880089826F50D8B403D08984899602D08994F8
:102C980089866CC006F06DC007F0000E07BEFF0EF7
:102CA800086E096E010E06EC13F006C080F007C02E
:102CB80081F008C082F009C083F070C006F071C0CE
:102CC80007F0000E07BEFF0E086E096E010E06EC37
:102CD80013F006C084F007C085F008C086F009C06C
:102CE80087F080C058F081C059F082C05AF083C084
:102CF8005BF084C05CF085C05DF086C05EF087C084
:102D08005FF061EC11F0120075A00AD01CC013F03E
:102D18001DC014F01AC015F01BC016F038EC1AF0DC
:102D28001FBE05D01EC023F01FC024F004D0000E23
:102D3800246E000E236E000E226E000E216E0CD043
:102D4800000E0B6E200E0A6E1AC00CF01BC00DF0A0
:102D5800C8EC17F0214A222A2350215C2250800A0D
:102D6800206E2450800A2058D8A0EAD775B00AD01F
:102D78001CC013F01DC014F01AC015F01BC016F0CB
:102D880038EC1AF01CC006F01DC007F055EC19F01D
:102D9800235006241A6E245007201B6E1200000EC2
:102DA8000B6E09AE06D0086C091ED8B0092A010EB0
:102DB8000B6E07AE06D0066C071ED8B0072A010EA8
:102DC8000B1A000E0D6E000E0C6E08500910D8B4C8
:102DD8001CD0010E0A6E04D0D890083609360A2A8B
:102DE80009AEFAD7D8900C360D360850065C095053
:102DF8000758D8A005D00850065E0950075A0C801D
:102E0800D890093208320A2EEDD70B50D8B404D026
:102E18000C6C0D1ED8B00D2A0CC006F00DC007F0C2
:102E28001200000E0E6E000E0F6E000E106E000ED9
:102E3800116E0A500B100C100D10D8B42AD0010EC8
:102E4800126E06D0D8900A360B360C360D36122A7A
:102E58000DAEF8D7D8900E360F36103611360A5008
:102E6800065C0B5007580C5008580D500958D8A04C
:102E780009D00A50065E0B50075A0C50085A0D50DC
:102E8800095A0E80D8900D320C320B320A32122EAB
:102E9800E1D70EC006F00FC007F010C008F011C04F
:102EA80009F01200420EF66E370EF76E000EF86E3D
:102EB80000EEE9F010EE08F00900F5CFEEFFE5505E
:102EC800E150FAE15A0EF66E370EF76E000EF86E04
:102ED8000900F5CF79F001EE30F011EE4AF0EE6A14
:102EE800E550E150FCE1E250FAE101EE00F0200E7D
:102EF800EE6AE806FDE100EED6F0130EEE6AE8068B
:102F0800FDE1786A776A766A756A7A907A92000E35
:102F1800F86E000146EF02F0000E0B6E07AE06D009
:102F2800066C071ED8B0072A010E0B6E09AE04D036
:102F3800086C091ED8B0092A08500910D8B418D04E
:102F4800010E0A6E04D0D890083609360A2A09AE4E
:102F5800FAD70850065C09500758D8A004D0085082
:102F6800065E0950075AD890093208320A2EF1D75E
:102F78000B50D8B404D0066C071ED8B0072A06C078
:102F880006F007C007F012000C500D10D8B404D09A
:102F98000C500D10D8A404D00A5090EC1BF012006D
:102FA80020EE04F00C50D9260D50DA22DE50DE1047
:102FB800D8B416D020EE04F00C50D9260D50DA22E1
:102FC80010EE02F00C50E1260D50E222DE50E65CD5
:102FD800E650800A126EDE50800A1258D8B01200ED
:102FE80020EE02F00C50D9260D50DA22DE2A000E0F
:102FF800DD221200310E0A6EB20EE82EFED70A2E1E
:10300800FCD700D08C94030E73EC1BF0110E0A6EE3
:103018003A0EE82EFED70A2EFCD700D0030E73EC2A
:103028001BF07D0EE82EFED7320E87EC1BF0280E23
:1030380087EC1BF0080E87EC1BF0010E87EC1BF0E9
:10304800110E0A6E3A0EE82EFED70A2EFCD700D0D3
:10305800060E87EC1BF00C0E96EC1BF012000A50C3
:103068000B100C100D10D8B424D0010E0E6E06D023
:10307800D8900A360B360C360D360E2A0DAEF8D718
:103088000A50065C0B5007580C5008580D50095848
:10309800D8A008D00A50065E0B50075A0C50085AA0
:1030A8000D50095AD8900D320C320B320A320E2EBE
:1030B800E7D706C006F007C007F008C008F009C047
:1030C80009F01200C69A94869488800E066E960EB1
:1030D800076E980E086E000E096E13C017F014C024
:1030E80018F015C019F016C01AF0020ED89017364D
:1030F800183619361A36E82EF9D717C00AF018C04C
:103108000BF019C00CF01AC00DF015EC17F00604FE
:10311800C86E800EC76E280EC66E000EC56E1200F1
:103128006FC073F070C074F0000E0001DB6F000E0A
:10313800DA6F13D06DC04CF06EC04DF0730E4E6E4A
:10314800000E4F6E71C050F072C051F009EC00F0E3
:103158004C500001DA274D50DB2373C0F6FF74C0D2
:10316800F7FF0800F5500009D8A4E4D7DAC06DF0DD
:10317800DBC06EF012000001DC51DD11D8A405D0CF
:10318800DCC028F0DDC029F006D0FF0EDC25286E53
:10319800FF0EDD21296E27C000F1000E0101016F2D
:1031A80025C01AF026C01BF0000E1C6E010E1D6E05
:1031B80028C01EF029C01FF088EC16F01AC025F0B0
:1031C8001BC026F01200000E076E000E066ED89087
:1031D8000634D96E0734DA6E300ED926010EDA229B
:1031E800D8900634E16E0734E26E380EE126020EFE
:1031F800E222DECFE6FFDDCFE5FF064A072A07BE5B
:10320800E6D7075005E1210E065CD8B01200DFD7DB
:1032180012009F0E0E6EFF0E0F6E0CC010F00DC048
:1032280011F00E5010260F501122115006E11A0EFF
:10323800105CD8B002D0010E01D0000E126E136AD5
:1032480012501310D8B405D05F0E0C140C6E0D6A12
:1032580012000CC00CF00DC00DF01200000E4A1A3E
:10326800000E4B1A000E4C1A800E4D1A46C02DF057
:1032780047C02EF048C02FF049C030F04AC031F0A6
:103288004BC032F04CC033F04DC034F0D8EC09F0EC
:103298002DC046F02EC047F02FC048F030C049F08E
:1032A800120006C008F007C009F002D0064A072A33
:1032B80006C0F6FF07C0F7FF000EF86E0F0EF764A2
:1032C80003D00800F55005D0F6CFE1FFF7CFE2FFB5
:1032D800E7500009D8A4EAD70850065C066E0950E2
:1032E8000758076E120081A403D0016A012A01D091
:1032F800016A0150026E036A82A003D0016A012AA2
:1033080001D0016A0150046E056A0250041808E1F0
:1033180003500518D8A404D00001E04BE12B12009B
:103328000001E007D8A0E107120081A003D0016ADC
:10333800012A01D0016A0150026E036A84A203D0F7
:10334800016A012A01D0016A0150046E056A02501F
:10335800041809E103500518D8A405D00001E207B4
:10336800D8A0E30712000001E24BE32B120067EC40
:103378001BF0000E8C6E000E956E000E8A6E938206
:103388009388938A938C938E92988998A00E136E43
:10339800860E146E010E156E000E166E66EC18F091
:1033A8000F0EC16EF086FEEC17F0F28E120077C099
:1033B8000DF078C00EF00850775C7850800A0A6EDD
:1033C8000950800A0A58D8B012000D50775C0A6E6E
:1033D8000E5078580B6E06500A5C0B50800A0C6E23
:1033E8000750800A0C58D8B01200E5D7010E0C6EB1
:1033F800200E06180710D8B414D0F70E086EFF0E6A
:10340800096E06C00AF007C00BF008500A260950DA
:103418000B220B5004E1050E0A5CD8A002D0000E66
:103428000C6E0CC006F0076A12000600F0A005D06A
:10343800010E0001E86FF09015D0F2A408D0F294C4
:10344800FB0ED76E1E0ED66E774A782A0BD0F0A2E6
:1034580004D0F09277EC19F005D0F2A203D0F292E2
:1034680099EC19F07A921100000E196E000E186E80
:103478000BD017C00AF00B6A15C00CF016C00DF07F
:10348800C8EC17F0184A192A18501324D96E195085
:103498001420DA6EDF50176E1750D8B41200E9D72F
:1034A8009F0E086EFF0E096E200E06100A6E000EA3
:1034B80007100B6E08500A2609500B220B5006E124
:1034C8001A0E0A5CD8B002D0010E01D0000E066EAA
:1034D800076A120019BE05D0195010E11804D8B0B7
:1034E8000DD018C01AF019C01BF01A1E1B1E1A4A5C
:1034F8001B2A1AC018F01BC019F0120018C018F0C7
:1035080019C019F012009F0E086EFF0E096E06C052
:103518000AF007C00BF008500A2609500B220B507E
:1035280006E11A0E0A5CD8B002D0010E01D0000ED6
:10353800066E076A1200BF0E086EFF0E096E06C0FF
:103548000AF007C00BF008500A2609500B220B504E
:1035580006E11A0E0A5CD8B002D0010E01D0000EA6
:10356800066E076A1200D00E086EFF0E096E06C0BE
:103578000AF007C00BF008500A2609500B220B501E
:1035880006E10A0E0A5CD8B002D0010E01D0000E86
:10359800066E076A1200A9EC1BF0000E086E110EE9
:1035A800076E9CEC1BF0010E35EC1BF0096EA5ECC8
:1035B8001BF0310E0918D8A402D0010E1200000E1B
:1035C8001200000EF2BE010E066EF29E8C86140EDC
:1035D800E82EFED700D08C96530EE82EFED700F0CA
:1035E80006B002D0F29E01D0F28E1200948494822A
:1035F8009B0ECB6EBD9EBD9CBD86BD84BD92BD900D
:10360800BA86BA84BA92BA90CA80CA82CA84949492
:1036180094921200820E00018C6F000E8D6F000EC6
:103628006D6E000E6E6E80C06FF081C070F08C0EF3
:10363800716E000E726E94EC18F0120006500802BB
:10364800F3CF0AF0F4CF0BF006500902F3500B2623
:1036580007500802F3500B260AC006F00BC007F00B
:103668001200076E7EEC1BF0C5867EEC1BF0C9CFFE
:1036780008F07EEC1BF007B002D0C59A01D0C58ACD
:10368800C58808501200A9EC1BF0000E086E100E39
:10369800076E9CEC1BF0000E086E310E076E9CEC5A
:1036A8001BF0A5EC1BF01200D59ED59CD59AD5969B
:1036B800F80ED516FB0ED76E1E0ED66ED58EF28A74
:1036C800F28EF28C1200010E796E010E0001F06F7D
:1036D8009480968293849380F088F2881200076E13
:1036E8008C500F0B8C6E0738F00B8C108C6EE5EC41
:1036F8001AF01200C7B4FED7C5CF06F01F0E061683
:10370800D8B41200F7D7086E08380F0B73EC1BF00B
:10371800085073EC1BF01200096E8C84095087EC7A
:103728001BF01200096E8C94095087EC1BF01200F4
:103738007EEC1BF007C0C9FF1200286E756C6C295F
:1037480000017EEC1BF0C58412007EEC1BF0C580E6
:033758001200015B
:10FE6000003132334134353642373839432A302372
:10FE7000440000370E0213021300041010E80300C0
:10FE800000501040544952452E204F4E20504F4CA8
:10FE9000453A2000283129202832292028332920DA
:10FEA0002834290028322920534156452026204550
:10FEB00058495400283229205155495420444F2094
:10FEC0004E4F54005449522E20535550504C4945E2
:10FED000442000253032782F253032782F253032DB
:10FEE0007800253032783A253032783A2530327829
:10FEF000005449522E204445504C4F593A20002876
:10FF000031204953204F4C4445535429002831296E
:10FF100020504F4C4520494E464F0028322920564C
:10FF2000494557204C4F475300313C2D20322D3E40
:10FF300020334D454E55004F502E20434F4D504CD1
:10FF4000455445002831292056494557204C4F47F4
:10FF5000004F5045524154494F4E20494E004545AF
:10FF600050524F4D2D44656D6F6E0053454C4543C7
:10FF700054204C4F47002564206F6E20706F6C65D5
:10FF80000077726F74653A2025636E007265616454
:10FF90003A2025636E6E004F502E2054494D452067
:10FFA00000544952452044524F50002831292053D3
:10FFB0005441525400726561643A2025636E0057C3
:10FFC000454C434F4D45200053415645204C4F472B
:10FFD0000050524F475245535300257325642573F3
:10FFE00025640025732564257300504F4C4520007F
:0FFFF000413A20256400423A202564002F00008A
:020000040020DA
:08000000FFFFFFFFFFFFFFFF00
:020000040030CA
:0E000000FF021F1EFF8381FF0F400FE00F4025
:00000001FF
